:020000040800F2
:1000000000800120A9320008393200083B32000884
:100010003D3200083F320008413200080000000075
:100020000000000000000000000000004332000853
:10003000453200080000000047320008493200083D
:10004000F9320008F9320008F9320008F9320008E4
:10005000F9320008F9320008F9320008F9320008D4
:10006000F9320008F9320008F9320008F9320008C4
:10007000F9320008F9320008F9320008F9320008B4
:10008000F9320008F9320008F9320008F9320008A4
:10009000F9320008F9320008F9320008F932000894
:1000A000F9320008F9320008F9320008F932000884
:1000B00051320008F9320008F9320008F93200081C
:1000C000F9320008F9320008F9320008F932000864
:1000D000F9320008F9320008F9320008F932000854
:1000E000F9320008F9320008F9320008F932000844
:1000F000F9320008F9320008F9320008F932000834
:10010000F9320008F9320008F9320008F932000823
:10011000F9320008F9320008F9320008F932000813
:10012000F9320008F9320008F9320008F932000803
:10013000F9320008F9320008F9320008F9320008F3
:10014000F9320008F9320008F9320008F9320008E3
:10015000F9320008F9320008F9320008F9320008D3
:10016000F9320008F9320008F9320008F9320008C3
:10017000F9320008F9320008F932000800000000E6
:08018000F9320008F932000811
:1001880010B5054C237833B9044B13B10448AFF3C9
:1001980000800123237010BDC8000020000000006B
:1001A8005433000808B5034B1BB103490348AFF3A8
:1001B800008008BD00000000CC0000205433000877
:1001C80053B94AB9002908BF00281CBF4FF0FF31B6
:1001D8004FF0FF3000F072B9ADF1080C6DE904CEB4
:1001E80000F006F8DDF804E0DDE9022304B070470A
:1001F8002DE9F047089E04468846002B4BD18A42D9
:10020800154667D9B2FA82F24AB1C2F1200701FA5B
:1002180002F320FA07F7954047EA030894404FEAAB
:10022800154E230CB8FBFEF71FFA85FC0EFB17884A
:1002380043EA084307FB0CF1994209D9EB1807F187
:10024800FF3080F01B81994240F21881023F2B4415
:100258005B1AA4B2B3FBFEF00EFB103344EA03446E
:1002680000FB0CFCA44509D92C1900F1FF3380F0E0
:100278000781A44540F2048102382C4440EA074033
:10028800A4EB0C0400271EB1D4400023C6E90043A8
:100298003946BDE8F0878B4209D9002E00F0EB8083
:1002A8000027C6E9000138463946BDE8F087B3FAA9
:1002B80083F7002F47D18B4202D3824200F2FA80A3
:1002C800841A61EB030301209846002EE0D0C6E9AA
:1002D8000048DDE702B9FFDEB2FA82F2002A40F0F8
:1002E8008F80491B4FEA154E1FFA85F80127B1FB8D
:1002F800FEFC230C0EFB1C1143EA014308FB0CF126
:10030800994207D9EB180CF1FF3002D2994200F25A
:10031800CD808446591AA3B2B1FBFEF00EFB10142F
:1003280043EA044408FB00F8A04507D92C1900F15A
:10033800FF3302D2A04500F2B6801846A4EB0804A9
:1003480040EA0C409FE7C7F1200CBB4022FA0CFEA4
:100358004EEA030E01FA07F420FA0CF521FA0CF321
:100368004FEA1E482543B3FBF8F92C0C08FB193358
:100378001FFA8EFA44EA034309FB0AF49C4202FA84
:1003880007F200FA07F10BD91EEB030309F1FF305E
:1003980080F087809C4240F28480A9F1020973446E
:1003A8001B1BADB2B3FBF8F008FB103345EA03445E
:1003B80000FB0AFAA24508D91EEB040400F1FF333A
:1003C8006BD2A24569D90238744440EA0940A0FBBF
:1003D8000289A4EB0A044C45C2464B4654D351D07B
:1003E800002E69D0B1EB0A0564EB030404FA0CFC97
:1003F800FD40FC404CEA0505C6E90054002747E7E4
:10040800C2F1200320FA03F7954001FA02F021FA1D
:1004180003F34FEA154E3843010CB3FBFEF71FFAFE
:1004280085F80EFB173341EA034107FB08F38B42BB
:1004380004FA02F407D9691807F1FF3C2FD28B425E
:100448002DD9023F2944CB1A81B2B3FBFEF00EFB33
:10045800103341EA034100FB08F38B4207D96918BE
:1004680000F1FF3C17D28B4215D902382944C91A2A
:1004780040EA07473BE73746304609E70746E7E6DD
:100488001846FBE64145ABD2B8EB020A69EB0E020F
:1004980001381346A4E76046E9E7184695E767463A
:1004A800D1E781467CE702382C4447E7ACF1020CDF
:1004B8002B442FE7384608E73746E9E6704700BF80
:1004C800104B1B680BB90120704710B504464FF458
:1004D8007A70B0FBF3F30C4A1068B0FBF3F000F04D
:1004E800A5F868B90F2C01D901200AE0002221469D
:1004F8004FF0FF3000F058F8024B5C60002000E03D
:10050800012010BD00000020C400002010B5094AD9
:10051800136843F480731360032000F033F800205D
:10052800FFF7CEFF10B10124204610BD044602F0AB
:10053800E1FDF9E700200240034A1368034909680E
:100548000B441360704700BFE40000200000002047
:10055800014B1868704700BFE400002038B5044616
:10056800FFF7F6FF0546B4F1FF3F02D0044B1B68C6
:100578001C44FFF7EDFF401BA042FAD338BD00BF73
:1005880000000020074AD36823F4E0631B041B0C17
:10059800000200F4E060184340F0BF6040F400300F
:1005A800D060704700ED00E030B4174BDB68C3F350
:1005B8000223C3F10704042C28BF04241D1D062DA3
:1005C80018D9033B4FF0FF3505FA04F421EA04017A
:1005D800994005FA03F322EA0303194300280BDBC9
:1005E8000901C9B200F1604000F5614080F80013CC
:1005F80030BC70470023E5E700F00F000901C9B2DD
:10060800024B1954F4E700BF00ED00E014ED00E0E0
:10061800002807DB00F01F02400901239340024A2B
:1006280042F82030704700BF00E100E00138B0F127
:10063800807F0AD2064B5860064AF02182F82310C0
:100648000020986007221A6070470120704700BF99
:1006580010E000E000ED00E0F0B482B0002341E0DB
:10066800D0F82CC02CEA040CC6F3C0049C4044EA21
:100678000C04C46286E0062400E00024B4403C4335
:100688000235664E46F82540654C2568D44304EA91
:1006980005064F6817F4803F01D042EA0506604D11
:1006A8002E606D6804EA05064F6817F4003F01D014
:1006B80042EA05065A4D6E60AD6804EA05064F68C1
:1006C80017F4801F01D042EA0506554DAE60ED686B
:1006D8002C404E6816F4001F01D042EA0504504A27
:1006E800D46001330A6832FA03F400F093800124DD
:1006F8009C402240F5D04D68022D01D0122D10D11A
:10070800DE08083650F826C003F00705AF000F25AD
:10071800BD402CEA050C0D69BD4045EA0C0540F8C2
:10072800265006685F000325BD40ED4305EA060C28
:100738004E6806F00306BE4046EA0C0606604E68A0
:1007480006F1FF3CBCF1010F03D9112E01D0122E86
:1007580011D1866805EA060CCE68BE4046EA0C064A
:100768008660466826EA040C4E68C6F300169E406A
:1007780046EA0C0646604E6806F0030CBCF1030F0F
:100788003FF46EAFC46825408C68BC402C43C460FD
:100798004C6814F0805FA4D0224C256E45F001050A
:1007A8002566246E04F001040194019C9D08AE1C8A
:1007B8001A4C54F8267003F00304A6000F24B44022
:1007C80027EA0407B0F1904F3FF457AF164CA04208
:1007D80016D004F58064A04214D004F58064A042C9
:1007E80012D004F58064A04210D004F58064A042C1
:1007F8000ED004F58064A0423FF43DAF07243DE7E6
:1008080001243BE7022439E7032437E7042435E7CA
:10081800052433E702B0F0BC704700BF0000014078
:100828000004014000100240000400480369194216
:1008380001D100207047012070470AB981627047D2
:1008480081617047024B186800F4C060704700BFB0
:1008580000700040B0F5007F0FD01F4B1B6803F4F9
:10086800C063B3F5806F34D01B4A136823F4C063A8
:1008780043F48063136000207047174B1B6803F430
:10088800C063B3F5007F22D0134A136823F4C06312
:1008980043F400731360114B1A68322303FB02F30D
:1008A8000F4AA2FB03239B0C013300E0013B0A4AD9
:1008B800526912F4806F01D0002BF7D1064B5B69A7
:1008C80013F4806F01D10020704703207047002087
:1008D80070470020704700BF00700040C40000202F
:1008E80083DE1B4330B583B00546204B9B6D13F068
:1008F800805F0BD0FFF7A6FFB0F5007F17D0802DE3
:100908001FD82DD0702D2DD000211BE0174CA36DC2
:1009180043F08053A365A36D03F080530193019BBB
:10092800FFF790FFA36D23F08053A365E4E7802DC4
:1009380003D9A02D03D9022104E0002102E00121FE
:1009480000E003210A4A136823F007030B431360EE
:10095800136803F007038B4206D0012003B030BDB3
:100968000221EFE70121EDE70020F7E70010024040
:1009780000200240284A9368D26802F0030213F06C
:100988000C030AD00C2B06D0042B1FD0082B20D028
:100998000020024610E0012AF6D11F4A126812F020
:1009A800080F0CD11C4AD2F89420C2F303221B4929
:1009B80051F8222043B100200C2B0DD07047164A65
:1009C8001268C2F30312F2E71046F5E71448002252
:1009D800F2E714480022EFE70F4BDB6803F003034C
:1009E800022B15D0032B15D00B4BD868C0F302107F
:1009F8000130D968C1F3062102FB01F2B2FBF0F223
:100A0800D868C0F3416001304000B2FBF0F0D5E790
:100A1800034AE9E7034AE7E7001002407033000899
:100A28000024F40000127A00002800F0D182F0B50A
:100A380083B00446AD4B9D6805F00C05DE6806F0F2
:100A48000306036813F0100F5ED0E5B10C2D18D023
:100A5800A369002B00F0B880A44A136843F001038F
:100A68001360FFF775FD0746A04B1B6813F0020FD4
:100A780040F09780FFF76CFDC01B0228F4D90323D0
:100A8800B9E2012EE4D1994B1B6813F0020F03D091
:100A9800A369002B00F09F82206A944B1B6813F017
:100AA800080F5ED0914B1B6803F0F00398425FD9A2
:100AB800FFF718FF002840F097828C4B1A6842F025
:100AC80008021A601A6822F0F002216A0A431A60C2
:100AD8005A6822F47F42E16942EA01225A60FFF72C
:100AE80049FF824B9B68C3F30313814AD35C03F02D
:100AF8001F03D8407F4B18607F4B1868FFF7E0FC56
:100B08000346002840F07782236813F0010F7AD05B
:100B1800082D6FD00C2D6BD06368B3F5803F00F0C3
:100B28009180B3F5A02F00F09380704B1A6822F4DF
:100B380080321A601A6822F480221A606368002BD7
:100B480000F09380FFF704FD0746684B1B6813F419
:100B5800003F58D1FFF7FCFCC01B6428F5D90323DC
:100B680049E2624BD3F894301B0903F0F0039DE788
:100B78005E4B1A6842F008021A601A6822F0F00206
:100B8800216A0A431A605A6822F47F42E16942EAFC
:100B980001225A60206AFFF7A5FE00289FD0012392
:100BA80029E2524B1A6842F008021A601A6822F0C9
:100BB800F002216A0A431A605A6822F47F42E16906
:100BC80042EA01225A609FE7484A136823F001036A
:100BD8001360FFF7BDFC0746444B1B6813F0020F78
:100BE80092D0FFF7B5FCC01B0228F5D9032302E217
:100BF800032E91D13D4B1B6813F4003F03D063686B
:100C0800002B00F0F381236813F0020F4FD0042D5E
:100C18003CD00C2D38D0E368002B78D0334A1368C9
:100C280043F480731360FFF793FC06462F4B1B6851
:100C380013F4806F62D1FFF78BFC801B0228F5D973
:100C48000323D8E1294A136843F48033136075E716
:100C580003F18043A3F53C331A6842F480221A60FA
:100C68001A6842F480321A6068E7FFF771FC074699
:100C78001E4B1B6813F4003FC5D0FFF769FCC01B6F
:100C88006428F5D90323B6E1022EC4D1174B1B689B
:100C980013F4806F03D0E368002B00F0A981134A96
:100CA800536823F0F853216943EA016353602368CA
:100CB80013F0080F56D06369002B3CD00B4AD2F8CA
:100CC800943043F00103C2F89430FFF741FC064624
:100CD800064BD3F8943013F0020F43D1FFF738FCDA
:100CE800801B0228F4D9032385E100BF00100240CD
:100CF800A0330008C400002004000020B74A53684D
:100D080023F0F853216943EA01635360CFE7B34AFC
:100D1800136823F480731360FFF71AFC0646AF4B81
:100D28001B6813F4806FC2D0FFF712FC801B0228E7
:100D3800F5D903235FE1A94AD2F8943023F00103DF
:100D4800C2F89430FFF704FC0646A44BD3F894305D
:100D580013F0020F06D0FFF7FBFB801B0228F4D923
:100D6800032348E1236813F0040F7AD09B4B9B6D53
:100D780013F0805F0BD1994B9A6D42F080529A65BF
:100D88009B6D03F080530193019B012600E0002630
:100D9800934B1B6813F4807F26D0A368012B37D0B0
:100DA800052B3DD08D4BD3F8902022F00102C3F8DB
:100DB8009020D3F8902022F00402C3F89020A36872
:100DC800002B3BD0FFF7C4FB0746844BD3F8903089
:100DD80013F0020F44D1FFF7BBFBC01B41F288336D
:100DE8009842F2D9032306E17D4A136843F48073DD
:100DF8001360FFF7ADFB0746794B1B6813F4807F40
:100E0800CBD1FFF7A5FBC01B0228F5D90323F2E0DD
:100E1800724AD2F8903043F00103C2F89030CEE71E
:100E28006E4BD3F8902042F00402C3F89020D3F818
:100E3800902042F00102C3F89020C0E7FFF788FB3A
:100E48000746664BD3F8903013F0020F08D0FFF72F
:100E58007FFBC01B41F288339842F2D90323CAE0D2
:100E68005EBBA36A002B00F0C5800C2D76D0022B48
:100E780029D05A4B1A6822F080721A601B6813F046
:100E8800205F04D1554AD36823F00303D360534A43
:100E9800D36823F0887323F48033D360FFF758FBBB
:100EA80004464E4B1B6813F0007F55D0FFF750FBEC
:100EB800001B0228F5D903239DE0484A936D23F0CF
:100EC80080539365CDE7454A136823F08073136018
:100ED800FFF73EFB0546414B1B6813F0007F06D029
:100EE800FFF736FB401B0228F5D9032383E03B4A72
:100EF800D3683C491940E36A206B013843EA001380
:100F0800606B43EA0023E06B4008013843EA405332
:100F1800206C4008013843EA4063A06B000943EAAB
:100F280040430B43D360136843F080731360D36866
:100F380043F08073D360FFF70BFB0446274B1B6815
:100F480013F0007F06D1FFF703FB001B0228F5D939
:100F5800032350E000234EE000234CE0012B4DD04A
:100F68001E4BDB6803F00301E26A914201D00123C2
:100F780041E003F07002216B0139B2EB011F01D08F
:100F8800012338E003F4FE42616BB2EB012F01D07C
:100F9800012330E003F40031A26B073A18BF0122A5
:100FA800914201D0012326E003F4C001E26B52080C
:100FB800013AB1EB425F01D001231CE003F0C063AA
:100FC800226C5208013AB3EB426F19D0012312E0A8
:100FD80001231846704701230DE000BF00100240AE
:100FE800007000408C809DF9012304E0012302E099
:100FF800012300E00023184603B0F0BD0123FAE7FF
:101008000023F8E7002800F09B8070B504464E4B9B
:101018001B6803F007038B420CD24B4A136823F07A
:1010280007030B431360136803F007038B4201D0D7
:10103800012070BD0D46236813F0010F39D0636895
:10104800032B09D0022B26D063BB404A126812F04A
:10105800020F06D10120ECE73C4A126812F0007F2B
:1010680070D03A498A6822F0030213438B60FFF775
:101078006FFA0646354B9B6803F00C036268B3EBC6
:10108800820F16D0FFF764FA801B41F2883398422A
:10109800F0D90320CDE72D4A126812F4003FE0D1C1
:1010A8000120C6E7294A126812F4806FD9D10120BD
:1010B800BFE7236813F0020F06D0244A936823F091
:1010C800F003A1680B4393601F4B1B6803F00703F1
:1010D800AB420CD91C4A136823F007032B43136057
:1010E800136803F00703AB4201D00120A1E723688E
:1010F80013F0040F06D0154A936823F4E063E168FF
:101108000B439360236813F0080F07D00F4A9368C6
:1011180023F46053216943EAC1039360FFF72AFC73
:101128000A4B9B68C3F30313094AD35C03F01F03FC
:10113800D840084B1860084B1868FFF7C1F978E7E2
:1011480001207047012074E700200240001002408F
:10115800A0330008C400002004000020014B1868D8
:10116800704700BFC400002008B5FFF7F7FF054B24
:101178009B68C3F30223044AD35C03F01F03D840DF
:1011880008BD00BF00100240B033000808B5FFF7E3
:10119800E5FF054B9B68C3F3C223044AD35C03F005
:1011A8001F03D84008BD00BF00100240B03300083C
:1011B800F8B55A4BDB6813F0030F18D0574BDB68B0
:1011C80003F003030268934202D001252846F8BDC4
:1011D800002A00F0A080514BDB68C3F302130133EF
:1011E8004268934201D00125F0E700251AE0036820
:1011F800022B59D0032B5ED0012B01D001250FE023
:10120800464A126812F0020F61D0444DEA6822F093
:1012180073024468013C43EA04131343EB6000255E
:10122800002DD3D10F4604463C4A136823F080634F
:101238001360FFF78DF90646384B1B6813F0006FF3
:1012480005D0FFF785F9801B0228F5D90325002D65
:10125800BCD1002F3DD131490B6923F41F3323F44E
:101268004073A068E2681209520442EA002213435C
:101278000B612A4A136843F080631360FFF768F92B
:101288000646264B1B6813F0006F05D1FFF760F97F
:10129800801B0228F5D90325002D97D11F4A136911
:1012A800A1690B43136191E71C4A126812F4806F1D
:1012B800ABD10125B4E7194A126812F4003FA4D152
:1012C800164A126812F4802F9FD10125A8E701253C
:1012D800A6E7012F0FD01148026922F0C06222F45C
:1012E800FE42A16863695B08013B5B0643EA012390
:1012F80013430361BDE70948026922F4C00222F4DE
:10130800FE42A16823695B08013B5B0543EA0123B0
:1013180013430361ADE7012558E700BF0010024001
:10132800F8B5514BDB6813F0030F18D04E4BDB6850
:1013380003F003030268934202D001252846F8BD52
:10134800002A00F08E80484BDB68C3F30213013398
:101358004268934201D00125F0E700251AE00368AE
:10136800022B59D0032B5ED0012B01D001250FE0B1
:101378003D4A126812F0020F61D03B4DEA6822F034
:1013880073024468013C43EA04131343EB600025ED
:10139800002DD3D10F460446334A136823F08053F7
:1013A8001360FFF7D5F806462F4B1B6813F0005F54
:1013B80005D0FFF7CDF8801B0228F5D90325002DAD
:1013C800BCD1002F3DD128494B6923F41F3323F4A6
:1013D8004073A068E2681209520442EA00221343EB
:1013E8004B61214A136843F080531360FFF7B0F84C
:1013F80006461D4B1B6813F0005F05D1FFF7A8F8E0
:10140800801B0228F5D90325002D97D1164A536968
:1014180061690B43536191E7134A126812F4806FB4
:10142800ABD10125B4E7104A126812F4003FA4D1E9
:101438000D4A126812F4802F9FD10125A8E70125D3
:10144800A6E70948426922F0C06222F4FE42A16878
:1014580023695B08013B5B0643EA012313434361AD
:10146800BFE701256AE700BF001002402DE9F041FF
:1014780082B00446036813F4006F2FD0436EB3F5AF
:10148800800F25D008D9B3F5000F10D0B3F5400F61
:1014980040F09980002610E0002B40F09480002155
:1014A8000430FFF785FE06463EB1374618E05E4A2F
:1014B800D36843F48033D36000265B4AD2F888307F
:1014C80023F44003616E0B43C2F88830002707E01D
:1014D80000212030FFF724FF0646E5E700273E46B7
:1014E800236813F4805F15D0A36EB3F1807F7AD0A0
:1014F8006CD9B3F1007F70D0B3F1407F7AD1002E60
:101508007BD1494AD2F8883023F04073A16E0B434F
:10151800C2F88830236813F4003F00F08E80424BF5
:101528009B6D13F0805F6AD13F4B9A6D42F08052F9
:101538009A659B6D03F080530193019B4FF001085E
:101548003A4A136843F480731360FFF701F80546BD
:10155800364B1B6813F4807F05D1FEF7F9FF401B5B
:101568000228F5D90326002E62D12F4BD3F89030EC
:1015780013F4407316D0D4F884209A4212D02A4A21
:10158800D2F8903023F44073D2F8901041F48031AF
:10159800C2F89010D2F8901021F48031C2F890105F
:1015A800C2F8903013F0010F2CD1002E40F0438187
:1015B8001D4AD2F8903023F44073D4F884100B43BA
:1015C800C2F8903035E001273E4689E793B90021FB
:1015D800201DFFF7EDFD064691E7134AD36843F453
:1015E8008033D3608BE7002104F12000FFF798FED9
:1015F800064684E701273E468CE737468AE74FF0E0
:1016080000089DE7FEF7A4FF0546074BD3F8903086
:1016180013F0020FC9D1FEF79BFF401B41F288333C
:101628009842F2D90326C0E700100240007000403B
:101638003746B8F1000F40F00081236813F0010F1E
:1016480008D09D4AD2F8883023F00303A16B0B43DE
:10165800C2F88830236813F0020F08D0964AD2F8EF
:10166800883023F00C03E16B0B43C2F88830236801
:1016780013F0040F08D0904AD2F8883023F03003D2
:10168800216C0B43C2F88830236813F0080F08D088
:10169800894AD2F8883023F0C003616C0B43C2F842
:1016A8008830236813F0100F08D0834AD2F88830A6
:1016B80023F44073A16C0B43C2F88830236813F0FD
:1016C800200F08D07C4AD2F8883023F44063E16CBC
:1016D8000B43C2F88830236813F4007F08D0764A99
:1016E800D2F8883023F44023E16D0B43C2F88830E8
:1016F800236813F4806F08D06F4AD2F8883023F437
:101708004013216E0B43C2F88830236813F0400F52
:1017180008D0694AD2F8883023F44053216D0B432E
:10172800C2F88830236813F0800F08D0624AD2F8D4
:10173800883023F44043616D0B43C2F88830236836
:1017480013F4807F08D05C4AD2F8883023F4403301
:10175800A16D0B43C2F88830236813F4005F0FD0E3
:10176800554AD2F8883023F04063E16E0B43C2F843
:101778008830E36EB3F1006F65D0B3F1806F67D046
:10178800236813F4002F0FD04B4AD2F8883023F087
:101798004063216F0B43C2F88830236FB3F1006FA9
:1017A8005ED0B3F1806F60D0236813F4802F0FD020
:1017B800414AD2F8883023F04063616F0B43C2F886
:1017C8008830636FB3F1006F57D0B3F1806F59D091
:1017D800236813F4804F0FD0374AD2F8883023F0AB
:1017E8004053A16F0B43C2F88830A36FB3F1805FF9
:1017F80050D0B3F1005F55D0236813F4004F08D0E0
:101808002D4AD2F8883023F08043E16F0B43C2F8A9
:101818008830236813F4803F09D0274AD2F88830EB
:1018280023F00043D4F880100B43C2F888303846C0
:1018380002B0BDE8F0813746FBE61F4A936D23F0FE
:1018480080539365F9E6D36843F48013D36097E730
:101858000121201DFFF7ACFC002891D007468FE737
:10186800D36843F48013D3609EE70121201DFFF75E
:101878009FFC002898D0074696E7D36843F4801366
:10188800D360A5E70121201DFFF792FC00289FD017
:1018980007469DE70221201DFFF78AFC0028ABD0F0
:1018A8000746A9E7022104F12000FFF739FD0028C7
:1018B800A2D00746A0E700BF00100240F8B50546D1
:1018C8000F4616461C462B689B6837EA03030CBF75
:1018D80001230023B34237D0B4F1FF3FF3D0FEF722
:1018E80037FE069BC01AA04201D2002CEBD12A6811
:1018F800536823F0E00353606B68B3F5827F0BD025
:10190800AB6AB3F5005F14D0012385F85D3000237E
:1019180085F85C30032018E0AB68B3F5004F02D0BF
:10192800B3F5806FECD12A68136823F04003136085
:10193800E6E72A68136823F4005313602A681368DB
:1019480043F400531360DFE70020F8BDF8B50746FD
:101958000C4615461E4602E0B6F1FF3F0BD13A6829
:1019680093682340AB423BD0B4F5C06FF4D1002D4F
:10197800F2D1137BF0E7FEF7EBFD069BC01AB042ED
:1019880001D2002EEBD13A68536823F0E00353608C
:101998007B68B3F5827F0BD0BB6AB3F5005F14D0C8
:1019A800012387F85D30002387F85C30032018E0B6
:1019B800BB68B3F5004F02D0B3F5806FECD13A683D
:1019C800136823F040031360E6E73A68136823F4CA
:1019D800005313603A68136843F400531360DFE759
:1019E8000020F8BD70B582B004460D461646009238
:1019F8000B4600224FF4C051FFF7A8FFB8B9009674
:101A08002B46002280212046FFF758FFB8B90096E0
:101A18002B4600224FF4C0612046FFF797FF03468C
:101A280050B1236E43F020032366032304E0236EA2
:101A380043F0200323660323184602B070BD236ECB
:101A480043F0200323660323F6E7002853D010B59C
:101A580004460023836290F85D30002B40D00223B7
:101A680084F85D302268136823F040031360E3684C
:101A7800B3F5E06F39D90022B3F5706F04D0B3F530
:101A8800E06F01D00021A162216B21B9B3F5E06FAD
:101A98002ED9022323636368A1680B4321690B4392
:101AA80061690B43A16901F400710B43E1690B43C0
:101AB800216A0B43A06A216803430B60638B03F020
:101AC8000403616A0B43616B0B43E1680B432168B4
:101AD80013434B6000202066012384F85D3010BD5D
:101AE80080F85C3001F01EFBB9E74FF48052C3E781
:101AF80001232363CFE7012070472DE9F04182B02D
:101B080090F85C40012C00F0E4801E46154688469B
:101B18000446012380F85C30FEF71AFD074694F866
:101B28005D20D2B2012A09D00220012384F85D3059
:101B3800002384F85C3002B0BDE8F081B8F1000FF2
:101B480000F0B980002D00F0B880032384F85D30E0
:101B580000232366C4F83880A587E5872364A4F8A2
:101B68004430A4F846302365E364A368B3F5004F16
:101B78001CD023681A6812F0400F03D11A6842F08B
:101B880040021A60E368B3F5E06F33D963680BB1BC
:101B9800012D1BD1A26B23681288DA60A36B023374
:101BA800A363E38F013B9BB2E3870FE022681368CE
:101BB80043F480431360DCE7FEF7CAFCC01BB04265
:101BC80002D3B6F1FF3F7AD1002E7AD0E38F9BB2D1
:101BD800002B5BD023689A6812F0020FECD0A26B3E
:101BE8001288DA60A36B0233A363E38F013B9BB2D5
:101BF800E387EBE763680BB1012D30D1E38F9BB22C
:101C0800012B0BD9A26B23681288DA60A36B02330D
:101C1800A363E38F023B9BB2E38720E0A26B2368B8
:101C280012781A73A36B0133A363E38F013B9BB252
:101C3800E38714E0A36B1B781373A36B0133A363CF
:101C4800E38F013B9BB2E38709E0FEF781FCC01BF1
:101C5800B04202D3B6F1FF3F35D1002E35D0E38F25
:101C68009BB29BB12268936813F0020FEDD0E38F0B
:101C78009BB2012BDED9A36B1B88D360A36B023305
:101C8800A363E38F023B9BB2E387E8E73A4631461A
:101C98002046FFF7A7FE08B120232366A36833B9BF
:101CA80001932368DA6801929B680193019B236E74
:101CB8006BB9002039E7012037E7012035E7032019
:101CC80033E7032031E703202FE703202DE7012026
:101CD8002BE702202FE72DE9F843DDF8208090F864
:101CE8005C40012C00F05C811D4617460E460446F8
:101CF800012380F85C30FEF72BFC814694F85D00E8
:101D0800C0B26368012814D0B3F5827F09D00223DA
:101D1800012284F85D20002284F85C201846BDE882
:101D2800F883A368002B40F02D81042801D00223FA
:101D3800EEE7002E00F02881002F00F02781002D0B
:101D480000F0268194F85D30DBB2042B02D0052325
:101D580084F85D30002323662764A4F84650A4F86D
:101D68004450A663E587A587E3642365E368B3F574
:101D7800E06F01D8012D22D92268536823F48053DB
:101D8800536023681A6812F0400F03D11A6842F0B2
:101D980040021A60E368B3F5E06F56D963680BB187
:101DA800012D0AD1A26B23681288DA60A36B023373
:101DB800A363E38F013B9BB2E387012525E02268FB
:101DC800536843F480535360DBE723689A6812F042
:101DD800010F10D0B4F8462092B262B1DA68236CD1
:101DE8001A80236C02332364B4F84630013B9BB25B
:101DF800A4F846300125FEF7ABFBA0EB09004045EF
:101E080003D3B8F1FF3F40F0C580E38F9BB22BB9F5
:101E1800B4F846309BB2002B00F0A78023689A687C
:101E280012F0020FD1D0E28F92B2002ACDD0002D4D
:101E3800CBD0A26B1288DA60A36B0233A363E38F63
:101E4800013B9BB2E3870025BFE763680BB1012D17
:101E58000ED1E38F9BB2012B0CD9A26B2368128899
:101E6800DA60A36B0233A363E38F023B9BB2E38781
:101E7800012547E0A26B236812781A73A36B01331C
:101E8800A363E38F013B9BB2E387F1E7E28F92B252
:101E9800012A0BD9A26B1288DA60A36B0233A36301
:101EA800E38F023B9BB2E38700253CE0A26B1278EC
:101EB8001A73A36B0133A363E38F013B9BB2E387E0
:101EC800002530E02268536843F4805353600125AD
:101ED8000CE0226C1B7B1370236C01332364B4F871
:101EE8004630013B9BB2A4F846300125FEF730FB93
:101EF800A0EB0900404502D3B8F1FF3F4CD1B8F13F
:101F0800000F4BD0E38F9BB21BB9B4F846309BB29D
:101F18005BB323689A6812F0020F04D0E28F92B282
:101F28000AB1002DB2D123689A6812F0010FDDD0F2
:101F3800B4F8462092B2002AD8D0B4F8462092B21B
:101F4800012AC6D9DA68236C1A80236C0233236409
:101F5800B4F84630023B9BB2A4F84630B4F8463099
:101F68009BB2012BAED90125C0E74A46414620461F
:101F7800FFF738FD034600283FF4CAAE2023236646
:101F88000123C5E60223C3E60123C1E60123BFE618
:101F98000123BDE60323BBE60323B9E60323B7E623
:101FA8000223BBE610B4036A046A24F00104046245
:101FB800846924F0F00444EA021223F00A030B4374
:101FC800826103625DF8044B704710B4036A23F022
:101FD800100303628469036A24F4704444EA0232F9
:101FE80023F0A00343EA0113826103625DF8044B06
:101FF8007047836823F07003194341F0070181603B
:1020080070477047704770477047704710B504466F
:1020180003681A6912F0020F11D0DA6812F0020F81
:102028000DD06FF002021A610123037703689B69E0
:1020380013F0030F79D0FFF7E6FF00232377236817
:102048001A6912F0040F12D0DA6812F0040F0ED0D9
:102058006FF004021A610223237723689B6913F443
:10206800407F68D02046FFF7CEFF00232377236800
:102078001A6912F0080F12D0DA6812F0080F0ED0A1
:102088006FF008021A61042323772368DB6913F0D1
:10209800030F57D02046FFF7B6FF002323772368A6
:1020A8001A6912F0100F12D0DA6812F0100F0ED061
:1020B8006FF010021A61082323772368DB6913F491
:1020C800407F46D02046FFF79EFF002323772368F2
:1020D8001A6912F0010F03D0DA6812F0010F3FD12C
:1020E80023681A6912F0800F03D0DA6812F0800FA3
:1020F8003DD123681A6912F4807F03D0DA6812F0A0
:10210800800F3BD123681A6912F0400F03D0DA68B8
:1021180012F0400F39D123681A6912F0200F03D04A
:10212800DA6812F0200F37D110BDFFF76BFF204699
:10213800FFF76AFF81E72046FFF764FF2046FFF7B5
:1021480063FF92E72046FFF75DFF2046FFF75CFF3D
:10215800A3E72046FFF756FF2046FFF755FFB4E7F1
:102168006FF001021A612046FFF74BFFB8E76FF0E6
:1021780080021A61204600F042F9BAE76FF48072D3
:102188001A61204600F03CF9BCE76FF040021A6182
:102198002046FFF73AFFBEE76FF020021A6120469B
:1021A80000F02CF9C0E700000368304A904212D0D2
:1021B800B0F1804F0FD0A2F5943290420BD002F5C7
:1021C8008062904207D002F58062904203D002F507
:1021D8009432904203D123F070034A681343234A90
:1021E80090421ED0B0F1804F1BD0A2F5943290429D
:1021F80017D002F58062904213D002F580629042B7
:102208000FD002F5943290420BD002F54062904212
:1022180007D002F58062904203D002F580629042B6
:1022280003D123F44073CA68134323F080034A6937
:10223800134303608B68C3620B6883620B4B98423D
:102248000FD003F5006398420BD003F54063984222
:1022580007D003F58063984203D003F58063984262
:1022680001D10B690363012343617047002C0140CE
:10227800A8B110B5044690F83D305BB1022384F84C
:102288003D30211D2068FFF78FFF012384F83D3082
:10229800002010BD80F83C3000F078FFEEE7012008
:1022A800704710B4846824F47F4442EA03230B4344
:1022B800234383605DF8044B7047000090F83C307E
:1022C800012B64D010B50446012380F83C3002236A
:1022D80080F83D30026890682E4B034093600B688D
:1022E800402B4AD013D9602B3DD01ED9702B28D053
:1022F800B3F5005F30D1CB684A6889682068FFF77A
:10230800D0FF2268936843F48043936024E0102B45
:1023180006D004D9202B03D0302B01D01CE0DBB928
:1023280019462068FFF765FE16E0502B14D1CA68DD
:1023380049682068FFF736FE50212068FFF759FEEC
:102348000AE0CB684A6889682068FFF7AAFF226814
:10235800936843F077039360012384F83D300020AD
:1023680084F83C0010BDCA6849682068FFF72DFE54
:1023780060212068FFF73DFEEEE7CA6849682068DB
:10238800FFF710FE40212068FFF733FEE4E7022044
:10239800704700BF8800FEFF90F83C30012B28D022
:1023A80030B4012380F83C30022380F83D300268C5
:1023B80053689568104CA24203D004F50064A24209
:1023C80003D123F470034C68234323F070030C6893
:1023D800234325F08004896821435360036899608A
:1023E800012380F83D30002380F83C30184630BC8B
:1023F80070470220704700BF002C014070477047AB
:10240800704700002DE9F0480446016883680269B6
:10241800134342691343C26913430868A24A02403E
:1024280013430B602268536823F44053E1680B435D
:102438005360A16922689D4B9A4201D0236A1943CF
:10244800936823F430630B4393602368984A93425C
:1024580027D0984A934238D0974A93424ED0974A09
:10246800934261D0964A934274D0904A934200F0C6
:102478008A8010258D4A934200F0AA80E369B3F55B
:10248800004F00F03581082D00F2BF81DFE815F01C
:102498007F0195019F01BD01AA01BD01BD01BD01DB
:1024A800B40102F55842D2F8882002F00302032A48
:1024B80009D8DFE802F0020481060125DAE70425DD
:1024C800D8E70825D6E71025D4E702F5E632D2F892
:1024D800882002F00C020C2A0ED8DFE802F0070D63
:1024E8000D0D090D0D0D6F0D0D0D0B000025C1E72C
:1024F8000425BFE70825BDE71025BBE702F5E43250
:10250800D2F8882002F03002102A09D005D9202AF2
:1025180056D0302A06D10825ACE71AB90025A9E714
:102528000425A7E71025A5E702F5E232D2F88820AE
:1025380002F0C002402A09D005D9802A42D0C02A18
:1025480006D1082596E71AB9002593E7042591E7EF
:1025580010258FE702F5E032D2F8882002F44072A5
:10256800B2F5807F0BD007D9B2F5007F2CD0B2F539
:10257800407F06D108257DE71AB900257AE70425AA
:1025880078E7102576E702F5C832D2F8882002F4F9
:102598004062B2F5806F0BD007D9B2F5006F15D045
:1025A800B2F5406F06D1082564E71AB9002561E73E
:1025B80004255FE710255DE702255BE7022559E75B
:1025C800022557E7022555E7022553E7022551E77B
:1025D800082D00F21D81DFE815F00C001B01140026
:1025E8001B0111001B011B011B0109004FF40040D6
:1025F80008E0FEF7B9FD28B90020D9E0FEF7BAF9DE
:10260800F9E73048626802EB4203834200F2028134
:10261800B0EB023F00F20081082D66D8DFE805F034
:1026280005652065306565655800FEF79DFD002548
:10263800070E0602626850082B4616EB000B47F19E
:10264800000C58466146FDF7BBFD03462846A3F536
:1026580040711D4A914200F2E1802268D360A7E0F0
:10266800560800252B46DFF864B04FF0000C1BEB32
:1026780006004CF10001FDF7A3FD03462846E6E7F6
:10268800FEF778F90025070E0602626850082B4607
:1026980016EB000B47F1000C58466146FDF790FD1C
:1026A80003462846D3E700BFF369FFEF00800040E8
:1026B800003801400044004000480040004C004001
:1026C800005000400024F400FFFC0F00000024F438
:1026D8005008002700252B4610F5000047F100019F
:1026E800FDF76EFD03462846B1E701200023AEE75B
:1026F800082D49D8DFE805F0051E29483448484820
:102708003F00FEF731FD6268530803EB4003B3FB5B
:10271800F2F39BB20020A3F110014FF6EF72914241
:102728007ED89AB222F00F02C3F342031343226801
:10273800D3603DE0FEF72AFD6268530803EB4003CF
:10274800B3FBF2F39BB20020E5E76268530803F19C
:10275800F47303F59043B3FBF2F39BB20020DAE77E
:10276800FEF708F96268530803EB4003B3FBF2F382
:102778009BB20020CFE76268530803F58033B3FBB0
:10278800F2F39BB20020C6E701200023C3E7FEF75F
:10279800EBFC636800EB5302B2FBF3F292B2002049
:1027A800A2F110014FF6EF7399423BD82368DA6023
:1027B800002222666266BDE8F088FEF7E7FC6368DF
:1027C80000EB5302B2FBF3F292B20020E8E7636831
:1027D8005A0802F5740202F51052B2FBF3F292B2F3
:1027E8000020DDE7FEF7C6F8636800EB5302B2FB92
:1027F800F3F292B20020D3E763685A0802F5004268
:10280800B2FBF3F292B20020CAE701200022C7E728
:102818000120CDE70120CBE70120C9E70120C7E768
:102828000120C5E70120C3E7436A13F0010F06D072
:102838000268536823F40033816A0B435360436A88
:1028480013F0020F06D00268536823F48033C16A7C
:102858000B435360436A13F0040F06D002685368B1
:1028680023F48023016B0B435360436A13F0080F72
:1028780006D00268536823F40043416B0B4353604E
:10288800436A13F0100F06D00268936823F480534C
:10289800816B0B439360436A13F0200F06D00268E4
:1028A800936823F40053C16B0B439360436A13F09E
:1028B800400F0AD00268536823F48013016C0B435D
:1028C8005360036CB3F5801F0BD0436A13F0800F7D
:1028D80006D00268536823F40023816C0B435360CD
:1028E80070470268536823F4C003416C0B4353607C
:1028F800EBE72DE9F04105460F4616469846069C3B
:102908002B68DB6937EA03030CBF01230023B342BA
:102918001CD1B4F1FF3FF3D0FDF71AFEA0EB08007D
:10292800A04201D8002CEBD12A68136823F4D07395
:1029380013602A68936823F00103936020236B6770
:10294800AB67002385F87030032000E00020BDE865
:10295800F08130B583B004460023C367FDF7F8FD66
:10296800054623681B6813F0080F0CD123681B6801
:1029780013F0040F15D120236367A367002084F8A0
:10298800700003B030BD6FF07E4300930346002211
:102998004FF400112046FFF7ACFF0028E6D00320D3
:1029A800EFE76FF07E4300932B4600224FF480013F
:1029B8002046FFF79EFF0028DDD00320E1E768B33B
:1029C80010B50446436F03B3242363672268136872
:1029D80023F0010313602046FFF714FD012813D0EC
:1029E800636ABBB92268536823F490435360226832
:1029F800936823F02A0393602268136843F0010365
:102A080013602046FFF7A5FF10BD80F8703000F076
:102A1800DBFBD9E72046FFF707FFE3E70120704714
:102A280010B586B08DF80F00002206AC04F8012D11
:102A380040214FF09040FDF700FF4FF47A73009368
:102A4800012322460DF10F011048FFF744F9104BFE
:102A580018709DF80F30072B0DD0FF238DF8163016
:102A68004FF47A73009301230DF117020DF116014B
:102A78000648FFF730F9012240214FF09040FDF75A
:102A8800DCFE9DF8170006B010BD00BFEC0000206A
:102A9800E800002030B583B08DF8061040F0200023
:102AA80002AC04F8010D002240214FF09040FDF7E0
:102AB800C4FE0C4D4FF47A73012221462846FFF7D5
:102AC8001CF84FF47A7301220DF106012846FFF72E
:102AD80014F8012240214FF09040FDF7AEFE03B0FC
:102AE80030BD00BFEC00002070B582B00D46164620
:102AF80040F0200002AC04F8010D002240214FF004
:102B08009040FDF79AFE4FF47A73012221460E4851
:102B1800FEF7F3FF0D4B1B680D4AA2FB0323DB0DE9
:102B28001A46013B002AFBD14FF47A7332462946F4
:102B38000548FEF7E2FF012240214FF09040FDF7E3
:102B48007CFE02B070BD00BFEC000020C400002075
:102B5800B5FA9BEE10B582B002ACE22304F8043D4E
:102B6800002240214FF09040FDF767FE4FF47A7342
:102B7800012221460A48FEF7C0FF0A4B1B680A4A91
:102B8800A2FB0323DB0D1A46013B002AFBD10122DD
:102B980040214FF09040FDF750FE02B010BD00BF3D
:102BA800EC000020C4000020B5FA9BEE10B582B0FE
:102BB80002ACE12304F8043D002240214FF090408C
:102BC800FDF73BFE4FF47A73012221460A48FEF7CF
:102BD80094FF0A4B1B680A4AA2FB0323DB0D1A4623
:102BE800013B002AFBD1012240214FF09040FDF724
:102BF80024FE02B010BD00BFEC000020C40000207D
:102C0800B5FA9BEE08B50020FFF70AFF40F0030174
:102C1800C9B20020FFF73EFF012280214FF090400B
:102C2800FDF70BFE9623084A12680849A1FB021219
:102C3800D20D03FB02F31A46013B002AFBD1FFF732
:102C480089FFFFF7B3FF08BDC4000020B5FA9BEE6B
:102C580010B5002280214FF09040FDF7EEFD41F2C3
:102C680088332A4A12682A49A1FB0212D20D03FBB3
:102C780002F31A46013B002AFBD10A210020FFF784
:102C880009FF41F28833214A12682149A1FB021247
:102C9800D20D03FB02F31A46013B002AFBD10121A6
:102CA8000846FFF7F7FE01210220FFF7F3FE012196
:102CB8000320FFF7EFFE5F210420FFF7EBFE002162
:102CC8001D20FFF7E7FE00211C20FFF7E3FE70211F
:102CD8000720FFF7DFFE4C210520FFF7DBFE06216A
:102CE8000846FFF7D7FE0B4C032221461020FFF7BA
:102CF800FBFE032221460A20FFF7F6FE05211120DC
:102D0800FFF7C8FEFFF77EFF10BD00BFC40000201C
:102D1800B5FA9BEE0800002008B5032207491020E9
:102D2800FFF7E2FE002280214FF09040FDF785FD7D
:102D3800FFF710FFFFF73AFF08BD00BF08000020AB
:102D480070B582B00D46164602AC04F8010D00229B
:102D580080214FF09040FDF770FD002240214FF098
:102D68009040FDF76AFD4FF47A730122214611481D
:102D7800FEF7C3FE104B1B68104AA2FB0323DB0DB2
:102D88001A46013B002AFBD14FF47A733246294692
:102D98000848FEF7B2FE012240214FF09040FDF7AF
:102DA8004CFD012280214FF09040FDF746FD02B016
:102DB80070BD00BFEC000020C4000020B5FA9BEEF7
:102DC80010B50446FFF7A8FF0020FFF729FE00F022
:102DD800FE0141F002010020FFF75CFE96232B4A1A
:102DE80012682B49A1FB0212D20D03FB02F31A460B
:102DF800013B002AFBD105222146A020FFF7A0FFB6
:102E0800012280214FF09040FDF717FD0F231F4A44
:102E180012681F49A1FB0212D20D03FB02F31A46E6
:102E2800013B002AFBD180214FF09040FDF705FDC2
:102E380010211848FDF7FAFC0128F9D00720FFF700
:102E4800EFFD10F0200F0AD110F0100F17D1082055
:102E5800FFF7E6FD0446FFF7D5FE204610BD012228
:102E680020214FF09040FDF7E8FC0120FDF776FBAC
:102E7800002220214FF09040FDF7DFFCE7E710210A
:102E88000720FFF707FEFFF791FEE0E7C4000020E8
:102E9800B5FA9BEE0008004870B588B0002403948A
:102EA80004940594069407942D4BDA6C42F00402BE
:102EB800DA64DA6C02F004020092009ADA6C42F0EA
:102EC8000102DA64DA6C02F001020192019ADA6C0A
:102ED80042F00202DA64DB6C03F002030293029B05
:102EE8002246E0214FF09040FDF7A7FC1D4D2246F9
:102EF80010212846FDF7A1FC4FF4005303931A4B09
:102F08000493059403A92846FDF7A6FBE023039341
:102F1800012604960594069403A94FF09040FDF706
:102F28009BFB1023039304960594069403A9284653
:102F3800FDF792FB4FF4007303930494059403A9DF
:102F48004FF09040FDF788FB4FF4407303930494CF
:102F5800059403A90548FDF77FFB08B070BD00BFC5
:102F6800001002400008004800001110000400484A
:102F780008B50E480E4B03604FF48273436000237C
:102F880083604FF4E062C260036143614FF40072F2
:102F980082611022C2610362436283620722C262B5
:102FA800036308234363FEF750FD08BDEC000020CF
:102FB8000030014008B50948094B03604FF4E1337C
:102FC800436000238360C36003610C224261836114
:102FD800C36103624362FFF7F2FC08BD9001002061
:102FE8000044004030B589B0002404940594069448
:102FF80007940194029403940E4D4FF080432B6084
:1030080009236B60AC604FF4FA63EB602C61AC6130
:103018002846FFF72DF94FF48053049304A9284656
:10302800FFF74CF90194039401A92846FFF7B4F976
:1030380009B030BD5001002070B5B8B0242200217D
:1030480028A800F07BF90024229423942494259442
:10305800269488222146684600F070F902252795B3
:103068004FF480732A9310232B93319532950126C0
:1030780033960A233493072335933695379527A833
:10308800FDF7D2FC0F232293032323939023249349
:1030980025942694314622A8FDF7B4FF00950F9495
:1030A8006846FEF7E3F94FF40070FDF7D3FB38B03C
:1030B80070BD000008B5FDF729FAFFF7BDFFFFF75F
:1030C800EBFEFFF755FFFFF775FFFFF78BFFFFF7E5
:1030D800BFFD02E00548FFF773FE4FF400510448B6
:1030E800FDF7A4FB0028F5D000BFF6E70C00002090
:1030F8000008004882B00A4B1A6E42F001021A66B4
:103108001A6E02F001020092009A9A6D42F0805203
:103118009A659B6D03F080530193019B02B0704741
:103128000010024000B589B000230393049305936F
:10313800069307930268134B9A4202D009B05DF8D0
:1031480004FB03F560431A6E42F480521A661A6E45
:1031580002F480520192019ADA6C42F00202DA64B7
:10316800DB6C03F002030293029B382303930223D0
:103178000493032306930523079303A90248FDF745
:103188006BFADBE700300140000400480368B3F144
:10319800804F00D0704700B583B003F504339A6DB3
:1031A80042F001029A659B6D03F001030193019BB4
:1031B800002211461C20FDF7F7F91C20FDF728FA1C
:1031C80003B05DF804FB000000B589B00023039349
:1031D80004930593069307930268144B9A4202D00E
:1031E80009B05DF804FB03F5E6339A6D42F400324A
:1031F8009A659A6D02F400320192019ADA6C42F0F3
:103208000102DA64DB6C03F001030293029B0C23D6
:10321800039302230493032306930723079303A925
:103228004FF09040FDF718FADAE700BF004400407D
:103238007047FEE7FEE7FEE7FEE770477047704716
:1032480008B5FDF779F908BD08B50248FEF7DEFEB6
:1032580008BD00BF500100200F49D1F8883043F461
:103268007003C1F888300D4B1A6842F001021A60E9
:10327800002098601A6822F0A85222F410221A60DE
:103288004FF48052DA601A6822F480221A6098613A
:103298004FF000638B60704700ED00E000100240C3
:1032A800DFF834D0002103E00C4B5B584350043165
:1032B8000B480C4B42189A42F6D30B4A02E0002303
:1032C80042F8043B094B9A42F9D3FFF7C5FF00F0D7
:1032D80011F8FFF7EFFEFEE700800120D033000869
:1032E80000000020C8000020C800002010020020B4
:1032F800FEE7000070B50D4E0D4CA41BA410002570
:10330800A54209D10B4E0C4C00F020F8A41BA410C8
:103318000025A54205D170BD56F8253098470135DE
:10332800EEE756F8253098470135F2E7C033000834
:10333800C0330008C0330008C43300080244034601
:10334800934200D1704703F8011BF9E7F8B500BFB5
:10335800F8BC08BC9E467047F8B500BFF8BC08BC6E
:083368009E46704700000000C2
:10337000A0860100400D0300801A060000350C00F5
:1033800040420F0080841E0000093D0000127A00B8
:103390000024F40000366E010048E801006CDC02F5
:1033A00000000000000000000102030406070809F5
:0833B00000000000010203040B
:0833B80040CEFF7F0100000080
:0833C000AD010008000000004F
:0833C80089010008000000006B
:1033D0000100000010000000B3B401000200000072
:1033E00000000000000000000000000000000000DD
:1033F00000000000000000000000000000000000CD
:1034000000000000000000000000000000000000BC
:1034100000000000000000000100000003000000A8
:10342000000000000000000000000000000000009C
:10343000000000000000000000000000000000008C
:10344000000000000000000000000000000000007C
:10345000000000000000000001000000000000006B
:10346000000000000000000000000000000000005C
:10347000000000000000000000000000000000004C
:10348000000000000000000000000000000000003C
:083490000000000000093D00EE
:04000005080032A914
:00000001FF
