:020000040800F2
:100000000020002035370008650F0008670F000842
:1000100000000000000000000000000000000000E0
:10002000000000000000000000000000690F000850
:1000300000000000000000006B0F00086D0F0008BA
:100040008537000800000000853700088537000864
:100050008537000885370008853700088537000890
:100060000000000085370008750F0008853700087C
:100070008537000885370008853700080000000034
:100080008537000885370008000000008537000824
:10009000853700088537000885370008850F000878
:1000A000853700088537000885370008A90F000844
:1000B000853700080000000000000000000000007C
:1000C00010B5064C2378002B07D1054B002B02D02E
:1000D000044800E000BF0123237010BD7000002021
:1000E0000000000064410008044B10B5002B03D051
:1000F0000349044800E000BF10BDC04600000000F6
:100100007400002064410008002243088B4274D32D
:1001100003098B425FD3030A8B4244D3030B8B4208
:1001200028D3030C8B420DD3FF22090212BA030C11
:100130008B4202D31212090265D0030B8B4219D3F2
:1001400000E0090AC30B8B4201D3CB03C01A524112
:10015000830B8B4201D38B03C01A5241430B8B425A
:1001600001D34B03C01A5241030B8B4201D30B0343
:10017000C01A5241C30A8B4201D3CB02C01A52416A
:10018000830A8B4201D38B02C01A5241430A8B422D
:1001900001D34B02C01A5241030A8B4201D30B0216
:1001A000C01A5241CDD2C3098B4201D3CB01C01A30
:1001B000524183098B4201D38B01C01A524143093A
:1001C0008B4201D34B01C01A524103098B4201D328
:1001D0000B01C01A5241C3088B4201D3CB00C01A95
:1001E000524183088B4201D38B00C01A524143080D
:1001F0008B4201D34B00C01A5241411A00D2014632
:10020000524110467047FFE701B5002000F0F0F8BA
:1002100002BDC0460029F7D076E7704703460B437E
:100220007FD4002243088B4274D303098B425FD3EF
:10023000030A8B4244D3030B8B4228D3030C8B421B
:100240000DD3FF22090212BA030C8B4202D3121201
:10025000090265D0030B8B4219D300E0090AC30BD6
:100260008B4201D3CB03C01A5241830B8B4201D383
:100270008B03C01A5241430B8B4201D34B03C01A6C
:100280005241030B8B4201D30B03C01A5241C30AE4
:100290008B4201D3CB02C01A5241830A8B4201D355
:1002A0008B02C01A5241430A8B4201D34B02C01A3F
:1002B0005241030A8B4201D30B02C01A5241CDD2E4
:1002C000C3098B4201D3CB01C01A524183098B422F
:1002D00001D38B01C01A524143098B4201D34B0118
:1002E000C01A524103098B4201D30B01C01A52417B
:1002F000C3088B4201D3CB00C01A524183088B4202
:1003000001D38B00C01A524143088B4201D34B00EA
:10031000C01A5241411A00D201465241104670475C
:100320005DE0CA0F00D04942031000D34042534061
:1003300000229C4603098B422DD3030A8B4212D321
:10034000FC22890112BA030A8B420CD38901921153
:100350008B4208D3890192118B4204D389013AD090
:10036000921100E08909C3098B4201D3CB01C01A65
:10037000524183098B4201D38B01C01A5241430978
:100380008B4201D34B01C01A524103098B4201D366
:100390000B01C01A5241C3088B4201D3CB00C01AD3
:1003A000524183088B4201D38B00C01A5241D9D2EB
:1003B00043088B4201D34B00C01A5241411A00D26C
:1003C0000146634652415B10104601D34042002B68
:1003D00000D54942704763465B1000D3404201B5E7
:1003E000002000F005F802BD0029F8D016E770479C
:1003F0007047C0460023C25C0133002AFBD1581E5F
:100400007047000010B584B07F23184003AC207003
:1004100000236370002201210C4801F09AF8642344
:100420000093623B02AA2100094802F01BFB084826
:1004300002F03EFC0128FAD101220121034801F01B
:1004400088F802AB587804B010BDC04600040048DC
:10045000C401002030B583B00C006B46DD1D802345
:100460005B421843287000220121114801F071F805
:10047000FA23DB00012229000E4802F01FFA0D4882
:1004800002F016FC0128FAD1FA23DB000122210038
:10049000084802F013FA074802F00AFC0128FAD1D2
:1004A00001220121024801F054F803B030BDC046DA
:1004B00000040048C401002070B582B00D00140093
:1004C0006B46DE1D80235B42184330700022012101
:1004D000104801F03EF8FA23DB00012231000E48FB
:1004E00002F0ECF90C4802F0E3FB0128FAD1FA2300
:1004F000A2B2DB002900084802F0E0F9064802F049
:10050000D7FB0128FAD101220121024801F021F88C
:1005100002B070BD00040048C401002010B582B0D4
:1005200004000120FFF76EFF6B46D871002C0FD03E
:10053000012C18D0032C1ED0052C24D0062C0BD156
:100540000723984340B2062318436B46D87103E053
:10055000072398436B46D8716B46D91D0120FFF7DE
:1005600079FF02B010BD0723984340B2012318431E
:100570006B46D871F0E70723984340B20323184332
:100580006B46D871E8E70723984340B20523184328
:100590006B46D871E0E730B583B0C4046411230C16
:1005A0006A46D51DD37129000620FFF753FF0520A9
:1005B00000F06AFD230A2B7029000720FFF74AFF8D
:1005C000052000F061FD2C7029000820FFF742FF94
:1005D000052000F059FD03B030BD00B583B0000127
:1005E000890008436B46D91D08701E20FFF732FFB3
:1005F0000A2000F049FD03B000BD00B583B06B4692
:10060000D91D08700920FFF725FF0A2000F03CFDE6
:1006100003B000BD00B583B02C2812D9782811D9B9
:1006200078202D380521FFF7F9FD6B46D8716B4610
:10063000D91D0B20FFF70EFF0A2000F025FD03B0A7
:1006400000BD2D207828ECD9F028F0D81E300A21E2
:10065000FFF7E4FD6B46D871E9E700B583B06B4660
:10066000D91D08700C20FFF7F5FE0A2000F00CFDE4
:1006700003B000BD00B583B00001490008436B46DC
:10068000D91D08701D20FFF7E5FE0A2000F0FCFCD4
:1006900003B000BD00B583B06B46D91D08702120A2
:1006A000FFF7D8FE0A2000F0EFFC03B000BD30B524
:1006B00083B06B46D91D08230B706B469D1D3423F8
:1006C0002B706B465C1D012323701F20FFF7C2FEB9
:1006D0000A2000F0D9FC29003920FFF7BBFE0A20D0
:1006E00000F0D2FC21004120FFF7B4FE0A2000F008
:1006F000CBFC03B030BD000010B582B0184C012215
:100700000121200000F025FF00220221200000F03E
:1007100020FF012000F0B8FC01220221200000F09F
:1007200018FF642000F0B0FC0020FFF7F7FE0F2058
:1007300000F0AAFC0120FFF765FE04000A2000F08B
:10074000A3FC6B46D91D782040422043087001204D
:10075000FFF780FE642000F097FC02B010BDC04699
:100760000004004810B5FFF7C7FFD9204000FFF78D
:1007700012FFFC20FFF741FF6420FFF74BFF23200F
:10078000FFF76BFF01210720FFF774FF012107200E
:10079000FFF723FF0820FFF77DFFFFF788FF012009
:1007A000FFF7BCFE0A2000F06FFC10BDF0B5C64696
:1007B00000B582B007236B449846872342461370E6
:1007C0006B469F1D41233B706B465E1DFF233370BC
:1007D00001AD083B2B706B46DC1CD870FFF7C2FFE5
:1007E00041464D20FFF736FE39004020FFF732FE2C
:1007F00031001220FFF72EFE29001120FFF72AFEFC
:1008000021002220FFF726FE0E20FFF7FBFD6B469E
:10081000991C08700D20FFF71DFE02B004BC904625
:10082000F0BD000070B582B005000E006B46D91D0A
:10083000FF230B706B469C1DF72323701220FFF7DC
:1008400009FE21001120FFF705FE320029000020DB
:10085000FFF732FE0320FFF761FE0421074800F096
:1008600071FE012801D002B070BD6B46D91D113058
:10087000FFF7F0FD0120FFF751FEF4E70004004808
:1008800030B589B01422002103A802F0B0FF134B49
:10089000596980208002014359615A6902400192DE
:1008A000019A5A698021C9020A435A615B690B4067
:1008B0000293029B0A4D0B4C00222900200000F0FD
:1008C00048FE03950123049300230593069303A98F
:1008D000200000F073FD09B030BDC046001002409A
:1008E000077000000004004800B583B0094A516950
:1008F000012319435161526913400193019B002266
:1009000000210A2000F0D2FB0A2000F001FC03B015
:1009100000BDC04600100240014B01221A70704712
:100920008C00002070B505000124002602E02B5D3C
:100930005E4001342800FFF75DFD0438A042F6D880
:10094000300070BD72B6FEE710B51348134B03605C
:10095000134B436022238360213BC3600023036168
:1009600043618361C361036200F03EFE00280CD145
:100970000021094801F0AEF9002808D100210648FD
:1009800001F0D4F9002804D110BDFFF7DBFFFFF719
:10099000D9FFFFF7D7FFC046A00000200054004059
:1009A0000E09002010B51148114B036082235B0033
:1009B000436000238360E022D200C2600361436190
:1009C000802292008261C93AFF3AC26103624362A7
:1009D0008362313AC26203630833436301F0ECFE81
:1009E000002800D110BDFFF7ADFFC046C4010020B4
:1009F0000030014010B50B480B4B036096239B0160
:100A0000436000238360C36003610C224261836101
:100A1000C3610362436202F0C5FD002800D110BD2E
:100A2000FFF790FF400100200038014010B50B484F
:100A30000B4B036096239B01436000238360C360DC
:100A400003610C2242618361C3610362436202F06D
:100A5000A9FD002800D110BDFFF774FF2802002077
:100A60000044004010B50748074B0360052343606E
:100A7000064BC360836001F083F9002800D110BDEC
:100A8000FFF760FFEC00002000300040FC08000091
:100A900000B595B02C22002109A802F0A8FE102272
:100AA000002104A802F0A3FE10220021684602F0F3
:100AB0009EFE0A230893093B0B9310220C920F937E
:100AC0000133109380239B03129308A801F08CF943
:100AD000002818D107230493053B059300230693B0
:100AE0000793012104A801F003FC00280DD1212364
:100AF0000093002302930393684601F0A7FC0028AB
:100B000005D115B000BDFFF71DFFFFF71BFFFFF775
:100B100019FF0000F0B5C64600B5854CA54400F0AD
:100B200091FAFFF7B5FFFFF7ABFEFFF7DDFEFFF72A
:100B30000BFFFFF737FFFFF75DFFFFF777FFFFF7CB
:100B400091FF8021012249017A4800F002FDA3E0D3
:100B500002F08CFE01900134E4B27749002002F0EB
:100B6000C3FE002812D0052CF5D8A300734AD35831
:100B70009F4602F07BFEEEE702F078FE0090EAE787
:100B800002F074FEE7E702F071FEE4E70BAF022229
:100B9000019E3100380002F021FE0025BD7009AC35
:100BA000B11C0722200002F019FEE57108AE0322F5
:100BB0000099300002F012FEF57006AA9046009BE4
:100BC000D91C0722404602F009FE4346DD7106A902
:100BD00004A802F043FE5A4DC82302220BA92800A4
:100BE00002F030FCC823072209A9280002F02AFCE1
:100BF000C82301225349280002F024FCC823032201
:100C000008A9280002F01EFCC823072204A9280016
:100C100002F018FCC82301224B49280002F012FC04
:100C2000C82301224949280002F00CFC3A78A1AB04
:100C30001A707A785A7022789A706278DA70A2788C
:100C40001A71E2785A7122799A716279DA71A2790D
:100C50001A7232785A7272789A72B278DA7204AA78
:100C6000117819735178597391789973D178D97330
:100C7000117919745179597492799A7422E0344B2C
:100C800000221A701320FFF791FD1321A1A8FFF78E
:100C9000C9FD642000F0F8F9FF2261A92D4802F097
:100CA0000FFD2B4B1B78012BECD1FF22002121A83B
:100CB00002F09DFD61A921A802F0D0FD21A802F05B
:100CC000D5FD0390214903A802F0EDFD041ED6D006
:100CD000502200210DA802F08AFD21000DA802F08B
:100CE000BDFD1D490DA802F0E5FD0028EAD02A212E
:100CF0000DA802F0A5FD411C02220CA802F06EFD19
:100D00000CAB00229A700DA8FFF70CFEFF220240E8
:100D1000124902A802F074FD02A90CA802F0CAFD53
:100D20000028CFD004490DA802F0DEFD002418E70A
:100D300068FDFFFF00040048D84100087C4100081E
:100D400028020020DC410008E0410008E4410008DE
:100D50008C00002040010020CC410008D441000854
:100D600082B00A4B996901221143996199690A403D
:100D70000092009ADA69802149050A43DA61DB6949
:100D80000B400193019B02B07047C0460010024027
:100D900010B588B004001422002103A802F027FD3A
:100DA0002268174B9A4201D008B010BD154C6269F9
:100DB0008021C9020A43626163690B400193019B70
:100DC000C0230393AE3B0493113B05930322069289
:100DD000079303A90C4800F0F1FAE2698021890326
:100DE0000A43E261E3690B400293029B0022002167
:100DF000172000F05BF9172000F08AF9D4E7C0460D
:100E000000540040001002400004004810B588B0B3
:100E100004001422002103A802F0E9FC2268124B0E
:100E20009A4201D008B010BD104B99698020400152
:100E3000014399619A6902400192019A5A6980219D
:100E400089020A435A615B690B400293029BE023CB
:100E50000393DE3B049301330693902003A9C0055E
:100E600000F0ACFADEE7C04600300140001002405E
:100E700010B58AB004001422002105A802F0B7FCC6
:100E80002368334A934204D0324A934241D00AB095
:100E900010BD314B99698020C001014399619A6965
:100EA00002400192019A5A69802189020A435A61DB
:100EB0005B690B400293029BC023DB000593022376
:100EC000069301330893023B0993902005A9C005BE
:100ED00000F074FA2148224B0360002343608360D2
:100EE0008022C260036143618361C36100F062F9E3
:100EF00000280BD1194B23675C62002200211B20C4
:100F000000F0D4F81B2000F003F9C0E7FFF71AFD4A
:100F1000F0E7114BD969802292021143D961D96956
:100F20001140039103995969114359615B691A4052
:100F30000492049B0C2305930A3B06930133089308
:100F4000023B0993902005A9C00500F037FA9EE7FF
:100F5000003801400044004000100240FC00002026
:100F600030000240FEE7FEE77047704710B500F022
:100F700079F810BD10B5024800F0C6F910BDC046A2
:100F8000FC00002010B5074B1B689A69E023DB00CA
:100F90001A4203D1034800F08DFB10BD014800F058
:100FA0005BFEFAE7A000002010B5024801F00CFF3C
:100FB00010BDC0464001002010B503000B4A126866
:100FC000002A08D0094A1068C3186A46934206D816
:100FD000064A136010BD054A05491160F2E702F0A8
:100FE000D3FB0C23036001204042F3E79000002074
:100FF000B80200207047000010B504000F4B1978AC
:10100000FA208000FFF780F801000D4B1868FFF709
:101010007BF800F089F800280DD1032C01D90120BC
:101020000AE0013000222100404200F03FF8034B6B
:101030005C60002000E0012010BDC04604000020DC
:101040000000002010B5064A136810210B431360FE
:101050000020FFF7D1FFFFF783FE002010BDC04640
:1010600000200240034A1168034B1B785B18136091
:101070007047C046AC02002004000020014B1868F5
:101080007047C046AC02002070B50400FFF7F6FFC1
:101090000500631C02D0044B1B78E418FFF7EEFF39
:1010A000401BA042FAD370BD0400002070B5002898
:1010B00011DB8308144DC0339B005C5903221040A0
:1010C000C000FC3216008640B44389010A408240C9
:1010D00022435A5170BDC0B20F230340083B9B0806
:1010E00006339B00094A944663445D68032420400C
:1010F000C000FF2214008440A543890111408140B3
:1011000029435960E6E7C04600E100E000ED00E059
:10111000002805DB1F2318401E3B8340014A136053
:101120007047C04600E100E001380A4B98420FD8F2
:10113000094A50600948036A1B021B0AC0210906BC
:101140000B43036200239360073313600020704752
:101150000120FCE7FFFFFF0010E000E000ED00E0F1
:1011600070B5C56B0124066CB4406C6004686360A4
:101170004368102B04D0036899600368DA6070BD7F
:1011800003689A600368D960F9E7000010B50400AD
:101190000368064A9446634418001421FEF7B4FF1E
:1011A00080002064024BE36310BDC046F8FFFDBF22
:1011B0000000024070B5041E20D0212502234355B3
:1011C00001680B680E4A1A40436880680343E06870
:1011D00003432069034360690343A0690343E06953
:1011E000034313430B602000FFF7D0FF0023A363EA
:1011F000012262551F32A354002070BD0120FCE77C
:101200000FC0FFFF70B504002020205C012832D001
:101210002020012525540130205C012804D0202302
:101220000022E254022070BD2030013525540020F8
:10123000A063256828680126B04328602000FFF7D6
:101240008FFFE36A002B0BD0226813680E210B433B
:1012500013602268136801210B4313600020E2E74A
:10126000226813680A210B43136022681368063949
:101270008B431360EDE70220D5E710B52123C35C53
:10128000022B06D0042383631C330022C2540120A6
:1012900010BD026813680E218B43136001680A6851
:1012A00001239A430A60C26B1900046CA14051608B
:1012B000212283541F330022C2540020E8E710B5D6
:1012C0002123C35C022B03D004238363012010BDC0
:1012D000026813680E218B43136001680A680123BA
:1012E0009A430A60C26B1900046CA140516021222C
:1012F00083541F330022C254436B002B02D0984703
:101300000020E4E70020E2E770B5C36B1A680468C8
:101310002568016C04238B401A4212D06B0710D54C
:1013200023689B0603D42368042293432360C26B83
:101330000423016C8B405360C36A002B00D0984794
:1013400070BD02238B401A4218D0AB0716D5236814
:101350009B0606D423680A22934323602123093A7B
:10136000C254C26B0223016C8B40536020230022C5
:10137000C254836A002BE3D09847E1E708238B40EF
:101380001A42DDD02B07DBD523680E22934323605E
:10139000C26B01231900046CA140516083632122B8
:1013A00083541F330022C254036B002BC8D09847CC
:1013B000C6E72123C05CC0B270470000F0B583B01F
:1013C000002357E085685F000326BE40B5432E002A
:1013D000CD68BD40354385604568A5434C68260906
:1013E000012434409C402C43446051E0DD08083522
:1013F000AD002E5805341C40A4000F27A740BE4363
:101400000F69A7403C0034432C5055E0032600E010
:101410000026AE4035003D430234A400434EA551A2
:10142000434C2568D4432E0026404F68FF0301D566
:1014300015432E003E4D2E606D682E0026404F68ED
:10144000BF0301D515432E00394D6E60AD682E00E7
:1014500026404F68FF0201D515432E00344DAE6083
:10146000ED682C404E68B60201D52A431400304A7C
:10147000D46001330A681400DC4055D001249C403C
:101480002240F6D003254E683540013D012D99D903
:1014900003244D682C40032C09D0C4685E0003254A
:1014A000B540AC4325008C68B4402C43C460032491
:1014B0004D682C40022C99D005685E00032427005B
:1014C000B740BD434F683C40B4402C430460C02447
:1014D000A4024D682542CCD0164DAE6901242643A6
:1014E000AE61AD692C400194019C9C08A51CAD0027
:1014F0000E4EAF5903251D40AD000F26AE40B74339
:101500009026F605B04283D00B4EB04208D00B4E69
:10151000B04207D00A4EB04200D177E7052678E7FF
:10152000012676E7022674E703B0F0BD0000014013
:101530000004014000100240000400480008004878
:10154000000C004803690B4201D1002070470120C4
:10155000FCE7002A01D1816270478161FCE70368E2
:101560009A69920701D500229A6203689A69D207A4
:1015700003D49A6901210A439A61704730B5CB07B9
:1015800009D54123C35C28221340282B01D0F22324
:1015900002E01A3300E000238A0709D544241C43E3
:1015A0004122825C28252A40282A0FD0F4221343A6
:1015B0000AB2002A0CDB10290DD020290ED04029B8
:1015C0000FD001680A689A430A6030BD2300EFE734
:1015D000B8221343EFE790221343EEE72022134390
:1015E000EDE740221343ECE710B5041E59D0412328
:1015F000C35C002B43D041232422E25422681368A9
:1016000001218B4313602268274B61680B401361F3
:101610002268936825490B409360E368012B34D01E
:10162000226884231B02A1680B439360E368022BAA
:1016300032D0226851681E4B0B4353602268D36836
:101640001A490B40D360236962691343A2691202ED
:1016500021681343CB602268E369216A0B4313605E
:101660002268136801210B43136000236364412245
:101670001F31A15423630132A354002010BD403315
:101680000022C254FFF784FBB5E7226880231B02C7
:10169000A1680B439360C9E72368802212015A6056
:1016A000C7E70120EAE7C046FFFFFFF0FF7FFFFF2B
:1016B0000080000210B5036899691A68436B002B1B
:1016C00000D0984710BD70477047000010B5040067
:1016D00003681A6842210020605451040CD51A682E
:1016E00019490A401A604123E35C292B0BD041239E
:1016F000E35C2A2B17D010BD1204F4D51A681349E5
:101700000A401A60EFE718332822E254203B236393
:1017100001212000FFF732FF40230022E254200085
:10172000FFF7D1FFE7E717332822E2541F3B23637B
:1017300002212000FFF722FF40230022E254200074
:10174000FFF7C2FFD7E7C046FFBFFFFFFF7FFFFFE6
:101750007047F8B504004123C35C28221340282BAE
:1017600006D003680822DA6140230022C254F8BD83
:1017700003689E69360C273A16409A69120CFE27B8
:101780003A4015009A689205920DD8680740E168C2
:10179000022923D1D00945400431294210D1A16C3E
:1017A0000131A164A16C0229E1D10021A1640820CA
:1017B000D8614023E15431002000FFF7C9FFD6E78C
:1017C000802109022000FFF7D9FE40230022E254C5
:1017D0003A0031002000FFF7BBFFC8E78021090273
:1017E0002000FFF7CBFE40230022E2542A00310004
:1017F0002000FFF7ADFFBAE77047000010B5040006
:10180000164BC3620023036341222020A0540132FF
:10181000A35463634B0713D523685B6A626A137032
:10182000636A01336362238D002B09D0013B23855A
:10183000638D013B9BB26385636C04221343636435
:1018400007492000FFF79AFE23681022DA6140233F
:101850000022E2542000FFF7CFFF10BD0000FFFF81
:10186000038000007047704710B54123C35C602BB4
:1018700006D00023036340228354FFF7F3FF10BD1B
:101880001F3B2022C2540023036320328354FFF7FE
:10189000EAFFF4E710B504004123C35C00224220B4
:1018A00022543A48E0626285626C11436164283BCD
:1018B000DBB2022B1BD803212000FFF75FFE412380
:1018C0002822E254324B6363236BA26B002A03D0BD
:1018D000112B1AD0212B18D0E26B002A03D0122B27
:1018E00033D0222B31D02000FFF7BEFF10BD294995
:1018F0002000FFF743FE4123E35C602B02D041232D
:101900002022E25400236363DEE723681A6852044E
:1019100003D51A6820490A401A60A06BFFF749FDF9
:1019200001280ED0A36B1D4A5A6340230022E254C3
:10193000A06BFFF7C4FC0028D8D0A06B436B98477E
:10194000D4E72000FFF790FFD0E723681A6812045D
:1019500003D51A6812490A401A60E06BFFF729FDA7
:1019600001280ED0E36B0D4A5A6340230022E25453
:10197000E06BFFF7A4FC0028B8D0E06B436B9847FE
:10198000B4E72000FFF770FFB0E7C0460000FFFF9C
:101990000D1B000803800000FFBFFFFFB71C0008FD
:1019A000FF7FFFFF70B504000D0002681668412339
:1019B000C35CDBB22021D161212B0CD0292B0AD0B2
:1019C000222B01D02A2B0CD14A492000FFF7D6FD4B
:1019D0002223236305E048492000FFF7CFFD2123A0
:1019E00023632268516880231B020B4353602268E3
:1019F000536842490B4053602000FFF7B0FD730469
:101A000041D5226813683E490B401360A36B002B3D
:101A100003D01B685B689BB263856B0711D50423F9
:101A20009D4323685B6A626A1370636A0133636271
:101A3000238D002B05D0013B2385638D013B9BB299
:101A40006385638D9BB2002B03D0636C0422134328
:101A5000636400234222A3546363636C002B21D18F
:101A6000E26A284B9A422AD14123E35C222B36D0EA
:101A700041232022E254002323632032A354200078
:101A8000FFF721FE2AE03304C7D5226813681E49F8
:101A90000B401360E36B002BBFD01B685B689BB2ED
:101AA0006385BAE7616C2000FFF7F4FE4123E35C35
:101AB000282B13D129002000FFF7A0FE0EE0200004
:101AC000FFF704FE0F4BE36241232022E254002380
:101AD00023632032A3542000FFF78EFE70BD1F3316
:101AE0002022E254002323632032A3542000FFF776
:101AF000EBFDF3E7028000000180000000E800FE3B
:101B0000FFBFFFFF0000FFFFFF7FFFFFF8B50400EE
:101B10000D001600C76A4023C35C012B00D196E07C
:101B20000123402283544A09134201D0B30617D43B
:101B3000EB0640D5F3063ED5638D9BB2002B28D132
:101B40004133E35C282B0ED04123E35C292B13D0D7
:101B500023681022DA6140230022E2540020F8BDFD
:101B6000FFF720FFE4E780239B049F42ECD129008C
:101B70002000FFF743FEEEE7364B9F42E8D0236894
:101B80001022DA612000FFF7EAFC2000FFF79EFD3B
:101B9000E1E723681022DA61636C0C3A1343636453
:101BA000002F03D080235B049F42D4D1616C2000BE
:101BB000FFF770FECFE76B071ED573071CD5638D4B
:101BC0009BB2002B0DD023685B6A626A1370636A54
:101BD00001336362238D013B2385638D013B9BB2FF
:101BE0006385638D9BB2002BB5D11A4B9F42B2D057
:101BF0002000FFF76BFDAEE72B0701D5330716D4A6
:101C0000AB07A8D5B307A6D5638D9BB2002B13D025
:101C10002368626A12789A62636A01336362638D31
:101C2000013B9BB26385238D013B238593E729000C
:101C30002000FFF78EFD8EE780235B049F4202D0D9
:101C4000002F00D087E72000FFF740FD83E7022048
:101C500085E7C0460000FFFF70B502689369116810
:101C6000DC0508D50C0606D5446C01252C434464DC
:101C700080246400D4615A0509D50A0607D5426C50
:101C800008242243426402688024E400D4619B0556
:101C900009D50B0607D5436C02221343436403683E
:101CA000FF32FF32DA61416C0B230B4200D170BD71
:101CB000FFF7F0FDFBE710B5406A836B002B01D006
:101CC00000225A63C36B002B01D000225A63FFF736
:101CD000CBFD10BDF0B54123C35C202B20D12033B8
:101CE000C35C012B1ED04024012202554125242330
:101CF00043550668336893433360066833680A4F78
:101D00003B403360066833681943316001680B68F3
:101D100013430B602023435500230355002000E0AC
:101D20000220F0BD0220FCE7FFEFFFFFF0B54123EA
:101D3000C35C202B1ED12033C35C012B1CD040245C
:101D400001220255412524234355066833689343F5
:101D5000336006683368094F3B400902194331601C
:101D600001680B6813430B60202343550023035580
:101D7000002000E00220F0BD0220FCE7FFF0FFFFA2
:101D800070B5041E28D00368144A1A600368144A08
:101D90001A60036842685A60036882689A60FFF7B5
:101DA0006DF905002368DA6852070AD0FFF766F973
:101DB000401B2728F6D92368DB685B07F2D0032095
:101DC0000BE01969E268914202D01A61002004E038
:101DD000044A1A60002000E0012070BDCCCC000055
:101DE00055550000AAAA000070B582B0041E00D1AB
:101DF00032E20368DB0726D5AE4B5A680C2313404A
:101E0000042B18D0AB4B5A680C231340082B0ED070
:101E10006368012B3CD0002B51D1A64B1A68A64910
:101E20000A401A601A68A5490A401A6036E0A14BB8
:101E30005B68DB03ECD59F4B1B689B0303D5636892
:101E4000002B00D10BE223689B0773D5994B5B688D
:101E50000C221A425DD0974B5A680C231340082B72
:101E600053D0E368002B00D186E0924A1368012129
:101E70000B431360FFF702F905008E4B1B689B07AD
:101E800071D4FFF7FBF8401B0228F6D90320E4E1E8
:101E9000884A116880235B020B4313606368002B40
:101EA00025D0FFF7EBF80500824B1B689B03CAD4D3
:101EB000FFF7E4F8401B6428F6D90320CDE1052B99
:101EC00009D07C4B1A687C490A401A601A687B4921
:101ED0000A401A60E2E7774B19688022D2020A436F
:101EE0001A601968802252020A431A60D6E7FFF787
:101EF000C5F805006F4B1B689B03A4D5FFF7BEF820
:101F0000401B6428F6D90320A7E16A4B5B68DB031A
:101F1000A7D4684B1B689B0704D5E368012B01D04D
:101F200001209AE163490B68F82293432269D200A9
:101F300013430B6023681B0744D5E369002B2ED0A5
:101F40005C4A536A01210B435362FFF797F805007F
:101F5000584B5B6A9B0735D4FFF790F8401B02286B
:101F6000F6D9032079E153490B68F822934322699B
:101F7000D20013430B60DDE74E4A136801218B4307
:101F80001360FFF77BF805004A4B1B689B07D1D510
:101F9000FFF774F8401B0228F6D903205DE1454A9B
:101FA000536A01218B435362FFF768F80500414BE8
:101FB0005B6A9B0706D5FFF761F8401B0228F6D93C
:101FC00003204AE123685B0700D47FE0394BDB69DB
:101FD000DB001DD4374AD169802040050143D1611F
:101FE000D36903400193019B0125354B1B68DB0539
:101FF00010D5A368012B21D0002B36D12D4B1A6AA6
:1020000001218A431A621A6A03318A431A621AE06A
:102010000025EAE72A4A116880235B000B4313601E
:10202000FFF72CF80600264B1B68DB05E1D4FFF711
:1020300025F8801B6428F6D903200EE11D4A136A97
:1020400001210B431362A368002B24D0FFF716F87D
:102050000600184B1B6A9B0736D4FFF70FF8801B4E
:10206000184B9842F5D90320F7E0052B09D0114B06
:102070001A6A01218A431A621A6A03318A431A6270
:10208000E1E70C4B1A6A04210A431A621A6A0339FF
:102090000A431A62D7E7FEF7F1FF0600054B1B6AF9
:1020A0009B0711D5FEF7EAFF801B064B9842F5D936
:1020B0000320D2E000100240FFFFFEFFFFFFFBFF06
:1020C0000070004088130000012D33D02368DB0628
:1020D00010D56369012B33D0053351D1644A536B5A
:1020E00004218B435363536BF4318B43A169C900C3
:1020F0000B435363236A002B00D1B2E05C4A516862
:102100000C220A40082A00D18AE0022B4FD0584AFC
:10211000136858490B401360FEF7B0FF0400544B9E
:102120001B689B017AD5FEF7A9FF001B0228F6D990
:10213000032092E04E4AD3694F490B40D361C5E773
:102140004B4B5A6B04210A435A635A6B03390A43B7
:102150005A63FEF793FF0500454B5B6B9B0706D464
:10216000FEF78CFF401B0228F6D9032075E040499A
:102170004B6BF8229343A269D20013434B63B9E738
:102180003B4B5A6B04210A435A635A6B03398A4307
:102190005A63FEF773FF0500354B5B6B9B07A9D5B0
:1021A000FEF76CFF401B0228F6D9032055E0304AA9
:1021B000136830490B401360FEF760FF05002C4B9D
:1021C0001B689B0106D5FEF759FF401B0228F6D974
:1021D000032042E0264BDA6A0F218A43E16A0A4370
:1021E000DA625A6825490A40A16A606A01430A43D3
:1021F0005A601968802252040A431A60FEF73EFFB3
:1022000004001B4B1B689B0106D4FEF737FF001B25
:102210000228F6D9032020E000201EE000201CE068
:10222000012B20D0124B5A68D96A80235B021340DD
:10223000606A834201D001200FE00F230B40E16A66
:102240008B4201D0012008E0F0239B031A40A36ACF
:102250009A420AD0012000E0012002B070BD0120A6
:10226000FBE70020F9E70120F7E70020F5E7C0468B
:1022700000100240FFFFFFFEFFFFFFEFFFFFC2FF66
:1022800030B589B004AA174B180032C832C2110009
:1022900002680A606A46103313CB13C21B681360CE
:1022A000114B5A680C231340082B19D1910C07339A
:1022B000194004A8445C0C49C96A0B406946C95CD2
:1022C000D30308D463011B1B9801C01AC000041972
:1022D000200209B030BD0548FDF716FF6043F8E75E
:1022E0000248F6E7AC4100080010024000127A00F4
:1022F00070B504000D00002800D181E0424B1A683F
:10230000012313408B420BD23F490B6801229343B8
:102310002B430B600B681A40AA4201D0012070E0E9
:1023200023689A070ED55B0705D5384A5168E02324
:10233000DB000B435360354A5368F0218B43A1689F
:102340000B4353602368DB072DD56368012B1ED038
:10235000022B22D02D4A1268920753D52B494A6886
:102360000320824313434B60FEF788FE0600274B91
:102370005B680C221A4063689B009A4213D0FEF7F8
:102380007DFE801B224B9842F1D9032039E01F4A81
:1023900012689203E2D4012033E01C4A12689201D1
:1023A000DCD401202DE0184B1A6801231340AB4206
:1023B0000BD915490B68012293432B430B600B6823
:1023C0001A40AA4201D001201BE023685B0706D512
:1023D0000E4A53680F490B40E1680B435360FFF707
:1023E0004FFF0A4B5A6812090F2313400A4AD35C65
:1023F000D8400A4B18600020FEF7FEFD002000E0E8
:10240000012070BD0120FCE70020024000100240C6
:1024100088130000FFF8FFFF94410008000000202F
:10242000014B18687047C0460000002010B5FFF748
:10243000F7FF044B5A68120A07231340024AD35C81
:10244000D84010BD00100240A441000870B582B011
:1024500004000368DB0335D53C4BDB69DB0048D463
:102460003A4AD169802040050143D161D3690340D4
:102470000193019B0125364B1B68DB053BD5334B94
:102480001B6AC0229200134013D061680A409A422E
:102490000FD02E4B186A2F4A02401E6A8021490233
:1024A00031431962196A2C4E314019621A62C3070E
:1024B00035D4264A136A27490B4061680B431362DF
:1024C000012D3BD02368DB0706D5204A136B03217F
:1024D0008B43A1680B43136323689B0633D51B4AC8
:1024E000136B10218B43E1680B431363002002B090
:1024F00070BD0025BFE7164A116880235B000B43BF
:102500001360FEF7BBFD0600114B1B68DB05B6D45C
:10251000FEF7B4FD801B6428F6D90320E7E7FEF739
:10252000ADFD0600094B1B6A9B07C2D4FEF7A6FD52
:10253000801B0A4B9842F5D90320D8E7D369084994
:102540000B40D361BEE70020D1E7C0460010024037
:1025500000700040FFFCFFFFFFFFFEFF881300003C
:10256000FFFFFFEFF0B5CE46474680B583B00500CC
:102570000C0017001E00FEF781FD0A9B181A80460A
:10258000B044FEF77BFD81462C4B1B685B011B0DA5
:102590004246534301932B689B6823401B1B5A42BE
:1025A0005341BB4244D0731CF5D0FEF767FD4B4648
:1025B000C01A40450AD24346002B07D0019B002B8E
:1025C00000D19846019B013B0193E4E72A685368D8
:1025D000E0218B43536082235B006A689A420CD0EF
:1025E00080239B01AA6A9A4216D05D230122EA54F5
:1025F000013B0022EA5403201BE0AB688022120258
:10260000934203D08022D2009342E9D12A68136812
:1026100040218B431360E3E72A68136808490B40A5
:1026200013602A68116880239B010B431360DCE769
:10263000002003B00CBC90469946F0BD000000207D
:10264000FFDFFFFFF0B5D6464F464646C0B582B025
:1026500006000C0015001F006B460022DA70FEF722
:102660000DFD0A9B181A8046B844FEF707FD824606
:1026700033689946344B1A6893009A18D3009B1A12
:102680001B0D42465343019301E07B1C11D133687B
:102690009B682340AB424FD0C023DB009C42F4D167
:1026A000002DF2D14B461B7BDBB26A46D370D37848
:1026B000EBE7FEF7E3FC5346C01A40450AD2434617
:1026C000002B07D0019B002B00D19846019B013BBA
:1026D0000193DCE732685368E0218B435360822327
:1026E0005B0072689A420CD080239B01B26A9A42C6
:1026F00016D05D230122F254013B0022F254032044
:102700001BE0B36880221202934203D08022D200E1
:102710009342E9D13268136840218B431360E3E7A9
:102720003268136809490B401360326811688023CE
:102730009B010B431360DCE7002002B01CBC9046F9
:102740009946A246F0BDC04600000020FFDFFFFF13
:1027500070B582B004000D001600C02100922B005D
:1027600000224901FFF76EFF002818D100962B00C8
:10277000002280212000FFF7F5FE002816D1C0219D
:1027800000962B000022C9002000FFF75BFF002805
:102790000AD0236E202213432366032004E0236E15
:1027A000202213432366032002B070BD236E202233
:1027B000134323660320F7E770B5041E00D178E0C9
:1027C000436A002B07D10533FF3342689A4205D094
:1027D0000023C36102E00023036143610023A3627D
:1027E0005D33E35C002B5AD05D230222E254226861
:1027F000136840218B431360E368E022D2009342C8
:1028000054D90022F02109018B4205D0E021C900F2
:102810008B4201D00023A36282235B0061680B40DE
:1028200084210902A06801400B4302212069014074
:102830000B43012160690840034380208000A569A3
:10284000284003433820E569284003438020256A57
:102850002840034380208001A56A2840256803435F
:102860002B60608B042303401020656A28400343DB
:102870000820656B28400343F0200001E5682840EC
:1028800003432068134343602268D3690A48034026
:10289000D361002323665D33E154002070BD5C33B7
:1028A0000022E2542000FEF7B1FA9DE78022520197
:1028B000A8E70120F2E7C046FFF7FFFFF0B585B0BB
:1028C0000400019116001F005C23C35C012B00D1A2
:1028D000C6E05C230122C254FEF7D0FB05005D2355
:1028E000E35C012B08D002205D230122E254013B6E
:1028F0000022E25405B0F0BD0199002900D1A1E009
:10290000002E00D1A0E05C330322E25400232366B2
:10291000A163A687E68723644132A3520232A35201
:102920002365E36480231B02A2689A421DD02368BA
:102930001A68520603D41A6840210A431A60E02339
:10294000DB00E2689A4238D96368002B01D0012E7F
:1029500020D12368A26B1288DA60A36B0233A363D1
:10296000E38F013B9BB2E38714E0226813684021A8
:102970008B431360226811688023DB010B431360D3
:10298000D5E7FEF77BFB401BB84201D37B1C5DD132
:10299000002F5DD0E38F9BB2002B3BD023689A6859
:1029A0009207EED5A26B1288DA60A36B0233A363A1
:1029B000E38F013B9BB2E387ECE76368002B01D018
:1029C000012E14D1A36B1B7822681373A36B013300
:1029D000A363E38F013B9BB2E38708E0FEF74EFB66
:1029E000401BB84201D37B1C34D1002F34D0E38F7D
:1029F0009BB2002B0ED023689A689207EED5A26B8B
:102A000012781A73A36B0133A363E38F013B9BB26C
:102A1000E387ECE72A0039002000FFF799FE002841
:102A200001D020232366A368002B06D103932368DB
:102A3000DA6803929B680393039B236E002B0DD1EE
:102A4000002051E701204FE701204DE703204BE72D
:102A5000032049E7032047E7032045E7012043E738
:102A6000022047E7F0B583B004000E0001921D007C
:102A70005C23C35C012B00D116E15C230122C2540C
:102A8000FEF7FCFA07005D23E35CDBB26268012B12
:102A900014D0822149008A4208D002205D230122FD
:102AA000E254013B0022E25403B0F0BDA268002AC8
:102AB00000D0EBE0042B01D00220EFE7002E00D184
:102AC000E6E0019B002B00D1E4E0002D00D1E3E023
:102AD0005D23E35C042B02D05D230522E254002336
:102AE0002366019A22644622A552023AA552A663A1
:102AF000E587A587E3642365E023DB00E2689A426B
:102B000023D92268536869490B40536023681A68C7
:102B1000520603D41A6840210A431A60E023DB00FE
:102B2000E2689A4255D96368002B01D0012D0AD181
:102B30002368A26B1288DA60A36B0233A363E38F6E
:102B4000013B9BB2E387012524E022685168802382
:102B50005B010B435360D9E723689A68D20710D50D
:102B60004622A25A92B2002A0BD0DB68226C138054
:102B7000236C023323644622A35A013B9BB2A35227
:102B80000125FEF77BFAC01B089B984202D3013354
:102B900000D083E0E38F9BB2002B04D14633E35A8D
:102BA0009BB2002B66D023689A689207D4D5E28F37
:102BB00092B2002AD0D0012DCED1A26B1288DA6059
:102BC000A36B0233A363E38F013B9BB2E387002532
:102BD000C2E76368002B01D0012D0AD1A36B1B78DB
:102BE00022681373A36B0133A363E38F013B9BB292
:102BF000E38701251FE023689A68D20710D5462293
:102C0000A25A92B2002A0BD01B7B226C1370236C49
:102C1000013323644622A35A013B9BB2A3520125F0
:102C2000FEF72CFAC01B089B984201D3013337D121
:102C3000089B002B36D0E38F9BB2002B04D1463388
:102C4000E35A9BB2002B15D023689A689207D2D51D
:102C5000E28F92B2002ACED0012DCCD1A26B127895
:102C60001A73A36B0133A363E38F013B9BB2E3872A
:102C70000025C0E73A0008992000FFF769FD002809
:102C800000D10BE720232366012007E7022005E798
:102C9000012003E7012001E70120FFE60320FDE614
:102CA0000320FBE60320F9E60220FDE6FFEFFFFF2D
:102CB0005D23C05CC0B2704710B5EFF310810123F3
:102CC00083F3108802681368C024A343136081F360
:102CD00010882023836710BD30B5EFF310840122E4
:102CE00082F3108801680B68114D2B400B6084F350
:102CF0001088EFF3108482F3108801688B68934387
:102D00008B6084F31088036E012B05D02023C367EA
:102D100000230366436630BDEFF3108183F3108810
:102D2000026813681024A343136081F31088EDE751
:102D3000DFFEFFFF704710B5EFF31081012383F32F
:102D40001088026813684024A343136081F310883D
:102D50002023836700238366FFF7ECFF10BD7047D5
:102D6000704770B5446AA26FE56F23689B681B06C5
:102D700001D5212A0ED023689B685B0601D5222D40
:102D80000FD08022A35810210B43A3502000FFF73F
:102D9000E7FF70BD52230022E2522000FFF78CFFB4
:102DA000E9E75A230022E2522000FFF795FFE8E707
:102DB00010B5406A00235A228352083A8352FFF723
:102DC000CFFF10BD7047000070B504000168CB69EB
:102DD00008688D68A14A1A400AD19E0608D5860661
:102DE00006D5636E002B00D133E12000984730E117
:102DF000002A00D18AE001222A4003D1984D2842BE
:102E000000D183E0DD0707D5C50505D501260E6293
:102E10008025615931436151990709D5002A07D0AE
:102E2000216802250D627E356159042631436151C6
:102E3000590709D5002A07D0216804250D627C3581
:102E4000615902263143615119070AD5810601D41F
:102E5000002A06D0226808251562802162582A437C
:102E600062501A050AD5420108D52268802109015D
:102E700011628021625820252A4362508022A25884
:102E8000002A00D1E5E09B0606D5830604D5636ED3
:102E9000002B01D0200098478023E25823689B68CC
:102EA0005B0602D42823134229D02000FFF714FF29
:102EB00023689B685B061ED5EFF31081012383F323
:102EC00010882268936840208343936081F31088C0
:102ED000236F002B0BD0634A5A63206FFEF7EFF984
:102EE000002800D1B5E0206F436B9847B1E0200087
:102EF000FFF736FFADE02000FFF732FFA9E020002A
:102F0000FFF72EFF80230022E250A2E0226E012A6A
:102F10000CD01A0600D498E0020600D495E0A36E07
:102F2000002B00D195E02000984792E0DA06F0D51A
:102F3000C206EED510230B6223689B685B064ED554
:102F4000226F13685B689BB2002B00D181E058218F
:102F5000615A994200D87CE05A2163529369202B30
:102F600033D0EFF31080012383F3108821680A68BF
:102F70003D4D2A400A6080F31088EFF3108083F300
:102F8000108821688A689A438A6080F31088EFF37A
:102F9000108083F3108821688A684235FF35AA4380
:102FA0008A6080F310882022E26700222266EFF315
:102FB000108183F310882268136810208343136004
:102FC00081F31088206FFEF758F95823E15A023335
:102FD000E35AC91A89B22000FFF7F4FE39E05823FA
:102FE000E15A0233E25A891A89B2E35A9BB2002BA2
:102FF0002FD000292DD0EFF31085012383F3108803
:1030000020680268194E3240026085F31088EFF3A1
:10301000108583F31088206882689A43826085F364
:1030200010882022E267002222666266EFF3108099
:1030300083F31088226813681025AB43136080F374
:1030400010882000FFF7BEFE03E05B0601D54306B3
:1030500000D470BD2000FFF76EFEFAE70F080000F5
:1030600020010004B12D0008FFFEFFFFDFFEFFFF7F
:1030700010B5406A036E012B02D0FFF770FE10BD41
:103080005733C15A4908FFF79DFEF8E770B5436A08
:103090008269202A28D05A2200219952EFF3108405
:1030A000593A82F31088186801681C4D2940016064
:1030B00084F31088EFF3108482F310881868816815
:1030C0009143816084F31088EFF3108082F31088BD
:1030D00019688A684024A2438A6080F310882022FD
:1030E000DA671A6E012A06D01A6E012A0FD018006C
:1030F000FDF712FC70BDEFF3108082F310881968A1
:103100000A68303CA2430A6080F31088ECE757322B
:10311000995A1800FFF756FEECE7C046FFFEFFFF86
:1031200010B5040083680269134342691343C269FE
:10313000134301680A684F48024013430B6022683A
:1031400053684D490B40E1680B435360226AA36901
:103150001A4321688B684948034013438B602368F6
:10316000474A934214D0474A934225D010238022E5
:103170001202E169914223D0022B00D169E04ED9BD
:10318000042B68D0082B00D06EE0802000024CE0B9
:103190003D4B1A6B03231340012B09D0002B05D0A4
:1031A000022B07D0032B09D01023E0E70023DEE732
:1031B0000423DCE70823DAE70023D8E70223D6E775
:1031C000022B2AD006D9042B24D0082B46D18020EC
:1031D000000205E0002B41D1FFF728F900283FD07D
:1031E000400063685B08C0186168FCF78DFF83B21C
:1031F0000004000C01001039244A914232D80F22F9
:1032000093431A0040080723184010432368D860EE
:1032100000201AE0FFF734F8E0E71D48E0E7002B54
:1032200022D1FFF703F9002820D063685B08181843
:103230006168FCF769FF0004000C0200103A134BB0
:103240009A4215D82368D860002000236366A366DD
:1032500010BD0F48E9E7FFF713F8E4E70120F4E7B2
:103260000020F2E70120F0E70120EEE70020ECE784
:103270000120EAE7F369FFFFFFCFFFFFFFF4FFFF45
:10328000003801400044004000100240EFFF000001
:1032900000127A00436ADB0706D5026853682C499E
:1032A0000B40816A0B435360436A9B0706D5026853
:1032B000536828490B40C16A0B435360436A5B075C
:1032C00006D50268536824490B40016B0B435360D9
:1032D000436A1B0706D50268536820490B40416BBF
:1032E0000B435360436ADB0606D5026893681C49AA
:1032F0000B40816B0B439360436A9B0606D50268C3
:10330000936818490B40C16B0B439360436A5B069B
:103310000BD50268536814490B40016C0B43536092
:1033200080235B03026C9A420AD0436A1B0606D5CF
:10333000026853680D490B40816C0B435360704722
:10334000026853680A490B40416C0B435360ECE739
:10335000FFFFFDFFFFFFFEFFFFFFFBFFFF7FFFFF04
:10336000FFEFFFFFFFDFFFFFFFFFEFFFFFFFF7FFB5
:10337000FFFF9FFFF0B5C64600B505000C00170023
:103380009846069E2B68DB6923401B1B5A4253411B
:10339000BB4251D1731CF5D0FDF770FE4346C01AF5
:1033A000B0422BD8002E29D02B681A685207E9D5D5
:1033B000DA691205E6D5802212011A62EFF3108055
:1033C000012282F3108829680B681D4C23400B6092
:1033D00080F31088EFF3108082F3108829688B68DF
:1033E00093438B6080F310882023AB67EB677F32B9
:1033F000AB5054330022EA5403201EE0EFF3108058
:10340000012282F3108829680B680D4C23400B6061
:1034100080F31088EFF3108082F3108829688B689E
:1034200093438B6080F310882023AB67EB675433A2
:103430000022EA54032000E0002004BC9046F0BDC6
:103440005FFEFFFFF0B585B004000E0017001D0001
:10345000836F202B60D1002961D0002A61D08023A6
:103460005B0182689A421CD07423E35C012B5AD022
:1034700074230122E2540C330022E2505F3BA36725
:10348000FDF7FCFD03905023E7520233E7528023FF
:103490005B01A2689A420BD0002774230022E254F9
:1034A00019E00369002BDFD1CB07DDD5012034E023
:1034B0002369002B01D00027EFE737000026ECE757
:1034C0003B88DB05DB0D2268138502375222A35AA5
:1034D000013B9BB2A3525223E35A9BB2002B0FD065
:1034E0000095039B002280212000FFF743FF002866
:1034F0001BD1002EE4D03378226813850136E5E72E
:103500000095039B002240212000FFF733FF002895
:103510000DD12023A36700E0022005B0F0BD0120FB
:10352000FBE70120F9E70220F7E70320F5E7032096
:10353000F3E7000030B583B0040080230022C250BE
:10354000FDF79CFD050023681B681B070DD423684D
:103550001B685B0716D42023A367E3670023236659
:103560007422A354002003B030BD80210C4B009383
:103570000300002289032000FFF7FCFE0028E6D0AC
:103580000320F0E78021064B00932B000022C903A3
:103590002000FFF7EFFE0028DDD00320E3E7C04660
:1035A000FFFFFF0110B5041E2ED0836F002B21D02A
:1035B0002423A3672268136801218B431360200032
:1035C000FFF7AEFD012814D0636A002B18D12268E2
:1035D00053680E490B4053602268936808218B435F
:1035E00093602268136807390B4313602000FFF7CC
:1035F000A1FF10BD74330022C254FDF739FCD7E798
:103600002000FFF747FEE2E70120F2E7FFF7FFFFA8
:1036100070B5040041655823C25228330021C150BF
:103620005E3BC367036F002B13D022499962036F7F
:103630002149D962036F21491963036F002159633E
:10364000016824311300426D006FFDF7DBFD002897
:1036500026D174230022E254EFF31080733B83F3EE
:10366000108821680D680132FF322A430A6080F316
:103670001088EFF3108083F3108821688A681A435A
:103680008A6080F31088EFF3108183F3108822683A
:10369000936840200343936081F31088002070BD3D
:1036A00080231022E2500C3B0022E254543BE3679B
:1036B0000120F4E78D30000871300008632D000808
:1036C00070B5C36F202B2CD100292CD0002A2CD010
:1036D00080235B0184689C421CD07423C35C012B53
:1036E00025D074230124C4540023036603685B6857
:1036F0001B020CD5EFF31085012383F310880468B7
:1037000026688023DB043343236085F31088FFF7AA
:103710007FFF07E00369002BDFD1CB07DDD5012058
:1037200000E0022070BD0120FCE70120FAE7022042
:10373000F8E700000D4885460D480E490E4A002363
:1037400002E0D458C4500433C4188C42F9D30B4A55
:103750000B4C002301E013600432A242FBD3FDF7BF
:1037600049FC00F017F8FDF7D5F9FEE7002000202E
:10377000000000207000002024420008700000209B
:10378000B4020020FEE70000014B18687047C046F5
:103790000C00002070B500260C4D0D4C641BA410CD
:1037A000A64209D1002600F0DDFC0A4D0A4C641B3C
:1037B000A410A64205D170BDB300EB58984701365E
:1037C000EEE7B300EB5898470136F2E71C420008D9
:1037D0001C4200081C42000820420008002310B5CB
:1037E0009A4200D110BDCC5CC4540133F8E7030009
:1037F0001218934200D1704719700133F9E70000A5
:103800000EB400B50B499CB01DAB02900690079119
:1038100004910948094904CB0591006802A9019364
:1038200000F0CCF90023029A13701CB008BC03B05E
:103830001847C046FFFFFF7F0C0000200802FFFF73
:10384000C9B20378002B04D08B4200D170470130FD
:10385000F7E74B42594149420840F7E703000A782D
:1038600001311A700133002AF9D1704710B5034BAA
:103870000100186800F004F810BDC0460C000020DC
:1038800070B5050008000E00FCF7B4FD441C2100D3
:10389000280000F0D3F8051E03D022003100FFF706
:1038A0009DFF280070BD10B502000023006800F0E5
:1038B00043F810BD10B50378002B0FD10B785A4296
:1038C00053415B42184010BD0023CA5C002AFAD065
:1038D000C45C944201D10133F7E701300378002B37
:1038E000F2D11800EFE70000F8B5124B06001D6892
:1038F0000F00AC6D002C16D1502000F04BF8A865DD
:10390000046044608460C4600461446184618462D2
:10391000C462046344638463C4630464446484646D
:10392000C46404774462AA6D39003000012300F0BA
:1039300003F8F8BD0C000020F0B5002804D1106891
:10394000002801D1F0BD20000E000578441C377816
:10395000002F04D1002D10D115602800F2E70136A8
:10396000BD42F4D1002BEED114600370EAE73300BE
:103970000DE00135002F03D11C000D002678631CDB
:103980002F78BE42F5D1002EF1D0002121701360B6
:10399000D8E7000010B5034B0100186800F04EF89E
:1039A00010BDC0460C00002070B50500002910D0E5
:1039B0000C1F2368002B00DAE418280000F0A2FB9B
:1039C0001D4A1368002B05D163601460280000F0C5
:1039D0009AFB70BDA34209D9216860188342F3D1D4
:1039E00018685B6841182160EEE713005A68002AE6
:1039F00001D0A242F9D919685818A0420BD1206809
:103A00000918581819608242E0D1106852684118AC
:103A100019605A60DAE7A04202D90C232B60D5E77F
:103A200021686018824203D11068526841182160F1
:103A300062605C60CAE7C04698000020032370B54E
:103A4000CD1C9D43083506000C2D1ED20C25A94225
:103A50001DD8300000F056FB254A146821000029CB
:103A600019D1244C2368002B03D1300000F01AFB3D
:103A700020602900300000F015FB431C2BD10C23E3
:103A80003000336000F03FFB03E0002DDFDA0C2351
:103A90003360002070BD0B685B1B19D40B2B03D95E
:103AA0000B60CC18256003E04B688C420DD113608D
:103AB000300000F028FB200007220B30231D90432C
:103AC000C31AE7D05A42E250E4E763600C00EFE724
:103AD0000C004968C3E70323C41C9C43A042E1D007
:103AE000211A300000F0DEFA431CDBD1C7E7C046E4
:103AF000980000209C000020F0B58E6885B007007B
:103B00000C00039201939E423CD890238A89DB00EB
:103B10001A4234D00325096923685B1A029363694A
:103B200002985D43EB0F5D19019B6D1001331B186B
:103B3000AB4200D91D00530532D529003800FFF7EC
:103B40007DFF061E09D10C233B6040230120A28982
:103B500040421343A38105B0F0BD029A2169FFF7EB
:103B60003DFEA389144A1A4080231343A381029B7C
:103B70002661F61826606561019EED1AA560019B1D
:103B80009E4200D9019E32000399206800F0A7FAF6
:103B9000A36800209B1BA36023689E192660DAE7B8
:103BA0002A00380000F0B0FA061EE0D12169380082
:103BB000FFF7FAFEC7E7C0467FFBFFFFF0B5A1B0F5
:103BC00003901D008B890F0016001B0611D50B6991
:103BD000002B0ED14021FFF731FF386038610028FB
:103BE00005D10C23039A0138136021B0F0BD4023A6
:103BF0007B61002308AC6361203363761033A376C6
:103C0000079535002B78002B01D0252B46D1AB1B17
:103C100005930CD0320039000398FFF76DFF431C69
:103C200000D1AEE06269059B9446634463612B78E2
:103C3000002B00D1A5E0012200235242626004A9BA
:103C4000543252186E1C2360E360A3601370A365A6
:103C500031780522534800F037FA751C00281FD12F
:103C60002268D30604D5532304A95B1820211970B8
:103C7000130704D5532304A95B182B21197033783B
:103C80002A2B16D0350000210A20E3682A786E1C02
:103C9000303A092A4ED9002918D010E00135B1E791
:103CA000404B2268C01A01238340134323602E0037
:103CB000CEE7079B191D1B680791002B01DB0B93B7
:103CC00004E05B42E3600223134323602B782E2B36
:103CD0000AD16B782A2B35D1079B02351A1D1B6838
:103CE0000792002B2BDB09932F4E297803223000FB
:103CF00000F0EAF9002806D04023801B83402268A8
:103D00000135134323602978062228486E1C21764A
:103D100000F0DAF900283CD0254B002B25D10722F2
:103D2000079B07339343083307936369049A9B18EF
:103D3000636166E7434301219B183500A6E7012331
:103D40005B42D0E700230A201A000135636029781E
:103D50006E1C3039092903D9002BC5D00992C3E75D
:103D60004243012352183500F1E707AB00933A00B4
:103D7000104B2100039800E000BF0490049B013326
:103D8000D3D1BB890D985B0600D42EE701204042B9
:103D90002BE707AB00933A00064B2100039800F095
:103DA00079F8EAE7E8410008EE410008F24100082E
:103DB00000000000F93A0008F7B5150001938A6881
:103DC0000B6900900C00934200DA130022002B6074
:103DD00043321278002A01D001332B6023689B06FE
:103DE00002D52B6802332B60062723681F4027D09B
:103DF000230043331B785A1E93412268920630D425
:103E00002200019943320098089EB047431C25D0F8
:103E1000062320682A68E16803400025042B03D1AB
:103E20008D1AEB43DB171D40A3682269934201DD25
:103E30009B1AED180027BD4220D1002010E0013769
:103E4000E3682A689B1ABB42D2DD220001231932A3
:103E500001990098089EB047431CF0D101204042D0
:103E6000FEBD3020E1184331087021005A1C453155
:103E70000978A218433202331170C1E722000123EE
:103E80001A3201990098089EB047431CE6D00137CA
:103E9000D1E70000F0B589B004920A0043320593DF
:103EA000039002920A7E0C000E9B6E2A00D186E0DF
:103EB0001FD8632A33D008D8002A00D18CE0582AB2
:103EC0004DD0250042352A7030E0642A01D0692A9D
:103ED000F7D1196825680A1D280629D508681A60CF
:103EE000002803DA2D23029A404213706B4E0A27F2
:103EF0004FE0732A74D008D86F2A1FD0702AE0D1FF
:103F0000202209680A43226003E0752A16D0782A25
:103F1000D7D12200782145321170614E22E0250070
:103F20001A684235111D196013682B70012365E072
:103F300008681A606906D3D500B2D1E71968256808
:103F4000081D186008682E0605D5544E08276F2AEC
:103F50001BD00A2719E06D06F7D580B2F5E7453189
:103F60004E4E0A7018682268011D00681960150617
:103F700021D5D30702D520231A4322601027002819
:103F800003D1202322689A43226023000022433376
:103F90001A706368A360002B58DB042221689143E8
:103FA0002160002854D1029D002B5AD0250033787F
:103FB00042352B7055E05506DBD580B2D9E71A683B
:103FC0000D68101D4969186013682E0601D5196027
:103FD00002E06D06FBD519800023029D23614FE0AE
:103FE0001A68111D1960156800216268280000F028
:103FF0006BF8002801D0401B6060636823610023D8
:10400000029A13703CE023692A0004990398059DE5
:10401000A847431C3ED023689B0715D4079BE06844
:10402000984239DA180037E0220001231932049946
:104030000398059EB047431C2CD00135E368079ACE
:104040009B1AAB42F0DCE9E70025F7E70028ADD08A
:10405000029D3900FCF7DEF8735C013D2B700028EF
:10406000F7D1082F09D12368DB0706D563682269D9
:10407000934202DC3023013D2B70029B5B1B2361CA
:10408000059B07AA00932100049B0398FFF794FE69
:10409000431CB8D10120404209B0F0BDF9410008ED
:1040A0000A420008002370B5064C05000800236092
:1040B000FCF782FF431C03D12368002B00D02B6048
:1040C00070BDC046B0020020C9B28218904201D132
:1040D0000020704703788B42FBD00130F6E710B523
:1040E000884202D98B18984203D3002307E08B5CE7
:1040F0008354013AFBD210BDCC5CC45401339A42C4
:10410000FAD1F8E770477047F8B507000D001600C0
:10411000002905D11100FFF791FC04002000F8BD33
:10412000002A03D1FFF740FC3400F7E700F012F853
:104130002C00B042F2D231003800FFF77FFC041EA1
:10414000ECD029003200FFF749FB29003800FFF7C7
:104150002BFCE3E70B1F1B68181F002B01DA0B5821
:10416000C0187047F8B5C046F8BC08BC9E467047FA
:0C417000F8B5C046F8BC08BC9E4670477D
:10417C00560B0008500B0008720B0008780B000857
:10418C00800B0008860B00080000000000000000F7
:10419C0001020304060708090000000001020304E1
:1041AC0002030405060708090A0B0C0D0E0F10106C
:1041BC000102030405060708090A0B0C0D0E0F106B
:1041CC0024474E474C4C0000255800002C000000A2
:1041DC00200000000D0000000A000000232D302BF1
:1041EC002000686C4C0065666745464700303132EC
:1041FC003334353637383941424344454600303143
:10420C0032333435363738396162636465660000A1
:04421C00E9000008AD
:04422000C1000008D1
:1042240000127A00010000000400000010000020C9
:10423400000000000000000000000000000000007A
:10424400000000000000000000000000000000006A
:10425400000000000000000000000000000000005A
:10426400000000000000000000000000000000004A
:10427400000000000000000000000000000000003A
:10428400000000000000000000000000000000002A
:040000050800373583
:00000001FF
