:020000040800F2
:10000000008001209D710008792400087B240008ED
:100010007D2400087F2400088124000800000000DF
:100020000000000000000000000000008324000821
:1000300085240008000000008724000889240008A7
:10004000ED710008ED710008ED710008ED71000818
:10005000ED710008ED710008ED710008ED71000808
:10006000ED710008ED710008ED710008ED710008F8
:10007000ED710008ED710008ED7100089124000891
:10008000ED710008A1240008ED710008ED71000871
:10009000B1240008ED710008ED710008ED71000851
:1000A000ED710008ED710008ED710008ED710008B8
:1000B000C1240008ED710008ED710008D12400088A
:1000C000E1240008ED710008ED710008ED710008F1
:1000D000ED710008ED710008ED710008ED71000888
:1000E000ED710008ED710008ED710008ED71000878
:1000F000ED710008ED710008ED710008ED71000868
:10010000ED710008ED710008F1240008ED710008A0
:10011000ED710008ED710008ED710008ED71000847
:10012000ED710008ED710008ED710008012500086F
:1001300011250008ED710008ED710008ED7100084F
:10014000ED710008ED710008ED710008ED71000817
:10015000ED710008ED710008ED710008ED71000807
:10016000ED710008ED710008ED710008ED710008F7
:10017000ED710008ED710008ED710008000000004D
:08018000ED710008ED710008AB
:1001880010B5054C237833B9044B13B10448AFF3C9
:1001980000800123237010BD200000200000000013
:1001A8004872000808B5034B1BB103490348AFF375
:1001B800008008BD000000002400002048720008EC
:1001C80081F0004102E000BF83F0004330B54FEA00
:1001D80041044FEA430594EA050F08BF90EA020F6D
:1001E8001FBF54EA000C55EA020C7FEA645C7FEA00
:1001F800655C00F0E2804FEA5454D4EB5555B8BF23
:100208006D420CDD2C4480EA020281EA030382EA93
:10021800000083EA010180EA020281EA0303362D25
:1002280088BF30BD11F0004F4FEA01314FF4801CF8
:100238004CEA113102D0404261EB410113F0004F0A
:100248004FEA03334CEA133302D0524263EB4303C1
:1002580094EA050F00F0A780A4F10104D5F1200E5F
:100268000DDB02FA0EFC22FA05F2801841F10001BA
:1002780003FA0EF2801843FA05F359410EE0A5F18E
:1002880020050EF1200E012A03FA0EFC28BF4CF0BF
:10029800020C43FA05F3C01851EBE37101F0004575
:1002A80007D54FF0000EDCF1000C7EEB00006EEB82
:1002B8000101B1F5801F1BD3B1F5001F0CD349080C
:1002C8005FEA30004FEA3C0C04F101044FEA445263
:1002D80012F5800F80F09A80BCF1004F08BF5FEAEA
:1002E800500C50F1000041EB045141EA050130BDCA
:1002F8005FEA4C0C404141EB010111F4801FA4F16D
:100308000104E9D191F0000F04BF01460020B1FAC1
:1003180081F308BF2033A3F10B03B3F120020CDAF9
:100328000C3208DD02F1140CC2F10C0201FA0CF0D7
:1003380021FA02F10CE002F11402D8BFC2F1200C3C
:1003480001FA02F120FA0CFCDCBF41EA0C019040F2
:10035800E41AA2BF01EB0451294330BD6FEA04043B
:100368001F3C1CDA0C340EDC04F11404C4F1200226
:1003780020FA04F001FA02F340EA030021FA04F338
:1003880045EA030130BDC4F10C04C4F1200220FA8F
:1003980002F001FA04F340EA0300294630BD21FACD
:1003A80004F0294630BD94F0000F83F4801306BF93
:1003B80081F480110134013D4EE77FEA645C18BF87
:1003C8007FEA655C29D094EA050F08BF90EA020F1E
:1003D80005D054EA000C04BF1946104630BD91EA16
:1003E800030F1EBF0021002030BD5FEA545C05D119
:1003F8004000494128BF41F0004130BD14F5800458
:100408003CBF01F5801130BD01F0004545F0FE41CB
:1004180041F470014FF0000030BD7FEA645C1ABF00
:10042800194610467FEA655C1CBF0B46024650EA37
:10043800013406BF52EA033591EA030F41F4002163
:1004480030BD00BF90F0000F04BF0021704730B5E9
:100458004FF4806404F132044FF000054FF00001BE
:1004680050E700BF90F0000F04BF0021704730B57F
:100478004FF4806404F1320410F0004548BF404254
:100488004FF000013EE700BF42004FEAE2014FEAA9
:1004980031014FEA02701FBF12F07F4393F07F4F84
:1004A80081F06051704732F07F4208BF704793F087
:1004B8007F4F04BF41F40021704730B54FF460749A
:1004C80001F0004521F000411CE700BF50EA01029D
:1004D80008BF704730B54FF000050AE050EA010246
:1004E80008BF704730B511F0004502D5404261EBB6
:1004F80041014FF4806404F132045FEA915C3FF4F7
:10050800D8AE4FF003025FEADC0C18BF03325FEA93
:10051800DC0C18BF033202EBDC02C2F1200300FA44
:1005280003FC20FA02F001FA03FE40EA0E0021FA69
:1005380002F11444BDE600BF70B54FF0FF0C4CF457
:10054800E06C1CEA11541DBF1CEA135594EA0C0F09
:1005580095EA0C0F00F0DEF82C4481EA030621EA44
:100568004C5123EA4C5350EA013518BF52EA03357F
:1005780041F4801143F4801338D0A0FB02CE4FF031
:100588000005E1FB02E506F00042E0FB03E54FF061
:100598000006E1FB03569CF0000F18BF4EF0010E59
:1005A800A4F1FF04B6F5007F64F5407404D25FEA55
:1005B8004E0E6D4146EB060642EAC62141EA555108
:1005C8004FEAC52040EA5E504FEACE2EB4F1FD0C4A
:1005D80088BFBCF5E06F1ED8BEF1004F08BF5FEAC8
:1005E800500E50F1000041EB045170BD06F000467A
:1005F80046EA010140EA020081EA0301B4EB5C0427
:10060800C2BFD4EB0C0541EA045170BD41F480111E
:100618004FF0000E013C00F3AB8014F1360FDEBF43
:10062800002001F0004170BDC4F10004203C35DA1F
:100638000C341BDC04F11404C4F1200500FA05F3A2
:1006480020FA04F001FA05F240EA020001F0004243
:1006580021F0004110EBD37021FA04F642EB0601B9
:100668005EEA430E08BF20EAD37070BDC4F10C04E3
:10067800C4F1200500FA04F320FA05F001FA04F2A7
:1006880040EA020001F0004110EBD37041F1000193
:100698005EEA430E08BF20EAD37070BDC4F120059E
:1006A80000FA05F24EEA020E20FA04F301FA05F206
:1006B80043EA020321FA04F001F0004121FA04F2AE
:1006C80020EA020000EBD3705EEA430E08BF20EA7E
:1006D800D37070BD94F0000F0FD101F000464000B8
:1006E80041EB010111F4801F08BF013CF7D041EA3A
:1006F800060195F0000F18BF704703F0004652003E
:1007080043EB030313F4801F08BF013DF7D043EA0E
:100718000603704794EA0C0F0CEA135518BF95EAC4
:100728000C0F0CD050EA410618BF52EA4306D1D14B
:1007380081EA030101F000414FF0000070BD50EA6A
:10074800410606BF1046194652EA430619D094EAF4
:100758000C0F02D150EA013613D195EA0C0F05D1DE
:1007680052EA03361CBF104619460AD181EA030132
:1007780001F0004141F0FE4141F470014FF00000EA
:1007880070BD41F0FE4141F4780170BD70B54FF085
:10079800FF0C4CF4E06C1CEA11541DBF1CEA135505
:1007A80094EA0C0F95EA0C0F00F0A7F8A4EB0504E7
:1007B80081EA030E52EA03354FEA013100F08880DE
:1007C8004FEA03334FF0805545EA131343EA1263A7
:1007D8004FEA022245EA111545EA10654FEA00265C
:1007E8000EF000419D4208BF964244F1FD0404F515
:1007F800407402D25B084FEA3202B61A65EB030571
:100808005B084FEA32024FF480104FF4002CB6EB2D
:10081800020E75EB030E22BFB61A754640EA0C00AD
:100828005B084FEA3202B6EB020E75EB030E22BFED
:10083800B61A754640EA5C005B084FEA3202B6EB2E
:10084800020E75EB030E22BFB61A754640EA9C00ED
:100858005B084FEA3202B6EB020E75EB030E22BFBD
:10086800B61A754640EADC0055EA060E18D04FEA7B
:10087800051545EA16754FEA06164FEAC30343EA1B
:1008880052734FEAC2025FEA1C1CC0D111F4801FE8
:100898000BD141EA00014FF000004FF0004CB6E7E1
:1008A80011F4801F04BF01430020B4F1FD0C88BF80
:1008B800BCF5E06F3FF6AFAEB5EB030C04BFB6EB8B
:1008C800020C5FEA500C50F1000041EB045170BD7E
:1008D8000EF0004E4EEA113114EB5C04C2BFD4EBAB
:1008E8000C0541EA045170BD41F480114FF0000E2F
:1008F800013C90E645EA060E8DE60CEA135594EAAB
:100908000C0F08BF95EA0C0F3FF43BAF94EA0C0FAD
:100918000AD150EA01347FF434AF95EA0C0F7FF422
:1009280025AF104619462CE795EA0C0F06D152EA76
:1009380003353FF4FDAE1046194622E750EA41065A
:1009480018BF52EA43067FF4C5AE50EA41047FF46B
:100958000DAF52EA43057FF4EBAE12E74A0011D21D
:1009680012F5001211D20DD56FF47873B3EB625201
:100978000ED44FEAC12343F0004343EA505323FA0D
:1009880002F070474FF00000704750EA013002D182
:100998004FF0FF3070474FF00000704753B94AB925
:1009A800002908BF00281CBF4FF0FF314FF0FF306F
:1009B80000F072B9ADF1080C6DE904CE00F006F84C
:1009C800DDF804E0DDE9022304B070472DE9F047C3
:1009D800089E04468846002B4BD18A42154667D9A3
:1009E800B2FA82F24AB1C2F1200701FA02F320FA00
:1009F80007F7954047EA030894404FEA154E230C41
:100A0800B8FBFEF71FFA85FC0EFB178843EA08437C
:100A180007FB0CF1994209D9EB1807F1FF3080F078
:100A28001B81994240F21881023F2B445B1AA4B201
:100A3800B3FBFEF00EFB103344EA034400FB0CFC4E
:100A4800A44509D92C1900F1FF3380F00781A4458A
:100A580040F2048102382C4440EA0740A4EB0C041D
:100A680000271EB1D4400023C6E900433946BDE83B
:100A7800F0878B4209D9002E00F0EB800027C6E9E9
:100A8800000138463946BDE8F087B3FA83F7002FEE
:100A980047D18B4202D3824200F2FA80841A61EB7A
:100AA800030301209846002EE0D0C6E90048DDE7A0
:100AB80002B9FFDEB2FA82F2002A40F08F80491BA9
:100AC8004FEA154E1FFA85F80127B1FBFEFC230CEF
:100AD8000EFB1C1143EA014308FB0CF1994207D9AC
:100AE800EB180CF1FF3002D2994200F2CD80844617
:100AF800591AA3B2B1FBFEF00EFB101443EA0444EA
:100B080008FB00F8A04507D92C1900F1FF3302D2E1
:100B1800A04500F2B6801846A4EB080440EA0C4051
:100B28009FE7C7F1200CBB4022FA0CFE4EEA030EE9
:100B380001FA07F420FA0CF521FA0CF34FEA1E48E3
:100B48002543B3FBF8F92C0C08FB19331FFA8EFA6E
:100B580044EA034309FB0AF49C4202FA07F200FA4A
:100B680007F10BD91EEB030309F1FF3080F08780F2
:100B78009C4240F28480A9F1020973441B1BADB268
:100B8800B3FBF8F008FB103345EA034400FB0AFA0C
:100B9800A24508D91EEB040400F1FF336BD2A2452D
:100BA80069D90238744440EA0940A0FB0289A4EBE1
:100BB8000A044C45C2464B4654D351D0002E69D046
:100BC800B1EB0A0564EB030404FA0CFCFD40FC409D
:100BD8004CEA0505C6E90054002747E7C2F120039F
:100BE80020FA03F7954001FA02F021FA03F34FEADD
:100BF800154E3843010CB3FBFEF71FFA85F80EFBC0
:100C0800173341EA034107FB08F38B4204FA02F465
:100C180007D9691807F1FF3C2FD28B422DD9023F23
:100C28002944CB1A81B2B3FBFEF00EFB103341EA24
:100C3800034100FB08F38B4207D9691800F1FF3C18
:100C480017D28B4215D902382944C91A40EA0747F6
:100C58003BE73746304609E70746E7E61846FBE62E
:100C68004145ABD2B8EB020A69EB0E0201381346D4
:100C7800A4E76046E9E7184695E76746D1E7814665
:100C88007CE702382C4447E7ACF1020C2B442FE7F1
:100C9800384608E73746E9E6704700BF10B586B022
:100CA8001C4C00226946204604F006FF002205A9D4
:100CB800204604F02AFF184B184A12781A709DF83B
:100CC80000205A709DF801209A709DF80220DA7071
:100CD8009DF816201A719DF815205A719DF8172055
:100CE8009A710F4A12681114D971111219725A7235
:100CF8000C4A1268111499721112D9721A730A4A9D
:100D08001288110A59739A73084A1278DA7306B06E
:100D180010BD00BF781800206000002000000020EF
:100D28004800002050000020DE0400204C1600205F
:100D380070B5104C104E10222146304602F02EF9A4
:100D48000E4D286004220E49304602F027F90D4B5B
:100D580018602B681A0E22741A0C62741A0AA2748C
:100D6800E374AA232375BB236375CC23A375DD2302
:100D7800E37570BD60000020301700205800002087
:100D8800040000205C00002010B586B021238DF8F7
:100D9800043039238DF8053030238DF806300023D0
:100DA800049305930A4C012201A9204604F0BBFDD7
:100DB80008238DF8013007238DF8023022238DF89F
:100DC800033001226946204604F016FE06B010BD25
:100DD8007818002008B5FFF7D7FF00F08DFD00F068
:100DE80099FD00F09BF800F045FD00F0C9F800F00F
:100DF800BBFDFFF753FFFFF79BFF00F021F900F061
:100E08001FFA00F001F8EEE72DE9F8432E4B1B78A6
:100E180013B900BFBDE8F8832C4B1A782C4E3270FA
:100E28005A7872709A78B270DA78F2701A793271E8
:100E38005A7972719A79B271DA79F2711A7A254D02
:100E48002A705A7A6A709A7AAA70DA7AEA701A7BE1
:100E58002A715A7B6A719A7BAA71DA7BEA711A7CC9
:100E68001D4C22705A7C62709A7CA270DA7CE27007
:100E78001A7D22715A7D62719A7DA271DB7DE371C0
:100E88000A2001F0BBFBDFF85890DFF85880134FB9
:100E98004B4632464146384601F016FD642001F0C3
:100EA800ADFB4B462A464146384601F00DFD64200D
:100EB80001F0A4FB4B4622464146384601F004FDAA
:100EC800014B00221A70A5E73C000020EC0400202A
:100ED8008C0400209804002084040020B419002009
:100EE80094040020A804002000B58BB001220892C9
:100EF80005230593002304934FF42A61009101937D
:100F080002910393069307926946034801F030FC67
:100F18000BB05DF804FB00BFB419002010B5FFF753
:100F2800E3FF084C204601F0A1FC0221204601F015
:100F3800DAFD054B08221A6100229A60DA60442221
:100F48001A6010BDB4190020A804002010B5094C7F
:100F5800094B2246002101F02CFD2369082B00D003
:100F680010BD064B01221A7020214FF0904002F06C
:100F7800B8FAF5E7C0040020A00400203C000020D7
:100F880070B582B0114A124D2B7813706978114EE2
:100F98004FF0FF3300930123304602F00BFDC820C9
:100FA80001F02CFB0C4C6978642300930223224641
:100FB800304602F0BDFD012001F020FB2278637865
:100FC80043EA0223054A138002B070BDDC04002006
:100FD80008000020E4160020E0040020DE040020C1
:100FE80000B587B006AB03F8011D074A11886422D3
:100FF800029201220192009302230246034802F062
:1010080055FE07B05DF804FB0A000020E416002036
:1010180010B584B0074B1988642302930A230193FF
:10102800054C009402230246044802F011FF207880
:1010380004B010BD0A0000200C050020E4160020B2
:1010480038B57D4B1888EF2803D97B4B00221A80CE
:1010580038BD7A4D2978FFF7C3FF774C23880133D1
:1010680023800A2001F0CAFA69782088FFF7B8FFC0
:101078002388013323800A2001F0C0FAA978208848
:10108800FFF7AEFF2388013323800A2001F0B6FA68
:10109800E9782088FFF7A4FF2388013323800A20FA
:1010A80001F0ACFA29792088FFF79AFF23880133E9
:1010B80023800A2001F0A2FA69792088FFF790FFBF
:1010C8002388013323800A2001F098FAA97920881F
:1010D800FFF786FF2388013323800A2001F08EFA68
:1010E800E9792088FFF77CFF2388013323800A20D1
:1010F80001F084FA297A2088FFF772FF23880133E8
:1011080023800A2001F07AFA697A2088FFF768FFBD
:101118002388013323800A2001F070FAA97A2088F5
:10112800FFF75EFF2388013323800A2001F066FA67
:10113800E97A2088FFF754FF2388013323800A20A7
:1011480001F05CFA297B2088FFF74AFF23880133E6
:1011580023800A2001F052FA697B2088FFF740FFBC
:101168002388013323800A2001F048FAA97B2088CC
:10117800FFF736FF2388013323800A2001F03EFA67
:10118800E97B2088FFF72CFF2388013323800A207E
:1011980001F034FA297C2088FFF722FF23880133E5
:1011A80023800A2001F02AFA697C2088FFF718FFBB
:1011B8002388013323800A2001F020FAA97C2088A3
:1011C800FFF70EFF2388013323800A2001F016FA67
:1011D800E97C2088FFF704FF2388013323800A2055
:1011E80001F00CFA297D2088FFF7FAFE23880133E5
:1011F80023800A2001F002FA697D2088FFF7F0FEBB
:101208002388013323800A2001F0F8F9A97D20887A
:10121800FFF7E6FE2388013323800A2001F0EEF968
:10122800E97D2088FFF7DCFE2388013323800A202C
:1012380001F0E4F90CE700BF3E0000206000002048
:1012480038B5C54B1888172805D8C34B1B88132BEE
:1012580040F2DB8038BD183880B2FFF7D9FEBF4CAA
:1012680020700A2001F0CAF9BB4D2888173880B2CF
:10127800FFF7CEFE60700A2001F0C0F92888163802
:1012880080B2FFF7C5FEA0700A2001F0B7F92888E0
:10129800153880B2FFF7BCFEE0700A2001F0AEF905
:1012A8002888143880B2FFF7B3FE20710A2001F0B5
:1012B800A5F92888133880B2FFF7AAFE60710A20C2
:1012C80001F09CF92888123880B2FFF7A1FEA071BE
:1012D8000A2001F093F92888113880B2FFF798FEA8
:1012E800E0710A2001F08AF92888103880B2FFF7E7
:1012F8008FFE20720A2001F081F928880F3880B209
:10130800FFF786FE60720A2001F078F928880E3807
:1013180080B2FFF77DFEA0720A2001F06FF92888DD
:101328000D3880B2FFF774FEE0720A2001F066F90A
:1013380028880C3880B2FFF76BFE20730A2001F072
:101348005DF928880B3880B2FFF762FE60730A20C7
:1013580001F054F928880A3880B2FFF759FEA073C3
:101368000A2001F04BF92888093880B2FFF750FEAF
:10137800E0730A2001F042F92888083880B2FFF7A4
:1013880047FE20740A2001F039F92888073880B20E
:10139800FFF73EFE60740A2001F030F9288806380D
:1013A80080B2FFF735FEA0740A2001F027F92888DB
:1013B800053880B2FFF72CFEE0740A2001F01EF910
:1013C8002888043880B2FFF723FE20750A2001F030
:1013D80015F92888033880B2FFF71AFE60750A20CD
:1013E80001F00CF92888023880B2FFF711FEA075C9
:1013F8000A2001F003F92888013880B2FFF708FEB7
:10140800E0750A2001F0FAF81FE7D820FFF700FE80
:10141800524C20700A2001F0F1F8D920FFF7F8FDAE
:1014280060700A2001F0EAF8DA20FFF7F1FDA070F9
:101438000A2001F0E3F8DB20FFF7EAFDE0700A205C
:1014480001F0DCF8DC20FFF7E3FD20710A2001F051
:10145800D5F8DD20FFF7DCFD60710A2001F0CEF839
:10146800DE20FFF7D5FDA0710A2001F0C7F8DF20C4
:10147800FFF7CEFDE0710A2001F0C0F8E020FFF789
:10148800C7FD20720A2001F0B9F8E120FFF7C0FD7E
:1014980060720A2001F0B2F8E220FFF7B9FDA072ED
:1014A8000A2001F0ABF8E320FFF7B2FDE0720A2052
:1014B80001F0A4F8E420FFF7ABFD20730A2001F047
:1014C8009DF8E520FFF7A4FD60730A2001F096F867
:1014D800E620FFF79DFDA0730A2001F08FF8E720B2
:1014E800FFF796FDE0730A2001F088F8E820FFF77F
:1014F8008FFD20740A2001F081F8E920FFF788FDAC
:1015080060740A2001F07AF8EA20FFF781FDA074E0
:101518000A2001F073F8EB20FFF77AFDE0740A2047
:1015280001F06CF8EC20FFF773FD20750A2001F03C
:1015380065F8ED20FFF76CFD60750A2001F05EF894
:10154800EE20FFF765FDA0750A2001F057F8EF209F
:10155800FFF75EFDE0757DE63E000020EC0400200C
:1015680010B40368B3F1804F06D0BC4A934200F030
:10157800BA805DF8044B7047037F012B0BD0022B18
:101588000DD0B74B1B68002BF3D0B54B5B68002B15
:10159800EFD0002208E0B24A01211160EFE7B04B1A
:1015A80001225A60EDE70132AE4B53F82230002B8E
:1015B800F9D0931CAB4C54F82330511C54F821003B
:1015C8001B1A54F82220801A1C46834228BF04465E
:1015D8000A46002CEDD0834209D907EE900AF8EEAE
:1015E800677A9FEDA17A77EE877A012208E007EE05
:1015F800903AF8EE677AF4E777EEA67A0132014678
:10160800B1F5FA7F18DA481C964C54F8203054F893
:1016180021105B1A07EE103AB8EE477A06EE902AC8
:10162800B8EEE66AC7EE866AB4EEE67AF1EE10FA2C
:10163800E2D5F0EE476ADFE707EE102AB8EEC77A80
:10164800C7EE876A894B1A68864B1B689A420DD386
:101658009A4245D902200CE00132844B53F82210FB
:10166800804B9B689942F7D3022022E00222F4E7DC
:1016780018467E4B9968431C7A4A52F823209142B7
:10168800F6D8022215E00132784B53F8223075491A
:1016980051F820105B1A1BB2002BF4DB07EE903ACE
:1016A800F8EEE77AF4EEE67AF1EE10FA16D801329F
:1016B8000130B2F5FA7F02DAB0F5FA7FE4DB9FED8C
:1016C8006C7AC7EE267A664BFCEEE77AC3ED027AAF
:1016D80000221A605A600122DA604AE70130E8E71E
:1016E80000221046E5E7037F012B0DD0022B0FD017
:1016F8005B4B1B68002B3FF43CAF594B5B68002BDE
:101708003FF437AF002208E0554A01211160EDE7A8
:10171800534B01225A60EBE70132524B53F8223007
:10172800002BF9D0931C4F4C54F82330511C54F81B
:1017380021001B1A54F82220801A1C46834228BF15
:1017480004460A46002CEDD0834209D907EE900AD8
:10175800F8EE677A9FED447A77EE877A012208E0FF
:1017680007EE903AF8EE677AF4E777EEA67A013258
:101778000146B1F5FA7F18DA481C3A4C54F8203083
:1017880054F821105B1A07EE103AB8EE477A06EEC5
:10179800902AB8EEE66AC7EE866AB4EEE67AF1EE0B
:1017A80010FAE2D5F0EE476ADFE707EE102AB8EE46
:1017B800C77AC7EE876A2D4B1A682A4B1B689A426C
:1017C8000DD39A4237D902200CE00132274B53F847
:1017D8002210244B9B689942F7D3022017E002227B
:1017E800F4E71846214B9968431C1E4A52F82320F7
:1017F8009142F6D802220AE007EE903AF8EEE77A2C
:10180800F4EEE67AF1EE10FA13D801320130B2F5AF
:10181800FA7F13DAB0F5FA7F10DA144B53F8223056
:10182800104951F820105B1A1BB2002BE4DA013280
:10183800F3E70130EBE700221046E8E79FED0C7A6A
:10184800C7EE267A064BFCEEE77AC3ED047A00224F
:101858001A605A600122DA608BE600BF000C004073
:10186800400000203806002000000000700E002014
:101878008096984C38B51A4BDB6833B9642000F071
:10188800BDFE174BDB68B3B938BD00244FF0804369
:101898005C62144D4FF4FA73134A2146284605F04A
:1018A80007F84FF4FA73114A0421284605F000F8A6
:1018B8000B4BDC60E2E700240D4B5C620D4D4FF4EE
:1018C800FA73094A2146284604F0F2FF4FF4FA73E6
:1018D800064A0421284604F0EBFF014BDC60D3E7FD
:1018E80040000020E818002038060020700E002074
:1018F800000C00409C17002008B5044B05225A63D1
:101908000021034804F01EFF08BD00BF002C014061
:101918009C18002070B5104E104C4FF4FA733246E4
:101928000021204604F0C4FF0D4D4FF4FA732A46F7
:101938000421204604F0BCFF0A4C4FF4FA733246E7
:101948000021204604F0B4FF4FF4FA732A4604211C
:10195800204604F0ADFF70BD38060020E8180020CE
:10196800700E00209C170020F0B583B0144C0023A3
:101978002370144F3978144D4FF0FF360096012329
:101988002246284602F016F83978009602232246A5
:10199800284602F0CDF823786078400940EAC30071
:1019A8000A4B1880FEF75EFD00224FF07F53FEF7CA
:1019B800C3FDFEF7D3FF064B187003B0F0BD00BFA0
:1019C800401600200C000020E4160020E419002036
:1019D8004C16002010B588B0002403940494059494
:1019E800069407941B4BDA6C42F00402DA64DA6C52
:1019F80002F004020092009ADA6C42F00102DA6402
:101A0800DA6C02F001020192019ADA6C42F00202E9
:101A1800DA64DB6C03F002030293029B2246202166
:101A28004FF0904001F058FD4FF400530393049495
:101A3800059403A9084801F06BFC202303930123B4
:101A480004930594069403A94FF0904001F060FCBC
:101A580008B010BD001002400008004800B583B06F
:101A68001A4B9A6C42F001029A649A6C02F00102D5
:101A78000092009A9A6C42F002029A649B6C03F0FE
:101A880002030193019B002211460F2001F088F9FF
:101A98000F2001F0B9F900221146112001F080F958
:101AA800112001F0B1F9002211463B2001F078F92C
:101AB8003B2001F0A9F9002211463C2001F070F901
:101AC8003C2001F0A1F903B05DF804FB00100240CE
:101AD80072B6FEE708B50B480B4B03604FF4E133D1
:101AE800436000238360C36003610C224261836109
:101AF800C3610362436205F01CFB00B908BDFFF730
:101B0800E7FF00BF341900200044004000B58DB045
:101B18000023089309930A930B930593069307935D
:101B2800019302930393049323484FF08042026089
:101B3800436083604FF0FF32C2600361836104F049
:101B48007BFB60BB0CA94FF4805341F8103D1A4849
:101B580004F078FD28BB184804F0CCFB18BB002320
:101B68000593079305A9144804F0D0FFE8B90022AB
:101B78000192012302930392049201A90E4804F0F2
:101B8800FBFCA0B902230193029304220DEB02018E
:101B9800094804F0F1FC60B90DB05DF804FBFFF7EB
:101BA80097FFFFF795FFFFF793FFFFF791FFFFF709
:101BB8008FFFFFF78DFF00BFE818002010B59AB01F
:101BC8000024169417941894199413941494159443
:101BD8000C940D940E940F941094119412942C223A
:101BE800214601A805F024FB2D482E4B03604460D4
:101BF80084600923C36004614461846104F01CFBB0
:101C0800002840D11AA94FF4805341F8103D2448C8
:101C180004F018FD002838D1214804F03CFB0028C6
:101C280035D1002313931493159313A91C4804F07A
:101C38006DFF00282DD160230C9300220D920E9287
:101C48000F921092119212920CA9154804F0C8FB39
:101C580008BB0023019302930393049305934FF465
:101C680000520692079308934FF0007209920A9364
:101C78000B9301A90A4804F095FF70B9084800F0D1
:101C880099FB1AB010BDFFF723FFFFF721FFFFF7FD
:101C98001FFFFFF71DFFFFF71BFFFFF719FF00BF2F
:101CA8009C180020002C014000B58DB0002308933B
:101CB80009930A930B930593069307930193029351
:101CC800039304932348244A0260436083604FF0DF
:101CD800FF32C2600361836104F0AEFA68BB0CA9ED
:101CE8004FF4805341F8103D1A4804F0ABFC30BB68
:101CF800184804F0FFFA20BB00230593079305A9B1
:101D0800144804F003FFF0B9002201920223029361
:101D18000392049201A90F4804F02EFCA8B90223EB
:101D280001930123029304220DEB0201094804F0F8
:101D380023FC60B90DB05DF804FBFFF7C9FEFFF79F
:101D4800C7FEFFF7C5FEFFF7C3FEFFF7C1FEFFF7AB
:101D5800BFFE00BF9C170020000C004008B51148CA
:101D6800114B0360114B4360002383600122C26062
:101D7800036143618361C361036201F0BDFD50B932
:101D88000021084802F043FC38B90021054802F058
:101D98006CFC20B908BDFFF79BFEFFF799FEFFF723
:101DA80097FE00BFE416002000540040EC9C901001
:101DB80000B587B00023019302930393049305931E
:101DC80000931D481D4A026043607F228260FF2203
:101DD800C260036143618361C36103F049FD20BBB5
:101DE80021238DF8043030238DF8053000238DF839
:101DF800063004930593012201A90F4803F093FDCF
:101E0800A8B901228DF8002008238DF80130072396
:101E18008DF8023022238DF803306946064803F016
:101E2800EBFD30B907B05DF804FBFFF751FEFFF793
:101E38004FFEFFF74DFE00BF781800200028004035
:101E480008B51148114B0360114B436000238360B0
:101E58000122C260036143618361C361036201F0CF
:101E68004BFD50B90021084802F0D1FB38B90021D8
:101E7800054802F0FAFB20B908BDFFF729FEFFF775
:101E880027FEFFF725FE00BF50160020005C00402B
:101E9800EC9C901008B50848084B036000230371B8
:101EA8004371436183610123036201F037F800B98C
:101EB80008BDFFF70DFE00BF3017002000300240BC
:101EC80008B50D480D4B03600A2343600023836067
:101ED800C3604FF4402202614FF4801242610376DE
:101EE80043768376C3760377437700F09BFB00B98C
:101EF80008BDFFF7EDFD00BFB419002000640040E5
:101F080000B5B9B04422002127A805F091F90021B5
:101F1800229123912491259126918822684605F0E3
:101F280087F902F0CFFB244AD2F8903023F0180347
:101F3800C2F8903006232793012229924FF4807328
:101F48002A9310232B9302233193329333920A223C
:101F58003492072235923693379327A802F0ACFCC7
:101F680008BB0F2322930323239300232493259351
:101F78002693042122A802F0BBFFB0B90F4B0093AF
:101F880000230F93149316934FF48073219368469C
:101F980003F0E2F958B94FF4007002F0A3FB40B91E
:101FA80039B05DF804FBFFF793FDFFF791FDFFF7EC
:101FB8008FFDFFF78DFD00BF0010024042010200B7
:101FC80008B500F0F3FAFFF79BFFFFF703FDFFF7F3
:101FD80045FDFFF77FFDFFF799FDFFF7EFFDFFF7E1
:101FE80063FEFFF7BBFEFFF7E3FEFFF729FFFFF7EE
:101FF80051FFFFF765FFFEF7EDFEFEE782B00A4BE3
:102008001A6E42F001021A661A6E02F0010200927C
:10201800009A9A6D42F080529A659B6D03F0805346
:102028000193019B02B070470010024000B589B0CF
:102038000023039304930593069307930268184BB0
:102048009A4202D009B05DF804FB03F5D6339A6DC5
:1020580042F000729A659A6D02F000720192019A3C
:10206800DA6C42F00102DA64DB6C03F001030293DC
:10207800029B4FF4C0530393022304930323069354
:102088000923079303A94FF0904001F041F900227A
:102098001146142000F084FE142000F0B5FED1E7AC
:1020A800006400400268094B9A4200D0704782B031
:1020B800A3F500539A6C42F480529A649B6C03F423
:1020C80080530193019B02B0704700BF003002406B
:1020D80010B58AB0002305930693079308930993D4
:1020E80003682E4A934204D02D4A934234D00AB052
:1020F80010BD2C4CE36C43F00203E364E36C03F083
:1021080002030193019B4FF4407305931223069336
:1021180001230793032308930423099305A922485D
:1021280001F0F6F8A36D43F40013A365A36D03F45F
:1021380000130293029B002211461F2000F030FE7C
:102148001F2000F061FE00221146202000F028FE2A
:10215800202000F059FECAE7124CE36C43F0040358
:10216800E364E36C03F004030393039B03230593E5
:10217800122206920122079208930423099305A9C3
:102188000A4801F0C5F8A36D43F40003A365A36DE5
:1021980003F400030493049BA9E700BF0054004024
:1021A800005C00400010024000040048000800489D
:1021B8000268064B9A4200D07047054AD2F8903020
:1021C80043F40043C2F89030F6E700BF002800400F
:1021D8000010024010B58AB00023059306930793B8
:1021E800089309930368684A934208D00446B3F1F8
:1021F800804F0FD0654A93426AD00AB010BD644B35
:102208001A6E42F400621A661B6E03F400630093B0
:10221800009BF2E703F504339A6D42F001029A65D8
:102228009A6D02F001020192019ADA6C42F0010201
:10223800DA64DB6C03F001030293029B012305932C
:1022480002220692099305A94FF0904001F060F828
:102258005048514B03600423436000238360C360EC
:10226800802202614FF4007242614FF40062826181
:10227800C361036200F008FF20BB464B63629C62A7
:102288004648474B03600423436000238360C360D0
:10229800802202614FF4007242614FF40062826151
:1022A800C361036200F0F0FE78B93C4BA3629C6204
:1022B8002363002211461C2000F072FD1C2000F050
:1022C800A3FD9AE7FFF704FCD7E7FFF701FCECE76B
:1022D8002F4B9A6D42F008029A659A6D02F0080237
:1022E8000392039ADA6C42F00102DA64DB6C03F0C1
:1022F80001030493049B022305930693099305A9FC
:102308004FF0904001F004F82648274B036005235E
:10231800436000238360C360802202614FF400722F
:1023280042614FF400628261C361036200F0ACFE57
:1023380018BB1C4B63629C621C481D4B0360052341
:10234800436000238360C360802202614FF40072FF
:1023580042614FF400628261C361036200F094FE3F
:1023680070B9124BA3629C6200221146322000F021
:1023780017FD322000F048FD3FE7FFF7A9FBD8E73B
:10238800FFF7A6FBEDE700BF002C0140000C004062
:10239800001002409C1600205800024054170020EC
:1023A80080000240E817002058040240301800203E
:1023B8004404024000B587B00023019302930393BD
:1023C8000493059302680F4B9A4202D007B05DF858
:1023D80004FB03F56443DA6C42F00102DA64DB6C57
:1023E80003F001030093009B4FF4807301930223D1
:1023F80002930123059301A94FF0904000F088FF54
:10240800E4E700BF002C014000B589B00023039326
:1024180004930593069307930268144B9A4202D0DB
:1024280009B05DF804FB03F5E6339A6D42F4003217
:102438009A659A6D02F400320192019ADA6C42F0C0
:102448000102DA64DB6C03F001030293029B0C23A4
:10245800039302230493032306930723079303A9F3
:102468004FF0904000F054FFDAE700BF004400400E
:10247800FEE7FEE7FEE7FEE7FEE7704770477047B6
:1024880008B500F0A9F808BD08B5024800F0DBFE61
:1024980008BD00BF9C16002008B5024800F0D3FE16
:1024A80008BD00BF5417002008B5024800F039FBEA
:1024B80008BD00BFB419002008B5024803F05CFD50
:1024C80008BD00BFE818002008B5024801F096FDD5
:1024D80008BD00BFE416002008B5024802F055F810
:1024E80008BD00BFE416002008B5024803F044FD0B
:1024F80008BD00BF9C17002008B5024800F0A3FEE5
:1025080008BD00BF3018002008B5024800F09BFE47
:1025180008BD00BFE81700200F49D1F8883043F400
:102528007003C1F888300D4B1A6842F001021A6036
:10253800002098601A6822F0A85222F410221A602B
:102548004FF48052DA601A6822F480221A60986187
:102558004FF000638B60704700ED00E00010024010
:10256800104B1B780BB90120704710B504464FF487
:102578007A70B0FBF3F30C4A1068B0FBF3F000F08C
:1025880051FC68B90F2C01D901200AE0002221462C
:102598004FF0FF3000F004FC024B5C60002000E0CC
:1025A800012010BD140000201000002010B5094AB9
:1025B800136843F480731360032000F0DFFB0020EE
:1025C800FFF7CEFF10B10124204610BD0446FFF7E7
:1025D80015FDF9E700200240034B1B78034A1168F8
:1025E8000B441360704700BF14000020F01900204E
:1025F800014B1868704700BFF019002038B5044631
:10260800FFF7F6FF0546B4F1FF3F02D0044B1B78F5
:102618001C44FFF7EDFF401BA042FAD338BD00BFB2
:1026280014000020002800F0A18038B5044690F876
:102638002030D3B12268136823F002031360FFF738
:10264800D7FF054623685A6812F0020F10D0FFF72B
:10265800CFFF401B0A28F5D9636A43F4003363624D
:10266800052384F82030012038BDFFF7DFFCE1E7BF
:102678001A6842F001021A60FFF7BAFF054623689C
:102688005A6812F0010F0DD1FFF7B2FF401B0A285C
:10269800F5D9636A43F400336362052384F8203074
:1026A8000120E1E7227E012A3DD01A6822F080024B
:1026B8001A60637E012B3BD02268136823F0400325
:1026C8001360A37E012B39D02268136823F02003FE
:1026D8001360E37E012B37D02268136843F01003A0
:1026E8001360237F012B35D02268136823F0080379
:1026F8001360637F012B33D02268136823F004032F
:102708001360A368E26813432269134362691343A1
:102718006268013A21681343CB610020606201239B
:1027280084F82030A0E71A6842F080021A60C0E7F7
:102738002268136843F040031360C2E722681368F5
:1027480043F020031360C4E72268136823F01003E2
:102758001360C6E72268136843F008031360C8E7EC
:102768002268136843F004031360CAE70120704726
:10277800036890F82020013AD2B2012A05D9436AA9
:1027880043F4802343620120704770B4D3F80022D9
:1027980042F00102C3F800224A6902F01F02012038
:1027A80000FA02F2D3F81C42D0430440C3F81C429A
:1027B800CC69ACB9D3F80C420440C3F80C42CE68DB
:1027C8008D884C6945EA0645483443F834508E688C
:1027D8000D884C6945EA0645483403EBC404656036
:1027E800CC69012C19D08C6974BBD3F8044204401D
:1027F800C3F804420C696CBBD3F814422040C3F8F8
:102808001402096A01292BD0D3F8002222F0010210
:10281800C3F80022002070BC7047D3F80C42144360
:10282800C3F80C420E688D884C6945EA0645483461
:1028380043F834508E688D894C6945EA064548341A
:1028480003EBC4046560CEE7D3F804421443C3F82D
:102858000442CFE7D3F814021043C3F81402D0E7B8
:10286800D3F81C120A43C3F81C22CDE738B590F8F8
:102878002030DBB2012B05D0436A43F400234362C6
:10288800012038BD0446022380F82030026813680E
:1028980023F001031360FFF7ABFE054623685B686E
:1028A80013F0010F0DD0FFF7A3FE401B0A28F5D93E
:1028B800636A43F400336362052384F820300120FF
:1028C800DFE700206062DCE770B490F8204005681C
:1028D800AD68013CE4B2012C06D9436A43F4802375
:1028E8004362012070BC704715F0E05F5BD0C5F310
:1028F8000165022D3ED80124AC401C608B68002B7A
:102908003ED10E68CB68046843EA465605F11803C1
:102918001B01E65003680C6905F1180603EB061362
:102928005C600B7D012B36D0D17993791B0443EA87
:102938000163517943EA01231479016823432C0187
:102948002144C1F88C31D17893781B0443EA0163A0
:10295800517843EA0123117802680B432244C2F8F4
:102968008831026818352D01535943F0010353513A
:102978000020B7E7436A43F4000343620120B1E74C
:102988004C6843EAC403CC680668234305F118047D
:1029980024013351BEE7036803EB0613596841F479
:1029A80080715960C0E7436A43F400134362012011
:1029B80098E730B490F82040013CE4B2012C06D9E5
:1029C800436A43F480234362012030BC70470029E6
:1029D8006FD10468E46814F0030F64D0056801F14E
:1029E8001B0424012C5904F004049460002C6BD1BE
:1029F800056801F11B0424012C59640D1460056855
:102A080001F11B0424012D5905F00205D560056864
:102A180025446D6805F00F051561056825446D6846
:102A2800C5F30725956105682C446468240C546136
:102A380004680A011444D4F8B8411C7004681444AA
:102A4800D4F8B841C4F307245C7004681444D4F87B
:102A5800B841C4F307449C7004681444D4F8B841DE
:102A6800240EDC7004681444D4F8BC411C7104685A
:102A78001444D4F8BC41C4F307245C7104681444BA
:102A8800D4F8BC41C4F307449C7104682244D2F8CA
:102A9800BC21120EDA71F9B90268D36843F0200339
:102AA800D360002091E7436A43F400134362012096
:102AB8008BE70468246914F0030F8FD1436A43F449
:102AC80000134362012080E7056801F11B0424011B
:102AD8002C59E408546092E70268136943F0200314
:102AE8001361002071E790F82030013BDBB2012B25
:102AF80005D9436A43F48023436201207047026882
:102B080053691943516100207047704770477047F7
:102B180070477047704770477047704770477047F5
:102B280070472DE9F84F054603685C695F689E6841
:102B3800D3F80C90D3F81080D3F818A014F0010F34
:102B48005AD016F0010F17D001229A6016F0020F22
:102B580008D116F0040F30D116F0080F07D04FF443
:102B6800805B0BE0FFF7D1FF4FF0000B06E0FFF7AB
:102B7800CFFF4FF0000B01E04FF0000B16F4807F01
:102B88000BD02B684FF480729A6016F4007F17D12F
:102B980016F4806F18D04BF4005B16F4803F2DD0EC
:102BA8002B684FF480329A6016F4003F16D116F461
:102BB800802F17D04BF4004B20E04FF4006BDDE77B
:102BC8002846FFF7A3FFE8E716F4006F02D04BF49E
:102BD800804BE2E72846FFF79CFFDEE72846FFF731
:102BE80096FF0BE016F4002F02D04BF4803B05E073
:102BF8002846FFF78FFF01E04FF0000B14F0080F95
:102C080007D019F0100F04D04BF4007B2B6810226A
:102C1800DA6014F0040F02D019F0080F60D114F034
:102C2800020F04D02B68DB6813F0030F5FD114F098
:102C3800400F07D018F0100F04D04BF4806B2B68AE
:102C480010221A6114F0200F02D018F0080F52D188
:102C580014F0100F04D02B681B6913F0030F51D127
:102C680014F4003F02D017F0100F4FD114F4803F36
:102C780002D017F0080F50D114F4004F67D017F0A6
:102C8800040F61D014F4807F04D01AF0010F01D032
:102C98004BF0010B14F4007F04D01AF0020F01D09E
:102CA8004BF0020B14F4806F04D01AF0040F01D01B
:102CB8004BF0040B14F4006F46D01AF0700A43D09E
:102CC800BAF1300F48D02FD9BAF1500F47D0BAF126
:102CD800600F47D0BAF1400F31D14BF0400B2EE0D6
:102CE8002B680822DA602846FFF715FF97E7284681
:102CF800FEF72CF99BE72B6808221A612846FFF794
:102D08000CFFA5E72846FFF707FFA9E72B68102265
:102D18005A602846FFF702FFA8E72B6808225A6086
:102D28002846FFF7FCFEA7E7BAF1100F05D0BAF165
:102D3800200F04D14BF0100B01E04BF0080B2A6870
:102D4800936923F0700393612B6804225A60BBF1E6
:102D5800000F0AD1BDE8F88F4BF0200BEFE74BF0DE
:102D6800800BECE74BF4807BE9E76B6A43EA0B03E3
:102D78006B622846FFF7D4FEECE70000074AD368E9
:102D880023F4E0631B041B0C000200F4E06018430A
:102D980040F0BF6040F40030D060704700ED00E0C4
:102DA80030B4174BDB68C3F30223C3F10704042CC8
:102DB80028BF04241D1D062D18D9033B4FF0FF35ED
:102DC80005FA04F421EA0401994005FA03F322EA1A
:102DD8000303194300280BDB0901C9B200F1604065
:102DE80000F5614080F8001330BC70470023E5E728
:102DF80000F00F000901C9B2024B1954F4E700BFF3
:102E080000ED00E014ED00E0002807DB00F01F02F1
:102E1800400901239340024A42F82030704700BF1E
:102E280000E100E00138B0F1807F0AD2064B58601B
:102E3800064AF02182F823100020986007221A60C1
:102E480070470120704700BF10E000E000ED00E08F
:102E580070B400240FE011F8246001EB84056B784E
:102E68001B0443EA0663AE7843EA0623EE78056856
:102E780033432B600134B4EB920FECD312F003020E
:102E880005D0012A07D0022A0AD0032A12D00368E3
:102E9800186870BC7047036811F824501D70F2E779
:102EA80011F8245001EB84035B7843EA0523056895
:102EB8002B80EAE711F8242001EB84014B7843EAE0
:102EC80002230268138003688A781A70DFE70023F8
:102ED800B3EB520F18D270B431F8236001EB8304BE
:102EE8006488056844EA06442C600133B3EB520F4A
:102EF800F2D312F0010F03D0026831F823301380A7
:102F08000368186870BC704712F0010F03D002689C
:102F180031F823301380036818687047002838D0C8
:102F280010B50446437F1BB30223637723791BBB89
:102F38002368194A5A612268936823F0180393603A
:102F4800637913BB23684FF0FF321A6122689368D4
:102F580023F0600361690B4393602268936823F050
:102F68008003A1690B43936001236377002010BDA0
:102F78000377FFF797F8D7E7E268A168204600F0E3
:102F880035F80028DCD00120F1E7236822691A61AE
:102F9800DCE70120704700BFB71DC10438B50446FF
:102FA800022343770068836843F001038360236A40
:102FB800022B17D0032B0FD0012B0FD0002008E0D5
:102FC800206851F82350056001339342F8D32368F1
:102FD80018680123637738BD0023F6E72046FFF71A
:102FE80037FFF6E72046FFF772FFF2E730B41F24F9
:102FF800651E3CB105F01F0321FA03F32C4613F0BC
:10300800010FF5D0182A23D8DFE802F00F22222278
:10301800222222221E222222222222221A22222294
:10302800222222220D00062D14D803685961016856
:103038008B6823F018031A438A60002030BC70475D
:10304800072DF2D90120F9E70F2DEED90120F5E778
:103058000120F3E70120F1E770B4446C04F01C058B
:10306800066C0124AC407460046863608368102BAC
:1030780005D0036899600368DA6070BC704703681C
:103088009A600368D960F8E7002869D010B403464D
:103098000168344A914245D8334A0A443349A1FB6E
:1030A8000212120992004264314A0264022283F831
:1030B80025201868016821F4FF4121F070019A6801
:1030C800DC6822431C6922435C6922439C692243D1
:1030D800DC6922431C6A22430A4302609A68B2F5FB
:1030E800804F15D0196C224A914226D0214A116886
:1030F800586C00F01C040F20A04021EA0001116068
:10310800116858685C6C04F01C04A040014311600D
:103118000020D863012283F8252083F824005DF875
:10312800044B7047144A0A441049A1FB02121209C1
:1031380092004264114A0264B8E7A8321168586CD8
:1031480000F01C040F20A04021EA00011160116862
:1031580058685C6C04F01C04A04001431160D7E778
:103168000120704707040240F8FFFDBFCDCCCCCC4E
:1031780000000240A8040240F8FBFDBF0004024022
:1031880038B590F82440012C33D0012480F824402D
:1031980090F82540E4B2012C04D0002380F82430B4
:1031A800022038BD0446022084F825000020E06390
:1031B8002568286820F0010028602046FFF74CFFAA
:1031C800236B5BB12268136843F00E031360226817
:1031D800136843F0010313600020E2E722681368D4
:1031E80023F0040313602268136843F00A03136092
:1031F800EDE70220D5E708B590F82530DBB2022BC1
:1032080003D00423C363012008BD0268136823F0B8
:103218000E0313600268136823F001031360436C04
:1032280003F01C03016C012202FA03F34B6080F8DF
:103238002520002380F82430836B13B198470020A1
:10324800E2E70020E0E738B5036C196804682568F0
:10325800436C03F01C0304229A400A4215D015F06F
:10326800040F12D0236813F0200F03D1236823F032
:1032780004032360436C03F01C02016C0423934095
:103288004B60036B03B1984738BD02229A400A424B
:103298001CD015F0020F19D0236813F0200F06D1A7
:1032A800236823F00A032360012380F82530436C48
:1032B80003F01C02016C022393404B60002380F84A
:1032C8002430C36A002BDFD09847DDE7082202FAD2
:1032D80003F30B42D8D015F0080FD5D0236823F09C
:1032E8000E032360436C03F01C03016C012202FAF5
:1032F80003F34B60C26380F82520002380F8243054
:10330800436B002BC0D09847BEE790F82500704764
:10331800F0B583B000233FE0C66A26EA0406C5F389
:10332800C0049C403443C4625FE0062400E00024EB
:10333800B4403C430235644E46F82540634C25684A
:10334800D44304EA05064F6817F4803F01D042EAE7
:1033580005065E4D2E606D6804EA05064F6817F491
:10336800003F01D042EA0506584D6E60AD6804EA98
:1033780005064F6817F4801F01D042EA0506534D31
:10338800AE60ED682C404E6816F4001F01D042EA8A
:1033980005044E4AD46001330A6832FA03F400F097
:1033A800918001249C402240F5D04D686E1E012E6C
:1033B80003D9112D01D0122D12D186685F00032583
:1033C800BD4026EA0506CD68BD40354385604668A0
:1033D80026EA04064D68C5F300159D40354345604F
:1033E8004D6805F00306032E96D0C5685F000324D8
:1033F800BC40E44325408E68BE402E43C6604D68FD
:10340800022D01D0122D13D1DE08083650F826E01F
:1034180003F007054FEA850C0F2505FA0CF52EEA8F
:10342800050E0D6905FA0CF545EA0E0540F826501B
:1034380005682C404D6805F00305BD402C43046029
:103448004C6814F0805FA6D0214C256E45F001052C
:103458002566246E04F001040194019C9D08AE1CAD
:10346800194C54F8267003F00304A6000F24B44046
:1034780027EA0407B0F1904F3FF459AF154CA0422A
:1034880016D004F58064A04214D004F58064A042EC
:1034980012D004F58064A04210D004F58064A042E4
:1034A8000ED004F58064A0423FF43FAF07243FE705
:1034B80001243DE702243BE7032439E7042437E7E6
:1034C800052435E703B0F0BD0000014000040140C9
:1034D80000100240000400480AB981627047816107
:1034E8007047436901EA030221EA030141EA024104
:1034F8008161704703689A6912F0020F01D00022B7
:103508009A6203689A6912F0010F03D19A6942F02E
:1035180001029A61704770B4039E05686868740D6B
:1035280004F4806444F07F7444F4583444F47F74A1
:1035380044F0030420EA0400C1F3090141EA02410E
:10354800194331430143696070BC704711F0010FA2
:1035580009D090F8413003F02803282B01D0F2233A
:1035680002E0422300E0002311F0020F29D010B43A
:1035780043F0440490F8412002F02802282A12D08F
:1035880043F0F40311F4004F0FD1102910D0202973
:1035980011D0402912D001680A6822EA03030B609F
:1035A8005DF8044B70472346ECE743F0B803ECE7BB
:1035B80043F09003EBE743F02003EAE743F04003CE
:1035C800E9E711F4004F0BD110290CD020290DD0B8
:1035D80040290ED001680A6822EA03030B6070478D
:1035E80043F0B803F0E743F09003EFE743F020031C
:1035F800EEE743F04003EDE770B504460D46164686
:1036080003689B6913F0100F1CD023689A6912F0A5
:10361800200F19D1B5F1FF3FF7D0FEF7E9FF801B66
:10362800A84201D8002DF0D1636C43F020036364F5
:10363800202384F84130002384F8423084F8403055
:10364800012020E000201EE01022DA6123682025F6
:10365800DD612046FFF74EFF2268536823F0FF73B1
:1036680023F48B3323F4FF7323F001035360636C5B
:1036780043F00403636484F84150002384F8423023
:1036880084F84030012070BD70B504460D461646DA
:1036980023689B6913F0020F1DD132462946204644
:1036A800FFF7AAFFC8B9B5F1FF3FF1D0FEF7A0FFB9
:1036B800801BA84201D8002DEAD1636C43F0200397
:1036C8006364202384F84130002384F8423084F86E
:1036D8004030012000E0002070BD0120FCE7F8B573
:1036E80005460F4616461C462B689B6937EA0303B6
:1036F8000CBF01230023B34218D1B4F1FF3FF3D02C
:10370800FEF776FF069BC01AA04201D8002CEBD129
:103718006B6C43F020036B64202385F84130002351
:1037280085F8423085F84030012000E00020F8BDDF
:1037380070B582B0044616461D46184B00934FF0EC
:103748008073EAB2FFF7E7FE079A06992046FFF76B
:103758009BFFE8B9012D0ED12368F6B29E62079B44
:103768000093069B002280212046FFF7B8FF0346FE
:1037780078B101230DE02368320A9A62079A069904
:103788002046FFF781FF38B92368F6B29E62E6E764
:103798000123184602B070BD0123FAE7002000801B
:1037A80070B582B0044616461D46184B0093002398
:1037B800EAB2FFF7B0FE079A06992046FFF764FFC2
:1037C800E8B9012D0ED12368F6B29E62079B0093DB
:1037D800069B002240212046FFF781FF034678B16F
:1037E80001230DE02368320A9A62079A0699204657
:1037F800FFF74AFF38B92368F6B29E62E6E701236D
:10380800184602B070BD0123FAE700BF002000800F
:1038180070B505460C4616462B689B6913F0200FB9
:103828001AD1324621462846FFF7E6FEB0B9FEF720
:10383800DFFE801BA04201D8002CEDD16B6C43F059
:1038480020036B64202385F84130002385F842303B
:1038580085F84030012070BD0020FCE70120FAE720
:1038680070B504460D46164623689B6913F0040F8D
:103878003ED1324629462046FFF7BEFE01460028C3
:1038880038D123689A6912F0200F13D1FEF7B0FEE1
:10389800801BA84201D8002DE6D1636C43F02003B9
:1038A8006364202384F84130002384F840300121E8
:1038B800084670BD9A6912F0040F02D0228D002AC2
:1038C800F6D12022DA6121684B6823F0FF7323F4D4
:1038D8008B3323F4FF7323F001034B6000236364ED
:1038E80084F8412084F8423084F840300121DFE731
:1038F8000021DDE70121DBE7002859D010B5044697
:1039080090F84130002B43D0242384F841302268BA
:10391800136823F0010313606368226823F070635F
:1039280013612268936823F400439360E368012BD2
:1039380033D0A368226843F404439360E368022BFE
:1039480031D02268536843F0007343F40043536056
:103958002268D36823F40043D36023696269134360
:10396800A169226843EA0123D360E369216A2268D6
:103978000B4313602268136843F0010313600020AF
:103988006064202384F84130206384F8420010BD2D
:1039980080F84030FEF79CFBB6E7A368226843F442
:1039A80000439360CAE723684FF400625A60C8E78F
:1039B800012070472DE9F04383B090F84150EDB2F3
:1039C800202D40F0A48090F84040012C00F0A48005
:1039D800984617460E4604464FF0010980F8409075
:1039E800FEF706FE0546009019234A464FF40041AB
:1039F8002046FFF774FE002840F09080212384F8C9
:103A08004130102384F84230002363646762A4F8CD
:103A18002A806363638D9BB2FF2B0AD9FF2222851C
:103A2800424B00934FF0807331462046FFF773FDF9
:103A380018E0628D92B222853C4B00934FF00073E0
:103A4800D2B231462046FFF766FD0BE0628D92B296
:103A58002285002300934FF00073D2B231462046EE
:103A6800FFF759FD638D9BB2002B33D02A460A9984
:103A78002046FFF709FE002852D1626A23681278AF
:103A88009A62636A01336362638D013B9BB263850B
:103A9800238D013B9BB22385628D92B2002AE1D02F
:103AA800002BDFD100950A9B002280212046FFF7DA
:103AB80016FE002836D1638D9BB2FF2BC6D9FF2294
:103AC8002285002300934FF0807331462046FFF78C
:103AD80022FDC7E72A460A992046FFF799FE0346C2
:103AE80010BB22682021D1612068426822F0FF7251
:103AF80022F48B3222F4FF7222F00102426084F831
:103B08004110002284F8422084F8402000E002237B
:103B1800184603B0BDE8F0830223F9E70123F7E76D
:103B28000123F5E70123F3E70123F1E700200080F3
:103B38002DE9F04383B090F84150EDB2202D40F0CC
:103B4800A48090F84040012C00F0A48098461746C5
:103B58000E4604464FF0010980F84090FEF748FDF4
:103B68000546009019234A464FF400412046FFF7C6
:103B7800B6FD002840F09080222384F841301023BD
:103B880084F84230002363646762A4F82A80636380
:103B9800638D9BB2FF2B0AD9FF222285424B0093EB
:103BA8004FF0807331462046FFF7B5FC18E0628D70
:103BB80092B222853C4B00934FF00073D2B231464B
:103BC8002046FFF7A8FC0BE0628D92B22285002305
:103BD80000934FF00073D2B231462046FFF79BFCAA
:103BE800638D9BB2002B33D02A460A992046FFF7F3
:103BF80037FE002852D123685A6A636A1A70636ACA
:103C080001336362238D013B9BB22385628D013AA8
:103C180092B26285628D92B2002AE1D0002BDFD188
:103C280000950A9B002280212046FFF758FD0028B6
:103C380036D1638D9BB2FF2BC6D9FF222285002384
:103C480000934FF0807331462046FFF764FCC7E7C6
:103C58002A460A992046FFF7DBFD034610BB226877
:103C68002021D1612068426822F0FF7222F48B3251
:103C780022F4FF7222F00102426084F8411000220F
:103C880084F8422084F8402000E00223184603B05C
:103C9800BDE8F0830223F9E70123F7E70123F5E7FD
:103CA8000123F3E70123F1E7002400802DE9F04721
:103CB80082B0BDF82C7090F84150EDB2202D40F044
:103CC800BA800A9CDCB1D7B190F84040012C00F0D2
:103CD800B780984691460D4604464FF0010A80F891
:103CE80040A0FEF785FC06460090192352464FF483
:103CF80000412046FFF7F3FC30B101239CE04FF46C
:103D080000734364012397E0212384F84130402362
:103D180084F84230002363640A9A626267856363A9
:103D280001960C9B009343464A4629462046FFF7D6
:103D3800FFFC70B9638D9BB2FF2B0FD9FF22228540
:103D4800002300934FF0807329462046FFF7E3FBDA
:103D580021E0002384F8403053466DE0628D92B232
:103D68002285002300934FF00073D2B229462046E3
:103D7800FFF7D1FB0FE0628D92B2228500230093FA
:103D88004FF00073D2B229462046FFF7C4FB638D7B
:103D98009BB2002B32D032460C992046FFF774FCB8
:103DA80000284FD1626A236812789A62636A0133E5
:103DB8006362638D013B9BB26385238D013B9BB29C
:103DC8002385628D92B2002AE1D0002BDFD10096C4
:103DD8000C9B002280212046FFF781FCA0BB638D4D
:103DE8009BB2FF2BC7D9FF222285002300934FF0F7
:103DF800807329462046FFF78EFBC8E732460C99A8
:103E08002046FFF705FD034600BB22682021D1614B
:103E18002068426822F0FF7222F48B3222F4FF728B
:103E280022F00102426084F84110002284F8422006
:103E380084F8402000E00223184602B0BDE8F0876D
:103E48000223F9E70123F7E70123F5E70123F3E765
:103E58002DE9F04782B0BDF82C7090F84150EDB2D2
:103E6800202D40F0BC800A9CDCB1D7B190F84040CE
:103E7800012C00F0B980984691460D4604464FF053
:103E8800010A80F840A0FEF7B3FB0646009019230C
:103E980052464FF400412046FFF721FC30B1012380
:103EA8009EE04FF400734364012399E0222384F8D1
:103EB8004130402384F84230002363640A9A6262E6
:103EC8006785636301960C9B009343464A462946DF
:103ED8002046FFF765FC70B9638D9BB2FF2B0FD9A5
:103EE800FF222285444B00934FF0807329462046D9
:103EF800FFF711FB21E0002384F8403053466FE0C0
:103F0800628D92B222853C4B00934FF00073D2B27F
:103F180029462046FFF7FFFA0FE0628D92B222850C
:103F2800002300934FF00073D2B229462046FFF7D2
:103F3800F2FA638D9BB2002B34D000960C9B0022C2
:103F480004212046FFF7CBFB00284FD123685A6A8B
:103F5800636A1A70636A01336362238D013B9BB203
:103F68002385628D013A92B26285628D92B2002AEF
:103F7800DFD0002BDDD100960C9B0022802120464B
:103F8800FFF7ADFBA0BB638D9BB2FF2BC5D9FF220A
:103F98002285002300934FF0807329462046FFF7BF
:103FA800BAFAC6E732460C992046FFF731FC0346B9
:103FB80000BB22682021D1612068426822F0FF728C
:103FC80022F48B3222F4FF7222F00102426084F85C
:103FD8004110002284F8422084F8402000E00223A7
:103FE800184602B0BDE8F0870223F9E70123F7E796
:103FF8000123F5E70123F3E70024008008B50368EF
:1040080099691A68436B03B1984708BD70477047B0
:1040180010B5044603681A68002180F8421012F4AB
:10402800804F0ED01A6822F480421A6094F841300A
:10403800DBB2292B0DD094F84130DBB22A2B18D0F3
:1040480010BD12F4004FF1D01A6822F400421A6031
:10405800ECE7282384F841302123236301212046FB
:10406800FFF774FA002384F840302046FFF7CEFFAC
:10407800E6E7282384F841302223236302212046DF
:10408800FFF764FA002384F840302046FFF7BFFFAB
:10409800D6E77047F8B590F8413003F02803282B8D
:1040A80006D003680822DA61002380F84030F8BDA2
:1040B800044603689E69C6F300469A69120C02F02A
:1040C800FE059A68C2F30902DF6807F0FE07C168B7
:1040D800022922D185EAD21515F0060F10D1816C7C
:1040E80001318164816C0229E1D1002181640820B9
:1040F800D86184F8401031462046FFF7CAFFD6E75A
:104108004FF40041FFF722FA002384F840303A4682
:1041180031462046FFF7BDFFC9E74FF40041FFF7DE
:1041280015FA002384F840302A4631462046FFF726
:10413800B0FFBCE77047000010B50446174BC362D8
:1041480000230363202280F8412080F84230436333
:1041580011F0040F12D003685A6A436A1A70436A4E
:1041680001334362038D4BB1013B0385438D013B12
:104178009BB24385436C43F00403436448F2030154
:104188002046FFF7E3F923681022DA61002384F858
:1041980040302046FFF7CEFF10BD00BF0000FFFFF4
:1041A8007047704708B590F84130DBB2602B06D0F5
:1041B8000023036380F84030FFF7F2FF08BD202397
:1041C80080F841300023036380F84030FFF7E9FFAF
:1041D800F4E7000010B5044690F84130002280F85A
:1041E80042203B48E0626285626C11436164283B6F
:1041F800DBB2022B19D803212046FFF7A7F92823A1
:1042080084F84130334B6363236BA26B1AB1112BD3
:104218001BD0212B19D0E26B1AB1122B36D0222BCE
:1042280034D02046FFF7BEFF10BD48F203012046F8
:10423800FFF78CF994F84130DBB2602B02D02023D1
:1042480084F8413000236363DEE723681A6812F4B8
:10425800804F03D01A6822F480421A60A06BFFF7DF
:1042680054F801280ED0A36B1B4A9A63002384F8E4
:104278004030A06BFEF7BFFF0028D5D0A06B836B42
:104288009847D1E72046FFF78DFFCDE723681A68E6
:1042980012F4004F03D01A6822F400421A60E06B4F
:1042A800FFF733F801280ED0E36B0B4A9A6300231B
:1042B80084F84030E06BFEF79EFF0028B4D0E06B36
:1042C800836B9847B0E72046FFF76CFFACE700BF69
:1042D8000000FFFF49440008FD45000870B504468A
:1042E8000D460268166890F84130DBB22021D16192
:1042F800212B0DD0292B0BD0222B01D02A2B0ED10C
:1043080048F202012046FFF721F92223236306E041
:1043180048F201012046FFF719F921232363226897
:10432800536843F4004353602268536823F0FF73D3
:1043380023F48B3323F4FF7323F0010353602046E7
:10434800FFF7D8F816F4804F3FD02268136823F49B
:1043580080431360A36B1BB11B685B689BB26385CA
:1043680015F0040F10D025F0040523685A6A636A13
:104378001A70636A01336362238D2BB1013B238575
:10438800638D013B9BB26385638D9BB21BB1636CEC
:1043980043F004036364002384F842306363636C6E
:1043A8001BBBE36A13F5803F2DD194F84130DBB293
:1043B800222B38D0202384F841300023236384F84B
:1043C80040302046FFF722FE2CE016F4004FC7D0FD
:1043D8002268136823F400431360E36B002BBFD0FB
:1043E8001B685B689BB26385BAE7616C2046FFF780
:1043F800F1FE94F84130DBB2282B13D12946204630
:10440800FFF79AFE0EE02046FFF702FE0B4BE36231
:10441800202384F841300023236384F84030204669
:10442800FFF788FE70BD202384F841300023236302
:1044380084F840302046FFF7EAFDF3E70000FFFF6D
:10444800F8B5C76A90F84030012B00F09C801646FA
:104458000D460446012380F8403011F0200F02D0A9
:1044680012F0200F19D115F0100F3ED016F0100FD2
:104478003BD0638D9BB243BB94F84130DBB2282B11
:104488000ED094F84130DBB2292B11D023681022CA
:10449800DA61002084F84000F8BDFFF71FFFE2E76B
:1044A800B7F1007FEDD129462046FFF745FEF0E73A
:1044B80017F5803FEAD023681022DA612046FFF71B
:1044C80019F82046FFF7A4FDE3E723681022DA6114
:1044D800636C43F00403636417B1B7F1807FD8D1EC
:1044E800616C2046FFF776FED3E715F0040F1ED067
:1044F80016F0040F1BD0638D9BB26BB123685A6A08
:10450800636A1A70636A01336362238D013B2385F2
:10451800638D013B9BB26385638D9BB2002BB8D141
:1045280017F5803FB5D02046FFF772FDB1E715F0CB
:10453800080F02D016F0080F17D115F0020FA8D0F7
:1045480016F0020FA5D0638D9BB29BB1626A2368F7
:1045580012789A62636A01336362638D013B9BB28E
:104568006385238D013B238593E729462046FFF782
:1045780091FD8EE7B7F1807F01D0002F89D12046C9
:10458800FFF746FD85E7022086E710B502689369C4
:10459800116813F4807F09D011F0800F06D0446CA5
:1045A80044F0010444644FF48074D46113F4806FC0
:1045B8000AD011F0800F07D0426C42F00802426422
:1045C80002684FF48064D46113F4007F0AD011F0BC
:1045D800800F07D0436C43F00203436403684FF431
:1045E8000072DA61416C11F00B0F00D110BDFFF7BA
:1045F800F1FDFBE708B5806A836B0BB100229A6373
:10460800C36B0BB100229A63FFF7CCFD08BD90F88D
:104618004130DBB2202B24D190F84030012B22D03E
:10462800012380F84030242380F841300268136861
:1046380023F0010313600268136823F480531360A6
:1046480002681368194311600268136843F0010394
:104658001360202380F84130002380F8403018464A
:104668007047022070470220704790F84130DBB253
:10467800202B22D190F84030012B20D0012380F844
:104688004030242380F841300268136823F0010386
:1046980013600268136823F4706343EA0121116010
:1046A8000268136843F001031360202380F8413047
:1046B800002380F8403018467047022070470220D7
:1046C80070470000024A136843F480731360704710
:1046D80000700040024B186800F4C060704700BFCB
:1046E80000700040B0F5007F0FD01F4B1B6803F42B
:1046F800C063B3F5806F34D01B4A136823F4C063DA
:1047080043F48063136000207047174B1B6803F461
:10471800C063B3F5007F22D0134A136823F4C06343
:1047280043F400731360114B1A68322303FB02F33E
:104738000F4AA2FB03239B0C013300E0013B0A4A0A
:10474800526912F4806F01D0002BF7D1064B5B69D8
:1047580013F4806F01D100207047032070470020B8
:1047680070470020704700BF007000401000002014
:1047780083DE1B4330B583B00546204B9B6D13F099
:10478800805F0BD0FFF7A6FFB0F5007F17D0802D14
:104798001FD82DD0702D2DD000211BE0174CA36DF4
:1047A80043F08053A365A36D03F080530193019BED
:1047B800FFF790FFA36D23F08053A365E4E7802DF6
:1047C80003D9A02D03D9022104E0002102E0012130
:1047D80000E003210A4A136823F007030B43136020
:1047E800136803F007038B4206D0012003B030BDE5
:1047F8000221EFE70121EDE70020F7E70010024072
:1048080000200240284A9368D26802F0030213F09D
:104818000C030AD00C2B06D0042B1FD0082B20D059
:104828000020024610E0012AF6D11F4A126812F051
:10483800080F0CD11C4AD2F89420C2F303221B495A
:1048480051F8222043B100200C2B0DD07047164A96
:104858001268C2F30312F2E71046F5E71448002283
:10486800F2E714480022EFE70F4BDB6803F003037D
:10487800022B15D0032B15D00B4BD868C0F30210B0
:104888000130D968C1F3062102FB01F2B2FBF0F254
:10489800D868C0F3416001304000B2FBF0F0D5E7C2
:1048A800034AE9E7034AE7E700100240607200089C
:1048B8000024F40000127A00002800F00083F0B50C
:1048C80083B00446AF4B9D6805F00C05DE6806F022
:1048D8000306036813F0100F5BD0E5B10C2D18D058
:1048E800A369002B00F0BC80A64A136843F00103BB
:1048F8001360FDF77DFE0746A24B1B6813F0020FFD
:1049080040F09B80FDF774FEC01B0228F4D90323F6
:10491800E1E2012EE4D19B4B1B6813F0020F03D098
:10492800A369002B00F0CE82206A964B1B6813F017
:10493800080F5CD0934B1B6803F0F00398425DD8D6
:10494800904B1A6842F008021A601A6822F0F002C6
:10495800216A0A431A605A6822F47F42E16942EAEE
:1049680001225A60002D61D0FFF74CFF854B9B68F0
:10497800C3F30313844AD35C03F01F03D840834B6B
:104988001860834B1868FDF7EBFD0346002840F0DC
:10499800A282236813F0010F00F08180082D75D0E2
:1049A8000C2D71D06368B3F5803F00F09780B3F5A4
:1049B800A02F00F09980734B1A6822F480321A6095
:1049C8001A6822F480221A606368002B00F099802C
:1049D800FDF70EFE07466B4B1B6813F4003F5ED1D4
:1049E800FDF706FEC01B6428F5D9032373E2654B67
:1049F800D3F894301B0903F0F0039FE7FFF7BAFEE2
:104A0800002840F061825F4B1A6842F008021A6081
:104A18001A6822F0F002216A0A431A605A6822F4DE
:104A28007F42E16942EA01225A609DE7206AFFF766
:104A3800A1FE002898D001234DE2524B1A6842F09B
:104A480008021A601A6822F0F002216A0A431A6002
:104A58005A6822F47F42E16942EA01225A6098E7E3
:104A6800484A136823F001031360FDF7C1FD0746A8
:104A7800444B1B6813F0020F8BD0FDF7B9FDC01B28
:104A88000228F5D9032326E2032E8BD13D4B1B6860
:104A980013F4003F03D06368002B00F017822368EB
:104AA80013F0020F4FD0042D3CD00C2D38D0E36802
:104AB800002B78D0334A136843F480731360FDF7F2
:104AC80097FD06462F4B1B6813F4806F62D1FDF7E4
:104AD8008FFD801B0228F5D90323FCE1294A1368BE
:104AE80043F4803313606FE703F18043A3F53C334D
:104AF8001A6842F480221A601A6842F480321A60F6
:104B080062E7FDF775FD07461E4B1B6813F4003F6F
:104B1800C5D0FDF76DFDC01B6428F5D90323DAE184
:104B2800022EC4D1174B1B6813F4806F03D0E368BF
:104B3800002B00F0CD81134A536823F0F853216904
:104B480043EA01635360236813F0080F56D0636982
:104B5800002B3CD00B4AD2F8943043F00103C2F842
:104B68009430FDF745FD0646064BD3F8943013F014
:104B7800020F43D1FDF73CFD801B0228F4D9032323
:104B8800A9E100BF00100240907200081000002048
:104B980018000020B84A536823F0F853216943EA03
:104BA80001635360CFE7B44A136823F4807313603A
:104BB800FDF71EFD0646B04B1B6813F4806FC2D08C
:104BC800FDF716FD801B0228F5D9032383E1AA4AC5
:104BD800D2F8943023F00103C2F89430FDF708FDB1
:104BE8000646A54BD3F8943013F0020F06D0FDF714
:104BF800FFFC801B0228F4D903236CE1236813F01F
:104C0800040F7AD09C4B9B6D13F0805F0BD19A4BAD
:104C18009A6D42F080529A659B6D03F08053019320
:104C2800019B012600E00026944B1B6813F4807F4B
:104C380026D0A368012B37D0052B3DD08E4BD3F857
:104C4800902022F00102C3F89020D3F8902022F09F
:104C58000402C3F89020A368002B3BD0FDF7C8FCE2
:104C68000746854BD3F8903013F0020F44D1FDF777
:104C7800BFFCC01B41F288339842F2D903232AE1D2
:104C88007E4A136843F480731360FDF7B1FC07464E
:104C98007A4B1B6813F4807FCBD1FDF7A9FCC01BAE
:104CA8000228F5D9032316E1734AD2F8903043F06D
:104CB8000103C2F89030CEE76F4BD3F8902042F052
:104CC8000402C3F89020D3F8902042F00102C3F800
:104CD8009020C0E7FDF78CFC0746674BD3F890306F
:104CE80013F0020F08D0FDF783FCC01B41F2883394
:104CF8009842F2D90323EEE06EBBA36A002B00F0C2
:104D0800E980022B2DD00C2D00F0EE805A4B1A684A
:104D180022F080721A601B6813F0205F04D1564A93
:104D2800D36823F00303D360534AD36823F088730E
:104D380023F48033D360FDF75BFC04464E4B1B68BD
:104D480013F0007F00F0B980FDF752FC001B022829
:104D5800F4D90323BFE0484A936D23F08053936549
:104D6800CBE7454BDB6803F00301E26A91420FD0C1
:104D78000C2D00F0B380404B1B6813F0806F40F09F
:104D8800AF803D4B1B6813F0805F2DD00123A2E05C
:104D980003F07002216B0139B2EB011FE8D103F473
:104DA800FE42616BB2EB012FE2D103F40031A26B3A
:104DB800073A18BF01229142DAD103F4C001E26B2D
:104DC8005208013AB1EB425FD2D103F0C063226CC2
:104DD8005208013AB3EB426FCAD1274B1B6813F054
:104DE800007F51D0002376E0234A136823F08073B4
:104DF8001360FDF7FDFB05461F4B1B6813F0007F92
:104E080006D0FDF7F5FB401B0228F5D9032362E025
:104E1800194AD3681A491940E36A206B013843EAF2
:104E28000013606B43EA0023E06B4008013843EA53
:104E38004053206C4008013843EA4063A06B0009E6
:104E480043EA40430B43D360136843F08073136015
:104E5800D36843F08073D360FDF7CAFB0446064B62
:104E68001B6813F0007F0DD1FDF7C2FB001B022861
:104E7800F5D903232FE000BF001002400070004066
:104E88008C809DF9002326E0184B1A6842F0807246
:104E98001A60DA6842F08072DA60FDF7A9FB04460E
:104EA80004E0FDF7A5FB001B02281BD80F4B1B686D
:104EB80013F0007FF5D000230DE000230BE0012361
:104EC80018467047012306E0012304E0012302E0AD
:104ED800012300E00023184603B0F0BD0123FAE7E0
:104EE8000123F8E70323F6E70123F4E70010024063
:104EF800002800F09B8070B504464E4B1B6803F0F9
:104F080007038B420CD24B4A136823F007030B4369
:104F18001360136803F007038B4201D0012070BDB2
:104F28000D46236813F0010F39D06368032B09D0AD
:104F3800022B26D063BB404A126812F0020F06D13A
:104F48000120ECE73C4A126812F0007F70D03A4921
:104F58008A6822F0030213438B60FDF749FB06467B
:104F6800354B9B6803F00C036268B3EB820F16D0D5
:104F7800FDF73EFB801B41F288339842F0D90320AD
:104F8800CDE72D4A126812F4003FE0D10120C6E7B0
:104F9800294A126812F4806FD9D10120BFE723682B
:104FA80013F0020F06D0244A936823F0F003A16897
:104FB8000B4393601F4B1B6803F00703AB420CD9EC
:104FC8001C4A136823F007032B431360136803F08C
:104FD8000703AB4201D00120A1E7236813F0040FB7
:104FE80006D0154A936823F4E063E1680B439360A5
:104FF800236813F0080F07D00F4A936823F460530F
:10500800216943EAC1039360FFF7FCFB0A4B9B68E5
:10501800C3F30313094AD35C03F01F03D840084BBA
:105028001860084B1868FDF79BFA78E7012070476D
:10503800012074E70020024000100240907200082E
:105048001000002018000020014B1868704700BFAE
:105058001000002008B5FFF7F7FF054B9B68C3F366
:105068000223044AD35C03F01F03D84008BD00BFE5
:1050780000100240A072000808B5FFF7E5FF054BD5
:105088009B68C3F3C223044AD35C03F01F03D840D0
:1050980008BD00BF00100240A0720008F8B55A4BC6
:1050A800DB6813F0030F18D0574BDB6803F00303DA
:1050B8000268934202D001252846F8BD002A00F074
:1050C800A080514BDB68C3F302130133426893425B
:1050D80001D00125F0E700251AE00368022B59D01A
:1050E800032B5ED0012B01D001250FE0464A126840
:1050F80012F0020F61D0444DEA6822F0730244684E
:10510800013C43EA04131343EB600025002DD3D17F
:105118000F4604463C4A136823F080631360FDF78A
:1051280067FA0646384B1B6813F0006F05D0FDF789
:105138005FFA801B0228F5D90325002DBCD1002F6A
:105148003DD131490B6923F41F3323F44073A06820
:10515800E2681209520442EA002213430B612A4A08
:10516800136843F080631360FDF742FA0646264B46
:105178001B6813F0006F05D1FDF73AFA801B02286F
:10518800F5D90325002D97D11F4A1369A1690B434F
:10519800136191E71C4A126812F4806FABD10125A4
:1051A800B4E7194A126812F4003FA4D1164A1268EB
:1051B80012F4802F9FD10125A8E70125A6E7012F2A
:1051C8000FD01148026922F0C06222F4FE42A168A1
:1051D80063695B08013B5B0643EA012313430361F0
:1051E800BDE70948026922F4C00222F4FE42A16820
:1051F80023695B08013B5B0543EA01231343036111
:10520800ADE7012558E700BF00100240F8B5514B43
:10521800DB6813F0030F18D04E4BDB6803F0030371
:105228000268934202D001252846F8BD002A00F002
:105238008E80484BDB68C3F3021301334268934204
:1052480001D00125F0E700251AE00368022B59D0A8
:10525800032B5ED0012B01D001250FE03D4A1268D7
:1052680012F0020F61D03B4DEA6822F073024468E5
:10527800013C43EA04131343EB600025002DD3D10E
:105288000F460446334A136823F080531360FDF732
:10529800AFF906462F4B1B6813F0005F05D0FDF7EA
:1052A800A7F9801B0228F5D90325002DBCD1002FB2
:1052B8003DD128494B6923F41F3323F44073A06878
:1052C800E2681209520442EA002213434B61214A60
:1052D800136843F080531360FDF78AF906461D4BA7
:1052E8001B6813F0005F05D1FDF782F9801B0228C7
:1052F800F5D90325002D97D1164A536961690B43E7
:10530800536191E7134A126812F4806FABD10125FB
:10531800B4E7104A126812F4003FA4D10D4A12688B
:1053280012F4802F9FD10125A8E70125A6E7094897
:10533800426922F0C06222F4FE42A16823695B0838
:10534800013B5B0643EA012313434361BFE70125A1
:105358006AE700BF001002402DE9F04182B0044620
:10536800036813F4006F2FD0436EB3F5800F25D078
:1053780008D9B3F5000F10D0B3F5400F40F099806D
:10538800002610E0002B40F0948000210430FFF745
:1053980085FE06463EB1374618E05E4AD36843F4B8
:1053A8008033D36000265B4AD2F8883023F4400368
:1053B800616E0B43C2F88830002707E000212030D7
:1053C800FFF724FF0646E5E700273E46236813F467
:1053D800805F15D0A36EB3F1807F7AD06CD9B3F11A
:1053E800007F70D0B3F1407F7AD1002E7BD1494A3B
:1053F800D2F8883023F04073A16E0B43C2F888308E
:10540800236813F4003F00F08E80424B9B6D13F02D
:10541800805F6AD13F4B9A6D42F080529A659B6DCE
:1054280003F080530193019B4FF001083A4A136837
:1054380043F480731360FDF7DBF80546364B1B68B1
:1054480013F4807F05D1FDF7D3F8401B0228F5D966
:105458000326002E62D12F4BD3F8903013F44073FB
:1054680016D0D4F884209A4212D02A4AD2F8903022
:1054780023F44073D2F8901041F48031C2F89010B0
:10548800D2F8901021F48031C2F89010C2F8903010
:1054980013F0010F2CD1002E40F043811D4AD2F8A1
:1054A800903023F44073D4F884100B43C2F8903042
:1054B80035E001273E4689E793B90021201DFFF713
:1054C800EDFD064691E7134AD36843F48033D36071
:1054D8008BE7002104F12000FFF798FE064684E7D9
:1054E80001273E468CE737468AE74FF000089DE7DC
:1054F800FDF77EF80546074BD3F8903013F0020FFE
:10550800C9D1FDF775F8401B41F288339842F2D9AA
:105518000326C0E700100240007000403746B8F18B
:10552800000F40F00081236813F0010F08D09D4A56
:10553800D2F8883023F00303A16B0B43C2F88830FC
:10554800236813F0020F08D0964AD2F8883023F067
:105558000C03E16B0B43C2F88830236813F0040F87
:1055680008D0904AD2F8883023F03003216C0B43DE
:10557800C2F88830236813F0080F08D0894AD2F897
:10558800883023F0C003616C0B43C2F8883023686D
:1055980013F0100F08D0834AD2F8883023F44073F0
:1055A800A16C0B43C2F88830236813F0200F08D091
:1055B8007C4AD2F8883023F44063E16C0B43C2F88C
:1055C8008830236813F4007F08D0764AD2F88830F0
:1055D80023F44023E16D0B43C2F88830236813F4A9
:1055E800806F08D06F4AD2F8883023F44013216EB8
:1055F8000B43C2F88830236813F0400F08D0694A7B
:10560800D2F8883023F44053216D0B43C2F8883018
:10561800236813F0800F08D0624AD2F8883023F448
:105628004043616D0B43C2F88830236813F4807FD0
:1056380008D05C4AD2F8883023F44033A16D0B437C
:10564800C2F88830236813F4005F0FD0554AD2F8A7
:10565800883023F04063E16E0B43C2F88830E36E74
:10566800B3F1006F65D0B3F1806F67D0236813F48E
:10567800002F0FD04B4AD2F8883023F04063216FB7
:105688000B43C2F88830236FB3F1006F5ED0B3F1DB
:10569800806F60D0236813F4802F0FD0414AD2F86E
:1056A800883023F04063616F0B43C2F88830636F22
:1056B800B3F1006F57D0B3F1806F59D0236813F45A
:1056C800804F0FD0374AD2F8883023F04053A16F6B
:1056D8000B43C2F88830A36FB3F1805F50D0B3F1A9
:1056E800005F55D0236813F4004F08D02D4AD2F834
:1056F800883023F08043E16F0B43C2F88830236879
:1057080013F4803F09D0274AD2F8883023F00043A9
:10571800D4F880100B43C2F88830384602B0BDE890
:10572800F0813746FBE61F4A936D23F0805393655B
:10573800F9E6D36843F48013D36097E70121201D6D
:10574800FFF7ACFC002891D007468FE7D36843F4F5
:105758008013D3609EE70121201DFFF79FFC0028DE
:1057680098D0074696E7D36843F48013D360A5E73B
:105778000121201DFFF792FC00289FD007469DE7D6
:105788000221201DFFF78AFC0028ABD00746A9E7B5
:10579800022104F12000FFF739FD0028A2D00746B6
:1057A800A0E700BF0010024038B504460268D3687D
:1057B80023F0A003D360FCF71BFF05462368DB68D2
:1057C80013F0200F07D1FCF713FF401BB0F57A7FC9
:1057D800F4D9032000E0002038BD70B50368DA680A
:1057E80012F0400F02D00025284670BD04464FF045
:1057F800FF32DA60FCF7FCFE064600252368DB680A
:1058080013F0400FF0D1032DEED0FCF7F1FE801B12
:10581800B0F57A7FF2D9032584F82150EEE700002D
:1058280010B50446114BDA6822F08002DA609B68F2
:1058380013F0200F07D1FFF7B7FF0346A0B10323EA
:1058480084F8213010E0094A936823F0200393601C
:10585800FFF7AAFF034610B1032384F82130034958
:105868008A6842F020028A60184610BD002800406D
:1058780038B500284AD0044690F821307BB102237D
:1058880084F821302368CA225A62236853225A6254
:105898002046FFF7A2FF034630B1184638BD80F80E
:1058A8002030FCF785FCEAE72268936823F4E003DC
:1058B80023F04003936021688A6863682069034382
:1058C800A069034313438B602368E2681A61226866
:1058D8001369A16843EA014313612046FFF7A0FF5B
:1058E80003460028D9D12168CA6C22F00302CA6491
:1058F8002068C26CE169656929430A43C264226869
:10590800FF215162012284F82120C6E70123C4E760
:10591800002302E001330A38C0B20928FAD81B0173
:10592800DBB21843704790F82030012B61D070B576
:1059380016460D460446012380F82030022380F8DD
:1059480021300368CA225A62036853225A62FFF759
:1059580044FF034600282ED1002E38D123689B68C7
:1059680013F0400F01D10023EB702878FFF7D0FF28
:1059780006046878FFF7CCFF46EA0026A878FFF708
:10598800C7FF3043EB7840EA8350236800F07F304C
:1059980020F0FE4018602268936823F48023936007
:1059A80021688B68EA682869024313438B602046A4
:1059B800FFF736FF03462268FF21516213B901221F
:1059C80084F82120002284F82020184670BD23681E
:1059D8009B6813F0400F01D10023EB702B78687897
:1059E800000240EA0340AB781843EB7840EA835062
:1059F800CBE702231846704790F82030012B4FD090
:105A080070B5012380F82030022380F821303AB99C
:105A18004B7813F0100F03D003F0EF030A334B70E9
:105A28000E46044632BBC878FFF772FF050470784B
:105A3800FFF76EFF45EA0025B078FFF769FF0543D9
:105A4800307845EA40352368CA225A6223685322CF
:105A58005A622046FFF7C1FE0346B0B12268FF2113
:105A6800516213B9012284F82120002284F82020F1
:105A7800184670BDC8784D782D0245EA00458878EB
:105A88000543087845EA4035DDE7236825F07F457A
:105A980025F0C0055D602046FFF7C2FE0346DDE73E
:105AA800022318467047030903EB83035A0000F0EA
:105AB8000F001044C0B2704770B503689B6A4B6012
:105AC80003681B69C3F30E038B6003681B6803F04C
