:020000040800F2
:1000000000800120E9370008C50A0008C70A000877
:10001000C90A0008CB0A0008CD0A00080000000049
:10002000000000000000000000000000CF0A0008EF
:10003000D10A000800000000D30A0008D50A000811
:1000400039380008393800083938000839380008CC
:1000500039380008393800083938000839380008BC
:1000600039380008393800083938000839380008AC
:10007000393800083938000839380008393800089C
:10008000DD0A0008ED0A0008393800083938000890
:10009000393800083938000839380008393800087C
:1000A000393800083938000839380008393800086C
:1000B000393800083938000839380008FD0A0008C6
:1000C0000D0B0008393800083938000839380008A5
:1000D000393800083938000839380008393800083C
:1000E000393800083938000839380008393800082C
:1000F000393800083938000839380008393800081C
:10010000393800083938000839380008393800080B
:1001100039380008393800083938000839380008FB
:1001200039380008393800083938000839380008EB
:1001300039380008393800083938000839380008DB
:1001400039380008393800083938000839380008CB
:1001500039380008393800083938000839380008BB
:1001600039380008393800083938000839380008AB
:100170003938000839380008393800080000000014
:08018000393800083938000885
:1001900010B5054C237833B9044B13B10448AFF3C1
:1001A00000800123237010BD7800002000000000B3
:1001B000AC40000808B5034B1BB103490348AFF33B
:1001C000008008BD000000007C000020AC4000085A
:1001D00053B94AB9002908BF00281CBF4FF0FF31AE
:1001E0004FF0FF3000F072B9ADF1080C6DE904CEAC
:1001F00000F006F8DDF804E0DDE9022304B0704702
:100200002DE9F047089E04468846002B4BD18A42D0
:10021000154667D9B2FA82F24AB1C2F1200701FA53
:1002200002F320FA07F7954047EA030894404FEAA3
:10023000154E230CB8FBFEF71FFA85FC0EFB178842
:1002400043EA084307FB0CF1994209D9EB1807F17F
:10025000FF3080F01B81994240F21881023F2B440D
:100260005B1AA4B2B3FBFEF00EFB103344EA034466
:1002700000FB0CFCA44509D92C1900F1FF3380F0D8
:100280000781A44540F2048102382C4440EA07402B
:10029000A4EB0C0400271EB1D4400023C6E90043A0
:1002A0003946BDE8F0878B4209D9002E00F0EB807B
:1002B0000027C6E9000138463946BDE8F087B3FAA1
:1002C00083F7002F47D18B4202D3824200F2FA809B
:1002D000841A61EB030301209846002EE0D0C6E9A2
:1002E0000048DDE702B9FFDEB2FA82F2002A40F0F0
:1002F0008F80491B4FEA154E1FFA85F80127B1FB85
:10030000FEFC230C0EFB1C1143EA014308FB0CF11D
:10031000994207D9EB180CF1FF3002D2994200F252
:10032000CD808446591AA3B2B1FBFEF00EFB101427
:1003300043EA044408FB00F8A04507D92C1900F152
:10034000FF3302D2A04500F2B6801846A4EB0804A1
:1003500040EA0C409FE7C7F1200CBB4022FA0CFE9C
:100360004EEA030E01FA07F420FA0CF521FA0CF319
:100370004FEA1E482543B3FBF8F92C0C08FB193350
:100380001FFA8EFA44EA034309FB0AF49C4202FA7C
:1003900007F200FA07F10BD91EEB030309F1FF3056
:1003A00080F087809C4240F28480A9F10209734466
:1003B0001B1BADB2B3FBF8F008FB103345EA034456
:1003C00000FB0AFAA24508D91EEB040400F1FF3332
:1003D0006BD2A24569D90238744440EA0940A0FBB7
:1003E0000289A4EB0A044C45C2464B4654D351D073
:1003F000002E69D0B1EB0A0564EB030404FA0CFC8F
:10040000FD40FC404CEA0505C6E90054002747E7DB
:10041000C2F1200320FA03F7954001FA02F021FA15
:1004200003F34FEA154E3843010CB3FBFEF71FFAF6
:1004300085F80EFB173341EA034107FB08F38B42B3
:1004400004FA02F407D9691807F1FF3C2FD28B4256
:100450002DD9023F2944CB1A81B2B3FBFEF00EFB2B
:10046000103341EA034100FB08F38B4207D96918B6
:1004700000F1FF3C17D28B4215D902382944C91A22
:1004800040EA07473BE73746304609E70746E7E6D5
:100490001846FBE64145ABD2B8EB020A69EB0E0207
:1004A00001381346A4E76046E9E7184695E7674632
:1004B000D1E781467CE702382C4447E7ACF1020CD7
:1004C0002B442FE7384608E73746E9E6704700BF78
:1004D00001F0FF01102A2BDB10F0070F08D010F8F5
:1004E000013B013A8B422DD010F0070F42B3F6D1F9
:1004F000F0B441EA012141EA014122F007047FF012
:1005000000070023F0E80256083C85EA010586EA68
:10051000010685FA47F5A3FA87F586FA47F6A5FAA4
:1005200087F68EB9EED1F0BC01F0FF0102F00702B0
:1005300032B110F8013B013A83EA010313B1F8D15B
:100540000020704701387047002D06BF354603383C
:10055000073815F0010F07D1013015F4807F02BF75
:10056000013015F4C03F0130F0BC0138704700BFC6
:10057000F0B585B004AA02F8010D0A4F39780A4D8A
:100580004FF6FF7600960123284600F0F9FF074C4E
:100590003978009601232246284601F0AFF82078EA
:1005A00005B0F0BD00000020C8010020940000202C
:1005B0002DE9F04F85B02820FFF7DAFF0546292006
:1005C000FFF7D6FF04462A20FFF7D2FF06462B206E
:1005D000FFF7CEFF07462C20FFF7CAFF81462D20EC
:1005E000FFF7C6FF240224B22DB22C433D022DB2E8
:1005F00036B23543060236B20FFA89F946EA0906E1
:100600002220FFF7B5FF83462320FFF7B1FF804686
:100610002420FFF7ADFF81462520FFF7A9FF824682
:100620002620FFF7A5FF07462720FFF7A1FF4FEA87
:10063000082109B20FFA8BFB41EA0B014FEA0A23AA
:100640001BB20FFA89F943EA0903020212B23FB260
:100650003A430A4F03920293019100962B46224699
:100660000749384603F01CF94FF6FF7378223946E4
:10067000044802F0E6FF05B0BDE8F08F0801002055
:10068000584100085C0200202DE9F04389B00F4674
:100690000DF1200808F8090D1B4E31781B4C4FF660
:1006A000FF75009501234246204600F069FFDFF800
:1006B00060903178009501234A46204601F01EF8EB
:1006C00099F8001039438DF81F109DF817203178E4
:1006D0000295012701970DF11F0300933B46204629
:1006E00001F0CAF8317800953B464246204600F0BA
:1006F00047FF317800953B464A46204600F0FEFF12
:1007000009B0BDE8F08300BF00000020C801002050
:100710009400002008B540211020FFF7B5FF4021CC
:100720001120FFF7B1FF08BD08B5FFF7F3FFFFF792
:100730003FFF20214FF0904000F0F1FC642000F0DA
:100740007DFAF4E710B588B000240394049405946E
:1007500006940794124BDA6C42F00102DA64DA6C08
:1007600002F001020192019ADA6C42F00202DA64AC
:10077000DB6C03F002030293029B224620214FF020
:10078000904000F0C7FC20230393012304930594B9
:10079000069403A94FF0904000F0D8FB08B010BDBC
:1007A0000010024000B583B00E4B9A6C42F001027B
:1007B0009A649B6C03F001030193019B0022114694
:1007C000102000F061FA102000F092FA0022114689
:1007D000112000F059FA112000F08AFA03B05DF8F8
:1007E00004FB00BF0010024072B6FEE708B51148D6
:1007F000114B0360114B4360002383600122C260F0
:10080000036143618361C361036200F05BFE50B921
:100810000021084801F00BFC38B90021054801F01F
:1008200034FC20B908BDFFF7DFFFFFF7DDFFFFF75E
:10083000DBFF00BFC801002000540040EC9C90107A
:1008400008B50B480B4B03604FF4E13343600023C2
:100850008360C36003610C2242618361C3610362F0
:10086000436202F090FF00B908BDFFF7BDFF00BF73
:100870005C0200200044004000B5B9B024220021F1
:1008800028A803F005F800212291239124912591B5
:1008900026918822684602F0FBFF022327934FF43B
:1008A00080722A9210222B9231933293012233923A
:1008B0000A223492072235923693379327A801F003
:1008C00003FDE8B90F2322930323239300232493EA
:1008D00025932693042122A802F012F890B942230E
:1008E000009300230F931493684602F03DFA58B921
:1008F0004FF4007001F0FEFB40B939B05DF804FB25
:10090000FFF772FFFFF770FFFFF76EFFFFF76CFF57
:1009100008B500F06BF9FFF7AFFFFFF713FFFFF724
:1009200041FFFFF763FFFFF78BFFFFF7FDFEFEE7D9
:1009300082B00A4B1A6E42F001021A661A6E02F079
:1009400001020092009A9A6D42F080529A659B6D66
:1009500003F080530193019B02B0704700100240E6
:1009600070B588B00023039304930593069307930F
:100970000268334B9A4201D008B070BD0446314D35
:10098000EB6C43F00203EB64EB6C03F002030193A6
:10099000019B4FF4407303931223049301230593A7
:1009A000032606960423079303A9274800F0CEFAEE
:1009B000AB6D43F40013AB65AB6D03F4001302930E
:1009C000029B2248224B0360466000238360C36081
:1009D0008022026143618361C361036200F0ACF96C
:1009E00040BB1A4BE3639C621A481B4B0360032312
:1009F0004360102383600023C3608022026143614F
:100A00008361C361036200F097F9B0B9114BA3632E
:100A10009C62002211461F2000F036F91F2000F0D2
:100A200067F900221146202000F02EF9202000F066
:100A30005FF9A1E7FFF7D8FED3E7FFF7D5FEE5E7BB
:100A4000005400400010024000040048140200203E
:100A500080000240800100206C00024000B589B097
:100A60000023039304930593069307930268144BA2
:100A70009A4202D009B05DF804FB03F5E6339A6DA3
:100A800042F400329A659A6D02F400320192019AA2
:100A9000DA6C42F00102DA64DB6C03F001030293CA
:100AA000029B0C230393022304930323069307233F
:100AB000079303A94FF0904000F048FADAE700BF2F
:100AC00000440040FEE7FEE7FEE7FEE7FEE7704772
:100AD0007047704708B500F09FF808BD08B5024898
:100AE00000F0CEF908BD00BF8001002008B5024823
:100AF00000F0C6F908BD00BF1402002008B5024886
:100B000000F08CFF08BD00BFC801002008B50248F6
:100B100001F04BFA08BD00BFC801002008B503462C
:100B20000B4A126842B10A4A106803446A4693426B
:100B300006D8074A136008BD054A06491160F2E766
:100B400002F07CFE0C2303604FF0FF30F3E700BFA0
:100B5000F8000020E80200200F49D1F8883043F463
:100B60007003C1F888300D4B1A6842F001021A6018
:100B7000002098601A6822F0A85222F410221A600D
:100B80004FF48052DA601A6822F480221A60986169
:100B90004FF000638B60704700ED00E000100240F2
:100BA000104B1B780BB90120704710B504464FF469
:100BB0007A70B0FBF3F30C4A1068B0FBF3F000F06E
:100BC000A5F868B90F2C01D901200AE000222146BE
:100BD0004FF0FF3000F058F8024B5C60002000E05E
:100BE000012010BD080000200400002010B5094AB3
:100BF000136843F480731360032000F033F800207F
:100C0000FFF7CEFF10B10124204610BD0446FFF7C8
:100C10008FFEF9E700200240034B1B78034A11685E
:100C20000B441360704700BF08000020DC02002066
:100C3000014B1868704700BFDC02002038B504463D
:100C4000FFF7F6FF0546B4F1FF3F02D0044B1B78D7
:100C50001C44FFF7EDFF401BA042FAD338BD00BF94
:100C600008000020074AD36823F4E0631B041B0C30
:100C7000000200F4E060184340F0BF6040F4003030
:100C8000D060704700ED00E030B4174BDB68C3F371
:100C90000223C3F10704042C28BF04241D1D062DC4
:100CA00018D9033B4FF0FF3505FA04F421EA04019B
:100CB000994005FA03F322EA0303194300280BDBEA
:100CC0000901C9B200F1604000F5614080F80013ED
:100CD00030BC70470023E5E700F00F000901C9B2FE
:100CE000024B1954F4E700BF00ED00E014ED00E002
:100CF000002807DB00F01F02400901239340024A4D
:100D000042F82030704700BF00E100E00138B0F148
:100D1000807F0AD2064B5860064AF02182F82310E1
:100D20000020986007221A6070470120704700BFBA
:100D300010E000E000ED00E0002869D010B40346A8
:100D40000168344A914245D8334A0A443349A1FBE9
:100D50000212120992004264314A0264022283F8AC
:100D600025201868016821F4FF4121F070019A687C
:100D7000DC6822431C6922435C6922439C6922434C
:100D8000DC6922431C6A22430A4302609A68B2F576
:100D9000804F15D0196C224A914226D0214A116801
:100DA000586C00F01C040F20A04021EA00011160E3
:100DB000116858685C6C04F01C04A0400143116089
:100DC0000020D863012283F8252083F824005DF8F1
:100DD000044B7047144A0A441049A1FB021212093D
:100DE00092004264114A0264B8E7A8321168586C54
:100DF00000F01C040F20A04021EA000111601168DE
:100E000058685C6C04F01C04A04001431160D7E7F3
:100E10000120704707040240F8FFFDBFCDCCCCCCC9
:100E200000000240A8040240F8FBFDBF000402409D
:100E300008B590F82530DBB2022B03D00423C3633E
:100E4000012008BD0268136823F00E0313600268D6
:100E5000136823F001031360436C03F01C03016C5F
:100E6000012202FA03F34B6080F82520002380F86A
:100E70002430836B13B198470020E2E70020E0E7BD
:100E800038B5036C196804682568436C03F01C03CB
:100E900004229A400A4215D015F0040F12D023689C
:100EA00013F0200F03D1236823F004032360436C65
:100EB00003F01C02016C042393404B60036B03B1ED
:100EC000984738BD02229A400A421CD015F0020F02
:100ED00019D0236813F0200F06D1236823F00A03EA
:100EE0002360012380F82530436C03F01C02016C61
:100EF000022393404B60002380F82430C36A002B08
:100F0000DFD09847DDE7082202FA03F30B42D8D07E
:100F100015F0080FD5D0236823F00E032360436C2F
:100F200003F01C03016C012202FA03F34B60C2635D
:100F300080F82520002380F82430436B002BC0D09C
:100F40009847BEE790F8250070470000F0B583B0E1
:100F500000233FE0C66A26EA0406C5F3C0049C40AD
:100F60003443C4625FE0062400E00024B4403C4304
:100F70000235644E46F82540634C2568D44304EAA4
:100F800005064F6817F4803F01D042EA05065E4D22
:100F90002E606D6804EA05064F6817F4003F01D023
:100FA00042EA0506584D6E60AD6804EA05064F68D2
:100FB00017F4801F01D042EA0506534DAE60ED687C
:100FC0002C404E6816F4001F01D042EA05044E4A38
:100FD000D46001330A6832FA03F400F091800124EE
:100FE0009C402240F5D04D686E1E012E03D9112D74
:100FF00001D0122D12D186685F000325BD4026EA7C
:101000000506CD68BD4035438560466826EA04067E
:101010004D68C5F300159D40354345604D6805F0AA
:101020000306032E96D0C5685F000324BC40E4434A
:1010300025408E68BE402E43C6604D68022D01D00B
:10104000122D13D1DE08083650F826E003F007050C
:101050004FEA850C0F2505FA0CF52EEA050E0D69F1
:1010600005FA0CF545EA0E0540F8265005682C40B7
:101070004D6805F00305BD402C4304604C6814F036
:10108000805FA6D0214C256E45F001052566246EB3
:1010900004F001040194019C9D08AE1C194C54F805
:1010A000267003F00304A6000F24B44027EA0407C7
:1010B000B0F1904F3FF459AF154CA04216D004F553
:1010C0008064A04214D004F58064A04212D004F5DC
:1010D0008064A04210D004F58064A0420ED004F5D4
:1010E0008064A0423FF43FAF07243FE701243DE77F
:1010F00002243BE7032439E7042437E7052435E7D6
:1011000003B0F0BD000001400004014000100240A7
:10111000000400480AB981627047816170474369E1
:1011200001EA030221EA030141EA024181617047B9
:1011300003689A6912F0020F01D000229A620368D4
:101140009A6912F0010F03D19A6942F001029A6183
:10115000704770B4039E05686868740D04F4806479
:1011600044F07F7444F4583444F47F7444F003042E
:1011700020EA0400C1F3090141EA02411943314365
:101180000143696070BC704711F0010F09D090F8FD
:10119000413003F02803282B01D0F22302E0422340
:1011A00000E0002311F0020F29D010B443F04404F2
:1011B00090F8412002F02802282A12D043F0F403CC
:1011C00011F4004F0FD1102910D0202911D040293F
:1011D00012D001680A6822EA03030B605DF8044B31
:1011E00070472346ECE743F0B803ECE743F0900385
:1011F000EBE743F02003EAE743F04003E9E711F4AB
:10120000004F0BD110290CD020290DD040290ED031
:1012100001680A6822EA03030B60704743F0B803D1
:10122000F0E743F09003EFE743F02003EEE743F0ED
:101230004003EDE770B504460D46164603689B690A
:1012400013F0100F1CD023689A6912F0200F19D1E7
:10125000B5F1FF3FF7D0FFF7EBFC801BA84201D8A8
:10126000002DF0D1636C43F020036364202384F8E5
:101270004130002384F8423084F84030012020E0DF
:1012800000201EE01022DA6123682025DD6120465F
:10129000FFF74EFF2268536823F0FF7323F48B336C
:1012A00023F4FF7323F001035360636C43F00403E2
:1012B000636484F84150002384F8423084F840305D
:1012C000012070BD70B504460D46164623689B6923
:1012D00013F0020F1DD1324629462046FFF7AAFF20
:1012E000C8B9B5F1FF3FF1D0FFF7A2FC801BA842BF
:1012F00001D8002DEAD1636C43F0200363642023FE
:1013000084F84130002384F8423084F840300120D2
:1013100000E0002070BD0120FCE7F8B505460F464F
:1013200016461C462B689B6937EA03030CBF012352
:101330000023B34218D1B4F1FF3FF3D0FFF778FC9C
:10134000069BC01AA04201D8002CEBD16B6C43F075
:1013500020036B64202385F84130002385F8423058
:1013600085F84030012000E00020F8BD70B582B063
:10137000044616461D46184B00934FF08073EAB2A0
:10138000FFF7E7FE079A06992046FFF79BFFE8B9AB
:10139000012D0ED12368F6B29E62079B0093069B37
:1013A000002280212046FFF7B8FF034678B10123D1
:1013B0000DE02368320A9A62079A06992046FFF7E1
:1013C00081FF38B92368F6B29E62E6E7012318462A
:1013D00002B070BD0123FAE70020008070B5054619
:1013E0000C4616462B689B6913F0200F1AD1324623
:1013F00021462846FFF71EFFB0B9FFF719FC801BF6
:10140000A04201D8002CEDD16B6C43F020036B643B
:10141000202385F84130002385F8423085F840309C
:10142000012070BD0020FCE70120FAE770B50446FA
:101430000D46164623689B6913F0040F3ED13246D1
:1014400029462046FFF7F6FE0146002838D12368DA
:101450009A6912F0200F13D1FFF7EAFB801BA84214
:1014600001D8002DE6D1636C43F020036364202390
:1014700084F84130002384F840300121084670BDD3
:101480009A6912F0040F02D0228D002AF6D1202290
:10149000DA6121684B6823F0FF7323F48B3323F464
:1014A000FF7323F001034B600023636484F8412041
:1014B00084F8423084F840300121DFE70021DDE785
:1014C0000121DBE7002859D010B5044690F84130DF
:1014D000002B43D0242384F841302268136823F082
:1014E000010313606368226823F07063136122684C
:1014F000936823F400439360E368012B33D0A3681F
:10150000226843F404439360E368022B31D02268DD
:10151000536843F0007343F4004353602268D36878
:1015200023F40043D360236962691343A1692268ED
:1015300043EA0123D360E369216A22680B43136005
:101540002268136843F001031360002060642023C5
:1015500084F84130206384F8420010BD80F84030A8
:10156000FFF7FEF9B6E7A368226843F400439360EF
:10157000CAE723684FF400625A60C8E70120704749
:101580002DE9F04383B090F84150EDB2202D40F0AA
:10159000A48090F84040012C00F0A48098461746A3
:1015A0000E4604464FF0010980F84090FFF740FBDB
:1015B0000546009019234A464FF400412046FFF7A4
:1015C000ACFE002840F09080212384F841301023A5
:1015D00084F84230002363646762A4F82A8063635E
:1015E000638D9BB2FF2B0AD9FF222285424B0093C9
:1015F0004FF0807331462046FFF7ABFD18E0628D57
:1016000092B222853C4B00934FF00073D2B2314628
:101610002046FFF79EFD0BE0628D92B222850023EB
:1016200000934FF00073D2B231462046FFF791FD90
:10163000638D9BB2002B33D02A460A992046FFF7D0
:1016400041FE002852D1626A236812789A62636A66
:1016500001336362638D013B9BB26385238D013B44
:101660009BB22385628D92B2002AE1D0002BDFD19C
:1016700000950A9B002280212046FFF74EFE00289D
:1016800036D1638D9BB2FF2BC6D9FF222285002362
:1016900000934FF0807331462046FFF75AFDC7E7AD
:1016A0002A460A992046FFF799FE034610BB226896
:1016B0002021D1612068426822F0FF7222F48B322F
:1016C00022F4FF7222F00102426084F841100022ED
:1016D00084F8422084F8402000E00223184603B03A
:1016E000BDE8F0830223F9E70123F7E70123F5E7DB
:1016F0000123F3E70123F1E7002000802DE9F04307
:1017000083B090F84150EDB2202D40F0A48090F8C5
:101710004040012C00F0A480984617460E4604462F
:101720004FF0010980F84090FFF782FA05460090DB
:1017300019234A464FF400412046FFF7EEFD0028EA
:1017400040F09080222384F84130102384F8423006
:10175000002363646762A4F82A806363638D9BB28D
:10176000FF2B0AD9FF222285424B00934FF0807352
:1017700031462046FFF7EDFC18E0628D92B22285DB
:101780003C4B00934FF00073D2B231462046FFF736
:10179000E0FC0BE0628D92B22285002300934FF0B3
:1017A0000073D2B231462046FFF7D3FC638D9BB263
:1017B000002B33D02A460A992046FFF737FE00282F
:1017C00052D123685A6A636A1A70636A013363628A
:1017D000238D013B9BB22385628D013A92B26285D3
:1017E000628D92B2002AE1D0002BDFD100950A9BD6
:1017F000002280212046FFF790FD002836D1638D1E
:101800009BB2FF2BC6D9FF222285002300934FF005
:10181000807331462046FFF79CFCC7E72A460A99A9
:101820002046FFF7DBFD034610BB22682021D16173
:101830002068426822F0FF7222F48B3222F4FF7299
:1018400022F00102426084F84110002284F8422014
:1018500084F8402000E00223184603B0BDE8F0837E
:101860000223F9E70123F7E70123F5E70123F3E773
:101870000123F1E7002400802DE9F04782B0BDF894
:101880002C7090F84150EDB2202D40F0BA800A9CA7
:10189000DCB1D7B190F84040012C00F0B7809846F9
:1018A00091460D4604464FF0010A80F840A0FFF72C
:1018B000BFF906460090192352464FF400412046D6
:1018C000FFF72BFD30B101239CE04FF4007343641C
:1018D000012397E0212384F84130402384F84230EB
:1018E000002363640A9A62626785636301960C9BB6
:1018F000009343464A4629462046FFF737FD70B914
:10190000638D9BB2FF2B0FD9FF222285002300930A
:101910004FF0807329462046FFF71BFC21E000238F
:1019200084F8403053466DE0628D92B222850023E8
:1019300000934FF00073D2B229462046FFF709FC0E
:101940000FE0628D92B22285002300934FF0007366
:10195000D2B229462046FFF7FCFB638D9BB2002BD9
:1019600032D032460C992046FFF7ACFC00284FD10C
:10197000626A236812789A62636A01336362638DD4
:10198000013B9BB26385238D013B9BB22385628D16
:1019900092B2002AE1D0002BDFD100960C9B0022EE
:1019A00080212046FFF7B9FCA0BB638D9BB2FF2BC3
:1019B000C7D9FF222285002300934FF08073294668
:1019C0002046FFF7C6FBC8E732460C992046FFF7D2
:1019D00005FD034600BB22682021D16120684268D2
:1019E00022F0FF7222F48B3222F4FF7222F0010205
:1019F000426084F84110002284F8422084F840209C
:101A000000E00223184602B0BDE8F0870223F9E7A0
:101A10000123F7E70123F5E70123F3E708B503689E
:101A200099691A68436B03B1984708BD70477047BE
:101A300010B5044603681A68002180F8421012F4B9
:101A4000804F0ED01A6822F480421A6094F8413018
:101A5000DBB2292B0DD094F84130DBB22A2B18D001
:101A600010BD12F4004FF1D01A6822F400421A603F
:101A7000ECE7282384F84130212323630121204609
:101A8000FFF782FB002384F840302046FFF7CEFFAB
:101A9000E6E7282384F841302223236302212046ED
:101AA000FFF772FB002384F840302046FFF7BFFFAA
:101AB000D6E77047F8B590F8413003F02803282B9B
:101AC00006D003680822DA61002380F84030F8BDB0
:101AD000044603689E69C6F300469A69120C02F038
:101AE000FE059A68C2F30902DF6807F0FE07C168C5
:101AF000022922D185EAD21515F0060F10D1816C8A
:101B000001318164816C0229E1D1002181640820C6
:101B1000D86184F8401031462046FFF7CAFFD6E767
:101B20004FF40041FFF730FB002384F840303A4681
:101B300031462046FFF7BDFFC9E74FF40041FFF7EC
:101B400023FB002384F840302A4631462046FFF725
:101B5000B0FFBCE77047000010B50446174BC362E6
:101B600000230363202280F8412080F84230436341
:101B700011F0040F12D003685A6A436A1A70436A5C
:101B800001334362038D4BB1013B0385438D013B20
:101B90009BB24385436C43F00403436448F2030162
:101BA0002046FFF7F1FA23681022DA61002384F857
:101BB00040302046FFF7CEFF10BD00BF0000FFFF02
:101BC0007047704708B590F84130DBB2602B06D003
:101BD0000023036380F84030FFF7F2FF08BD2023A5
:101BE00080F841300023036380F84030FFF7E9FFBD
:101BF000F4E7000010B5044690F84130002280F868
:101C000042203B48E0626285626C11436164283B7C
:101C1000DBB2022B19D803212046FFF7B5FA28239F
:101C200084F84130334B6363236BA26B1AB1112BE1
:101C30001BD0212B19D0E26B1AB1122B36D0222BDC
:101C400034D02046FFF7BEFF10BD48F20301204606
:101C5000FFF79AFA94F84130DBB2602B02D02023D0
:101C600084F8413000236363DEE723681A6812F4C6
:101C7000804F03D01A6822F480421A60A06BFFF7ED
:101C800061F901280ED0A36B1B4A9A63002384F8E4
:101C90004030A06BFFF7CCF80028D5D0A06B836B49
:101CA0009847D1E72046FFF78DFFCDE723681A68F4
:101CB00012F4004F03D01A6822F400421A60E06B5D
:101CC000FFF740F901280ED0E36B0B4A9A6300231B
:101CD00084F84030E06BFFF7ABF80028B4D0E06B3D
:101CE000836B9847B0E72046FFF76CFFACE700BF77
:101CF0000000FFFF611E00081520000870B50446B3
:101D00000D460268166890F84130DBB22021D1619F
:101D1000212B0DD0292B0BD0222B01D02A2B0ED119
:101D200048F202012046FFF72FFA2223236306E040
:101D300048F201012046FFF727FA21232363226896
:101D4000536843F4004353602268536823F0FF73E1
:101D500023F48B3323F4FF7323F0010353602046F5
:101D6000FFF7E6F916F4804F3FD02268136823F49A
:101D700080431360A36B1BB11B685B689BB26385D8
:101D800015F0040F10D025F0040523685A6A636A21
:101D90001A70636A01336362238D2BB1013B238583
:101DA000638D013B9BB26385638D9BB21BB1636CFA
:101DB00043F004036364002384F842306363636C7C
:101DC0001BBBE36A13F5803F2DD194F84130DBB2A1
:101DD000222B38D0202384F841300023236384F859
:101DE00040302046FFF722FE2CE016F4004FC7D00B
:101DF0002268136823F400431360E36B002BBFD009
:101E00001B685B689BB26385BAE7616C2046FFF78D
:101E1000F1FE94F84130DBB2282B13D1294620463D
:101E2000FFF79AFE0EE02046FFF702FE0B4BE3623F
:101E3000202384F841300023236384F84030204677
:101E4000FFF788FE70BD202384F841300023236310
:101E500084F840302046FFF7EAFDF3E70000FFFF7B
:101E6000F8B5C76A90F84030012B00F09C80164608
:101E70000D460446012380F8403011F0200F02D0B7
:101E800012F0200F19D115F0100F3ED016F0100FE0
:101E90003BD0638D9BB243BB94F84130DBB2282B1F
:101EA0000ED094F84130DBB2292B11D023681022D8
:101EB000DA61002084F84000F8BDFFF71FFFE2E779
:101EC000B7F1007FEDD129462046FFF745FEF0E748
:101ED00017F5803FEAD023681022DA612046FFF729
:101EE00027F92046FFF7A4FDE3E723681022DA6113
:101EF000636C43F00403636417B1B7F1807FD8D1FA
:101F0000616C2046FFF776FED3E715F0040F1ED074
:101F100016F0040F1BD0638D9BB26BB123685A6A15
:101F2000636A1A70636A01336362238D013B238500
:101F3000638D013B9BB26385638D9BB2002BB8D14F
:101F400017F5803FB5D02046FFF772FDB1E715F0D9
:101F5000080F02D016F0080F17D115F0020FA8D005
:101F600016F0020FA5D0638D9BB29BB1626A236805
:101F700012789A62636A01336362638D013B9BB29C
:101F80006385238D013B238593E729462046FFF790
:101F900091FD8EE7B7F1807F01D0002F89D12046D7
:101FA000FFF746FD85E7022086E710B502689369D2
:101FB000116813F4807F09D011F0800F06D0446CB3
:101FC00044F0010444644FF48074D46113F4806FCE
:101FD0000AD011F0800F07D0426C42F00802426430
:101FE00002684FF48064D46113F4007F0AD011F0CA
:101FF000800F07D0436C43F00203436403684FF43F
:102000000072DA61416C11F00B0F00D110BDFFF7C7
:10201000F1FDFBE708B5806A836B0BB100229A6380
:10202000C36B0BB100229A63FFF7CCFD08BD90F89B
:102030004130DBB2202B24D190F84030012B22D04C
:10204000012380F84030242380F84130026813686F
:1020500023F0010313600268136823F480531360B4
:1020600002681368194311600268136843F00103A2
:102070001360202380F84130002380F84030184658
:102080007047022070470220704790F84130DBB261
:10209000202B22D190F84030012B20D0012380F852
:1020A0004030242380F841300268136823F0010394
:1020B00013600268136823F4706343EA012111601E
:1020C0000268136843F001031360202380F8413055
:1020D000002380F8403018467047022070470220E5
:1020E00070470000024B186800F4C060704700BFE2
:1020F00000700040B0F5007F0FD01F4B1B6803F449
:10210000C063B3F5806F34D01B4A136823F4C063F7
:1021100043F48063136000207047174B1B6803F47F
:10212000C063B3F5007F22D0134A136823F4C06361
:1021300043F400731360114B1A68322303FB02F35C
:102140000F4AA2FB03239B0C013300E0013B0A4A28
:10215000526912F4806F01D0002BF7D1064B5B69F6
:1021600013F4806F01D100207047032070470020D6
:1021700070470020704700BF00700040040000203E
:1021800083DE1B4330B583B00546204B9B6D13F0B7
:10219000805F0BD0FFF7A6FFB0F5007F17D0802D32
:1021A0001FD82DD0702D2DD000211BE0174CA36D12
:1021B00043F08053A365A36D03F080530193019B0B
:1021C000FFF790FFA36D23F08053A365E4E7802D14
:1021D00003D9A02D03D9022104E0002102E001214E
:1021E00000E003210A4A136823F007030B4313603E
:1021F000136803F007038B4206D0012003B030BD03
:102200000221EFE70121EDE70020F7E7001002408F
:1022100000200240284A9368D26802F0030213F0BB
:102220000C030AD00C2B06D0042B1FD0082B20D077
:102230000020024610E0012AF6D11F4A126812F06F
:10224000080F0CD11C4AD2F89420C2F303221B4978
:1022500051F8222043B100200C2B0DD07047164AB4
:102260001268C2F30312F2E71046F5E714480022A1
:10227000F2E714480022EFE70F4BDB6803F003039B
:10228000022B15D0032B15D00B4BD868C0F30210CE
:102290000130D968C1F3062102FB01F2B2FBF0F272
:1022A000D868C0F3416001304000B2FBF0F0D5E7E0
:1022B000034AE9E7034AE7E700100240C840000884
:1022C0000024F40000127A00002800F00083F0B52A
:1022D00083B00446AF4B9D6805F00C05DE6806F040
:1022E0000306036813F0100F5BD0E5B10C2D18D076
:1022F000A369002B00F0BC80A64A136843F00103D9
:102300001360FEF795FC0746A24B1B6813F0020F03
:1023100040F09B80FEF78CFCC01B0228F4D90323FD
:10232000E1E2012EE4D19B4B1B6813F0020F03D0B6
:10233000A369002B00F0CE82206A964B1B6813F035
:10234000080F5CD0934B1B6803F0F00398425DD8F4
:10235000904B1A6842F008021A601A6822F0F002E4
:10236000216A0A431A605A6822F47F42E16942EA0C
:1023700001225A60002D61D0FFF74CFF854B9B680E
:10238000C3F30313844AD35C03F01F03D840834B89
:102390001860834B1868FEF703FC0346002840F0E2
:1023A000A282236813F0010F00F08180082D75D000
:1023B0000C2D71D06368B3F5803F00F09780B3F5C2
:1023C000A02F00F09980734B1A6822F480321A60B3
:1023D0001A6822F480221A606368002B00F099804A
:1023E000FEF726FC07466B4B1B6813F4003F5ED1DB
:1023F000FEF71EFCC01B6428F5D9032373E2654B6E
:10240000D3F894301B0903F0F0039FE7FFF7BAFEFF
:10241000002840F061825F4B1A6842F008021A609F
:102420001A6822F0F002216A0A431A605A6822F4FC
:102430007F42E16942EA01225A609DE7206AFFF784
:10244000A1FE002898D001234DE2524B1A6842F0B9
:1024500008021A601A6822F0F002216A0A431A6020
:102460005A6822F47F42E16942EA01225A6098E701
:10247000484A136823F001031360FEF7D9FB0746AF
:10248000444B1B6813F0020F8BD0FEF7D1FBC01B2F
:102490000228F5D9032326E2032E8BD13D4B1B687E
:1024A00013F4003F03D06368002B00F01782236809
:1024B00013F0020F4FD0042D3CD00C2D38D0E36820
:1024C000002B78D0334A136843F480731360FEF70F
:1024D000AFFB06462F4B1B6813F4806F62D1FEF7EB
:1024E000A7FB801B0228F5D90323FCE1294A1368C6
:1024F00043F4803313606FE703F18043A3F53C336B
:102500001A6842F480221A601A6842F480321A6013
:1025100062E7FEF78DFB07461E4B1B6813F4003F76
:10252000C5D0FEF785FBC01B6428F5D90323DAE18B
:10253000022EC4D1174B1B6813F4806F03D0E368DD
:10254000002B00F0CD81134A536823F0F853216922
:1025500043EA01635360236813F0080F56D06369A0
:10256000002B3CD00B4AD2F8943043F00103C2F860
:102570009430FEF75DFB0646064BD3F8943013F01B
:10258000020F43D1FEF754FB801B0228F4D903232A
:10259000A9E100BF00100240F8400008040000203C
:1025A0000C000020B84A536823F0F853216943EA2D
:1025B00001635360CFE7B44A136823F48073136058
:1025C000FEF736FB0646B04B1B6813F4806FC2D093
:1025D000FEF72EFB801B0228F5D9032383E1AA4ACC
:1025E000D2F8943023F00103C2F89430FEF720FBB8
:1025F0000646A54BD3F8943013F0020F06D0FEF731
:1026000017FB801B0228F4D903236CE1236813F025
:10261000040F7AD09C4B9B6D13F0805F0BD19A4BCB
:102620009A6D42F080529A659B6D03F0805301933E
:10263000019B012600E00026944B1B6813F4807F69
:1026400026D0A368012B37D0052B3DD08E4BD3F875
:10265000902022F00102C3F89020D3F8902022F0BD
:102660000402C3F89020A368002B3BD0FEF7E0FAE9
:102670000746854BD3F8903013F0020F44D1FEF794
:10268000D7FAC01B41F288339842F2D903232AE1DA
:102690007E4A136843F480731360FEF7C9FA074655
:1026A0007A4B1B6813F4807FCBD1FEF7C1FAC01BB5
:1026B0000228F5D9032316E1734AD2F8903043F08B
:1026C0000103C2F89030CEE76F4BD3F8902042F070
:1026D0000402C3F89020D3F8902042F00102C3F81E
:1026E0009020C0E7FEF7A4FA0746674BD3F8903076
:1026F00013F0020F08D0FEF79BFAC01B41F288339B
:102700009842F2D90323EEE06EBBA36A002B00F0DF
:10271000E980022B2DD00C2D00F0EE805A4B1A6868
:1027200022F080721A601B6813F0205F04D1564AB1
:10273000D36823F00303D360534AD36823F088732C
:1027400023F48033D360FEF773FA04464E4B1B68C4
:1027500013F0007F00F0B980FEF76AFA001B022830
:10276000F4D90323BFE0484A936D23F08053936567
:10277000CBE7454BDB6803F00301E26A91420FD0DF
:102780000C2D00F0B380404B1B6813F0806F40F0BD
:10279000AF803D4B1B6813F0805F2DD00123A2E07A
:1027A00003F07002216B0139B2EB011FE8D103F491
:1027B000FE42616BB2EB012FE2D103F40031A26B58
:1027C000073A18BF01229142DAD103F4C001E26B4B
:1027D0005208013AB1EB425FD2D103F0C063226CE0
:1027E0005208013AB3EB426FCAD1274B1B6813F072
:1027F000007F51D0002376E0234A136823F08073D2
:102800001360FEF715FA05461F4B1B6813F0007F97
:1028100006D0FEF70DFA401B0228F5D9032362E02B
:10282000194AD3681A491940E36A206B013843EA10
:102830000013606B43EA0023E06B4008013843EA71
:102840004053206C4008013843EA4063A06B000904
:1028500043EA40430B43D360136843F08073136033
:10286000D36843F08073D360FEF7E2F90446064B69
:102870001B6813F0007F0DD1FEF7DAF9001B022868
:10288000F5D903232FE000BF001002400070004084
:102890008C809DF9002326E0184B1A6842F0807264
:1028A0001A60DA6842F08072DA60FEF7C1F9044615
:1028B00004E0FEF7BDF9001B02281BD80F4B1B6874
:1028C00013F0007FF5D000230DE000230BE001237F
:1028D00018467047012306E0012304E0012302E0CB
:1028E000012300E00023184603B0F0BD0123FAE7FE
:1028F0000123F8E70323F6E70123F4E70010024081
:10290000002800F09B8070B504464E4B1B6803F016
:1029100007038B420CD24B4A136823F007030B4387
:102920001360136803F007038B4201D0012070BDD0
:102930000D46236813F0010F39D06368032B09D0CB
:10294000022B26D063BB404A126812F0020F06D158
:102950000120ECE73C4A126812F0007F70D03A493F
:102960008A6822F0030213438B60FEF761F9064682
:10297000354B9B6803F00C036268B3EB820F16D0F3
:10298000FEF756F9801B41F288339842F0D90320B4
:10299000CDE72D4A126812F4003FE0D10120C6E7CE
:1029A000294A126812F4806FD9D10120BFE7236849
:1029B00013F0020F06D0244A936823F0F003A168B5
:1029C0000B4393601F4B1B6803F00703AB420CD90A
:1029D0001C4A136823F007032B431360136803F0AA
:1029E0000703AB4201D00120A1E7236813F0040FD5
:1029F00006D0154A936823F4E063E1680B439360C3
:102A0000236813F0080F07D00F4A936823F460532C
:102A1000216943EAC1039360FFF7FCFB0A4B9B6803
:102A2000C3F30313094AD35C03F01F03D840084BD8
:102A30001860084B1868FEF7B3F878E70120704774
:102A4000012074E70020024000100240F840000816
:102A5000040000200C000020014B1868704700BFE4
:102A60000400002008B5FFF7F7FF054B9B68C3F390
:102A70000223044AD35C03F01F03D84008BD00BF03
:102A8000001002400841000808B5FFF7E5FF054BBC
:102A90009B68C3F3C223044AD35C03F01F03D840EE
:102AA00008BD00BF0010024008410008F8B55A4BAD
:102AB000DB6813F0030F18D0574BDB6803F00303F8
:102AC0000268934202D001252846F8BD002A00F092
:102AD000A080514BDB68C3F3021301334268934279
:102AE00001D00125F0E700251AE00368022B59D038
:102AF000032B5ED0012B01D001250FE0464A12685E
:102B000012F0020F61D0444DEA6822F0730244686B
:102B1000013C43EA04131343EB600025002DD3D19D
:102B20000F4604463C4A136823F080631360FEF7A7
:102B30007FF80646384B1B6813F0006F05D0FEF790
:102B400077F8801B0228F5D90325002DBCD1002F72
:102B50003DD131490B6923F41F3323F44073A0683E
:102B6000E2681209520442EA002213430B612A4A26
:102B7000136843F080631360FEF75AF80646264B4D
:102B80001B6813F0006F05D1FEF752F8801B022876
:102B9000F5D90325002D97D11F4A1369A1690B436D
:102BA000136191E71C4A126812F4806FABD10125C2
:102BB000B4E7194A126812F4003FA4D1164A126809
:102BC00012F4802F9FD10125A8E70125A6E7012F48
:102BD0000FD01148026922F0C06222F4FE42A168BF
:102BE00063695B08013B5B0643EA0123134303610E
:102BF000BDE70948026922F4C00222F4FE42A1683E
:102C000023695B08013B5B0543EA0123134303612E
:102C1000ADE7012558E700BF00100240F8B5514B61
:102C2000DB6813F0030F18D04E4BDB6803F003038F
:102C30000268934202D001252846F8BD002A00F020
:102C40008E80484BDB68C3F3021301334268934222
:102C500001D00125F0E700251AE00368022B59D0C6
:102C6000032B5ED0012B01D001250FE03D4A1268F5
:102C700012F0020F61D03B4DEA6822F07302446803
:102C8000013C43EA04131343EB600025002DD3D12C
:102C90000F460446334A136823F080531360FDF750
:102CA000C7FF06462F4B1B6813F0005F05D0FDF7EA
:102CB000BFFF801B0228F5D90325002DBCD1002FB2
:102CC0003DD128494B6923F41F3323F44073A06896
:102CD000E2681209520442EA002213434B61214A7E
:102CE000136843F080531360FDF7A2FF06461D4BA7
:102CF0001B6813F0005F05D1FDF79AFF801B0228C7
:102D0000F5D90325002D97D1164A536961690B4304
:102D1000536191E7134A126812F4806FABD1012519
:102D2000B4E7104A126812F4003FA4D10D4A1268A9
:102D300012F4802F9FD10125A8E70125A6E70948B5
:102D4000426922F0C06222F4FE42A16823695B0856
:102D5000013B5B0643EA012313434361BFE70125BF
:102D60006AE700BF001002402DE9F04182B004463E
:102D7000036813F4006F2FD0436EB3F5800F25D096
:102D800008D9B3F5000F10D0B3F5400F40F099808B
:102D9000002610E0002B40F0948000210430FFF763
:102DA00085FE06463EB1374618E05E4AD36843F4D6
:102DB0008033D36000265B4AD2F8883023F4400386
:102DC000616E0B43C2F88830002707E000212030F5
:102DD000FFF724FF0646E5E700273E46236813F485
:102DE000805F15D0A36EB3F1807F7AD06CD9B3F138
:102DF000007F70D0B3F1407F7AD1002E7BD1494A59
:102E0000D2F8883023F04073A16E0B43C2F88830AB
:102E1000236813F4003F00F08E80424B9B6D13F04B
:102E2000805F6AD13F4B9A6D42F080529A659B6DEC
:102E300003F080530193019B4FF001083A4A136855
:102E400043F480731360FDF7F3FE0546364B1B68B1
:102E500013F4807F05D1FDF7EBFE401B0228F5D966
:102E60000326002E62D12F4BD3F8903013F4407319
:102E700016D0D4F884209A4212D02A4AD2F8903040
:102E800023F44073D2F8901041F48031C2F89010CE
:102E9000D2F8901021F48031C2F89010C2F890302E
:102EA00013F0010F2CD1002E40F043811D4AD2F8BF
:102EB000903023F44073D4F884100B43C2F8903060
:102EC00035E001273E4689E793B90021201DFFF731
:102ED000EDFD064691E7134AD36843F48033D3608F
:102EE0008BE7002104F12000FFF798FE064684E7F7
:102EF00001273E468CE737468AE74FF000089DE7FA
:102F0000FDF796FE0546074BD3F8903013F0020FFD
:102F1000C9D1FDF78DFE401B41F288339842F2D9AA
:102F20000326C0E700100240007000403746B8F1A9
:102F3000000F40F00081236813F0010F08D09D4A74
:102F4000D2F8883023F00303A16B0B43C2F888301A
:102F5000236813F0020F08D0964AD2F8883023F085
:102F60000C03E16B0B43C2F88830236813F0040FA5
:102F700008D0904AD2F8883023F03003216C0B43FC
:102F8000C2F88830236813F0080F08D0894AD2F8B5
:102F9000883023F0C003616C0B43C2F8883023688B
:102FA00013F0100F08D0834AD2F8883023F440730E
:102FB000A16C0B43C2F88830236813F0200F08D0AF
:102FC0007C4AD2F8883023F44063E16C0B43C2F8AA
:102FD0008830236813F4007F08D0764AD2F888300E
:102FE00023F44023E16D0B43C2F88830236813F4C7
:102FF000806F08D06F4AD2F8883023F44013216ED6
:103000000B43C2F88830236813F0400F08D0694A98
:10301000D2F8883023F44053216D0B43C2F8883036
:10302000236813F0800F08D0624AD2F8883023F466
:103030004043616D0B43C2F88830236813F4807FEE
:1030400008D05C4AD2F8883023F44033A16D0B439A
:10305000C2F88830236813F4005F0FD0554AD2F8C5
:10306000883023F04063E16E0B43C2F88830E36E92
:10307000B3F1006F65D0B3F1806F67D0236813F4AC
:10308000002F0FD04B4AD2F8883023F04063216FD5
:103090000B43C2F88830236FB3F1006F5ED0B3F1F9
:1030A000806F60D0236813F4802F0FD0414AD2F88C
:1030B000883023F04063616F0B43C2F88830636F40
:1030C000B3F1006F57D0B3F1806F59D0236813F478
:1030D000804F0FD0374AD2F8883023F04053A16F89
:1030E0000B43C2F88830A36FB3F1805F50D0B3F1C7
:1030F000005F55D0236813F4004F08D02D4AD2F852
:10310000883023F08043E16F0B43C2F88830236896
:1031100013F4803F09D0274AD2F8883023F00043C7
:10312000D4F880100B43C2F88830384602B0BDE8AE
:10313000F0813746FBE61F4A936D23F08053936579
:10314000F9E6D36843F48013D36097E70121201D8B
:10315000FFF7ACFC002891D007468FE7D36843F413
:103160008013D3609EE70121201DFFF79FFC0028FC
:1031700098D0074696E7D36843F48013D360A5E759
:103180000121201DFFF792FC00289FD007469DE7F4
:103190000221201DFFF78AFC0028ABD00746A9E7D3
:1031A000022104F12000FFF739FD0028A2D00746D4
:1031B000A0E700BF001002402DE9D848044601688E
:1031C00083680269134342691343C2691343086861
:1031D0009B4A024013430B602268536823F4405318
:1031E000E1680B435360A1692268964B9A4201D073
:1031F000236A1943936823F430630B439360236875
:10320000914A934227D0914A934238D0904A9342B0
:103210004ED0904A934261D08F4A934274D0894AEB
:10322000934200F08A80102286498B4200F0AA80E7
:10323000E369B3F5004F00F0D880082A00F2458119
:10324000DFE812F015012C01130143012F014301A6
:1032500043014301320102F55842D2F8882002F0BE
:103260000302032A09D8DFE802F0020481060122E2
:10327000DAE70422D8E70822D6E71022D4E702F5DD
:10328000E632D2F8882002F00C020C2A0ED8DFE8D1
:1032900002F0070D0D0D090D0D0D6F0D0D0D0B003D
:1032A0000022C1E70422BFE70822BDE71022BBE7E6
:1032B00002F5E432D2F8882002F03002102A09D058
:1032C00005D9202A56D0302A06D10822ACE71AB9EF
:1032D0000022A9E70422A7E71022A5E702F5E232BF
:1032E000D2F8882002F0C002402A09D005D9802AED
:1032F00042D0C02A06D1082296E71AB9002293E7E5
:10330000042291E710228FE702F5E032D2F88820FC
:1033100002F44072B2F5807F0BD007D9B2F5007F7E
:103320002CD0B2F5407F06D108227DE71AB90022E1
:103330007AE7042278E7102276E702F5C832D2F85D
:10334000882002F44062B2F5806F0BD007D9B2F545
:10335000006F15D0B2F5406F06D1082264E71AB9A4
:10336000002261E704225FE710225DE702225BE7AB
:10337000022259E7022257E7022255E7022253E7C9
:10338000022251E7082A00F29280DFE802F008905A
:1033900010900D90909005004FF4004008E0FFF76A
:1033A00061FB28B9002074E0FEF734FFF9E72B48F1
:1033B000626802EB420383427BD8B0EB023F7AD8CB
:1033C0000023070E0602500816EB000B47F1000C15
:1033D00058466146FCF7FCFEA0F54072204B9A422D
:1033E0006BD82368D860002053E0082A67D8DFE84C
:1033F00002F007210566246666663900174803E077
:10340000FFF730FB00285CD06268530803EB4003F1
:10341000B3FBF2F39BB2A3F110014FF6EF729142AE
:1034200051D823F00F02C3F3420313432268D36041
:1034300000202EE0FFF728FBE4E7FEF7EBFEE1E7D4
:10344000F369FFEF00800040003801400044004075
:1034500000480040004C0040005000400024F400B0
:10346000FFFC0F004FF40040CEE71B4802E0FFF7DF
:10347000F9FA60B3636800EB5300B0FBF3F080B27D
:10348000A0F110024FF6EF739A4222D82368D86059
:103490000020002323666366BDE8D888FFF7F4FAAE
:1034A000E7E7FEF7B7FEE4E74FF40040E2E701206C
:1034B000EFE70120EDE70120EBE70120E9E701203C
:1034C000E7E70020E5E70120E3E70120E1E700204E
:1034D000DFE70120DDE700BF0024F400436A13F0BA
:1034E000010F06D00268536823F40033816A0B434E
:1034F0005360436A13F0020F06D00268536823F446
:103500008033C16A0B435360436A13F0040F06D043
:103510000268536823F48023016B0B435360436AB2
:1035200013F0080F06D00268536823F40043416B80
:103530000B435360436A13F0100F06D00268936880
:1035400023F48053816B0B439360436A13F0200F85
:1035500006D00268936823F40053C16B0B43936059
:10356000436A13F0400F0AD00268536823F48013B3
:10357000016C0B435360036CB3F5801F0BD0436A9F
:1035800013F0800F06D00268536823F40023816C87
:103590000B43536070470268536823F4C003416CC7
:1035A0000B435360EBE72DE9F04104460F46164606
:1035B0009846069D2368DB6937EA03030CBF0123A5
:1035C0000023B3423AD1B5F1FF3FF3D0FDF730FB12
:1035D000A0EB0800A8421FD8F5B123681A6812F0C2
:1035E000040FE7D0DA6912F4006FE3D04FF4006201
:1035F0001A622268136823F4D073136022689368F8
:1036000023F00103936020236367A367E36700232C
:1036100084F87030032012E02268136823F4D0731A
:1036200013602268936823F001039360202363678B
:10363000A367002384F87030032000E00020BDE879
:10364000F0812DE9F04182B01E46436F202B55D109
:1036500004460D469046002955D0002A55D090F8D2
:103660007030012B53D0012380F870300023C367E2
:1036700021234367FDF7DCFA0746A4F85080A4F83D
:103680005280A368B3F5805F05D04FF00008002397
:1036900084F8703013E0236913B14FF00008F6E7A7
:1036A000A8460025F3E738F8023B2268C3F3080375
:1036B0001385B4F85230013B9BB2A4F85230B4F8F1
:1036C00052309BB273B100963B46002280212046C7
:1036D000FFF769FFE8B9002DE5D0236815F8012B45
:1036E0001A85E6E700963B46002240212046FFF778
:1036F0005AFF034678B92022626700E00223184689
:1037000002B0BDE8F0810123F9E70123F7E70223C6
:10371000F5E70323F3E70323F1E730B583B004466D
:103720000023C367FDF784FA054623681B6813F07E
:10373000080F0CD123681B6813F0040F15D1202348
:103740006367A367002084F8700003B030BD6FF09A
:103750007E430093034600224FF400112046FFF7FA
:1037600022FF0028E6D00320EFE76FF07E430093AE
:103770002B4600224FF480012046FFF714FF00285B
:10378000DDD00320E1E768B310B50446436F03B30F
:10379000242363672268136823F001031360204623
:1037A000FFF70AFD012813D0636ABBB9226853688A
:1037B00023F4904353602268936823F02A039360B4
:1037C0002268136843F0010313602046FFF7A5FF4A
:1037D00010BD80F87030FDF741F9D9E72046FFF7BA
:1037E0007DFEE3E701207047DFF834D0FDF7B4F940
:1037F000002103E00B4B5B58435004310A480B4B4C
:1038000042189A42F6D30A4A02E0002342F8043BE7
:10381000084B9A42F9D300F017F8FDF779F8FEE764
:1038200000800120B841000800000020780000203E
:1038300078000020E4020020FEE70000014B186839
:10384000704700BF1000002070B50D4E0D4CA41B3A
:10385000A4100025A54209D10B4E0C4C00F026FC0B
:10386000A41BA4100025A54205D170BD56F8253033
:1038700098470135EEE756F8253098470135F2E7CD
:10388000A8410008A8410008A8410008AC41000870
:1038900002440346934200D1704703F8011BF9E745
:1038A0000EB400B59CB01DAB029006906FF00041C5
:1038B000094807910491094953F8042B05910068C0
:1038C000019302A900F066F8029B00221A701CB056
:1038D0005DF804EB03B07047100000200802FFFF02
:1038E0002DE9F0478E689E4282460C4690469946E6
:1038F00037D88A8912F4906F31D0256809696F1A18
:103900006569022305EB450595FBF3F509F1010314
:103910003B449D4238BF1D46530530D5294600F033
:103920002BFB064650B90C23CAF80030A38943F09C
:103930004003A3814FF0FF30BDE8F0873A4621698C
:1039400000F0A8FAA38923F4906343F08003A381D5
:10395000266165613E44ED1B2660A5604E464E45DE
:1039600000D94E4632464146206800F09EFAA368D0
:103970009B1BA36023681E4426600020DCE72A46C8
:1039800000F054FB06460028E2D12169504600F0C1
:10399000A5FAC8E72DE9F04F1D468B891F069DB09B
:1039A00080460C4616460FD50B696BB9402100F0D6
:1039B000E3FA2060206128B90C23C8F800304FF0EA
:1039C000FF30C8E0402363610023099320238DF872
:1039D000293030238DF82A3003954FF0010B3746FC
:1039E0003D4615F8013B0BB1252B3ED1B7EB060A3E
:1039F0000BD05346324621464046FFF771FF013057
:103A000000F0A480099B534409933B78002B00F0FD
:103A10009D8000234FF0FF32CDE9052304930793E7
:103A20008DF853301A932F46052217F8011B504882
:103A3000FCF74EFD049BD0B9D90644BF20228DF877
:103A400053201A0744BF2B228DF853202A782A2AA4
:103A500015D0079A2F4600200A25394611F8013B58
:103A6000303B092B4DD9B8B10FE02F46B8E7404A9B
:103A7000801A0BFA00F0184304903D46D3E7039AEE
:103A8000111D12680391002A01DB079204E05242E3
:103A900043F00203079204933B782E2B0CD17B78E2
:103AA0002A2B33D1039B1A1D1B680392002BB8BF2E
:103AB0004FF0FF33023705932E4D39780322284605
:103AC000FCF706FD38B14023401B03FA00F0049BCD
:103AD000034301370493397827488DF828100622CC
:103AE0007E1CFCF7F5FC002838D0244B13BB039B4D
:103AF000073323F0070308330393099B4B440993CF
:103B00006DE705FB023201200F46A6E700230137CF
:103B1000059319460A25384610F8012B303A092A30
:103B200003D9002BC8D00591C6E705FB012101236D
:103B30000746F0E703AB00932246114B04A9404629
:103B4000AFF30080B0F1FF3F8146D6D1A3895B0679
:103B50003FF535AF09981DB0BDE8F08F03AB00937A
:103B60002246074B04A9404600F082F8EAE700BF6E
:103B70006C41000872410008764100080000000016
:103B8000E13800082DE9F04791461F468A680B6925
:103B9000DDF820809342B8BF1346C9F8003091F891
:103BA000432006460C4612B10133C9F800302368A1
:103BB000990642BFD9F800300233C9F800302568B1
:103BC00015F0060507D104F1190AE368D9F80020B9
:103BD0009B1AAB4228DC94F843302268003318BFAC
:103BE000012392062DD404F1430239463046C047E2
:103BF000013020D02368E568D9F8002003F00603DF
:103C0000042B08BFAD1AA36822690CBF25EAE5752D
:103C100000259342C4BF9B1AED184FF000091A34D7
:103C20004D451AD1002008E001235246394630465E
:103C3000C047013003D14FF0FF30BDE8F0870135B8
:103C4000C3E7E1185A1C302081F84300224494F85D
:103C5000451082F843100233C5E701232246394656
:103C60003046C0470130E6D009F10109D8E700002D
:103C70002DE9F04301F1430C0C46097E85B06E2915
:103C80001746064698460C9A00F0B38022D863295E
:103C900036D00AD8002900F0B980582900F0838076
:103CA00004F1420584F8421032E0642901D0692908
:103CB000F6D120681368050603F104012AD51B68B4
:103CC0001160002B03DA2D225B4284F843206F48F9
:103CD0000A2239E0732900F09D8008D86F2920D08E
:103CE0007029DDD1236843F02003236003E07529A8
:103CF00017D07829D4D1782384F84530644855E02A
:103D00001368191D1B68116004F1420584F84230E4
:103D100001238CE01B68116010F0400F18BF1BB22C
:103D2000CFE713682568181D1060280601D51B68A9
:103D300002E06806FBD51B8854486F2914BF0A228D
:103D40000822002184F843106568A560002DC0F2A8
:103D50009580216821F004012160002B3DD1002DC8
:103D600040F08E806546082A0BD12368DB0708D512
:103D7000236962689A42DEBF302305F8013C05F1F1
:103D8000FF35ACEB05032361CDF800803B4603AA69
:103D900021463046FFF7F6FE01304DD14FF0FF309F
:103DA00005B0BDE8F083394884F8451013682168F0
:103DB0001D1D1B6815600A060BD5CA0744BF41F0DC
:103DC000200121601BB9226822F02002226010220B
:103DD000B7E74D0648BF9BB2EFE76546B3FBF2F18C
:103DE00002FB1133C35C05F8013D0B460029F5D1F8
:103DF000B9E7136825686169181D106028061B68FB
:103E000001D5196002E06A06FBD519800023236101
:103E10006546B9E71368191D11601D6862680021C5
:103E20002846FCF755FB08B1401B606063682361BE
:103E3000002384F84330A7E723692A4639463046F1
:103E4000C0470130AAD023689B0713D4E068039BC6
:103E50009842B8BF1846A3E701234A463946304680
:103E6000C04701309AD00135E368039A9B1AAB42F0
:103E7000F2DCEBE7002504F11909F5E7002BACD1E2
:103E8000037884F8423004F142056CE77D41000874
:103E90008E41000810B5431E0A44914200D110BD66
:103EA00011F8014B03F8014FF7E7884210B501EB19
:103EB000020307D8421E99420AD011F8014B02F8BA
:103EC000014FF8E78342F5D98118D21AD34200D1C5
:103ED00010BD13F8014D01F8014DF7E738B505465F
:103EE000002945D051F8043C0C1F002BB8BFE41842
:103EF00000F0D2F81F4A1368104633B963601460AB
:103F00002846BDE8384000F0C8B8A3420CD9216863
:103F10006218934204BF1A685B68636004BF52185A
:103F200022600460ECE713465A680AB1A242FAD94B
:103F300019685818A0420BD12068014458188242D1
:103F40001960DDD1106852685A6001441960D7E7E2
:103F500002D90C232B60D3E7206821188A4204BFC2
:103F600011685268626004BF091821605C60C7E78D
:103F700038BD00BF0001002070B5CD1C25F0030541
:103F800008350C2D38BF0C25002D064601DBA94253
:103F900003D90C233360002070BD00F07DF8214A66
:103FA0001468214691B9204C23681BB9304600F0B3
:103FB00063F820602946304600F05EF8431C24D1A7
:103FC0000C233360304600F068F8E4E70B685B1BB5
:103FD00018D40B2B0FD90B60CD50CC18304600F005
:103FE0005CF804F10B00231D20F00700C31AD3D0A6
:103FF0005A42E250D0E78C424B6816BF63601360B0
:104000000C46EBE70C464968CCE7C41C24F00304DB
:10401000A04205D0211A304600F02EF80130CFD052
:104020002560DBE70001002004010020F8B5074609
:1040300014460E4621B91146BDE8F840FFF79CBF73
:1040400022B9FFF74BFF25462846F8BD00F026F8B9
:10405000A0420FD221463846FFF78EFF05460028C2
:10406000F2D031462246FFF715FF31463846FFF7BA
:1040700035FFE9E73546E7E738B5064C0023054646
:1040800008462360FCF74AFD431C02D1236803B1B4
:104090002B6038BDE00200207047704751F8043CA7
:1040A000181F002BBCBF0B58C0187047F8B500BFD5
:1040B000F8BC08BC9E467047F8B500BFF8BC08BC09
:0840C0009E467047000000005D
:1040C800A0860100400D0300801A060000350C0090
:1040D80040420F0080841E0000093D0000127A0053
:1040E8000024F40000366E010048E801006CDC0290
:1040F8000000000000000000010203040607080990
:104108000000000001020304416363656C65726F7F
:104118006D6574657220583A25366420593A2536FB
:1041280064205A3A2536640D0A0000004779726FF8
:1041380020202020202020202020583A25366420C6
:10414800593A253664205A3A2536640D0A0000008B
:1041580025642C25642C25642C25642C25642C25A9
:10416800640D0A00232D302B2000686C4C00656616
:1041780067454647003031323334353637383941B0
:1041880042434445460030313233343536373839C6
:084198006162636465660000CA
:0841A00060C0FF7F0100000078
:0841A800B50100080000000051
:0841B00091010008000000006D
:1041B800D400000000093D000100000010000000CC
:1041C80014000020000000000000000000000000B3
:1041D80000000000000000000000000000000000D7
:1041E80000000000000000000000000000000000C7
:1041F80000000000000000000000000000000000B7
:1042080000000000000000000000000000000000A6
:104218000000000000000000000000000000000096
:0842280000000000000000008E
:04000005080037E9CF
:00000001FF
