:020000040800F2
:1000000000500020413A00086539000867390008AF
:1000100000000000000000000000000000000000E0
:100020000000000000000000000000006939000826
:1000300000000000000000006B3900086D39000866
:10004000913A0008913A0008913A0008913A000864
:10005000913A0008913A0008913A0008913A000854
:10006000913A0008913A0008913A0008913A000844
:10007000913A0008913A0008913A0008913A000834
:10008000913A0008913A0008913A000800000000F7
:10009000913A0008913A0008913A00087539000831
:1000A000913A0008913A0008913A0008913A000804
:1000B00099390008913A0008913A0008913A0008ED
:1000C00010B5064C2378002B07D1054B002B02D02E
:1000D000044800E000BF0123237010BD740000201D
:1000E0000000000008430008044B10B5002B03D0AB
:1000F0000349044800E000BF10BDC04600000000F6
:100100007800002008430008002243088B4274D383
:1001100003098B425FD3030A8B4244D3030B8B4208
:1001200028D3030C8B420DD3FF22090212BA030C11
:100130008B4202D31212090265D0030B8B4219D3F2
:1001400000E0090AC30B8B4201D3CB03C01A524112
:10015000830B8B4201D38B03C01A5241430B8B425A
:1001600001D34B03C01A5241030B8B4201D30B0343
:10017000C01A5241C30A8B4201D3CB02C01A52416A
:10018000830A8B4201D38B02C01A5241430A8B422D
:1001900001D34B02C01A5241030A8B4201D30B0216
:1001A000C01A5241CDD2C3098B4201D3CB01C01A30
:1001B000524183098B4201D38B01C01A524143093A
:1001C0008B4201D34B01C01A524103098B4201D328
:1001D0000B01C01A5241C3088B4201D3CB00C01A95
:1001E000524183088B4201D38B00C01A524143080D
:1001F0008B4201D34B00C01A5241411A00D2014632
:10020000524110467047FFE701B5002000F006F8A4
:1002100002BDC0460029F7D076E770477047C04658
:10022000002B11D1002A0FD1002900D1002802D0C3
:100230000021C943081C07B4024802A140180290DB
:1002400003BDC046D9FFFFFF03B4684601B502985D
:1002500000F01EF8019B9E4602B00CBC7047C046E1
:100260009E2110B5C905041C00F04AFF002803D1E7
:10027000201C00F0C5FB10BD9E21201CC90500F00C
:10028000FBF900F0BDFB80231B069C466044F2E7AF
:10029000F0B54F464646D646C0B5040082B00D00C4
:1002A000914698468B422FD82CD04146484600F0C4
:1002B0004FFF29000600200000F04AFF331A9C4639
:1002C000203B9A4600D576E04B46524693401F00AD
:1002D0004B46624693401E00AF4228D825D0534675
:1002E000A41BBD41002B00DA7BE00022002300921A
:1002F00001930123524693400193012362469340A8
:10030000009318E08242D0D900220023009201938A
:100310000A9B002B01D01C605D600098019902B01F
:100320001CBC90469946A246F0BDA342D7D90022F4
:100330000023009201936346002BE9D0FB07984607
:10034000414672080A437B0866460EE0AB4201D183
:10035000A2420CD8A41A9D41012024196D4100210C
:10036000013E24184D41002E06D0AB42EED9013E8D
:1003700024196D41002EF8D10098019953460019B7
:100380006941002B23DB2B005246D3402A006446F0
:10039000E2401C0053461500002B2DDB260057467B
:1003A000BE40330026006746BE403200801A9941A5
:1003B00000900191ACE7624620239B1A4A46DA403E
:1003C0006146130042468A4017001F4380E7624699
:1003D00020239B1A2A0066469A402300F3401343C9
:1003E000D4E76246202300219B1A0022009101924B
:1003F0000122DA40019280E72023624626009B1A00
:10040000DE402F00B0466646B74046463B003343C9
:10041000C8E7C046F0B54E4657464546DE46E0B50D
:1004200043025B0A450083B00F1C99462D0EC60F90
:10043000002D57D0FF2D24D08020DB00C0041843AE
:10044000002381469A469B467F3D7C027A00FB0F43
:10045000640A120E984623D0FF2A4BD0E300802472
:100460000020E4047F3A1C43AD186B1C47460193FF
:10047000534677403A000F2B48D87D499B00CB5814
:100480009F46002B00D085E008339A46063B9B46EA
:100490007C027A00FB0FFF25640A120E9846DBD11E
:1004A000002C00D090E0524601231A4392460120CE
:1004B000DBE74C4658461700022824D0032800D119
:1004C000CFE00022002301284DD15802D205400A76
:1004D000FF071043384303B03CBC90469946A24600
:1004E000AB46F0BD002B5BD104239A46033B0025AD
:1004F0009B46AAE7FF35002C60D1524602231A43DF
:1005000092460220B1E7FF220023DEE74B461B0C98
:100510009C464B462604360C180461463300220CD8
:100520006446000C43434E435043544380191A0C15
:100530001218964203D9802149028C4664441B0458
:100540001B0C1004C01883015E1EB341800E1843BB
:10055000130C1B199B0103431C00230179D50123B4
:1005600062081C401443019A7F32002A4DDD630764
:1005700004D00F232340042B00D00434230103D5DF
:100580003C4B019A1C408032FE2ABCDCA3015B0A72
:10059000D2B29AE70C239A46093BFF259B4654E7C3
:1005A000180000F0B7FD4A46431F76259A40002305
:1005B0006D4291462D1A9A469B4646E752460323C2
:1005C0001A439246032050E7200000F0A3FD431F8A
:1005D0002D1A9C40763D002047E780230027DB034F
:1005E000FF2272E7424666E74C463200584662E711
:1005F00080234A46DB031A4222D01C4220D12343E7
:100600005B025B0A4746FF225FE701239A1A1B2A17
:1006100021DC23000199D3409E318C401A00230035
:100620005C1EA34113435A0704D00F221A40042A28
:1006300000D004335A0111D49B015B0A002244E725
:1006400080234A46DB0313435B025B0A3700FF2229
:100650003BE7019587E70022002336E701220023CC
:1006600033E78023DB0323435B025B0AFF222CE793
:100670008C430008FFFFFFF7F8B54746CE4644001D
:10068000C20F80B547024802400A844666464800C9
:100690007F0A240EF60025009046FB00000EC90FCD
:1006A000B146FF2800D185E001267140261A91420B
:1006B00057D0002E43DD002800D07FE049460029B6
:1006C00000D1AAE0013E002E00D0F7E05B1A5A01EB
:1006D00000D48BE09B019C09200000F01BFD053835
:1006E0008440854200DDD3E0451B230020200135F6
:1006F000EB40451BAC40621E944123430724002578
:100700001C40012241460A40002C04D00F21194010
:10071000042900D00433590100D480E00135ECB243
:10072000FF2D00D0A3E0FF2400235B02E405580A5C
:10073000D207204310430CBC90469946F8BD002ECA
:1007400074D1601CC0B2012800DCA7E04A469C1AA4
:10075000620100D5B6E0002CBED1002200240023A7
:10076000E3E7002E00DC85E0002846D0FF2C49D0CE
:1007700080224846D2041043814601221B2E09DC08
:1007800020204C46801B84404A462000F240441EF4
:10079000A04102439B185A0128D50135FF2D00D1F5
:1007A000A8E00122072494491A405B080B40134338
:1007B0001C40A6E7002E00D078E775E7FF2C54D048
:1007C00080224946D2041143894601221B2E09DCAE
:1007D00020214846891B88404A460100F240481EB5
:1007E00081410A439B1A5A0100D573E70122414611
:1007F0000A40590700D089E711E04846002858D13F
:10080000FF2C0CD1DB08002B00D18CE78020C0032B
:1008100003435B025B0AFF2487E7FF2C25D0DB083C
:10082000FF2DF0D05B025B0AECB27EE7002C4DD0CE
:10083000FF2818D08024E404724223431B2A00DDE1
:10084000C4E01C002025D440AA1A93405A1E9341AC
:1008500023434A460500D31A884638E7721CF8D06D
:10086000F243FF28EAD10A004B46FF25D7E79B0158
:100870005B0A5AE7002E41D1651CE9B2012945DD2A
:10088000FF2D00D14FE707244B445B081C4038E79D
:1008900007225A4B2D1A2340144032E7002C1DD159
:1008A000002B7AD14B46002B00D191E00A000025A5
:1008B000B5E7013E002E19D14B446CE7FF2C84D1E3
:1008C000FF25ACE74A468846D41A05E7002BC5D178
:1008D0000A00FF28C8D005004B46A0E7002B49D1ED
:1008E0004B46002B77D00A00FF2598E7FF2C00D05D
:1008F00043E787E70A00FF24002316E7002C15D101
:10090000002B57D1FF28E6D14B467BE7002C20D1A6
:10091000002B57D04946002953D04B445A0168D583
:100920000724364A1C4001251340EAE6FF28EBD095
:100930008022D204764213431B2E53DC2025AD1BAC
:100940001A00AB40F2405C1EA34113434B44050028
:1009500021E7002BD8D04946002900D152E7802159
:10096000C9030F4200D14DE76046084200D049E775
:100970004B4647E74846FF25002800D14FE7802235
:10098000D203174204D06046104201D14B4688463C
:1009900001224146FF250A4041E7484600281FD072
:1009A0001A1A500120D54A460724D31A1C408846FB
:1009B0000025A6E6741CC9D0F643FF28BCD14B46DF
:1009C00020E799464B460025DB082BE7012340E74B
:1009D00000220023A9E680230022DB03FF24A4E6F3
:1009E00000251CE70123B1E7002AF1D01300002500
:1009F000FCE60025FAE6C046FFFFFF7DFFFFFFFB98
:100A000041024200C30F490A120E00207E2A0DD96E
:100A10009D2A0CD8802000040143952A0ADC9620E8
:100A2000821AD1404842002B00D108007047034A87
:100A30009818FBE7963A9140F4E7C046FFFFFF7F26
:100A4000F0B55746DE464E464546E0B583460600BD
:100A50000F03480087B092461D003F0B400DCC0F9E
:100A6000002800D16FE0DE4B984238D08023FF0091
:100A70001B041F43730F3B430193DA4B0027994636
:100A800000239B46F60081442B0369001B0B524652
:100A90009846490DED0F002900D185E0D04B9942D1
:100AA00000D173E04346DA0080231B04134352460F
:100AB000CC48520F84461343524600206144D20072
:100AC00089442100694000918C46012149448A46AD
:100AD0000F2F00D990E0C449BF00CF59BF465B46F5
:100AE0003B43019300D06AE1022308270026814698
:100AF0009B46C9E732005846019B61460091022897
:100B000000D175E0032800D1FEE1012800D02CE1DE
:100B100000230027002600253F032A0D3F0BB34882
:100B200012053A4302401B051343009A5B00D107AC
:100B30005B080B433000190007B03CBC9046994657
:100B4000A246AB46F0BD5B463B43019300D12FE18B
:100B5000002F00D1A5E1380000F0DCFA03000B3BC8
:100B60001C2B00DD96E11D22D31A5A460100DA4003
:100B70005E4608398F4013008E403B4301939C4BE7
:100B800000271B1A994600239B467DE741465346A2
:100B90000B4393498C46E144002B00D01AE102221A
:100BA0000220174300228CE7134300D10DE1434696
:100BB000002B00D181E1404600F0ACFA02000B3A74
:100BC0001C2A00DD72E10100434608398B4098463B
:100BD0001D239A1A5346D3401A00434613435246E4
:100BE0008A404946081A824989468144002068E7BC
:100BF0007B4B002700268EE7140C1204120C110008
:100C0000370C3604350C794328008C462E0060439F
:100C10006044834656432100300C80465846794351
:100C200040440291844506D98846802149028C4679
:100C3000E044414602913604010C360C00048B4618
:100C400081191E0C1B041B0C0391190079438C465F
:100C5000280075436544A8465843050C454477432E
:100C6000A94203D9802149028C466744290C8C464D
:100C700039000004000C2D042D186144AB4405918B
:100C80005946049101990F043F0C080C3900514357
:100C90004243904602008C46090C8B4662437C43DB
:100CA00044445C44A04503D980214902884642441B
:100CB000210C884661460904090C8C4639005943C9
:100CC000434370437E430F0CF6182404BE1964445A
:100CD00042448C46B34203D980235B029846404489
:100CE000029B61469846049B370443449B46AB45B0
:100CF000AD416B420D0405992D0C8C467F1967445C
:100D0000FD18A8465D462D19A542A44193466442AC
:100D1000A446C344DC448F42BF4198459B41934560
:100D20009241A445A4415B427F421F43360C52428C
:100D30006442BF192243BF18624638184302D20DDD
:100D4000039913436A020A43501E82416146ED0D26
:100D50002A434E023243D90100D4B3E001265008A1
:100D600032400243DE0732435B08224C5444002CDD
:100D700062DD510709D00F201040042805D0101D56
:100D80009042924152429B180200D90104D580241E
:100D90001948E400034054441848844200DD27E722
:100DA0005E075B02D2081F0B630516435B0DB2E6BC
:100DB000002399460133042700269B4664E603235B
:100DC000019781460C279B465EE6012201201743CE
:100DD000002276E6032303201F43434671E6C04604
:100DE000FF07000001FCFFFFCC430008FFFF0F805E
:100DF0000DFCFFFFFF030000FFFFFFFEFE070000EA
:100E00000023802700933F030026434B83E6019B8A
:100E10003200A446584670E6AC466EE6802701993B
:100E20003F0339422DD03B422BD11F433F033F0BA1
:100E300000951600384B6EE601252D1B382D00DD80
:100E400066E61F2D40DC35481C00504416008240E9
:100E50008440EE40501E824134431443EB4062070D
:100E600009D00F222240042A05D02200141D9442EA
:100E7000804140421B181A023ED50123002700265C
:100E800049E68027019B3F031F433F033F0B00942C
:100E9000214B40E603005A46283B9A400026019227
:100EA0006DE6584600F036F9203057E6030052460A
:100EB000283B9A401300002293E6504600F02AF99E
:100EC00020307BE6CA4650E71F201E004042041B2C
:100ED000E640202D03D0124C5444A3401A43501E28
:100EE0008241324307260027164009D00F200023F5
:100EF000104014000428B9D122005E075B021F0BCA
:100F0000D2081643002306E680273F031F433F0312
:100F10003F0B1600004BFEE5FF0700001E0400001B
:100F20003E04000070B500282DD0C317C5185D40E1
:100F3000C40F280000F0EEF8154B1B1A5B055B0D83
:100F40000A2815DD0B38854000222D032D0B0021CA
:100F500010002D030A0D2D0B12052A430D4D1B0504
:100F60002A4013435B00E4075B082343190070BD6C
:100F700002002900153291400A000B21081AC540D1
:100F80002D032D0BE3E70024002300250022DEE7DC
:100F90001E040000FFFF0F80F0B54C00640D0B0332
:100FA000621C5B0A460F5205C90F1E43C500520D55
:100FB000012A29DD374BE718FE2F1CDC002F3BDD13
:100FC0008001431E98410722F3006D0F03432B431A
:100FD0001A40002A04D00F221A40042A00D00433F9
:100FE0008022D2041A4024D00137FAB2FF2F02D057
:100FF0009B01580A01E0FF2200204002D205400A6E
:10100000C90710430843F0BD3543002C04D1002D1F
:101010000AD100220020F0E7002DECD08020C00390
:101020003043FF22E9E7002400235B02580AE2B2C2
:10103000E3E7DB083C00F8E73B001733F3DB8023F2
:101040001B0433431E26F61B1F2E14DD02225242C0
:10105000D71B1A00FA401700202E04D00E4A9446DF
:101060006444A3401D432B005D1EAB4107223B435C
:101070001A400027ADE7094A2800A218954093407E
:101080006C1EA541F04007222B4303431A40002762
:101090009FE7C04680FCFFFFA2FCFFFF82FCFFFF32
:1010A0008446081C6146FFE71FB500F0D3F800280E
:1010B00001D40021C8421FBD10B500F055F84042D0
:1010C000013010BD10B500F0C5F8002801DB00208C
:1010D00010BD012010BDC04610B500F0BBF80028BF
:1010E00001DD002010BD012010BDC04610B500F08C
:1010F00063F8002801DC002010BD012010BDC046AF
:1011000010B500F059F8002801DA002010BD0120C8
:1011100010BDC0461C2101231B04984201D3000CC2
:1011200010391B0A984201D3000A08391B0998425A
:1011300001D30009043902A2105C40187047C04670
:101140000403020201010101000000000000000090
:1011500010B5002903D1FFF7DDFF203002E0081CA5
:10116000FFF7D8FF10BDC04670B542004E024C00DC
:1011700045026D0A120EC30F760A240EC90FFF2A0C
:101180000FD0FF2C11D00120A24200D070BDB5427B
:10119000FCD18B420DD0002AF8D12800451EA84171
:1011A000F4E70120002DF1D1EBE70120002EEDD175
:1011B000E9E70020EAE7C04670B54A004E02450262
:1011C00044006D0A240EC30F760A120EC90FFF2CBD
:1011D00015D0FF2A0ED0002C15D1002A01D1002EE7
:1011E0001CD0002D14D08B4227D00220013B184088
:1011F000013870BD002EEED002204042F9E7002DEC
:10120000FAD1FF2A0ED0002A0ED1002EEDD00BE02D
:1012100001230139994308000130EAE70020002D3D
:10122000E7D0E2E7002EE7D18B42DED1944205DD24
:101230000221581E08400138DBE70024A24204DCEA
:10124000B542D2D80020B542D3D2581E01239843CC
:101250000130CEE730B5420044024D02C30F4800D2
:10126000640A120E6D0A000EC90FFF2A12D0FF2861
:101270000CD0002A12D1002819D1002D17D1002C32
:101280002BD00220013B1840013826E0002DF0D081
:10129000022022E0002CFBD1FF281FD000281FD104
:1012A000002D1DD10220013B1840013815E0002C13
:1012B0000ED08B42E5D10022904204DCAC42E0D853
:1012C0000020AC4209D2581E01239843013004E0AB
:1012D0000123013999430800013030BD002DD7D1D9
:1012E0008B42CED18242E7DD0221581E08400138F0
:1012F000F3E7C0460023C25C0133002AFBD1581E2D
:101300007047000010B504000F4B1978FA208000D8
:10131000FEF7FAFE01000D4B1868FEF7F5FE00F02F
:1013200089F800280DD1032C01D901200AE00130F1
:1013300000222100404200F043F8034B5C60002093
:1013400000E0012010BDC046000000200C0000207D
:1013500010B5084A136840210B4313600020FFF7C3
:10136000D1FF041E02D00124200010BD02F07EFA3D
:10137000FAE7C04600200240034A1168034B1B787D
:101380005B1813607047C046A400002000000020D6
:10139000014B18687047C046A400002070B50400D7
:1013A000FFF7F6FF0500631C02D0044B1B78E4181E
:1013B000FFF7EEFF401BA042FAD370BD00000020F3
:1013C00070B5002811DB8408134DC034A4006259A5
:1013D00003231840C000FC331E008640B24389013D
:1013E0000B4083401343635170BDC0B20F220240D3
:1013F000083A920806329200084BD3185D6803241D
:101400002040C000FF2214008440A54389010A4007
:1014100082402A435A60E7E700E100E000ED00E087
:101420001F2318401E3B8340014A13607047C0468B
:1014300000E100E001380A4B98420FD8094A506099
:101440000948036A1B021B0AC02109060B430362F9
:101450000023936007331360002070470120FCE7EE
:10146000FFFFFF0010E000E000ED00E010B52523D5
:10147000C35C022B03D00423C363012010BD0268A8
:1014800013680E218B43136001680A6801239A4395
:101490000A601C22416C0A40016C1C0094404C60A4
:1014A0002522835423330022C254836B002B02D0A5
:1014B00098470020E2E70020E0E72523C05CC0B2A7
:1014C00070470000F0B5CE46474680B5002333E0B4
:1014D000052600E00026AE4035003D430234A4005E
:1014E000574EA551574C2568D4432E0026404F68CF
:1014F000FF0301D515432E00524D2E606D682E005E
:1015000026404F68BF0301D515432E004D4D6E6038
:10151000AD682E0026404F68FF0201D515432E000E
:10152000484DAE60ED682C404E68B60201D52A43A6
:101530001400444AD46001330A681400DC407AD0B5
:1015400001249C402240F6D04D686E1E012E03D926
:10155000112D01D0122D12D185685F000326BE40E7
:10156000B5432E00CD68BD40354385604568A54331
:101570004C682609012434409C402C434460C768D1
:101580005E000324B440E443A44627408D68B54080
:101590003D43C5604C68022C01D0122C10D1DC08F0
:1015A0000834A400A146275807251D40AD000F248C
:1015B000AC40A7430C69AC4025003D434C46255048
:1015C00005686446254003244F683C40B4402C43E2
:1015D00004604C68E400AED51B4D6C6B01263443AF
:1015E0006C639C08A51CAD00154EAF5903261E4028
:1015F000B5000F26AE40B743A026F605B04200D195
:1016000068E7124EB0420ED0114EB0420DD0114ECE
:10161000B0420CD0104EB0420BD0104EB04200D1B0
:1016200056E7062657E7012655E7022653E7032625
:1016300051E704264FE70CBC90469946F0BDC046E2
:10164000000001400004014000100240000400506E
:1016500000080050000C005000100050001C00500A
:10166000002A01D1816270478161FCE703689A69B1
:10167000920701D500229A6203689A69D20703D4BF
:101680009A6901210A439A6170470000F0B5059CF0
:1016900005686868660D8027FF003740054E3E43A9
:1016A000B0438905890D120411430B4323430343BF
:1016B0006B60F0BDFF63FF0330B5CB0709D5412355
:1016C000C35C28221340282B01D0F22302E01A33F6
:1016D00000E000238A0709D544241C434122825C90
:1016E00028252A40282A0FD0F42213430AB2002AC0
:1016F0000CDB10290DD020290ED040290FD0016815
:101700000A689A430A6030BD2300EFE7B82213430A
:10171000EFE790221343EEE720221343EDE7402248
:101720001343ECE770B504000E00150003689B69D5
:10173000DB0619D523689A69920617D4731CF9D071
:10174000FFF726FE401BB04201D8002EF2D1636C99
:101750002022134363644123E25400232232A35422
:10176000023AA35401201AE0002018E01022DA61A6
:1017700023682025DD612000FFF778FF2268536889
:1017800007490B405360636C042213436364412395
:10179000E55400233E32A354023AA354012070BD05
:1017A00000E800FE70B504000D00160023689B6978
:1017B0009B071CD4320029002000FFF7B3FF00284C
:1017C00017D16B1CF2D0FFF7E3FD801BA84201D8B4
:1017D000002DEBD1636C2022134363644123E25458
:1017E00000232232A354023AA354012000E0002037
:1017F00070BD0120FCE7F8B506000C0017001D00C5
:1018000033689B6923401B1B5A425341BB4216D18C
:101810006B1CF5D0FFF7BCFD069BC01AA84201D88F
:10182000002DEDD1736C2022134373644123F254D5
:1018300000232232B354023AB354012000E00020C6
:10184000F8BD70B505000C0016002B689B699B065F
:101850001AD4320021002800FFF764FF002815D1B8
:10186000FFF796FD801BA04201D8002CEDD16B6CD8
:10187000202213436B644123EA5400232232AB54E9
:10188000023AAB54012070BD0020FCE70120FAE7CA
:1018900070B504000D00160023689B695B0733D404
:1018A000320029002000FFF73DFF00282ED12368D9
:1018B0009A69920611D4FFF76BFD801BA84201D8EC
:1018C000002DE9D1636C2022134363644123E25469
:1018D000013B0022E254012070BD9A69520702D5F3
:1018E000228D002AF8D12022DA6121684B6808484D
:1018F00003404B6000236364412162542232A354AD
:10190000023AA3540120E7E70020E5E70120E3E7DE
:1019100000E800FE10B5041E59D04123C35C002B23
:1019200043D041232422E2542268136801218B43CF
:1019300013602268274B61680B401361226893682B
:1019400025490B409360E368012B34D0226884233F
:101950001B02A1680B439360E368022B32D022681C
:1019600051681E4B0B4353602268D3681A490B40E1
:10197000D360236962691343A26912022168134389
:10198000CB602268E369216A0B4313602268136805
:1019900001210B4313600023636441221F31A154D2
:1019A00023630132A354002010BD40330022C254EF
:1019B00001F06AFFB5E7226880231B02A1680B4390
:1019C0009360C9E72368802212015A60C7E70120AB
:1019D000EAE7C046FFFFFFF0FF7FFFFF0080000245
:1019E000F0B585B00500039117001E004123C35CCC
:1019F000202B00D099E02033C35C012B00D197E06D
:101A000040230122C254FFF7C3FC04008021009050
:101A10001923012209022800FFF7EDFE002800D05B
:101A200088E041232122EA540133113AEA54002389
:101A30006B646F626E856B636B8D9BB2FF2B0BD9F2
:101A4000FF232B857F3B3F4A00925B04FF220399D3
:101A50002800FFF71BFE18E06A8D92B22A858023CA
:101A6000D2B2384900919B0403992800FFF70EFE7B
:101A70000BE06A8D92B22A858023D2B200210091B8
:101A80009B0403992800FFF701FE6B8D9BB2002B8E
:101A900034D022000A992800FFF784FE00284BD199
:101AA0002B686A6A12789A626B6A01336B626B8D7B
:101AB000013B9BB26B852B8D013B9BB22B856A8DC5
:101AC00092B2002AE1D0002BDFD100940A9B0022C1
:101AD00080212800FFF78FFE00282FD16B8D9BB24D
:101AE000FF2BC6D9FF232B857F3B002200925B048E
:101AF000FF3203992800FFF7C9FDC6E722000A99C3
:101B00002800FFF79EFE00281AD12B682022DA61F8
:101B100029684B680C4C23404B604123EA54002356
:101B20002232AB54023AAB5400E0022005B0F0BDC3
:101B30000220FBE70120F9E70120F7E70120F5E7A4
:101B40000120F3E70020008000E800FEF0B585B03A
:101B50000500039117001E004123C35C202B00D019
:101B600099E02033C35C012B00D197E04023012290
:101B7000C254FFF70DFC04008021009019230122BC
:101B800009022800FFF737FE002800D088E0412333
:101B90002222EA540133123AEA5400236B646F6242
:101BA0006E856B636B8D9BB2FF2B0BD9FF232B854F
:101BB0007F3B3F4A00925B04FF2203992800FFF716
:101BC00065FD18E06A8D92B22A858023D2B2384929
:101BD00000919B0403992800FFF758FD0BE06A8DE4
:101BE00092B22A858023D2B2002100919B040399EE
:101BF0002800FFF74BFD6B8D9BB2002B34D02200E9
:101C00000A992800FFF744FE00284BD12B685B6A35
:101C10006A6A13706B6A01336B622B8D013B9BB256
:101C20002B856A8D013A92B26A856A8D92B2002A3A
:101C3000E1D0002BDFD100940A9B002280212800F4
:101C4000FFF7D9FD00282FD16B8D9BB2FF2BC6D992
:101C5000FF232B857F3B002200925B04FF32039918
:101C60002800FFF713FDC6E722000A992800FFF7B6
:101C7000E8FD00281AD12B682022DA6129684B6818
:101C80000C4C23404B604123EA5400232232AB54D6
:101C9000023AAB5400E0022005B0F0BD0220FBE7A1
:101CA0000120F9E70120F7E70120F5E70120F3E73C
:101CB0000024008000E800FE10B5036899691A68E6
:101CC000436B002B00D0984710BD70477047000051
:101CD00010B5040003681A684221002060545104C2
:101CE0000CD51A6819490A401A604123E35C292B74
:101CF0000BD04123E35C2A2B17D010BD1204F4D57E
:101D00001A6813490A401A60EFE718332822E25490
:101D1000203B236301212000FFF7CEFC402300225B
:101D2000E2542000FFF7D1FFE7E717332822E254FF
:101D30001F3B236302212000FFF7BEFC402300224B
:101D4000E2542000FFF7C2FFD7E7C046FFBFFFFF06
:101D5000FF7FFFFF7047F8B504004123C35C2822D2
:101D60001340282B06D003680822DA6140230022A2
:101D7000C254F8BD03689E69360C273A16409A692A
:101D8000120CFE273A4015009A689205920DD86809
:101D90000740E168022923D1D00945400431294296
:101DA00010D1A16C0131A164A16C0229E1D1002103
:101DB000A1640820D8614023E15431002000FFF7DE
:101DC000C9FFD6E7802109022000FFF775FC4023F8
:101DD0000022E2543A0031002000FFF7BBFFC8E7C1
:101DE000802109022000FFF767FC40230022E25413
:101DF0002A0031002000FFF7ADFFBAE7704700006E
:101E000010B50400164BC362002303634122202057
:101E1000A0540132A35463634B0713D523685B6A54
:101E2000626A1370636A01336362238D002B09D0E9
:101E3000013B2385638D013B9BB26385636C042268
:101E40001343636407492000FFF736FC2368102220
:101E5000DA6140230022E2542000FFF7CFFF10BDDB
:101E60000000FFFF038000007047704710B541235A
:101E7000C35C602B06D00023036340228354FFF72A
:101E8000F3FF10BD1F3B2022C25400230363203206
:101E90008354FFF7EAFFF4E710B504004123C35C65
:101EA0000022422022543A48E0626285626C11436B
:101EB0006164283BDBB2022B1BD803212000FFF713
:101EC000FBFB41232822E254324B6363236BA26B5A
:101ED000002A03D0112B1AD0212B18D0E26B002A34
:101EE00003D0122B33D0222B31D02000FFF7BEFFBE
:101EF00010BD29492000FFF7DFFB4123E35C602B85
:101F000002D041232022E25400236363DEE72368EA
:101F10001A68520403D51A6820490A401A60A06B57
:101F2000FFF7CBFA01280ED0A36B1D4A9A6340231A
:101F30000022E254A06BFFF799FA0028D8D0A06BDA
:101F4000836B9847D4E72000FFF790FFD0E7236822
:101F50001A68120403D51A6812490A401A60E06B25
:101F6000FFF7ABFA01280ED0E36B0D4A9A634023CA
:101F70000022E254E06BFFF779FA0028B8D0E06B5A
:101F8000836B9847B4E72000FFF770FFB0E7C046C7
:101F90000000FFFF1121000803800000FFBFFFFFCA
:101FA000BB220008FF7FFFFF70B504000D00026830
:101FB00016684123C35CDBB22021D161212B0CD0F8
:101FC000292B0AD0222B01D02A2B0CD14A492000E0
:101FD000FFF772FB2223236305E048492000FFF747
:101FE0006BFB212323632268516880231B020B4370
:101FF00053602268536842490B4053602000FFF74A
:1020000035FB730441D5226813683E490B401360C9
:10201000A36B002B03D01B685B689BB263856B07C7
:1020200011D504239D4323685B6A626A1370636A57
:1020300001336362238D002B05D0013B2385638D23
:10204000013B9BB26385638D9BB2002B03D0636C15
:1020500004221343636400234222A3546363636C2A
:10206000002B21D1E26A284B9A422AD14123E35C1A
:10207000222B36D041232022E25400232363203236
:10208000A3542000FFF721FE2AE03304C7D52268BD
:1020900013681E490B401360E36B002BBFD01B6815
:1020A0005B689BB26385BAE7616C2000FFF7F4FEC2
:1020B0004123E35C282B13D129002000FFF7A0FE69
:1020C0000EE02000FFF704FE0F4BE36241232022C5
:1020D000E254002323632032A3542000FFF78EFE36
:1020E00070BD1F332022E254002323632032A35407
:1020F0002000FFF7EBFDF3E7028000000180000005
:1021000000E800FEFFBFFFFF0000FFFFFF7FFFFFB3
:10211000F8B504000D001600C76A4023C35C012B0C
:1021200000D196E00123402283544A09134201D092
:10213000B30617D4EB0640D5F3063ED5638D9BB2AC
:10214000002B28D14133E35C282B0ED04123E35CE4
:10215000292B13D023681022DA6140230022E25495
:102160000020F8BDFFF720FFE4E780239B049F4297
:10217000ECD129002000FFF743FEEEE7364B9F42EB
:10218000E8D023681022DA612000FFF76FFA200000
:10219000FFF79EFDE1E723681022DA61636C0C3AD9
:1021A00013436364002F03D080235B049F42D4D188
:1021B000616C2000FFF770FECFE76B071ED5730739
:1021C0001CD5638D9BB2002B0DD023685B6A626ABD
:1021D0001370636A01336362238D013B2385638D32
:1021E000013B9BB26385638D9BB2002BB5D11A4B2B
:1021F0009F42B2D02000FFF76BFDAEE72B0701D561
:10220000330716D4AB07A8D5B307A6D5638D9BB209
:10221000002B13D02368626A12789A62636A0133D2
:102220006362638D013B9BB26385238D013B2385F4
:1022300093E729002000FFF78EFD8EE780235B04E3
:102240009F4202D0002F00D087E72000FFF740FD1B
:1022500083E7022085E7C0460000FFFF70B50268F3
:1022600093691168DC0508D50C0606D5446C012578
:102270002C43446480246400D4615A0509D50A06BD
:1022800007D5426C08242243426402688024E4009B
:10229000D4619B0509D50B0607D5436C0222134375
:1022A00043640368FF32FF32DA61416C0B230B4257
:1022B00000D170BDFFF7F0FDFBE710B5806A836BBE
:1022C000002B01D000229A63C36B002B01D00022A7
:1022D0009A63FFF7CBFD10BDF0B54123C35C202B03
:1022E00020D12033C35C012B1ED040240122025593
:1022F00041252423435506683368934333600668B9
:1023000033680A4F3B4033600668336819433160D5
:1023100001680B6813430B602023435500230355CA
:10232000002000E00220F0BD0220FCE7FFEFFFFFED
:10233000F0B54123C35C202B1ED12033C35C012B9D
:102340001CD0402401220255412524234355066810
:1023500033689343336006683368094F3B40090292
:102360001943316001680B6813430B602023435508
:1023700000230355002000E00220F0BD0220FCE70E
:10238000FFF0FFFF10B5264BD9680C230B40082B3C
:1023900042D00C2B11D0042B09D0214B5A68520B80
:1023A00007231340013380200002984010BD1C4BCE
:1023B0001B68DB0632D51B48F8E78A0C0F23134055
:1023C000194AD05C890D032211400131144BDB689E
:1023D000DB030DD4124B1B68DB0613D54201121A26
:1023E00093019B1ADB001B181802FDF78DFEDDE739
:1023F0004201121A93019B1ADB001B185802FDF7C9
:1024000083FED3E74201121A93019B1ADB001B18CB
:102410009802FDF779FEC9E70448C7E70448C5E715
:102420000010024000093D006843000800127A00D5
:102430000024F400F0B583B0041E00D19FE2C44B29
:10244000DA680C251540DA688026760216400368A3
:10245000DB0736D5082D2CD00C2D28D063688022C0
:102460005202934255D0A022D202934258D0B84B88
:102470001A68B8490A401A601A68802149020A405D
:102480000192019A1A68B4490A401A606368002BE5
:1024900052D0FEF77DFF0700AD4B1B689B0310D4A5
:1024A000FEF776FFC01B6428F6D9032068E2002EF1
:1024B000D4D0A74B1B689B0303D56368002B00D1C6
:1024C00060E223689B076CD5E3689A0605D5A048AF
:1024D000026820210A4302608B43042D3CD00C2D5E
:1024E00038D0002B00D1AEE099490A680920824318
:1024F00013430B60FEF74CFF0600954B1B685B0710
:1025000000D597E0FEF744FF801B0228F5D9032091
:1025100036E28F4A116880235B020B431360B5E7F4
:102520008B4B19688022D2020A431A6019688022F4
:1025300052020A431A60A9E7FEF72AFF0700844BFC
:102540001B689B03BDD5FEF723FFC01B6428F6D98B
:10255000032015E2002EC4D17D4A1268520702D52D
:10256000002B00D110E27A4E72687C490A40216942
:1025700009020A437260326809218A4313433360B7
:10258000FFF700FFF26812090F231340744AD35C6F
:10259000D840744B18600020FEF7B4FE002800D02D
:1025A000EEE12368DB062CD5002D5FD1684B1B685C
:1025B0009B0503D5E369002B00D1E7E1644A53682A
:1025C00069490B40616A0B43536053681B021B0A45
:1025D000216A09060B435360636A590B013180235A
:1025E0001B028B40D16809090F220A405C498A5CB2
:1025F000D3405C4A13600020FEF784FE002800D020
:10260000BEE123681B077DD56369002B67D0504A64
:10261000136D01210B431365FEF7BAFE06004C4B08
:102620001B6D9B076ED4FEF7B3FE801B0228F6D904
:102630000320A5E146494B68484A1340226912022B
:1026400013434B60ADE7424A136801218B4313608B
:10265000FEF79EFE06003E4B1B685B07A1D5FEF70A
:1026600097FE801B0228F6D9032089E1E369002B3D
:1026700022D0374A116880235B000B431360FEF7BA
:1026800087FE0600324B1B689B0506D4FEF780FED2
:10269000801B0228F6D9032072E12D4A5368324983
:1026A0000B40616A0B43536053681B021B0A216A8B
:1026B00009060B435360A4E7254A13682B490B40D6
:1026C0001360FEF765FE0600214B1B689B0598D53D
:1026D000FEF75EFE801B0228F6D9032050E11C4A5B
:1026E000136D01218B431365FEF752FE0600184B54
:1026F0001B6D9B0706D5FEF74BFE801B0228F6D903
:1027000003203DE123685B0700D48CE0104B9B6BFA
:10271000DB001BD40E4A916B80235B050B43936354
:102720000126134B1B68DB0526D5A36880225200C7
:10273000934235D0002B4BD1054B1A6D0B490A4003
:102740001A651A6D0B490A401A652FE00026E8E762
:1027500000100240FFFFFEFFFFFFFBFFFFE0FFFF57
:10276000744300080C000020FF1FFFFFFFFEFFFF67
:1027700000700040FFFBFFFF884A116880235B0068
:102780000B431360FEF704FE0700844B1B68DB0558
:10279000CBD4FEF7FDFDC01B6428F6D90320EFE083
:1027A0007F4A116D80235B000B431365A368002BE8
:1027B00028D0FEF7EDFD0700794B1B6D9B0530D44B
:1027C000FEF7E6FDC01B774B9842F5D90320D7E012
:1027D000A022D200934209D0714B1A6D72490A406F
:1027E0001A651A6D71490A401A65DFE76C4B196D5D
:1027F000013AFF3A0A431A65196D802252000A43D2
:102800001A65D3E7FEF7C4FD0700654B1B6D9B05FA
:1028100007D5FEF7BDFDC01B624B9842F5D90320DA
:10282000AEE0012E21D023689B063CD5A369002B86
:1028300021D05B4B99680120014399605A6B024398
:102840005A635B4A116A80239B010B431362FEF7B4
:102850009FFD0600524B9B689B0724D4FEF798FD12
:10286000801B0228F6D903208AE04D4A936B514918
:102870000B409363D7E74A4A936801218B439360E7
:102880004B4A136A4C490B401362FEF781FD060068
:10289000434B9B689B0706D5FEF77AFD801B0228F9
:1028A000F6D903206CE0A36A002B00D170E00C2D58
:1028B00049D0022B12D03A4A136840490B401360AA
:1028C000FEF766FD0400364B1B689B0139D5FEF709
:1028D0005FFD001B0228F6D9032051E0304A13683F
:1028E00036490B401360FEF753FD05002C4B1B6867
:1028F0009B0106D5FEF74CFD401B0228F6D90320AC
:102900003EE02749CB682E4A1340E26A206B02431F
:10291000606B02431343CB600A6880235B0413435C
:102920000B60FEF735FD04001D4B1B689B0106D4B0
:10293000FEF72EFD001B0228F6D9032020E0002020
:102940001EE000201CE0012B24D0154BDA68802308
:102950005B021340E16A8B4201D0012010E0F023BA
:102960009B031340216B8B4201D0012008E0C02360
:102970001B041A40636B9A420ED0012000E0012034
:1029800003B0F0BD0120FBE70120F9E70120F7E7E4
:102990000020F5E70120F3E70020F1E70070004098
:1029A0000010024088130000FFFEFFFFFFFBFFFF47
:1029B00000000140FFFFFFEFFFDFFFFFFFFFFFFE13
:1029C000FFFF02FF70B504000D00002800D1BAE03F
:1029D0005F4B1A68012313408B420BD25C490B6892
:1029E000012293432B430B600B681A40AA4201D08B
:1029F0000120A9E023689B0706D5564AD368F02139
:102A00008B43A1680B43D3602368DB0764D56368FD
:102A1000022B09D0032B29D0012B2DD04D4A12684F
:102A2000920506D401208FE04A4A1268920300D42E
:102A30008BE04849CA68032082431343CB60FEF70A
:102A4000A7FC06006368022B1CD0032B28D0012BA7
:102A500034D0404BDB680C221A423DD0FEF798FC84
:102A6000801B3D4B9842F4D903206DE0394A12682F
:102A70009201DED4012067E0364A12685207D8D4AA
:102A8000012061E0334BDA680C231340082B23D07C
:102A9000FEF77EFC801B304B9842F3D9032053E0B5
:102AA0002C4BDA680C2313400C2B15D0FEF770FC6E
:102AB000801B294B9842F3D9032045E0254BDA6867
:102AC0000C231340042B07D0FEF762FC801B224B23
:102AD0009842F3D9032037E01D4B1A6801231340B5
:102AE000AB420BD91A490B68012293432B430B606D
:102AF0000B681A40AA4201D0012025E023685B0739
:102B000006D5144AD36815490B40E1680B43D360DE
:102B100023681B0707D50F49CB68114A1340226968
:102B2000D2001343CB60FFF72DFC0A4BDA68120981
:102B30000F2313400B4AD35CD8400B4B1860002086
:102B4000FEF7E0FB00E0012070BD0120FCE7C0467D
:102B5000002002400010024088130000FFF8FFFF31
:102B6000FFC7FFFF744300080C000020014B1868EA
:102B70007047C0460C00002010B5FFF7F7FF044B6C
:102B8000DA68120A07231340024AD35CD84010BD0A
:102B9000001002408443000810B5FFF7E7FF044B24
:102BA000DA68D20A07231340024AD35CD84010BD2A
:102BB000001002408443000870B5040082231B010A
:102BC00002681A425AD0754B9B6BDB0000D59DE022
:102BD000724A916B80235B050B4393630125704B15
:102BE0001B68DB0500D493E06C4B1A68C0239B0381
:102BF0001A4061680B40934200D19EE0C0239B02C3
:102C00000A001A409A4200D19FE0644B1B6DC0221B
:102C1000920213401FD01140994202D022689206BE
:102C200008D4C0229202A1680A409A4213D02368B5
:102C30001B0510D5594B186D5A4A02401E6D802154
:102C4000090331431965196D574E314019651A65ED
:102C5000C30500D580E06368C022920219001140CC
:102C6000914200D188E04D490B6DC022920260680C
:102C7000024013430B65012D00D187E02368DB0779
:102C800006D5464AD36C03218B43E1680B43D364DA
:102C900023689B0706D5414AD36C0C218B432169DD
:102CA0000B43D36423685B0706D53C4AD36C3F498A
:102CB0000B4061690B43D36423681B0706D5374A71
:102CC000D36C3B490B40A1690B43D3642368DB05FC
:102CD00006D5324AD36C33490B40E1690B43D364C8
:102CE00023685B0606D52D4AD36C32490B40616AD6
:102CF0000B43D36423681B064ED5284AD36C2E4958
:102D00000B40216A0B43D364002070BD002566E7A9
:102D1000234A116880235B000B431360FEF738FBE6
:102D200006001F4B1B68DB0500D55DE7FEF730FB97
:102D3000801B6428F5D90320E7E7C0239B03A06824
:102D40000340934200D059E75FE7144B1B689B0395
:102D500000D45AE70120D8E7FEF71AFB06000F4B14
:102D60001B6D9B0500D576E7FEF712FB801B134B0E
:102D70009842F4D90320C8E708490A68104802407D
:102D8000C0208003034013430B606CE70A008B6B89
:102D90000C490B40936371E70020B6E70010024036
:102DA00000700040FFFFFCFFFFFFF7FFFFF3FFFF96
:102DB000FFCFFFFFFFFFFFFBFFFFF3FF88130000C4
:102DC000FFFFCFFFFFFFFFEF0268136806490B40CC
:102DD0001360026893682331FF318B439360202393
:102DE0008367002303667047DFFEFFFF704710B55F
:102DF0000268136840218B4313602023436700233C
:102E00004366FFF7F3FF10BD7047000070B5040084
:102E10000168CB6908688D680F221A400AD19E06A6
:102E200008D5860606D5236E002B00D189E0200048
:102E3000984786E0002A6BD001222A4003D19026D1
:102E40007600304264D0DD0706D5C50504D50125DE
:102E50000D62E16F2943E167990708D5002A06D082
:102E6000216802250D62E16F02352943E1675907A8
:102E700008D5002A06D0216804250D62E16F023DC5
:102E80002943E167190709D5810601D4002A05D035
:102E9000226808211162E26F0A43E267E26F002AAA
:102EA0004FD09B0606D5830604D5236E002B01D098
:102EB00020009847E26F23689B685B0601D41307E4
:102EC00020D52000FFF780FF23689A68520615D5A9
:102ED0009A6840218A439A60E36E002B0AD01B4A0D
:102EE0009A63E06EFEF7C2FA00282AD0E06E836B88
:102EF000984726E02000FFF787FF22E02000FFF739
:102F000083FF1EE02000FFF77FFF0023E36718E048
:102F1000DA0201D56A0209D41A060ED502060CD5CA
:102F2000636E002B0DD0200098470AE080235B03DE
:102F30000B62200000F05EFB03E05B0601D5430658
:102F400000D470BD2000FFF752FFFAE7512F0008B0
:102F500010B5806A00235A228352083A8352FFF741
:102F600053FF10BDD0B504000168836802691343A4
:102F700042691343C26913430A68BA4802401343C3
:102F80000B6022685368B8490B40E1680B435360FB
:102F9000A1692268B54B9A4201D0236A194393680C
:102FA000B34803400B4393602368B24A93421CD05A
:102FB000B14A93422DD0B14A93425FD0B04A934276
:102FC0005ED0AA4A934239D01022A8498B425BD0E6
:102FD00080231B02E169994200D190E0082A00D9C0
:102FE00071E19200A74B9B589F46A74AD16C0322E0
:102FF0000A40012A09D0002A05D0022A3AD0032A21
:1030000005D01022E1E70122DFE70422DDE70822F4
:10301000DBE79D4AD16C0C220A40042A0AD005D96C
:10302000082A29D00C2A07D10822CEE7002A03D18A
:103030000022CAE70422C8E71022C6E7924AD26CEF
:10304000C02109010A408021C9008A420ED009D955
:10305000802109018A4215D0C02109018A4207D185
:103060000822B2E7002A03D10022AEE70422ACE72F
:103070001022AAE70222A8E70222A6E70022A4E77C
:103080000022A2E70222A0E7022A2DD007D9042AB3
:1030900030D0082A00D019E18020000207E0002A81
:1030A00000D013E1FFF768FD002800D110E162684D
:1030B00053009B18834200D90CE11303834200D2D2
:1030C0000AE1070E06025008002180197941002309
:1030D000FDF7A6F86D4BC2186D4B9A4200D9FDE082
:1030E0002368D860002085E0674B1B68DB0604D4AA
:1030F0006848DCE7FFF746F9D6E76748D7E7082ACC
:1031000062D89200654B9B589F46FFF735FD400003
:1031100063685B08C0186168FCF7F6FF03041B0CCA
:1031200000205F491A00103A8A4200D9D8E00F22E5
:10313000190091435B08083A13400B432268D3609F
:1031400058E0FFF729FD400063685B08C01861681C
:10315000FCF7DAFF03041B0C0020E2E74A4B1B6874
:10316000DB060BD5636858084E4B9C46604461688B
:10317000FCF7CAFF03041B0C0020D2E76368580861
:10318000494B9C4660446168FCF7BEFF03041B0C7E
:103190000020C6E7FFF7F6F8400063685B08C01838
:1031A0006168FCF7B1FF03041B0C0020B9E76368FA
:1031B000580880235B029C4660446168FCF7A4FFCA
:1031C00003041B0C0020ACE701200023A9E7FFF754
:1031D000D3FC63685B08C0186168FCF795FF0304C3
:1031E0001B0C00202E491A00103A8A4200D979E0BF
:1031F0002268D360002323666366D0BDFFF7CCFC52
:1032000063685B08C0186168FCF77EFF03041B0C51
:103210000020E7E71C4B1B68DB060BD563685808EA
:103220001D4B9C4660446168FCF76EFF03041B0C59
:103230000020D7E763685808164B9C4660446168D5
:10324000FCF762FF03041B0C0020CBE7FFF79AF8A2
:1032500063685B08C0186168FCF756FF03041B0C29
:103260000020BFE7F369FFEFFFCFFFFF00480040FA
:10327000FFF4FFFF0038014000440040004C0040D4
:1032800000500040204300080010024000FDFFFFF6
:10329000FFFC0F000024F40000093D004443000837
:1032A000EFFF000000127A000048E8016368580848
:1032B00080231B029C4660446168FCF725FF0304E1
:1032C0001B0C00208EE7012000238BE7012091E7F3
:1032D00000208FE701208DE701208BE7012089E79F
:1032E000012087E7012085E7436ADB0706D50268EE
:1032F00053682C490B40816A0B435360436A9B0718
:1033000006D50268536828490B40C16A0B435360D5
:10331000436A5B0706D50268536824490B40016B7A
:103320000B435360436A1B0706D502685368204964
:103330000B40416B0B435360436ADB0606D50268C2
:1033400093681C490B40816B0B439360436A9B0657
:1033500006D50268936818490B40C16B0B43936014
:10336000436A5B060BD50268536814490B40016C35
:103370000B43536080235B03026C9A420AD0436A7A
:103380001B0606D5026853680D490B40816C0B4340
:1033900053607047026853680A490B40416C0B4305
:1033A0005360ECE7FFFFFDFFFFFFFEFFFFFFFBFFAA
:1033B000FF7FFFFFFFEFFFFFFFDFFFFFFFFFEFFFDD
:1033C000FFFFF7FFFFFF9FFFF0B5C64600B5060001
:1033D0000C0017009846069D3368DB6923401B1BD1
:1033E0005A425341BB421CD16B1CF5D0FDF7D0FFB4
:1033F0004346C01AA84201D8002DEDD132681368A7
:103400000A490B40136032689368A331FF318B4344
:10341000936020237367B36750330022F254032074
:1034200000E0002004BC9046F0BDC0465FFEFFFFF8
:10343000F0B585B004000E0017001D00436F202B6F
:103440005FD1002960D0002A60D080235B018268B0
:103450009A4218D07023E35C012B59D070230122CB
:10346000E2540023E36721336367FDF791FF039084
:103470005023E7520233E75280235B01A2689A424D
:1034800008D0002716E00369002BE3D1CB07E1D574
:10349000012037E02369002B21D000270AE03B8878
:1034A0002268DB05DB0D936202375222A35A013BEF
:1034B0009BB2A3525223E35A9BB2002B12D0009529
:1034C000039B002280212000FFF77EFF002821D1EE
:1034D000002EE4D0327823689A620136E5E737009F
:1034E0000026E7E70095039B002240212000FFF71C
:1034F0006BFF002810D12023636750330022E25471
:1035000000E0022005B0F0BD0120FBE70120F9E753
:103510000220F7E70320F5E70320F3E730B583B097
:1035200004000023C367FDF733FF050023681B6811
:103530001B070CD423681B685B0715D42023636723
:10354000A36750330022E254002003B030BD802135
:103550000C4B00930300002289032000FFF734FF87
:103560000028E7D00320F0E78021064B00932B00D2
:103570000022C9032000FFF727FF0028DED0032028
:10358000E3E7C046FFFFFF0110B5041E2ED0436FD6
:10359000002B21D0242363672268136801218B4309
:1035A00013602000FFF7DEFC012814D0636A002BB3
:1035B00018D1226853680E490B4053602268936803
:1035C0002A218B4393602268136829390B431360C7
:1035D0002000FFF7A3FF10BD70330022C25400F09B
:1035E0008BF9D7E72000FFF77FFEE2E70120F2E743
:1035F000FFB7FFFF7047000070B588B014220021AC
:1036000003A800F07AFA1B4BD96A04221143D9624D
:10361000D96A0A400092009AD96A80221143D9627D
:10362000D96A0A400192019ADA6A01252A43DA62CC
:10363000DB6A2B400293029BA026F6050022202184
:103640003000FEF70DF880239B0103930A4B04938F
:103650000024059403A90948FDF734FF20230393B0
:1036600004950594069403A93000FDF72BFF08B0DC
:1036700070BDC0460010024000002110000800503C
:1036800010B50D4C0D4B23600D4B63600023A36000
:103690000122E26023616361A361E3612362200090
:1036A000FEF738F900212000FEF716FE0021200069
:1036B000FEF73EFE10BDC046A800002000540040AA
:1036C0005B3D300010B50948094B0360E1235B0204
:1036D000436000238360C36003610C224261836105
:1036E000C36103624362FFF74FFF10BD0801002072
:1036F0000044004030B59FB03822002110A800F0EF
:10370000FCF9142200210BA800F0F7F9282200216F
:1037100001A800F0F2F913490B68134A1A408023FC
:103720001B0113430B6002231093012513950E33E5
:10373000149300241A9410A8FEF77CFE0F230B9319
:103740000C950D940E940F9400210BA8FFF73AF9F5
:103750000A2301930594079401A8FFF72DFA1FB0DF
:1037600030BDC04600700040FFE7FFFF70B582B07B
:10377000FDF7EEFDFFF7BEFFFFF73EFFFFF780FF0F
:10378000FFF7A0FF1FE02E4B197801235B42009347
:1037900003332C4A2C48FEF7D9F9002828D00B22F5
:1037A0002A49284800F0A0F9264C2000FDF7A2FD88
:1037B000012382B25B4221002548FFF739FE9620A3
:1037C0004000FDF7EBFD1F4A224B1B7813701C4B8A
:1037D000197801235B42009302331B48FEF700F97E
:1037E0000028D0D00B221C49164800F07DF9DBE7F9
:1037F000144C2378DB00607840091843174B18807D
:10380000FDF790FB0022FF239B05FDF719F9FDF75B
:10381000C3FB1349FCF7FEFD124B1860FCF720FDBB
:1038200005006421FCF7F6FC0E0064212800FCF77B
:103830006BFC020033000C49200000F067F9B3E78D
:1038400008000020FC000020A80000201844000808
:1038500008010020900000200C440008F400002023
:103860000000C842F800002024440008054B5A6BB1
:1038700001210A435A63996B802252050A439A63D5
:103880007047C0460010024010B586B004001422F4
:10389000002101A800F031F92268154B9A4201D0AD
:1038A00006B010BD134CE26A01231A43E262E26AD9
:1038B0001A400092009AC022D20001921222029273
:1038C00003930233049303330593A02001A9C00599
:1038D000FDF7F8FDA26B80239B031343A363002233
:1038E00000211720FDF76CFD1720FDF799FDD7E7A4
:1038F000005400400010024010B586B004001422AD
:10390000002101A800F0F9F82268144B9A4201D076
:1039100006B010BD124B996B802292020A439A6343
:10392000D96A01221143D962DB6A1A400092009BD6
:103930000C2301930A3B0293013304930133059353
:10394000A02001A9C005FDF7BDFD002200211C201B
:10395000FDF736FD1C20FDF763FDD9E7004400406C
:10396000001002407047FEE77047704710B5FDF742
:1039700003FD10BD10B5074B1B689A69E023DB00FF
:103980001A4203D10348FEF797F910BD0148FEF72C
:1039900065FCFAE7A800002010B50248FFF736FAE8
:1039A00010BDC0460801002010B503000B4A126884
:1039B000002A08D0094A1068C3186A46934206D8FC
:1039C000064A136010BD054A05491160F2E700F090
:1039D00061F80C23036001204042F3E794000020CB
:1039E00090010020104B1968802252000A431A608F
:1039F000DA680E490A40DA601A680D490A401A600E
:103A00009A6801218A439A601A680A490A401A6032
:103A1000DA6809490A40DA6000221A61074B8022FD
:103A200012059A607047C046001002400C40FF88A3
:103A3000F6FFF6FEFFFFFBFFFFFF02FF00ED00E0D9
:103A40000D488546002103E00C4B5B584350043180
:103A50000B480C4B42189A42F6D30B4A02E0002363
:103A600013600432094B9A42F9D3FFF7BBFF00F011
:103A700017F8FFF77BFEFEE70050002074440008B3
:103A80000000002074000020740000208C01002041
:103A9000FEE70000014B18687047C0461000002088
:103AA00070B500260C4D0D4C641BA410A64209D124
:103AB000002600F029FC0A4D0A4C641BA410A64203
:103AC00005D170BDB300EB5898470136EEE7B3005F
:103AD000EB5898470136F2E76C4400086C44000844
:103AE0006C44000870440008002310B59A4200D1CD
:103AF00010BDCC5CC4540133F8E7030012189342A4
:103B000000D1704719700133F9E700000EB400B519
:103B10000B499CB01DAB0290069007910491094897
:103B2000094904CB0591006802A9019300F070F8DF
:103B30000023029A13701CB008BC03B01847C0469B
:103B4000FFFFFF7F100000200802FFFFF0B58E6826
:103B500085B007000C00039201939E423CD890234D
:103B60008A89DB001A4234D00325096923685B1A6D
:103B70000293636902985D43EB0F5D19019B6D1021
:103B800001331B18AB4200D91D00530532D5290063
:103B9000380000F019FB061E09D10C233B604023BE
:103BA0000120A28940421343A38105B0F0BD029ACF
:103BB0002169FFF799FFA389144A1A408023134310
:103BC000A381029B2661F61826606561019EED1AAD
:103BD000A560019B9E4200D9019E32000399206896
:103BE00000F095FAA36800209B1BA36023689E1930
:103BF0002660DAE72A00380000F044FB061EE0D118
:103C00002169380000F096FAC7E7C0467FFBFFFF46
:103C1000F0B5A1B003901D008B890F0016001B06A4
:103C200011D50B69002B0ED1402100F0CDFA386080
:103C30003861002805D10C23039A0138136021B0A4
:103C4000F0BD40237B61002308AC636120336376C1
:103C50001033A376079535002B78002B01D0252B48
:103C600046D1AB1B05930CD0320039000398FFF707
:103C70006DFF431C00D1AEE06269059B944663442E
:103C800063612B78002B00D1A5E001220023524272
:103C9000626004A9543252186E1C2360E360A36072
:103CA0001370A36531780522534800F025FA751C7E
:103CB00000281FD12268D30604D5532304A95B181A
:103CC00020211970130704D5532304A95B182B2155
:103CD000197033782A2B16D0350000210A20E368AA
:103CE0002A786E1C303A092A4ED9002918D010E0E3
:103CF0000135B1E7404B2268C01A012383401343CA
:103D000023602E00CEE7079B191D1B680791002B2F
:103D100001DB0B9304E05B42E36002231343236067
:103D20002B782E2B0AD16B782A2B35D1079B0235A5
:103D30001A1D1B680792002B2BDB09932F4E297845
:103D40000322300000F0D8F9002806D04023801B61
:103D500083402268013513432360297806222848CE
:103D60006E1C217600F0C8F900283CD0254B002BB2
:103D700025D10722079B07339343083307936369D1
:103D8000049A9B18636166E7434301219B18350041
:103D9000A6E701235B42D0E700230A201A00013581
:103DA000636029786E1C3039092903D9002BC5D0EE
:103DB0000992C3E74243012352183500F1E707ABEC
:103DC00000933A00104B2100039800E000BF0490DC
:103DD000049B0133D3D1BB890D985B0600D42EE739
:103DE000012040422BE707AB00933A00064B21002D
:103DF000039800F079F8EAE73044000836440008F8
:103E00003A440008000000004D3B0008F7B51500DB
:103E100001938A680B6900900C00934200DA13004A
:103E200022002B6043321278002A01D001332B602C
:103E300023689B0602D52B6802332B600627236874
:103E40001F4027D0230043331B785A1E934122681A
:103E5000920630D42200019943320098089EB04760
:103E6000431C25D0062320682A68E168034000250A
:103E7000042B03D18D1AEB43DB171D40A368226985
:103E8000934201DD9B1AED180027BD4220D100208E
:103E900010E00137E3682A689B1ABB42D2DD22009A
:103EA0000123193201990098089EB047431CF0D1B4
:103EB00001204042FEBD3020E1184331087021004E
:103EC0005A1C45310978A218433202331170C1E7F8
:103ED000220001231A3201990098089EB047431C22
:103EE000E6D00137D1E70000F0B589B004920A00AE
:103EF00043320593039002920A7E0C000E9B6E2AB9
:103F000000D186E01FD8632A33D008D8002A00D118
:103F10008CE0582A4DD0250042352A7030E0642AC2
:103F200001D0692AF7D1196825680A1D280629D504
:103F300008681A60002803DA2D23029A40421370A1
:103F40006B4E0A274FE0732A74D008D86F2A1FD00F
:103F5000702AE0D1202209680A43226003E0752A12
:103F600016D0782AD7D12200782145321170614EBF
:103F700022E025001A684235111D196013682B7064
:103F8000012365E008681A606906D3D500B2D1E75D
:103F900019682568081D186008682E0605D5544E56
:103FA00008276F2A1BD00A2719E06D06F7D580B2C3
:103FB000F5E745314E4E0A7018682268011D006809
:103FC0001960150621D5D30702D520231A43226094
:103FD0001027002803D1202322689A43226023005F
:103FE000002243331A706368A360002B58DB04225D
:103FF000216891432160002854D1029D002B5AD0A2
:104000002500337842352B7055E05506DBD580B25C
:10401000D9E71A680D68101D4969186013682E06E3
:1040200001D5196002E06D06FBD519800023029DC1
:1040300023614FE01A68111D19601568002162683C
:10404000280000F059F8002801D0401B6060636828
:1040500023610023029A13703CE023692A0004992B
:104060000398059DA847431C3ED023689B0715D4A1
:10407000079BE068984239DA180037E022000123F4
:10408000193204990398059EB047431C2CD0013582
:10409000E368079A9B1AAB42F0DCE9E70025F7E7F3
:1040A0000028ADD0029D3900FCF7B4F8735C013DE7
:1040B0002B700028F7D1082F09D12368DB0706D51C
:1040C00063682269934202DC3023013D2B70029B1E
:1040D0005B1B2361059B07AA00932100049B0398A7
:1040E000FFF794FE431CB8D10120404209B0F0BD57
:1040F0004144000852440008C9B28218904201D1DC
:104100000020704703788B42FBD00130F6E710B5F2
:10411000884202D98B18984203D3002307E08B5CB6
:104120008354013AFBD210BDCC5CC45401339A4293
:10413000FAD1F8E770B50500002910D00C1F2368EC
:10414000002B00DAE418280000F0D4F81D4A1368A8
:10415000002B05D163601460280000F0CCF870BD1E
:10416000A34209D9216860188342F3D118685B68BB
:1041700041182160EEE713005A68002A01D0A242DC
:10418000F9D919685818A0420BD120680918581895
:1041900019608242E0D110685268411819605A6073
:1041A000DAE7A04202D90C232B60D5E7216860181A
:1041B000824203D1106852684118216062605C60DD
:1041C000CAE7C0469C000020032370B5CD1C9D4368
:1041D000083506000C2D1ED20C25A9421DD8300032
:1041E00000F088F8254A14682100002919D1244CD0
:1041F0002368002B03D1300000F06AF8206029000A
:10420000300000F065F8431C2BD10C2330003360E4
:1042100000F071F803E0002DDFDA0C23336000209A
:1042200070BD0B685B1B19D40B2B03D90B60CC182A
:10423000256003E04B688C420DD11360300000F024
:104240005AF8200007220B30231D9043C31AE7D0F1
:104250005A42E250E4E763600C00EFE70C00496863
:10426000C3E70323C41C9C43A042E1D0211A3000C1
:1042700000F02EF8431CDBD1C7E7C0469C000020AD
:10428000A0000020F8B507000D001600002905D198
:104290001100FFF799FF04002000F8BD002A03D1A8
:1042A000FFF748FF3400F7E700F026F82C00B04293
:1042B000F2D231003800FFF787FF041EECD029004E
:1042C0003200FFF711FC29003800FFF733FFE3E766
:1042D000002370B5064C050008002360FFF764FB5F
:1042E000431C03D12368002B00D02B6070BDC04657
:1042F00088010020704770470B1F1B68181F002B98
:1043000001DA0B58C0187047F8B5C046F8BC08BCB5
:104310009E467047F8B5C046F8BC08BC9E4670473C
:10432000CE310008FC31000814320008C632000803
:104330004C320008C6320008C6320008C6320008F7
:10434000AC3200080A310008423100085C31000834
:10435000C831000894310008C8310008C83100088D
:10436000C8310008AE310008030406080C101820FC
:104370003000000000000000000000000102030403
:104380000607080900000000010203040C050008EC
:10439000B6040008B6040008E4050008B2040008EA
:1043A000B2040008DA050008E4050008B2040008B9
:1043B000DA050008B2040008E4050008E805000872
:1043C000E8050008E8050008F0050008F80B0008FB
:1043D000FA0A0008FA0A0008180E0008F40A000891
:1043E000F40A0008000E0008180E0008F40A00087D
:1043F000000E0008F40A0008180E00080E0E00084F
:104400000E0E00080E0E00081C0E00084572726F9A
:10441000722054780D0A00004572726F7220527833
:104420000D0A000025752E2532752043200D0A0047
:10443000232D302B2000686C4C006566674546478D
:104440000030313233343536373839414243444510
:10445000460030313233343536373839616263647F
:04446000656600008D
:084464002CBEFF7F01000000E7
:04446C00E90000085B
:04447000C10000087F
:104474000100000004000000900000000000200083
:1044840014000020000000000000000000000000F4
:104494000000000000000000000000000000000018
:1044A4000000000000000000000000000000000008
:1044B40000000000000000000000000000000000F8
:1044C40000000000000000000000000000000000E8
:1044D40000000000000000000000000000000000D8
:0444E40000000000D4
:0400000508003A4174
:00000001FF
