:020000040800F2
:1000000000500020212F00086D0E00086F0E000820
:1000100000000000000000000000000000000000E0
:10002000000000000000000000000000710E000849
:100030000000000000000000730E0008750E0008AC
:10004000712F0008712F0008712F0008712F000810
:10005000712F0008712F0008712F0008712F000800
:10006000712F0008712F0008712F0008712F0008F0
:10007000712F0008712F0008712F0008712F0008E0
:10008000712F0008712F0008712F00080000000078
:10009000712F0008712F0008712F0008712F0008C0
:1000A000712F0008712F0008712F0008712F0008B0
:1000B000712F0008712F0008712F0008712F0008A0
:1000C00010B5064C2378002B07D1054B002B02D02E
:1000D000044800E000BF0123237010BD1000002081
:1000E00000000000CC2F0008044B10B5002B03D0FB
:1000F0000349044800E000BF10BDC04600000000F6
:1001000014000020CC2F0008002243088B4274D337
:1001100003098B425FD3030A8B4244D3030B8B4208
:1001200028D3030C8B420DD3FF22090212BA030C11
:100130008B4202D31212090265D0030B8B4219D3F2
:1001400000E0090AC30B8B4201D3CB03C01A524112
:10015000830B8B4201D38B03C01A5241430B8B425A
:1001600001D34B03C01A5241030B8B4201D30B0343
:10017000C01A5241C30A8B4201D3CB02C01A52416A
:10018000830A8B4201D38B02C01A5241430A8B422D
:1001900001D34B02C01A5241030A8B4201D30B0216
:1001A000C01A5241CDD2C3098B4201D3CB01C01A30
:1001B000524183098B4201D38B01C01A524143093A
:1001C0008B4201D34B01C01A524103098B4201D328
:1001D0000B01C01A5241C3088B4201D3CB00C01A95
:1001E000524183088B4201D38B00C01A524143080D
:1001F0008B4201D34B00C01A5241411A00D2014632
:10020000524110467047FFE701B5002000F006F8A4
:1002100002BDC0460029F7D076E770477047C04658
:10022000002B11D1002A0FD1002900D1002802D0C3
:100230000021C943081C07B4024802A140180290DB
:1002400003BDC046D9FFFFFF03B4684601B502985D
:1002500000F030F8019B9E4602B00CBC7047C046CF
:10026000F0B5CE46474615042D0C2E0080B5070488
:10027000140C3F0C9946030C7E435D436743634374
:100280007F19340CE4199C46A54203D980235B02F4
:100290009846C4444B4643435143250C36046544B9
:1002A000360C2404A4195B19591820000CBC904684
:1002B0009946F0BDF0B54F464646D646C0B5040057
:1002C00082B00D00914698468B422FD82CD04146E3
:1002D000484600F0B1F829000600200000F0ACF814
:1002E000331A9C46203B9A4600D576E04B46524650
:1002F00093401F004B46624693401E00AF4228D8F1
:1003000025D05346A41BBD41002B00DA7BE0002220
:10031000002300920193012352469340019301234D
:1003200062469340009318E08242D0D90022002315
:10033000009201930A9B002B01D01C605D60009825
:10034000019902B01CBC90469946A246F0BDA3425A
:10035000D7D900220023009201936346002BE9D0F5
:10036000FB079846414672080A437B0866460EE042
:10037000AB4201D1A2420CD8A41A9D4101202419FC
:100380006D410021013E24184D41002E06D0AB42A4
:10039000EED9013E24196D41002EF8D10098019943
:1003A000534600196941002B23DB2B005246D340F2
:1003B0002A006446E2401C0053461500002B2DDB4A
:1003C00026005746BE40330026006746BE40320036
:1003D000801A994100900191ACE7624620239B1A54
:1003E0004A46DA406146130042468A4017001F43DE
:1003F00080E7624620239B1A2A0066469A40230023
:10040000F3401343D4E76246202300219B1A0022C5
:10041000009101920122DA40019280E72023624696
:1004200026009B1ADE402F00B0466646B74046467F
:100430003B003343C8E7C04610B5002903D100F0A4
:1004400007F8203002E0081C00F002F810BDC0469A
:100450001C2101231B04984201D3000C10391B0AF4
:10046000984201D3000A08391B09984201D30009B8
:10047000043902A2105C40187047C046040302020F
:1004800001010101000000000000000070B515002E
:100490001C00CAB2A026F6050100300000F071FE73
:1004A000E2B22900300000F06CFE70BD10B5424B86
:1004B0001A78042A13D89300404AD3589F468022C2
:1004C00080200023920000214001FFF7DFFF8022FF
:1004D0008020002312010021C000FFF7D7FF10BDCC
:1004E000374B1B6800245C63FA2292009A638022D7
:1004F00080200023920000214001FFF7C7FF8022E7
:100500008020012312010121C000FFF7BFFF2A4B09
:100510001C70E4E72A4B1B68FA2292005A630024FD
:100520009C63802280200023920000214001FFF77D
:10053000ADFF80228020012312010121C000FFF7BE
:10054000A5FF1D4B1C70CAE71D4B1B68FA229200C9
:100550005A639A6380228020002392000021400188
:10056000FFF794FF80228020012312010121C000A7
:10057000FFF78CFF0A2000F0CFFC0F4B00221A700F
:10058000ADE70F4B1B68FA2252005A639A63753A23
:10059000FF3A8020002312010021C000FFF776FF00
:1005A000802280200123920001214001FFF76EFF8D
:1005B000014B00221A7092E732000020E42F00085D
:1005C0004400002010B500F089F9074C00212000FC
:1005D00002F086F80421200002F082F800F0E8F929
:1005E000FFF764FFFAE7C0464400002030B587B04B
:1005F0000F246C44207017256D4400232B7080213C
:1006000000224900144800F0BCFDFA239B0000932F
:1006100001232A002100114801F060FD104B1870E1
:100620002378072B0CD016216944FF230B70FA2383
:100630009B000093012317226A44084801F04EFDF5
:10064000802101224900044800F09BFD17236B44E0
:10065000187807B030BDC046000800508400002064
:1006600033000020F0B583B06B46DD1D9C1D9971F1
:100670002023184328700022802149000C4800F0F4
:1006800080FDFA27BF000B4E3B00012229003000FD
:1006900001F052FC3B0001222100300001F04CFC33
:1006A000012280214900024800F06BFD03B0F0BD3B
:1006B000000800508400002010B582B001AC502327
:1006C0002370802100224900114800F05AFDFA23CE
:1006D0009B00012221000F4801F02EFC0E4B1868F0
:1006E0000E49FFF711FD03000138002BFBD101A9D2
:1006F00073330B7087339B000122064801F01CFC0A
:10070000802101224900024800F03BFD02B010BDEB
:10071000000800508400002004000020405489009C
:10072000F0B585B00191029202ABDC1DD871802535
:100730006D00002229000D4800F023FDFA27BF00BC
:100740000B4E3B0001222100300001F0F5FB6B460F
:100750001A893B000199300001F0D6FD01222900E1
:10076000024800F00EFD05B0F0BDC0460008005084
:100770008400002070B582B00D0014006B46DE1DB1
:10078000202318433070802100224900104800F0D7
:10079000F8FCFA239B00012231000E4801F0CCFB4B
:1007A0000D4B18680D49FFF7AFFC03000138002B13
:1007B000FBD1FA33A2B29B002900064801F0BCFB32
:1007C000802101224900024800F0DBFC02B070BD2C
:1007D00000080050840000200400002040548900DC
:1007E00010B582B001ACE2232370802100224900C1
:1007F0000D4800F0C6FCFA239B00012221000B48A3
:1008000001F09AFB0A4B18680A49FFF77DFC0300C8
:100810000138002BFBD1802101224900024800F061
:10082000B0FC02B010BDC04600080050840000209B
:10083000040000204054890010B582B001ACE123CF
:1008400023708021002249000D4800F09AFCFA2311
:100850009B00012221000B4801F06EFB0A4B186837
:100860000A49FFF751FC03000138002BFBD180211E
:1008700001224900024800F084FC02B010BDC046CD
:10088000000800508400002004000020405489002B
:1008900010B50020FFF7AAFE03210143C9B20020D2
:1008A000FFF7E0FE802101228900094800F069FC81
:1008B0009624084B18680849FFF726FC4443230098
:1008C000013C002BFBD1FFF78BFFFFF7B5FF10BDFD
:1008D00000080050040000204054890010B5802119
:1008E000002289002D4800F04CFC2D4C2D4B18683F
:1008F0002D49FFF709FC44432300013C002BFBD1A9
:100900000A210020FFF7AEFE254C264B1868264929
:10091000FFF7FAFB44432300013C002BFBD10221EB
:100920000120FFF79FFE02210220FFF79BFE01211D
:100930000320FFF797FE5F210420FFF793FEFFF7E8
:10094000BBFE00211D20FFF78DFE00211C20FFF7BC
:1009500089FE70210720FFF785FE4C210520FFF757
:1009600081FE06210620FFF77DFE104C03222100A8
:100970001020FFF7FFFE032221000B20FFF7FAFEF5
:1009800005211220FFF76EFEFFF782FF8021012272
:100990008900024800F0F5FB10BDC0460008005079
:1009A000881300000400002040548900000000204B
:1009B00010B51021254800F0DDFB0128F9D00720F3
:1009C000FFF714FE0A24224B18682249FFF79CFB0C
:1009D00044432300013C002BFBD10720FFF706FE18
:1009E000430600D410BDA02001222021C00500F044
:1009F000C8FB194C052221006120FFF791FE2378E6
:100A0000002B10D1154B01221A7040210720FFF74F
:100A100029FEA02000222021C00500F0B2FB1048D2
:100A200000F0E6FBDEE7012B07D0022B09D0032BF9
:100A3000EBD10A4B04221A70E7E7084B02221A7026
:100A4000E3E7064B03221A70DFE7C04600080050B8
:100A500004000020405489002C00002032000020B7
:100A600034000020F0B589B01422002103A802F060
:100A7000A5FA1E4BDA6A01252A43DA62DA6A2A40AD
:100A80000092009AD96A04221143D962D96A0A40B5
:100A90000192019AD96A02221143D962DB6A1A4093
:100AA0000292029BF1246401A027FF05002221008D
:100AB000380000F066FBC426B600002231000C4866
:100AC00000F05FFB0394049500240594069403A9A9
:100AD000380000F081FA039604950594069403A962
:100AE000034800F079FA09B0F0BDC046001002409A
:100AF0000008005072B6FEE710B50748074B0360C8
:100B000004234360064BC360836000F041FB002870
:100B100000D110BDFFF7EEFF340000200030004090
:100B2000FF0F000010B50D480D4B036082235B00E2
:100B3000436000238360C3600361436180229200AD
:100B40008261C3610362436283620733C36201F05F
:100B50008DF9002800D110BDFFF7CCFF84000020E4
:100B60000030014000B58BB01022002106A802F031
:100B700025FA0822002104A802F020FA1022002100
:100B8000684602F01BFA2B482B4B0360132343608B
:100B900000238360FA229200C2600361436101F086
:100BA00056FD002837D180235B01069306A9214812
:100BB00001F06EFE002830D11E4801F06DFD0028C6
:100BC0002DD100230493059304A91A4801F0D2FE05
:100BD000002826D1602300939533FF33019300232F
:100BE0000293039300226946124801F0E1FD0028B8
:100BF00019D104210F4801F0F3FE002815D1042279
:100C000069460C4801F0D4FD002810D1094800F0D5
:100C1000D9F80BB000BDFFF76DFFFFF76BFFFFF7D3
:100C200069FFFFF767FFFFF765FFFFF763FFFFF758
:100C300061FFC046440000200004004010B50B488E
:100C40000B4B0360E1235B02436000238360C360BE
:100C500003610C2242618361C3610362436202F05B
:100C600029F9002800D110BDFFF744FFDC00002067
:100C70000044004000B59FB03822002110A802F0C7
:100C80009DF9142200210BA802F098F928220021D6
:100C900001A802F093F91B490B681B4A1A408023F4
:100CA0001B0113430B600A231093093B139310227B
:100CB0001492159300231A9310A800F0F9FA002853
:100CC0001AD10F230B930E3B0C9300230D930E931D
:100CD000E023DB000F9300210BA800F0B5FD0028F6
:100CE0000CD1022301930023059301A800F0BEFE5E
:100CF000002805D11FB000BDFFF7FCFEFFF7FAFE8C
:100D0000FFF7F8FE00700040FFE7FFFF10B500F0AE
:100D1000DDF8FFF7AFFFFFF7A5FEFFF7EDFEFFF7EA
:100D200001FFFFF71FFFFFF789FFFFF74BFCFEE70F
:100D3000054B5A6B01210A435A63996B8022520575
:100D40000A439A637047C0460010024010B586B04F
:100D500004001422002101A802F030F922680E4B91
:100D60009A4201D006B010BD0C4B596B8022520143
:100D70000A435A63D96A02221143D962DB6A1340DB
:100D80000093009B382301930292353B049301A901
:100D9000034800F021F9E5E700300140001002406F
:100DA000000400500268054B9A4200D07047044A84
:100DB000936B02210B439363F8E7C04600040040A5
:100DC0000010024010B586B004001422002101A8D2
:100DD00002F0F4F822680C4B9A4201D006B010BD24
:100DE0000A4AD16A01231943D162D26A134000939F
:100DF000009BC0230193BE3B02930593A02001A951
:100E0000C00500F0E9F8E9E70004004000100240E6
:100E100010B586B004001422002101A802F0CEF81B
:100E20002268104B9A4201D006B010BD0E4B996B50
:100E3000802292020A439A63D96A01221143D9623D
:100E4000DB6A1A400092009B0C2301930A3B029339
:100E50000133049301330593A02001A9C00500F0DC
:100E6000BBF8E1E70044004000100240FEE7FEE767
:100E70007047704710B500F03DF810BD7047000096
:100E800010B504000F4B1978FA208000FFF73CF9E9
:100E900001000D4B1868FFF737F900F081F80028C2
:100EA0000DD1032C01D901200AE0013000222100DC
:100EB000404200F043F8034B5C60002000E001205A
:100EC00010BDC046080000200400002010B5084AEC
:100ED000136840210B4313600020FFF7D1FF041E6D
:100EE00002D00124200010BDFFF722FFFAE7C04620
:100EF00000200240034A1168034B1B785B18136003
:100F00007047C0466001002008000020014B1868AF
:100F10007047C0466001002070B50400FFF7F6FF7F
:100F20000500631C02D0044B1B78E418FFF7EEFFAA
:100F3000401BA042FAD370BD0800002070B5002805
:100F400011DB8308144DC0339B005C590322104011
:100F5000C000FC3216008640B44389010A4082403A
:100F600022435A5170BDC0B20F230340083B9B0877
:100F700006339B00094A944663445D68032420407D
:100F8000C000FF2214008440A54389011140814024
:100F900029435960E6E7C04600E100E000ED00E0CB
:100FA00001380A4B98420FD8094A50600948036A31
:100FB0001B021B0AC02109060B4303620023936036
:100FC00007331360002070470120FCE7FFFFFF009C
:100FD00010E000E000ED00E0F0B5CE46474680B5F9
:100FE000002333E0052600E00026AE4035003D43F7
:100FF0000234A400574EA551574C2568D4432E0007
:1010000026404F68FF0301D515432E00524D2E6038
:101010006D682E0026404F68BF0301D515432E0092
:101020004D4D6E60AD682E0026404F68FF0201D521
:1010300015432E00484DAE60ED682C404E68B60258
:1010400001D52A431400444AD46001330A681400CD
:10105000DC407AD001249C402240F6D04D686E1EC0
:10106000012E03D9112D01D0122D12D185685F00F8
:101070000326BE40B5432E00CD68BD403543856094
:101080004568A5434C682609012434409C402C4304
:101090004460C7685E000324B440E443A44627408C
:1010A0008D68B5403D43C5604C68022C01D0122CC0
:1010B00010D1DC080834A400A146275807251D409C
:1010C000AD000F24AC40A7430C69AC4025003D4364
:1010D0004C46255005686446254003244F683C4033
:1010E000B4402C4304604C68E400AED51B4D6C6BDF
:1010F000012634436C639C08A51CAD00154EAF5906
:1011000003261E40B5000F26AE40B743A026F605C5
:10111000B04200D168E7124EB0420ED0114EB0423C
:101120000DD0114EB0420CD0104EB0420BD0104E2C
:10113000B04200D156E7062657E7012655E70226BA
:1011400053E7032651E704264FE70CBC9046994627
:10115000F0BDC04600000140000401400010024004
:101160000004005000080050000C00500010005017
:10117000001C005003690B4201D100207047012080
:10118000FCE7002A01D1816270478161FCE7000021
:1011900070B5041E24D00368124A1A600368124A0C
:1011A0001A60036842685A60036882689A60FFF7B1
:1011B000ADFE05002368DA68002A06D0FFF7A6FE18
:1011C000401B2928F6D903200BE01969E2689142F7
:1011D00002D01A61002004E0044A1A60002000E0F6
:1011E000012070BDCCCC000055550000AAAA00001B
:1011F0000368024A1A6000207047C046AAAA00008D
:1012000010B5264BDA680C231340082B42D00C2B68
:1012100011D0042B09D0214B5A68520B07231340DD
:10122000013380200002984010BD1C4B1B68DB0678
:1012300032D51B48F8E7910C0F230B401949C85CC5
:10124000920D03231A40541C144BDB68DB030DD4AE
:10125000124B1B68DB0613D5114A00230021FEF751
:10126000FFFF22000023FEF7DBFFDDE70E4A00232D
:101270000021FEF7F5FF22000023FEF7D1FFD3E7A0
:101280000A4A00230021FEF7EBFF22000023FEF7AD
:10129000C7FFC9E70448C7E70448C5E70010024094
:1012A00000093D00F82F000800127A000024F40025
:1012B000F0B583B0041E00D1A3E2C54BDA680C255B
:1012C0001540DA688026760216400368DB0736D5BB
:1012D000082D2CD00C2D28D0636880225202934216
:1012E00055D0A022D202934258D0B94B1A68B949BE
:1012F0000A401A601A68802149020A400192019A44
:101300001A68B5490A401A606368002B52D0FFF78B
:10131000FDFD0700AE4B1B689B0310D4FFF7F6FDE5
:10132000C01B6428F6D903206CE2002ED4D0A84B51
:101330001B689B0303D56368002B00D164E223681C
:101340009B076DD5E3689A0605D5A1480268202160
:101350000A4302608B43042D3CD00C2D38D0002B67
:1013600000D1B0E09A490A680920824313430B6018
:10137000FFF7CCFD0600964B1B685B0700D599E094
:10138000FFF7C4FD801B0228F5D903203AE2904AFA
:10139000116880235B020B431360B5E78C4B19681F
:1013A0008022D2020A431A601968802252020A433C
:1013B0001A60A9E7FFF7AAFD0700854B1B689B038E
:1013C000BDD5FFF7A3FDC01B6428F6D9032019E2A1
:1013D000002EC4D17E4A1268520702D5002B00D1DC
:1013E00014E27B4E72687D490A40216909020A4372
:1013F0007260326809218A4313433360FFF700FFAC
:10140000F26812090F231340754AD35CD840754B1C
:101410001860754B1868FFF733FD002800D0F1E124
:101420002368DB062DD5002D60D1694B1B689B0519
:1014300003D5E369002B00D1EAE1654A53686B49A3
:101440000B40616A0B43536053681B021B0A216AFD
:1014500009060B435360636A590B013180231B0259
:101460008B40D16809090F220A405D498A5CD3404C
:101470005C4A13605C4B1868FFF702FD002800D03F
:10148000C0E123681B077DD56369002B67D0504AF4
:10149000136D01210B431365FFF738FD06004C4B1C
:1014A0001B6D9B076ED4FFF731FD801B0228F6D918
:1014B0000320A7E146494B68484A134022691202BB
:1014C00013434B60ACE7424A136801218B4313601E
:1014D000FFF71CFD06003E4B1B685B07A0D5FFF71E
:1014E00015FD801B0228F6D903208BE1E369002B50
:1014F00022D0374A116880235B000B431360FFF74B
:1015000005FD0600324B1B689B0506D4FFF7FEFC69
:10151000801B0228F6D9032074E12D4A5368334911
:101520000B40616A0B43536053681B021B0A216A1C
:1015300009060B435360A4E7254A13682C490B4066
:101540001360FFF7E3FC0600214B1B689B0598D551
:10155000FFF7DCFC801B0228F6D9032052E11C4A6D
:10156000136D01218B431365FFF7D0FC0600184B68
:101570001B6D9B0706D5FFF7C9FC801B0228F6D917
:1015800003203FE123685B0700D48EE0104B9B6B88
:10159000DB001BD40E4A916B80235B050B439363E6
:1015A0000126144B1B68DB0528D5A3688022520056
:1015B000934237D0002B4DD1054B1A6D0C490A4090
:1015C0001A651A6D0C490A401A6531E00026E8E7F1
:1015D00000100240FFFFFEFFFFFFFBFFFFE0FFFFE9
:1015E00004300008040000200C000020FF1FFFFF53
:1015F000FFFEFFFF00700040FFFBFFFF884A1168FD
:1016000080235B000B431360FFF780FC0700844BD3
:101610001B68DB05C9D4FFF779FCC01B6428F6D929
:101620000320EFE07F4A116D80235B000B431365BD
:10163000A368002B28D0FFF769FC0700794B1B6DCE
:101640009B0530D4FFF762FCC01B774B9842F5D95D
:101650000320D7E0A022D200934209D0714B1A6D2B
:1016600072490A401A651A6D71490A401A65DFE726
:101670006C4B196D013AFF3A0A431A65196D8022C5
:1016800052000A431A65D3E7FFF740FC0700654B99
:101690001B6D9B0507D5FFF739FCC01B624B9842B9
:1016A000F5D90320AEE0012E21D023689B063CD55E
:1016B000A369002B21D05B4B9968012001439960FD
:1016C0005A6B02435A635B4A116A80239B010B43A6
:1016D0001362FFF71BFC0600524B9B689B0724D448
:1016E000FFF714FC801B0228F6D903208AE04D4A3C
:1016F000936B51490B409363D7E74A4A93680121A2
:101700008B4393604B4A136A4C490B401362FFF7BB
:10171000FDFB0600434B9B689B0706D5FFF7F6FBD6
:10172000801B0228F6D903206CE0A36A002B00D1AD
:1017300070E00C2D49D0022B12D03A4A1368404970
:101740000B401360FFF7E2FB0400364B1B689B0164
:1017500039D5FFF7DBFB001B0228F6D9032051E047
:10176000304A136836490B401360FFF7CFFB050082
:101770002C4B1B689B0106D5FFF7C8FB401B0228BA
:10178000F6D903203EE02749CB682E4A1340E26A8F
:10179000206B0243606B02431343CB600A688023D3
:1017A0005B0413430B60FFF7B1FB04001D4B1B6888
:1017B0009B0106D4FFF7AAFB001B0228F6D90320E1
:1017C00020E000201EE000201CE0012B24D0154B5F
:1017D000DA6880235B021340E16A8B4201D001206A
:1017E00010E0F0239B031340216B8B4201D00120BA
:1017F00008E0C0231B041A40636B9A420ED00120FC
:1018000000E0012003B0F0BD0120FBE70120F9E773
:101810000120F7E70020F5E70120F3E70020F1E7DA
:10182000007000400010024088130000FFFEFFFF20
:10183000FFFBFFFF00000140FFFFFFEFFFDFFFFFA7
:10184000FFFFFFFEFFFF02FF70B505000C00002840
:1018500000D1D1E06A4B1A68012313408B4219D39F
:101860002B689B0706D5674AD368F0218B43A9688C
:101870000B43D3602B68DB077BD56B68022B20D032
:10188000032B40D0012B44D05E4A126892051DD430
:10189000012099E05A4A136801218B4323431360C6
:1018A000FFF734FB0600564B1A6801231340A3428E
:1018B000D6D0FFF72BFB801B534B9842F3D9032064
:1018C00082E0504A1268920300D497E04D49CA68FA
:1018D000032082431343CB60FFF718FB06006B68BD
:1018E000022B1CD0032B28D0012B34D0454BDB68B6
:1018F0000C221A423DD0FFF709FB801B424B984255
:10190000F4D9032060E03F4A12689201DED401203E
:101910005AE03C4A12685207D8D4012054E0394BAF
:10192000DA680C231340082B23D0FFF7EFFA801B53
:10193000354B9842F3D9032046E0324BDA680C234A
:1019400013400C2B15D0FFF7E1FA801B2E4B984269
:10195000F3D9032038E02B4BDA680C231340042B17
:1019600007D0FFF7D3FA801B274B9842F3D9032007
:101970002AE0234B1A6801231340A34225D82B6881
:101980005B0706D51F4AD36820490B40E9680B4323
:10199000D3602B681B0707D51A49CB681C4A134034
:1019A0002A69D2001343CB60FFF72AFC154BDA6893
:1019B00012090F231340174AD35CD840164B186006
:1019C000164B1868FFF75CFA70BD0D4A13680121C9
:1019D0008B4323431360FFF799FA0600084B1A68FC
:1019E00001231340A342CAD0FFF790FA801B064B95
:1019F0009842F3D90320E7E70120E5E70120E3E778
:101A0000002002400010024088130000FFF8FFFF92
:101A1000FFC7FFFF04300008040000200C00002076
:101A2000014B18687047C0460400002010B5FFF74E
:101A3000F7FF044BDA68120A07231340024AD35C0B
:101A4000D84010BD001002401430000810B5FFF758
:101A5000E7FF044BDA68D20A07231340024AD35C3B
:101A6000D84010BD001002401430000870B50400CA
:101A700082231B0102681A425AD0754B9B6BDB0014
:101A800000D59DE0724A916B80235B050B43936305
:101A90000125704B1B68DB0500D493E06C4B1A6882
:101AA000C0239B031A4061680B40934200D19EE023
:101AB000C0239B020A001A409A4200D19FE0644B67
:101AC0001B6DC022920213401FD01140994202D0D8
:101AD0002268920608D4C0229202A1680A409A4263
:101AE00013D023681B0510D5594B186D5A4A024074
:101AF0001E6D8021090331431965196D574E314020
:101B000019651A65C30500D580E06368C02292029A
:101B100019001140914200D188E04D490B6DC0225F
:101B200092026068024013430B65012D00D187E0EB
:101B30002368DB0706D5464AD36C03218B43E16853
:101B40000B43D36423689B0706D5414AD36C0C2111
:101B50008B4321690B43D36423685B0706D53C4A5A
:101B6000D36C3F490B4061690B43D36423681B0767
:101B700006D5374AD36C3B490B40A1690B43D3646C
:101B80002368DB0506D5324AD36C33490B40E16943
:101B90000B43D36423685B0606D52D4AD36C3249C8
:101BA0000B40616A0B43D36423681B064ED5284A59
:101BB000D36C2E490B40216A0B43D364002070BDC7
:101BC000002566E7234A116880235B000B431360FE
:101BD000FFF79CF906001F4B1B68DB0500D55DE78E
:101BE000FFF794F9801B6428F5D90320E7E7C023A9
:101BF0009B03A0680340934200D059E75FE7144B72
:101C00001B689B0300D45AE70120D8E7FFF77EF951
:101C100006000F4B1B6D9B0500D576E7FFF776F9A5
:101C2000801B134B9842F4D90320C8E708490A687F
:101C300010480240C0208003034013430B606CE750
:101C40000A008B6B0C490B40936371E70020B6E7E9
:101C50000010024000700040FFFFFCFFFFFFF7FF95
:101C6000FFF3FFFFFFCFFFFFFFFFFFFBFFFFF3FFD0
:101C700088130000FFFFCFFFFFFFFFEFF0B5CE4658
:101C8000474680B583B005000C0017001E00FFF723
:101C90003DF90A9B181A8046B044FFF737F9814690
:101CA0002C4B1B685B011B0D4246534301932B6871
:101CB0009B6823401B1B5A425341BB4244D0731CB8
:101CC000F5D0FFF723F94B46C01A40450AD24346E8
:101CD000002B07D0019B002B00D19846019B013BB4
:101CE0000193E4E72A685368E0218B435360822321
:101CF0005B006A689A420CD080239B01AA6A9A42D0
:101D000016D051230122EA54013B0022EA54032059
:101D10001BE0AB6880221202934203D08022D200E3
:101D20009342E9D12A68136840218B431360E3E7AB
:101D30002A68136808490B4013602A6811688023D9
:101D40009B010B431360DCE7002003B00CBC904602
:101D50009946F0BD04000020FFDFFFFF70B584B09E
:101D600004000D001600174B18681749FEF7CCF950
:101D700043011B1A9B001818C300039382235B00C6
:101D800062689A420BD0039B002B17D0039B013B48
:101D9000039323689B681B06F5D400200FE0009690
:101DA0002B00002280212000FFF768FF002806D0CA
:101DB000636D202213436365032000E0002004B01C
:101DC00070BDC0460400002000366E0130B583B0FF
:101DD0000400822040006368834218D082204000C3
:101DE0006368834231D18023DB00A06898421DD014
:101DF00000920B00002280212000FFF73FFF002807
:101E00002CD0636D202213436365032026E0A36872
:101E100080200002834203D08020C0008342DDD1B5
:101E2000206803684025AB430360D7E700920B00AE
:101E3000002201212000FFF721FF00280ED0636D52
:101E4000202213436365032008E000920B00002268
:101E500001212000FFF712FF002801D103B030BD9F
:101E6000636D2022134363650320F7E770B5041EFA
:101E70005ED0436A002B07D10533FF3342689A4294
:101E800005D00023C36102E0002303614361002306
:101E9000A3625133E35C002B43D051220221A154B1
:101EA000206803684025AB43036082235B006068C1
:101EB000034084200002A5682840034380200001DD
:101EC000E56828400343206901400B430121606914
:101ED0000840034380208000A56928400343382040
:101EE000E569284003438020256A28400343802079
:101EF0008001A56A2840256803432B60608B04237A
:101F000003401020656A2840256803436B60206801
:101F1000C369084D2B40C36100236365A1540020B1
:101F200070BD50330022E2542000FEF70FFFB4E7EB
:101F30000120F5E7FFF7FFFFF0B585B00400019140
:101F400016001F005023C35C012B00D1C4E05023B6
:101F50000122C254FEF7DAFF05005123E35C012B96
:101F600008D0022051230122E254013B0022E25416
:101F700005B0F0BD0199002900D19FE0002E00D1ED
:101F80009EE050330322E254002363652163A6865A
:101F9000E686A363A387E3876364236480231B022D
:101FA000A2689A421DD023681A68520603D41A68A0
:101FB00040210A431A6080231B01E2689A421CD028
:101FC0006368002B01D0012E4DD1236B1B78226852
:101FD0001373236B01332363E38E013B9BB2E386D0
:101FE00041E02268136840218B4313602268116826
:101FF0008023DB010B431360D5E76368002B01D01E
:10200000012E14D12368226B1288DA60236B02330D
:102010002363E38E013B9BB2E38608E0FEF776FF85
:10202000401BB84201D37B1C4CD1002F4CD0E38E17
:102030009BB2002B2AD023689A689207EED5226BB8
:102040001288DA60236B02332363E38E013B9BB279
:10205000E386ECE7FEF75AFF401BB84201D37B1C36
:1020600034D1002F34D0E38E9BB2002B0ED02368E6
:102070009A689207EED5226B12781A73236B01339C
:102080002363E38E013B9BB2E386ECE72A00390031
:102090002000FFF763FE002801D020236365A368BA
:1020A000002B06D103932368DA6803929B6803939D
:1020B000039B636D002B0DD1002053E7012051E7F6
:1020C00001204FE703204DE703204BE7032049E7BA
:1020D000032047E7012045E7022049E7F0B585B036
:1020E00004000E0001921D005023C35C012B00D19F
:1020F00008E150230122C254FEF708FF07005123D4
:10210000E35CDBB26268012B14D0822149008A4271
:1021100008D0022051230122E254013B0022E25464
:1021200005B0F0BDA268002A00D0DDE0042B01D08C
:102130000220EFE7002E00D1D8E0019B002B00D158
:10214000D6E0002D00D1D5E05123E35C042B02D072
:1021500051230522E25400236365019AA263E587B7
:10216000A5872663E586A5862364636423681A68C9
:10217000520603D41A6840210A431A6080231B01C7
:10218000E2689A4211D06368002B01D0012D0AD178
:10219000236B1B7822681373236B01332363E38E55
:1021A000013B9BB2E386012569E06368002B01D007
:1021B000012D0AD12368226B1288DA60236B023367
:1021C0002363E38E013B9BB2E38601251BE023687A
:1021D0009A68D2070ED5E28F92B2002A0AD0DB6845
:1021E000A26B1380A36B0233A363E38F013B9BB20B
:1021F000E3870125FEF78AFEC01B0A9B984202D3A3
:10220000013300D078E0E38E9BB2002B03D1E38F43
:102210009BB2002B51D023689A689207D7D5E28EE3
:1022200092B2002AD3D0012DD1D1226B1288DA606C
:10223000236B02332363E38E013B9BB2E3860025CD
:10224000C5E723689A68D2070ED5E28F92B2002ABA
:102250000AD0DB68A26B1370A36B0133A363E38F17
:10226000013B9BB2E3870125FEF750FEC01B0A9B92
:10227000984201D3013341D10A9B002B40D0E38E19
:102280009BB2002B03D1E38F9BB2002B15D02368A8
:102290009A689207D5D5E28E92B2002AD1D0012D4C
:1022A000CFD1226B12781A73236B01332363E38E31
:1022B000013B9BB2E3860025C3E73A000A99200060
:1022C000FFF74CFD002803D020236365012021E7A0
:1022D000A368002B00D01DE703932368DA680392FC
:1022E0009B680393039B15E7022013E7012011E786
:1022F00001200FE701200DE703200BE7032009E78A
:10230000032007E702200BE7F0B585B004000D00BD
:1023100016001F0082235B0042689A4217D05023A8
:10232000E35C012B00D1A1E050230122E254FEF72F
:10233000EDFD03905123E35C012B14D002205123C7
:102340000122E254013B0022E25405B0F0BD836853
:10235000002BE4D151330422C254009733000A0009
:10236000FFF7BCFEF1E7002D72D0002E72D0503383
:102370000422E25400236365A563A687E6872363EE
:10238000A386E3862364636480231B02A2689A42C7
:102390000BD023681A68520603D41A6840210A43F6
:1023A0001A60E368002B15D031E0226813684021E1
:1023B0008B431360226813682D490B401360E8E7D4
:1023C000FEF7A4FD039BC01AB84201D37B1C43D186
:1023D000002F43D0E38F9BB2002B2BD023689A6849
:1023E000D207EDD51B7BA26B1370A36B0133A363E4
:1023F000E38F013B9BB2E387ECE7FEF787FD039B8E
:10240000C01AB84201D37B1C2AD1002F2AD0E38FF7
:102410009BB2002B0ED023689A68D207EDD5DB68FB
:10242000A26B1380A36B0233A363E38F013B9BB2C8
:10243000E387ECE7039A39002000FFF7C7FC002888
:1024400001D020236365636D002B0DD1002076E75A
:10245000012074E7012072E7032070E703206EE794
:1024600003206CE703206AE7012068E702206CE79D
:10247000FFBFFFFF03688022D205904208D0154AB3
:10248000904205D0144A904202D0144A904203D19F
:10249000702293434A6813438022D205904208D0A9
:1024A0000C4A904205D00C4A904202D00B4A90420E
:1024B00003D10B4A1340CA681343802293430A692D
:1024C000134303608B68C3620B688362012343611B
:1024D0007047C0460004004000080140001401405D
:1024E000FFFCFFFF30B5036A012293430362036AD6
:1024F000446882697325AA430D682A430225AB43C9
:102500008D682B43446082614A684263036230BD38
:1025100030B5036A102293430362036A45688269F7
:10252000084C14400A68120222432024A3431C00D2
:102530008B681B012343456082614A6882630362A2
:1025400030BDC046FF8CFFFF30B5036A0A4A134016
:102550000362036A4568C2697324A2430C6822437C
:10256000064C1C408B681B0223434560C2614A68CD
:10257000C263036230BDC046FFFEFFFFFFFDFFFFE9
:1025800030B5036A0A4A13400362036A4568C269A8
:10259000084C14400A6812022243074C1C408B6806
:1025A0001B0323434560C2614A680264036230BD75
:1025B000FFEFFFFFFF8CFFFFFFDFFFFF30B5036A78
:1025C000046A0125AC4304628469EF35AC4312010F
:1025D00022430A24A34319438261016230BD0000F3
:1025E00030B5036A1024A34303628469036A054D6E
:1025F0002C4012032243A024A34309011943826102
:10260000016230BDFF0FFFFF0B0081687022914314
:1026100019430723194381607047000030B584686F
:10262000034D2C401B021A4311432143816030BDEE
:10263000FF00FFFF10B51F23194001248C40036ADF
:10264000A3430362036A8A401A43026210BD70B555
:10265000041E1ED03923C35C002B14D0392502235D
:102660006355211D2068FFF705FF01233E22A35477
:10267000043AA3540132A3540132A3540132A354A7
:102680006355002070BD38330022C254FEF78AFB28
:10269000E4E70120F6E7704770B5041E1ED0392329
:1026A000C35C002B14D0392502236355211D2068FB
:1026B000FFF7E0FE01233E22A354043AA354013263
:1026C000A3540132A3540132A3546355002070BDBA
:1026D00038330022C254FFF7DEFFE4E70120F6E7BB
:1026E00010B50400002924D13A23C35C013B5A1ED3
:1026F0009341DBB2002B50D1002933D13A3302226F
:10270000E25401222068FFF795FF23688022D2055A
:10271000934237D0234A934234D0234A934231D054
:10272000224A93422ED01A6801210A431A600020DF
:1027300034E0042908D008290DD03D23C35C013BB7
:102740005A1E9341DBB2D5E73B23C35C013B5A1EC3
:102750009341DBB2CEE73C23C35C013B5A1E93415D
:10276000DBB2C7E7042905D0082907D03D230222A0
:10277000E254C6E73B230222E254C2E73C23022292
:10278000E254BEE7996807220A40062A07D01A6871
:1027900001210A431A60002000E0012010BD002042
:1027A000FCE7C0460004004000080140001401405E
:1027B00070B504000D003823C35C012B63D03823AF
:1027C0000121C154042A34D019D9082A47D00C2A2F
:1027D0002AD129000068FFF7D3FE2268D16980233F
:1027E0001B010B43D3612268D36928490B40D36195
:1027F0002168CB69EA6812021343CB6114E0002A16
:1028000012D129000068FFF76DFE22689369082144
:102810000B4393612268936904398B439361226867
:102820009369E9680B43936138230022E254002046
:1028300070BD29000068FFF76BFE22689169802354
:102840001B010B4393612268936910490B4093610C
:1028500021688B69EA68120213438B61E4E729005F
:102860000068FFF771FE2268D36908210B43D3612A
:102870002268D36904398B43D3612268D369E9683C
:102880000B43D361D0E70220D2E7C046FFFBFFFF36
:1028900010B504003823C35C012B66D03823012215
:1028A000C25401330132C254026893683048034075
:1028B00093600B68402B4ED015D9602B41D021D9A5
:1028C000702B2BD080229201934232D1CB684A6880
:1028D00089682068FFF7A2FE226891688023DB01E7
:1028E0000B43936025E0102B07D004D9202B04D094
:1028F000302B02D01DE0002B1BD119002068FFF700
:1029000083FE16E0502B14D1CA6849682068FFF78F
:1029100055FE50212068FFF777FE0AE0CB684A6831
:1029200089682068FFF77AFE2268936877210B4355
:10293000936039230122E254013B0022E25400203B
:1029400010BDCA6849682068FFF74AFE6021206808
:10295000FFF75AFEEDE7CA6849682068FFF72EFEC8
:1029600040212068FFF750FEE3E70220E8E7C04679
:102970008800FFFF30B53823C35C012B28D03823F3
:102980000122C25401330132C25403685A689C6860
:102990007025AA430D682A435A6003688022D20535
:1029A000934208D00B4A934205D00B4A934202D07F
:1029B0000A4A934204D1802294434A6814439C609B
:1029C00039230122C254013B0022C254002030BDF1
:1029D0000220FCE700040040000801400014014010
:1029E0003823C35C012B06D0036819653823002205
:1029F000C254002070470220FCE70000D0B504005C
:102A0000016883680269134342691343C26913432F
:102A10000A689B48024013430B6022685368994937
:102A20000B40E1680B435360A1692268964B9A42C0
:102A300001D0236A19439368944803400B43936081
:102A40002368934A93421CD0924A93422DD0924AD3
:102A500093425FD0914A93425ED08B4A934239D0E1
:102A6000102289498B425BD080231B02E169994285
:102A700000D190E0082A00D9FBE09200884B9B58D7
:102A80009F46884AD16C03220A40012A09D0002AB5
:102A900005D0022A3AD0032A05D01022E1E701220C
:102AA000DFE70422DDE70822DBE77E4AD16C0C2257
:102AB0000A40042A0AD005D9082A29D00C2A07D1AD
:102AC0000822CEE7002A03D10022CAE70422C8E781
:102AD0001022C6E7734AD26CC02109010A40802146
:102AE000C9008A420ED009D9802109018A4215D035
:102AF000C02109018A4207D10822B2E7002A03D186
:102B00000022AEE70422ACE71022AAE70222A8E7DF
:102B10000222A6E70022A4E70022A2E70222A0E701
:102B2000022A2DD007D9042A30D0082A00D090E0FC
:102B30008020000207E0002A00D08AE0FEF776FF3E
:102B4000002800D187E0626853009B18834200D9B7
:102B500083E01303834200D281E0070E060250088F
:102B60000021801979410023FDF75AFB4E4BC21812
:102B70004E4B9A4200D974E02368D860002053E09D
:102B8000484B1B68DB0604D44948DCE7FEF738FBFA
:102B9000D6E74848D7E7082A65D89200464B9B58A5
:102BA0009F46FEF743FF00285FD0400063685B0844
:102BB000C0186168FDF7A8FA83B20004000C010098
:102BC00010393E4A914252D80F2293431A004008CE
:102BD0000723184010432368D860002024E0FEF744
:102BE00035FFE0E72F4B1B68DB0607D43048DCE7F6
:102BF000FEF706FBD7E780200002D6E72D48D4E792
:102C0000FEF714FF002836D063685B081818616867
:102C1000FDF77AFA0004000C0200103A274B9A42A2
:102C20002BD82368D860002000236366A366D0BD3C
:102C3000FEF70CFFE6E71B4B1B68DB0607D41C48BE
:102C4000E2E7FEF7DDFADDE780200002DCE7194865
:102C5000DAE70120E8E70020E6E70120E4E70120C9
:102C6000E2E70120E0E70120DEE70020DCE70120C9
:102C7000DAE70120D8E70020D6E70120D4E7C046F4
:102C8000F369FFEFFFCFFFFF00480040FFF4FFFFB5
:102C90000038014000440040004C0040005000401B
:102CA0001C3000080010024000FDFFFFFFFC0F0079
:102CB0000024F40000093D0040300008EFFF000050
:102CC000436ADB0706D5026853682C490B40816ACA
:102CD0000B435360436A9B0706D502685368284933
:102CE0000B40C16A0B435360436A5B0706D5026819
:102CF000536824490B40016B0B435360436A1B0725
:102D000006D50268536820490B40416B0B43536062
:102D1000436ADB0606D5026893681C490B40816B49
:102D20000B439360436A9B0606D502689368184973
:102D30000B40C16B0B439360436A5B060BD5026883
:102D4000536814490B40016C0B43536080235B03B1
:102D5000026C9A420AD0436A1B0606D50268536881
:102D60000D490B40816C0B435360704702685368F8
:102D70000A490B40416C0B435360ECE7FFFFFDFF3A
:102D8000FFFFFEFFFFFFFBFFFF7FFFFFFFEFFFFFE8
:102D9000FFDFFFFFFFFFEFFFFFFFF7FFFFFF9FFFDB
:102DA000F0B5C64600B505000C0017009846069E13
:102DB0002B68DB6923401B1B5A425341BB423BD16A
:102DC000731CF5D0FEF7A2F84346C01AB04220D8D3
:102DD000002E1ED02B681A685207E9D5DA69120551
:102DE000E6D5802212011A622A68136814490B4042
:102DF00013602A689368A331FF318B4393602023CB
:102E0000AB67EB678022AB5054330022EA540320B7
:102E100013E02A6813680A490B4013602A68936814
:102E2000A331FF318B4393602023AB67EB675433AF
:102E30000022EA54032000E0002004BC9046F0BDCC
:102E40005FFEFFFF30B583B0040080230022C25034
:102E5000FEF75CF8050023681B681B070DD4236888
:102E60001B685B0716D42023A367E3670023236650
:102E70007422A354002003B030BD80210C4B00937A
:102E80000300002289032000FFF78AFF0028E6D014
:102E90000320F0E78021064B00932B000022C9039A
:102EA0002000FFF77DFF0028DDD00320E3E7C046C8
:102EB000FFFFFF0110B5041E2ED0836F002B21D021
:102EC0002423A3672268136801218B431360200029
:102ED000FFF794FD012814D0636A002B18D12268F3
:102EE00053680E490B405360226893682A218B4334
:102EF00093602268136829390B4313602000FFF7A1
:102F0000A1FF10BD74330022C254FDF781FFD7E743
:102F10002000FFF7D5FEE2E70120F2E7FFB7FFFF51
:102F20000D4885460D480E490E4A002302E0D4584C
:102F3000C4500433C4188C42F9D30B4A0B4C002301
:102F400001E013600432A242FBD3FDF797FF00F0CB
:102F500011F8FDF7DBFEFEE7005000200000002026
:102F600010000020743000081000002064010020D0
:102F7000FEE7000070B500260C4D0D4C641BA4103C
:102F8000A64209D1002600F021F80A4D0A4C641B24
:102F9000A410A64205D170BDB300EB589847013686
:102FA000EEE7B300EB5898470136F2E76C300008C3
:102FB0006C3000086C3000087030000803001218F4
:102FC000934200D1704719700133F9E7F8B5C04654
:102FD000F8BC08BC9E467047F8B5C046F8BC08BCB3
:042FE0009E46704752
:102FE400BE040008E00400081405000848050008B1
:102FF40082050008030406080C10182030000000A5
:103004000000000000000000010203040607080994
:103014000000000001020304002C0008302C00080A
:10302400362C0008722C0008422C0008722C000870
:10303400722C0008722C0008482C0008A22B0008EF
:10304400DE2B0008E42B0008662C0008F02B000897
:10305400662C0008662C0008662C0008F62B000875
:0830640050D2FF7F01000000C3
:04306C00E90000086F
:04307000C100000893
:10307400B3B40100000020000100000004000000BF
:0400000508002F219F
:00000001FF
