:020000040800F2
:1000000000100020152F0008BD0D0008BF0D0008CE
:1000100000000000000000000000000000000000E0
:10002000000000000000000000000000C10D0008FA
:100030000000000000000000C30D0008C50D00080E
:10004000652F000800000000652F0008652F0008DC
:10005000652F0008CD0D0008652F0008652F0008EA
:1000600000000000652F0008D90D0008652F00086A
:10007000652F0008652F0008652F000800000000AC
:10008000652F00080000000000000000652F000838
:1000900000000000652F0008652F0008652F00088C
:1000A00000000000652F000800000000F10D0008AE
:1000B0000000000000000000000000000000000040
:1000C00010B5064C2378002B07D1054B002B02D02E
:1000D000044800E000BF0123237010BD0C00002085
:1000E00000000000C02F0008044B10B5002B03D007
:1000F0000349044800E000BF10BDC04600000000F6
:1001000010000020C02F0008002243088B4274D347
:1001100003098B425FD3030A8B4244D3030B8B4208
:1001200028D3030C8B420DD3FF22090212BA030C11
:100130008B4202D31212090265D0030B8B4219D3F2
:1001400000E0090AC30B8B4201D3CB03C01A524112
:10015000830B8B4201D38B03C01A5241430B8B425A
:1001600001D34B03C01A5241030B8B4201D30B0343
:10017000C01A5241C30A8B4201D3CB02C01A52416A
:10018000830A8B4201D38B02C01A5241430A8B422D
:1001900001D34B02C01A5241030A8B4201D30B0216
:1001A000C01A5241CDD2C3098B4201D3CB01C01A30
:1001B000524183098B4201D38B01C01A524143093A
:1001C0008B4201D34B01C01A524103098B4201D328
:1001D0000B01C01A5241C3088B4201D3CB00C01A95
:1001E000524183088B4201D38B00C01A524143080D
:1001F0008B4201D34B00C01A5241411A00D2014632
:10020000524110467047FFE701B5002000F0F0F8BA
:1002100002BDC0460029F7D076E7704703460B437E
:100220007FD4002243088B4274D303098B425FD3EF
:10023000030A8B4244D3030B8B4228D3030C8B421B
:100240000DD3FF22090212BA030C8B4202D3121201
:10025000090265D0030B8B4219D300E0090AC30BD6
:100260008B4201D3CB03C01A5241830B8B4201D383
:100270008B03C01A5241430B8B4201D34B03C01A6C
:100280005241030B8B4201D30B03C01A5241C30AE4
:100290008B4201D3CB02C01A5241830A8B4201D355
:1002A0008B02C01A5241430A8B4201D34B02C01A3F
:1002B0005241030A8B4201D30B02C01A5241CDD2E4
:1002C000C3098B4201D3CB01C01A524183098B422F
:1002D00001D38B01C01A524143098B4201D34B0118
:1002E000C01A524103098B4201D30B01C01A52417B
:1002F000C3088B4201D3CB00C01A524183088B4202
:1003000001D38B00C01A524143088B4201D34B00EA
:10031000C01A5241411A00D201465241104670475C
:100320005DE0CA0F00D04942031000D34042534061
:1003300000229C4603098B422DD3030A8B4212D321
:10034000FC22890112BA030A8B420CD38901921153
:100350008B4208D3890192118B4204D389013AD090
:10036000921100E08909C3098B4201D3CB01C01A65
:10037000524183098B4201D38B01C01A5241430978
:100380008B4201D34B01C01A524103098B4201D366
:100390000B01C01A5241C3088B4201D3CB00C01AD3
:1003A000524183088B4201D38B00C01A5241D9D2EB
:1003B00043088B4201D34B00C01A5241411A00D26C
:1003C0000146634652415B10104601D34042002B68
:1003D00000D54942704763465B1000D3404201B5E7
:1003E000002000F005F802BD0029F8D016E770479C
:1003F0007047C04600B583B0012208210A4800F0CA
:1004000058FF01ABAA221A7011325A7011329A7039
:10041000032000F0DFF9032101A800F017FA64209F
:1004200000F038FDF7E7C0460004004810B584B07E
:100430007F23184003AC20700023637090200022BB
:100440001021C00500F035FF64230093623B02AA2F
:100450002100094801F080FD074801F0A3FE0128B2
:10046000FAD18F3001221021C00500F022FF02AB2B
:10047000587804B010BDC0467C01002030B583B070
:100480000C006B46DD1D80235B42184328709020D2
:1004900000221021C00500F00CFFFA23DB0001222E
:1004A00029000E4801F084FC0C4801F07BFE012875
:1004B000FAD1FA23DB0001222100084801F078FC80
:1004C000064801F06FFE0128FAD18F300122102179
:1004D000C00500F0EEFE03B030BDC0467C01002038
:1004E00070B582B00D0014006B46DE1D80235B42A8
:1004F00018433070902000221021C00500F0D9FE72
:10050000FA23DB00012231000D4801F051FC0C48B8
:1005100001F048FE0128FAD1FA23A2B2DB0029003B
:10052000074801F045FC064801F03CFE0128FAD1DD
:100530008F3001221021C00500F0BBFE02B070BD5B
:100540007C01002010B582B004000120FFF76EFF8F
:100550006B46D871002C0FD0012C18D0032C1ED064
:10056000052C24D0062C0BD10723984340B2062338
:1005700018436B46D87103E0072398436B46D87144
:100580006B46D91D0120FFF779FF02B010BD07238C
:10059000984340B2012318436B46D871F0E7072314
:1005A000984340B2032318436B46D871E8E707230A
:1005B000984340B2052318436B46D871E0E730B545
:1005C00083B0C4046411230C6A46D51DD37129007D
:1005D0000620FFF753FF052000F05CFC230A2B7078
:1005E00029000720FFF74AFF052000F053FC2C707C
:1005F00029000820FFF742FF052000F04BFC03B064
:1006000030BD00B583B00001890008436B46D91D99
:1006100008701E20FFF732FF0A2000F03BFC03B0F9
:1006200000BD00B583B06B46D91D08700920FFF7E7
:1006300025FF0A2000F02EFC03B000BD00B583B0FA
:100640002C2812D9782811D978202D380521FFF7C8
:10065000E5FD6B46D8716B46D91D0B20FFF70EFFE9
:100660000A2000F017FC03B000BD2D207828ECD93B
:10067000F028F0D81E300A21FFF7D0FD6B46D87164
:10068000E9E700B583B06B46D91D08700C20FFF771
:10069000F5FE0A2000F0FEFB03B000BD00B583B0FC
:1006A0000001490008436B46D91D08701D20FFF763
:1006B000E5FE0A2000F0EEFB03B000BD00B583B0FC
:1006C0006B46D91D08702120FFF7D8FE0A2000F0E4
:1006D000E1FB03B000BD30B583B06B46D91D0823E4
:1006E0000B706B469D1D34232B706B465C1D0123E4
:1006F00023701F20FFF7C2FE0A2000F0CBFB290069
:100700003920FFF7BBFE0A2000F0C4FB2100412086
:10071000FFF7B4FE0A2000F0BDFB03B030BD0000BF
:1007200010B582B0902001221021C00500F0C1FD5B
:10073000154C00220121200000F0BBFD012000F03B
:10074000A9FB01220121200000F0B3FD642000F08C
:10075000A1FB0020FFF7F6FE0F2000F09BFB01201D
:10076000FFF764FE04000A2000F094FB6B46D91DDD
:1007700078204042204308700120FFF77FFE64206C
:1007800000F088FB02B010BD0004004810B5FFF770
:10079000C7FFD9204000FFF712FFFC20FFF741FF01
:1007A0006420FFF74BFF2320FFF76BFF0121072099
:1007B000FFF774FF01210720FFF723FF0820FFF751
:1007C0007DFFFFF788FF0120FFF7BCFE0A2000F045
:1007D00061FB10BDF0B5C64600B582B007236B447F
:1007E00098468723424613706B469F1D41233B70FA
:1007F0006B465E1DFF23337001AD083B2B706B46CB
:10080000DC1CD870FFF7C2FF41464D20FFF736FED3
:1008100039004020FFF732FE31001220FFF72EFE94
:1008200029001120FFF72AFE21002220FFF726FED3
:100830000E20FFF7FBFD6B46991C08700D20FFF79B
:100840001DFE02B004BC9046F0BD000070B582B041
:1008500005000E006B46D91DFF230B706B469C1DD7
:10086000F72323701220FFF709FE21001120FFF764
:1008700005FE320029000020FFF732FE0320FFF7BB
:1008800061FE02210A4800F00DFD012801D002B0EE
:1008900070BD01221021064800F00BFD6B46D91DEA
:1008A0001220FFF7EBFD0120FFF74CFEEFE7C046FB
:1008B00000040048F0B589B01422002103A802F01A
:1008C00077FB294B596980208002014359615A699D
:1008D00002400192019A5A698021C9020A435A6171
:1008E0005B690B400293029B9026F60500221F498C
:1008F000300000F0DEFC01221021300000F0D9FCB5
:100900001B4D01220121280000F0D3FC00223821D8
:10091000280000F0CEFC174B039301270497002416
:100920000594069403A9300000F0F8FB39230393E3
:1009300004970594069403A9280000F0EFFB022316
:10094000039388235B030493059403A9280000F014
:10095000E5FB00220021052000F0AEFA052000F0A2
:10096000DDFA09B0F0BDC0460010024002190000D7
:10097000000400481219000000B583B0094A51690B
:10098000012319435161526913400193019B0022D5
:1009900000210A2000F090FA0A2000F0BFFA03B00C
:1009A00000BDC0460010024072B6FEE710B5104808
:1009B000104B036082235B00436000238360E022CE
:1009C000D200C26003614361802292008261F93AE1
:1009D000FF3AC2610362436283620721C16203631B
:1009E000426301F063F9002800D110BDFFF7DCFF7E
:1009F0007C0100200030014010B50B480B4B036018
:100A000096239B01436000238360C36003610C2233
:100A100042618361C3610362436202F045FA0028C8
:100A200000D110BDFFF7C0FFB0000020003801402A
:100A300000B597B01022002112A802F0B9FA0822DE
:100A4000002110A802F0B4FA1C22002109A802F02B
:100A5000AFFA2022002101A802F0AAFA3148324B55
:100A600003601323436000238360FA229200C26074
:100A700003614361836101F0BFFC002844D18023FE
:100A80005B01129312A9274801F0CEFD00283DD149
:100A9000244801F0DDFC00283AD100231093119383
:100AA00010A9204801F03EFE002833D160230993AD
:100AB0009533FF330A9300230B930C930D930E93FE
:100AC0000F93042209A9174801F02EFD002823D115
:100AD000082209A9134801F027FD00281ED1002390
:100AE000019302930393049305938022920106924B
:100AF000089301A90B4801F043FE002810D10948D2
:100B000000F0C4F817B000BDFFF74EFFFFF74CFF31
:100B1000FFF74AFFFFF748FFFFF746FFFFF744FFE5
:100B2000FFF742FF34010020002C014000B595B0D2
:100B30002C22002109A802F03BFA1022002104A86F
:100B400002F036FA10220021684602F031FA022340
:100B5000089301220B920F320C921093A0239B0357
:100B6000129308A800F0BAFB002817D107230493BA
:100B7000053B0593002306930793012104A800F089
:100B800031FE00280CD10123009300230293684614
:100B900000F0D6FE002805D115B000BDFFF704FF18
:100BA000FFF702FFFFF700FF10B500F051F9FFF764
:100BB000BDFFFFF77FFEFFF7DFFEFFF7F7FEFFF752
:100BC0001BFFFFF735FFFFF715FCFEE782B00A4B6E
:100BD000996901221143996199690A400092009A2A
:100BE000DA69802149050A43DA61DB690B40019328
:100BF000019B02B07047C0460010024010B588B09B
:100C000004001422002103A802F0D2F92268124B3A
:100C10009A4201D008B010BD104B99698020400164
:100C2000014399619A6902400192019A5A698021AF
:100C300089020A435A615B690B400293029BE023DD
:100C40000393DE3B049301330693902003A9C00570
:100C500000F064FADEE7C0460030014000100240B8
:100C600082B00268074B9A4201D002B07047064A30
:100C700091698020000101439161936903400193D0
:100C8000019BF2E7002C01400010024010B586B035
:100C900004001422002101A802F08AF922680D4BF9
:100CA0009A4201D006B010BD0B4A516980208002E3
:100CB00001435161536903400093009BC023DB0053
:100CC0000193022302930593902001A9C00500F02F
:100CD00025FAE7E7002C01400010024010B588B06B
:100CE00004001422002103A802F062F92C4B2268B0
:100CF0009A4201D008B010BD2A4B99698020C001EA
:100D0000014399619A6902400192019A5A698021CE
:100D1000C9020A435A615B690B400293029BC023DC
:100D20000393BE3B04930133069303A91E4800F0CE
:100D3000F5F91E481E4B03601023436000238360B7
:100D40008022C260036143618361C36100F022F9C4
:100D500000281ED1154BE3665C621648164B0360F3
:100D60000023436083608022C2600361436183612A
:100D7000C36100F00FF900280ED10E4B23675C62AF
:100D8000002200211B2000F097F81B2000F0C6F87D
:100D9000B0E7FFF709FEDDE7FFF706FEEDE7C04627
:100DA00000380140001002400004004828000020E4
:100DB0001C0002406C00002030000240FEE7FEE70D
:100DC0007047704710B500F053F810BD10B5022001
:100DD00000F076FA10BD000010B5034800F049F9A4
:100DE000024800F046F910BD280000206C000020E9
:100DF00010B5024801F04AFD10BDC046B000002009
:100E00007047000010B504000F4B1978FA208000DD
:100E1000FFF77AF901000D4B1868FFF775F900F03C
:100E200089F800280DD1032C01D901200AE00130F6
:100E300000222100404200F03FF8034B5C6000209C
:100E400000E0012010BDC04604000020000000208A
:100E500010B5064A136810210B4313600020FFF7FA
:100E6000D1FFFFF7B3FE002010BDC04600200240B6
:100E7000034A1168034B1B785B1813607047C04628
:100E8000E001002004000020014B18687047C046B4
:100E9000E001002070B50400FFF7F6FF0500631CB9
:100EA00002D0044B1B78E418FFF7EEFF401BA04272
:100EB000FAD370BD0400002070B5002811DB830850
:100EC000144DC0339B005C5903221040C000FC321B
:100ED00016008640B44389010A40824022435A5199
:100EE00070BDC0B20F230340083B9B0806339B0034
:100EF000094A944663445D6803242040C000FF22F1
:100F000014008440A5438901114081402943596060
:100F1000E6E7C04600E100E000ED00E0002805DB68
:100F20001F2318401E3B8340014A13607047C04690
:100F300000E100E001380A4B98420FD8094A50609E
:100F40000948036A1B021B0AC02109060B430362FE
:100F50000023936007331360002070470120FCE7F3
:100F6000FFFFFF0010E000E000ED00E010B504001E
:100F70000368064A9446634418001421FFF7C4F836
:100F800080002064024BE36310BDC046F8FFFDBF44
:100F90000000024070B5041E20D0212502234355D5
:100FA00001680B680E4A1A40436880680343E06892
:100FB00003432069034360690343A0690343E06975
:100FC000034313430B602000FFF7D0FF0023A3630C
:100FD000012262551F32A354002070BD0120FCE79E
:100FE0000FC0FFFF10B52123C35C022B06D00423E2
:100FF00083631C330022C254012010BD02681368B1
:101000000E218B43136001680A6801239A430A602A
:10101000C26B1900046CA1405160212283541F331C
:101020000022C2540020E8E710B52123C35C022B44
:1010300003D004238363012010BD026813680E21CE
:101040008B43136001680A6801239A430A60C26BEC
:101050001900046CA1405160212283541F330022E7
:10106000C254436B002B02D098470020E4E70020D5
:10107000E2E770B5C36B1A6804682568016C042345
:101080008B401A4212D06B0710D523689B0603D4FD
:101090002368042293432360C26B0423016C8B40BA
:1010A0005360C36A002B00D0984770BD02238B4069
:1010B0001A4218D0AB0716D523689B0606D42368BE
:1010C0000A22934323602123093AC254C26B0223AC
:1010D000016C8B40536020230022C254836A002B92
:1010E000E3D09847E1E708238B401A42DDD02B0775
:1010F000DBD523680E2293432360C26B01231900C2
:10110000046CA14051608363212283541F33002269
:10111000C254036B002BC8D09847C6E7F0B583B024
:10112000002357E085685F000326BE40B5432E00CC
:10113000CD68BD40354385604568A5434C682609A8
:10114000012434409C402C43446051E0DD080835C4
:10115000AD002E5805341C40A4000F27A740BE4305
:101160000F69A7403C0034432C5055E0032600E0B3
:101170000026AE4035003D430234A400434EA55145
:10118000434C2568D4432E0026404F68FF0301D509
:1011900015432E003E4D2E606D682E0026404F6890
:1011A000BF0301D515432E00394D6E60AD682E008A
:1011B00026404F68FF0201D515432E00344DAE6026
:1011C000ED682C404E68B60201D52A431400304A1F
:1011D000D46001330A681400DC4055D001249C40DF
:1011E0002240F6D003254E683540013D012D99D9A6
:1011F00003244D682C40032C09D0C4685E000325ED
:10120000B540AC4325008C68B4402C43C460032433
:101210004D682C40022C99D005685E0003242700FD
:10122000B740BD434F683C40B4402C430460C024E9
:10123000A4024D682542CCD0164DAE690124264348
:10124000AE61AD692C400194019C9C08A51CAD00C9
:101250000E4EAF5903251D40AD000F26AE40B743DB
:101260009026F605B04283D00B4EB04208D00B4E0C
:10127000B04207D00A4EB04200D177E7052678E7A2
:10128000012676E7022674E703B0F0BD00000140B6
:10129000000401400010024000040048000800481B
:1012A000000C004803690B4201D100207047012067
:1012B000FCE7002A01D1816270478161FCE7704739
:1012C00010B5054B5B69184200D110BD024B586147
:1012D000FFF7F5FFF9E7C0460004014070B582B0A2
:1012E000041E00D132E20368DB0726D5AE4B5A68F4
:1012F0000C231340042B18D0AB4B5A680C2313401B
:10130000082B0ED06368012B3CD0002B51D1A64B8B
:101310001A68A6490A401A601A68A5490A401A6064
:1013200036E0A14B5B68DB03ECD59F4B1B689B034E
:1013300003D56368002B00D10BE223689B0773D5AC
:10134000994B5B680C221A425DD0974B5A680C236C
:101350001340082B53D0E368002B00D186E0924A5B
:10136000136801210B431360FFF78EFD05008E4BC0
:101370001B689B0771D4FFF787FD401B0228F6D935
:101380000320E4E1884A116880235B020B43136069
:101390006368002B25D0FFF777FD0500824B1B68A3
:1013A0009B03CAD4FFF770FD401B6428F6D90320C5
:1013B000CDE1052B09D07C4B1A687C490A401A60A4
:1013C0001A687B490A401A60E2E7774B1968802265
:1013D000D2020A431A601968802252020A431A6034
:1013E000D6E7FFF751FD05006F4B1B689B03A4D5A3
:1013F000FFF74AFD401B6428F6D90320A7E16A4B9A
:101400005B68DB03A7D4684B1B689B0704D5E368C4
:10141000012B01D001209AE163490B68F822934324
:101420002269D20013430B6023681B0744D5E3698C
:10143000002B2ED05C4A536A01210B435362FFF705
:1014400023FD0500584B5B6A9B0735D4FFF71CFD55
:10145000401B0228F6D9032079E153490B68F82292
:1014600093432269D20013430B60DDE74E4A1368B1
:1014700001218B431360FFF707FD05004A4B1B68F2
:101480009B07D1D5FFF700FD401B0228F6D90320AA
:101490005DE1454A536A01218B435362FFF7F4FC37
:1014A0000500414B5B6A9B0706D5FFF7EDFC401B2F
:1014B0000228F6D903204AE123685B0700D47FE0C5
:1014C000394BDB69DB001DD4374AD16980204005E8
:1014D0000143D161D36903400193019B0125354B41
:1014E0001B68DB0510D5A368012B21D0002B36D15A
:1014F0002D4B1A6A01218A431A621A6A03318A4300
:101500001A621AE00025EAE72A4A116880235B0084
:101510000B431360FFF7B8FC0600264B1B68DB0586
:10152000E1D4FFF7B1FC801B6428F6D903200EE15B
:101530001D4A136A01210B431362A368002B24D0B8
:10154000FFF7A2FC0600184B1B6A9B0736D4FFF777
:101550009BFC801B184B9842F5D90320F7E0052B24
:1015600009D0114B1A6A01218A431A621A6A03319F
:101570008A431A62E1E70C4B1A6A04210A431A6291
:101580001A6A03390A431A62D7E7FFF77DFC06009F
:10159000054B1B6A9B0711D5FFF776FC801B064B9A
:1015A0009842F5D90320D2E000100240FFFFFEFF71
:1015B000FFFFFBFF0070004088130000012D33D0B7
:1015C0002368DB0610D56369012B33D0053351D175
:1015D000644A536B04218B435363536BF4318B4345
:1015E000A169C9000B435363236A002B00D1B2E009
:1015F0005C4A51680C220A40082A00D18AE0022B7A
:101600004FD0584A136858490B401360FFF73CFC11
:101610000400544B1B689B017AD5FFF735FC001B77
:101620000228F6D9032092E04E4AD3694F490B4075
:10163000D361C5E74B4B5A6B04210A435A635A6B7B
:1016400003390A435A63FFF71FFC0500454B5B6BE8
:101650009B0706D4FFF718FC401B0228F6D903208D
:1016600075E040494B6BF8229343A269D2001343C3
:101670004B63B9E73B4B5A6B04210A435A635A6BDD
:1016800003398A435A63FFF7FFFB0500354B5B6B59
:101690009B07A9D5FFF7F8FB401B0228F6D90320CA
:1016A00055E0304A136830490B401360FFF7ECFBFC
:1016B00005002C4B1B689B0106D5FFF7E5FB401B83
:1016C0000228F6D9032042E0264BDA6A0F218A432A
:1016D000E16A0A43DA625A6825490A40A16A606AE7
:1016E00001430A435A601968802252040A431A606F
:1016F000FFF7CAFB04001B4B1B689B0106D4FFF7D6
:10170000C3FB001B0228F6D9032020E000201EE0C6
:1017100000201CE0012B20D0124B5A68D96A80238C
:101720005B021340606A834201D001200FE00F2367
:101730000B40E16A8B4201D0012008E0F0239B03BB
:101740001A40A36A9A420AD0012000E0012002B0A8
:1017500070BD0120FBE70020F9E70120F7E700203A
:10176000F5E7C04600100240FFFFFFFEFFFFFFEF5E
:10177000FFFFC2FF30B589B004AA174B180032C86A
:1017800032C2110002680A606A46103313CB13C2DA
:101790001B681360114B5A680C231340082B19D196
:1017A000910C0733194004A8445C0C49C96A0B40EA
:1017B0006946C95CD30308D463011B1B9801C01A96
:1017C000C0000419200209B030BD0548FEF79CFC9A
:1017D0006043F8E70248F6E7F02F000800100240E7
:1017E00000127A0070B504000D00002800D181E0DD
:1017F000424B1A68012313408B420BD23F490B68BE
:10180000012293432B430B600B681A40AA4201D07C
:10181000012070E023689A070ED55B0705D5384A8A
:101820005168E023DB000B435360354A5368F021D5
:101830008B43A1680B4353602368DB072DD5636896
:10184000012B1ED0022B22D02D4A1268920753D5AD
:101850002B494A680320824313434B60FFF714FB74
:101860000600274B5B680C221A4063689B009A4273
:1018700013D0FFF709FB801B224B9842F1D90320BC
:1018800039E01F4A12689203E2D4012033E01C4A77
:1018900012689201DCD401202DE0184B1A68012354
:1018A0001340AB420BD915490B68012293432B43DC
:1018B0000B600B681A40AA4201D001201BE023688C
:1018C0005B0706D50E4A53680F490B40E1680B438E
:1018D0005360FFF74FFF0A4B5A6812090F2313405A
:1018E0000A4AD35CD8400A4B18600020FFF78AFAF6
:1018F000002000E0012070BD0120FCE70020024034
:101900000010024088130000FFF8FFFFD82F0008E6
:1019100000000020014B18687047C04600000020FE
:1019200010B5FFF7F7FF044B5A68120A072313405C
:10193000024AD35CD84010BD00100240E82F0008D6
:1019400070B582B004000368DB0335D53C4BDB691E
:10195000DB0048D43A4AD169802040050143D16177
:10196000D36903400193019B0125364B1B68DB05BE
:101970003BD5334B1B6AC0229200134013D06168E1
:101980000A409A420FD02E4B186A2F4A02401E6A14
:101990008021490231431962196A2C4E3140196283
:1019A0001A62C30735D4264A136A27490B40616877
:1019B0000B431362012D3BD02368DB0706D5204A79
:1019C000136B03218B43A1680B43136323689B06AE
:1019D00033D51B4A136B10218B43E1680B43136310
:1019E000002002B070BD0025BFE7164A11688023B1
:1019F0005B000B431360FFF747FA0600114B1B68AF
:101A0000DB05B6D4FFF740FA801B6428F6D9032023
:101A1000E7E7FFF739FA0600094B1B6A9B07C2D4B8
:101A2000FFF732FA801B0A4B9842F5D90320D8E71A
:101A3000D36908490B40D361BEE70020D1E7C04617
:101A40000010024000700040FFFCFFFFFFFFFEFFA0
:101A500088130000FFFFFFEFF0B5CE46474680B584
:101A600083B005000C0017001E00FFF70DFA0A9B5B
:101A7000181A8046B044FFF707FA81462C4B1B68C2
:101A80005B011B0D4246534301932B689B68234027
:101A90001B1B5A425341BB4244D0731CF5D0FFF785
:101AA000F3F94B46C01A40450AD24346002B07D0F3
:101AB000019B002B00D19846019B013B0193E4E779
:101AC0002A685368E0218B43536082235B006A6875
:101AD0009A420CD080239B01AA6A9A4216D05D23B9
:101AE0000122EA54013B0022EA5403201BE0AB68C8
:101AF00080221202934203D08022D2009342E9D185
:101B00002A68136840218B431360E3E72A6813684F
:101B100008490B4013602A68116880239B010B431E
:101B20001360DCE7002003B00CBC90469946F0BD82
:101B300000000020FFDFFFFFF0B5D6464F464646C7
:101B4000C0B582B006000C0015001F006B460022D5
:101B5000DA70FFF799F90A9B181A8046B844FFF724
:101B600093F9824633689946344B1A6893009A1861
:101B7000D3009B1A1B0D42465343019301E07B1C8B
:101B800011D133689B682340AB424FD0C023DB00A8
:101B90009C42F4D1002DF2D14B461B7BDBB26A464E
:101BA000D370D378EBE7FFF76FF95346C01A40457F
:101BB0000AD24346002B07D0019B002B00D1984648
:101BC000019B013B0193DCE732685368E0218B43C2
:101BD000536082235B0072689A420CD080239B0181
:101BE000B26A9A4216D05D230122F254013B0022D0
:101BF000F25403201BE0B36880221202934203D008
:101C00008022D2009342E9D13268136840218B438D
:101C10001360E3E73268136809490B4013603268C8
:101C2000116880239B010B431360DCE7002002B0A6
:101C30001CBC90469946A246F0BDC046000000205C
:101C4000FFDFFFFF70B582B004000D001600C02159
:101C500000922B0000224901FFF76EFF002818D1E7
:101C600000962B00002280212000FFF7F5FE0028BF
:101C700016D1C02100962B000022C9002000FFF7DA
:101C80005BFF00280AD0236E202213432366032023
:101C900004E0236E202213432366032002B070BDAC
:101CA000236E2022134323660320F7E770B5041E3A
:101CB00000D178E0436A002B07D10533FF33426837
:101CC0009A4205D00023C36102E00023036143610F
:101CD0000023A3625D33E35C002B5AD05D23022214
:101CE000E2542268136840218B431360E368E022CA
:101CF000D200934254D90022F02109018B4205D031
:101D0000E021C9008B4201D00023A36282235B0043
:101D100061680B4084210902A06801400B43022145
:101D2000206901400B430121606908400343802082
:101D30008000A569284003433820E5692840034313
:101D40008020256A2840034380208001A56A28401E
:101D5000256803432B60608B042303401020656AD1
:101D6000284003430820656B28400343F02000010E
:101D7000E568284003432068134343602268D36921
:101D80000A480340D361002323665D33E1540020F9
:101D900070BD5C330022E2542000FEF72FFF9DE768
:101DA00080225201A8E70120F2E7C046FFF7FFFFBB
:101DB000F0B585B00400019116001F005C23C35CE0
:101DC000012B00D1C6E05C230122C254FFF75CF86E
:101DD00005005D23E35C012B08D002205D23012276
:101DE000E254013B0022E25405B0F0BD0199002904
:101DF00000D1A1E0002E00D1A0E05C330322E25428
:101E000000232366A163A687E68723644132A35299
:101E10000232A3522365E36480231B02A2689A4224
:101E20001DD023681A68520603D41A6840210A4359
:101E30001A60E023DB00E2689A4238D96368002B1D
:101E400001D0012E20D12368A26B1288DA60A36B27
:101E50000233A363E38F013B9BB2E38714E0226864
:101E6000136840218B431360226811688023DB01D3
:101E70000B431360D5E7FFF707F8401BB84201D3C7
:101E80007B1C5DD1002F5DD0E38F9BB2002B3BD03C
:101E900023689A689207EED5A26B1288DA60A36B6A
:101EA0000233A363E38F013B9BB2E387ECE76368F4
:101EB000002B01D0012E14D1A36B1B782268137361
:101EC000A36B0133A363E38F013B9BB2E38708E07D
:101ED000FEF7DAFF401BB84201D37B1C34D1002F40
:101EE00034D0E38F9BB2002B0ED023689A68920700
:101EF000EED5A26B12781A73A36B0133A363E38F41
:101F0000013B9BB2E387ECE72A0039002000FFF792
:101F100099FE002801D020232366A368002B06D158
:101F200003932368DA6803929B680393039B236EF1
:101F3000002B0DD1002051E701204FE701204DE794
:101F400003204BE7032049E7032047E7032045E749
:101F5000012043E7022047E7F0B583B004000E00FC
:101F600001921D005C23C35C012B00D116E15C23B0
:101F70000122C254FEF788FF07005D23E35CDBB259
:101F80006268012B14D0822149008A4208D00220C5
:101F90005D230122E254013B0022E25403B0F0BD74
:101FA000A268002A00D0EBE0042B01D00220EFE76A
:101FB000002E00D1E6E0019B002B00D1E4E0002DD3
:101FC00000D1E3E05D23E35C042B02D05D23052216
:101FD000E25400232366019A22644622A552023A63
:101FE000A552A663E587A587E3642365E023DB00AC
:101FF000E2689A4223D92268536869490B405360CA
:1020000023681A68520603D41A6840210A431A60EA
:10201000E023DB00E2689A4255D96368002B01D0C7
:10202000012D0AD12368A26B1288DA60A36B0233F8
:10203000A363E38F013B9BB2E387012524E0226881
:10204000516880235B010B435360D9E723689A688A
:10205000D20710D54622A25A92B2002A0BD0DB68D2
:10206000226C1380236C023323644622A35A013B63
:102070009BB2A3520125FEF707FFC01B089B9842A5
:1020800002D3013300D083E0E38F9BB2002B04D155
:102090004633E35A9BB2002B66D023689A689207B6
:1020A000D4D5E28F92B2002AD0D0012DCED1A26B2E
:1020B0001288DA60A36B0233A363E38F013B9BB208
:1020C000E3870025C2E76368002B01D0012D0AD108
:1020D000A36B1B7822681373A36B0133A363E38F95
:1020E000013B9BB2E38701251FE023689A68D20772
:1020F00010D54622A25A92B2002A0BD01B7B226C2A
:102100001370236C013323644622A35A013B9BB214
:10211000A3520125FEF7B8FEC01B089B984201D3CD
:10212000013337D1089B002B36D0E38F9BB2002BB5
:1021300004D14633E35A9BB2002B15D023689A682A
:102140009207D2D5E28F92B2002ACED0012DCCD107
:10215000A26B12781A73A36B0133A363E38F013B65
:102160009BB2E3870025C0E73A0008992000FFF7FB
:1021700069FD002800D10BE720232366012007E733
:10218000022005E7012003E7012001E70120FFE627
:102190000320FDE60320FBE60320F9E60220FDE62E
:1021A000FFEFFFFF5D23C05CC0B2704730B5036A2C
:1021B000012293430362036A426884697325AC4336
:1021C0000D682C430225AB438D682B43114DA8426B
:1021D00005D0114DA84202D0104DA84205D10825C6
:1021E000AB43CD682B430425AB430A4DA84205D031
:1021F000094DA84202D0094DA84205D1084D2A40F8
:102200004D692A438D692A43426084614A6842636A
:10221000036230BD002C01400044014000480140F1
:10222000FFFCFFFF70B5036A184A13400362036A9C
:102230004268C4697325AC430E682643144C23409E
:102240008C6824022343134CA04216D0114CA042A8
:1022500005D0114CA04202D0104CA04207D1104C26
:1022600014404A69120122438C6925012A434260C5
:10227000C6614A68C263036270BD0A4C1C40CB68E9
:102280001B022343084C2340E0E7C046FFFEFFFF4C
:10229000FFFDFFFF002C01400044014000480140C9
:1022A000FFCFFFFFFFF7FFFFFFFBFFFF30B5036A24
:1022B000114A13400362026A4368C4690F4D2C40FF
:1022C0000D682D022C430E4D15408A6812032A43D7
:1022D0000C4DA84205D00C4DA84202D00B4DA8428F
:1022E00004D10B4D2B404D69AD012B434360C461BC
:1022F0004B680364026230BDFFEFFFFFFF8CFFFFFE
:10230000FFDFFFFF002C0140004401400048014076
:10231000FFBFFFFF30B5036A046A0125AC430462C6
:102320008469EF35AC43120122430A24A3431943C5
:102330008261016230BD000030B5036A1024A343FE
:1023400003628469036A054D2C4012032243A024D2
:10235000A343090119438261016230BDFF0FFFFFF2
:102360000B00816870229143194307231943816050
:102370007047704703681A4A904202D0194A904247
:1023800003D1702293434A681343154A90420BD0FD
:10239000144A904208D0144A904205D0134A904201
:1023A00002D0134A904203D1124A1340CA68134321
:1023B000802293434A69134303608B68C3620B68AE
:1023C0008362074B984205D0084B984202D0084BD5
:1023D000984201D10B690363012343617047C046F2
:1023E000002C014000040040002000400044014057
:1023F00000480140FFFCFFFF70B5041E26D03D23BE
:10240000C35C002B1CD03D2502236355211D206891
:10241000FFF7B0FF01234622A354083AA354013228
:10242000A3540132A3540132A3540132A354013204
:10243000A3540132A3540132A3546355002070BD4C
:102440003C330022C254FEF70BFCDCE70120F6E728
:1024500070B5041E26D03D23C35C002B1CD03D2547
:1024600002236355211D2068FFF784FF01234622C4
:10247000A354083AA3540132A3540132A3540132A5
:10248000A3540132A3540132A3540132A3540132A4
:10249000A3546355002070BD3C330022C254FFF7A3
:1024A00068FFDCE70120F6E770B5036A102293436A
:1024B0000362036A42688469164D2C400D682D0240
:1024C00025432024A3438C6824012343124CA042BB
:1024D00016D0114CA04205D0104CA04202D0104C96
:1024E000A04207D10F4C14404A69920022438C69E4
:1024F000A6003243426085614A688263036270BD10
:102500008024A3431C00CB681B0123434024A34326
:10251000DFE7C046FF8CFFFF002C01400044014074
:1025200000480140FFF3FFFF70B504000D003C239D
:10253000C35C012B68D03C230121C154042A35D04F
:102540001AD9082A49D00C2A5CD129000068FFF763
:10255000ADFE2268D16980231B010B43D361226841
:10256000D3692A490B40D3612168CB692A691202D9
:102570001343CB61002015E0002A43D129000068F5
:10258000FFF714FE2268936908210B4393612268C8
:10259000936904398B4393612268936929690B43DA
:1025A000936100203C230022E25470BD29000068A2
:1025B000FFF77AFF2268916980231B010B43936127
:1025C0002268936911490B40936121688B692A69DC
:1025D000120213438B610020E4E729000068FFF733
:1025E00021FE2268D36908210B43D3612268D36995
:1025F00004398B43D3612268D36929690B43D361C2
:102600000020CFE70120CDE70220CEE7FFFBFFFF50
:1026100030B58468034D2C401B021A4311432143FB
:10262000816030BDFF00FFFF10B504003C23C35C98
:10263000012B00D172E03C230122C254013301324C
:10264000C254026893683648034093600B68402B7D
:1026500059D011D9702B3ED01FD8502B48D0602BA9
:1026600019D1CA6849682068FFF766FE60212068B2
:10267000FFF776FE002027E0102B04D009D9202B8D
:1026800001D0302B07D119002068FFF769FE002028
:102690001AE0002BF7D0012016E08022520193426D
:1026A00011D0802292019342F5D1CB684A688968A3
:1026B0002068FFF7ADFF226891688023DB010B43A0
:1026C0009360002000E000203D230122E254013B02
:1026D0000022E25410BDCB684A6889682068FFF781
:1026E00097FF2268936877210B4393600020EBE704
:1026F000CA6849682068FFF70DFE50212068FFF77F
:102700002FFE0020E0E7CA6849682068FFF702FE54
:1027100040212068FFF724FE0020D5E70220D9E7FA
:102720008800FFFF30B53C23C35C012B21D03C2344
:102730000122C25401330132C25403685A689C68B2
:102740007025AA430D682A435A6003680A4A9342D7
:1027500002D00A4A934204D1802294434A68144327
:102760009C603D230122C254013B0022C254002040
:1027700030BD0220FCE7C046002C014000040040B0
:1027800010B53C23C35C012B21D03C220123835490
:10279000104BCC6823408C6823430F4C23404C687B
:1027A00023430E4C23400C6823430D4C23400C69FB
:1027B00023430C4C23404C6923430B4C2340C969F1
:1027C0000B4301684B6400238354002010BD02209A
:1027D000FCE7C046FFFCFFFFFFFBFFFFFFF7FFFF2B
:1027E000FFEFFFFFFFDFFFFFFFBFFFFF30B5EFF39E
:1027F0001084012282F3108801680B68114D2B4070
:102800000B6084F31088EFF3108482F31088016862
:102810008B6893438B6084F31088036E012B05D083
:102820002023C36700230366436630BDEFF31081A6
:1028300083F31088026813681024A343136081F3A4
:102840001088EDE7DFFEFFFF704710B5EFF3108152
:10285000012383F31088026813684024A3431360A4
:1028600081F310882023836700238366FFF7ECFF42
:1028700010BD704710B5406A00235A228352083AAF
:102880008352FFF7F6FF10BD7047000070B50400DB
:102890000168CB6908688D68A14A1A400AD19E0672
:1028A00008D5860606D5636E002B00D133E12000E3
:1028B000984730E1002A00D18AE001222A4003D162
:1028C000984D284200D183E0DD0707D5C50505D521
:1028D00001260E628025615931436151990709D55E
:1028E000002A07D0216802250D627E356159042631
:1028F00031436151590709D5002A07D021680425C1
:102900000D627C35615902263143615119070AD5A0
:10291000810601D4002A06D022680825156280218C
:1029200062582A4362501A050AD5420108D5226826
:102930008021090111628021625820252A436250BA
:102940008022A258002A00D1E5E09B0606D5830626
:1029500004D5636E002B01D0200098478023E258F5
:1029600023689B685B0602D42823134229D02000E9
:10297000FFF73CFF23689B685B061ED5EFF31081D1
:10298000012383F310882268936840208343936077
:1029900081F31088236F002B0BD0634A5A63206F9A
:1029A000FEF742FB002800D1B5E0206F436B98474B
:1029B000B1E02000FFF75DFFADE02000FFF759FF19
:1029C000A9E02000FFF755FF80230022E250A2E09B
:1029D000226E012A0CD01A0600D498E0020600D418
:1029E00095E0A36E002B00D195E02000984792E07F
:1029F000DA06F0D5C206EED510230B6223689B6879
:102A00005B064ED5226F13685B689BB2002B00D12A
:102A100081E05821615A994200D87CE05A216352E2
:102A20009369202B33D0EFF31080012383F31088B8
:102A300021680A683D4D2A400A6080F31088EFF350
:102A4000108083F3108821688A689A438A6080F333
:102A50001088EFF3108083F3108821688A6842356C
:102A6000FF35AA438A6080F310882022E2670022A3
:102A70002266EFF3108183F3108822681368102018
:102A80008343136081F31088206FFEF7ABFA58235D
:102A9000E15A0233E35AC91A89B22000FFF7F4FE63
:102AA00039E05823E15A0233E25A891A89B2E35ACB
:102AB0009BB2002B2FD000292DD0EFF310850123DE
:102AC00083F3108820680268194E3240026085F353
:102AD0001088EFF3108583F31088206882689A438A
:102AE000826085F310882022E267002222666266F7
:102AF000EFF3108083F31088226813681025AB432E
:102B0000136080F310882000FFF7BEFE03E05B0631
:102B100001D5430600D470BD2000FFF796FEFAE70A
:102B20000F0800002001000475280008FFFEFFFFC9
:102B3000DFFEFFFF10B5040083680269134342699A
:102B40001343C269134301680A68494802401343AA
:102B50000B602268536847490B40E1680B435360A0
:102B6000226AA3691A4321688B68434803401343D0
:102B70008B60424B1A6B03231340012B17D0002BA1
:102B800005D0022B15D0032B15D0102300E0002315
:102B900080221202E16991420FD0022B56D03BD91C
:102BA000042B55D0082B5CD1802000023AE004238E
:102BB000EEE70823ECE70223EAE7022B2AD006D946
:102BC000042B24D0082B46D18020000205E0002BE6
:102BD00041D1FEF7A5FE00283FD0400063685B08A6
:102BE000C0186168FDF790FA83B20004000C010080
:102BF0001039234A914232D80F2293431A004008D9
:102C00000723184010432368D86000201AE0FEF71D
:102C1000B1FDE0E71B48E0E7002B22D1FEF780FE84
:102C2000002820D063685B0818186168FDF76CFA0B
:102C30000004000C0200103A114B9A4215D8236888
:102C4000D860002000236366A36610BD0D48E9E745
:102C5000FEF790FDE4E70120F4E70020F2E7012011
:102C6000F0E70120EEE70020ECE70120EAE7C046AC
:102C7000F369FFFFFFCFFFFFFFF4FFFF00100240EB
:102C8000EFFF000000127A00436ADB0706D50268F6
:102C900053682C490B40816A0B435360436A9B077E
:102CA00006D50268536828490B40C16A0B4353603C
:102CB000436A5B0706D50268536824490B40016BE1
:102CC0000B435360436A1B0706D5026853682049CB
:102CD0000B40416B0B435360436ADB0606D5026829
:102CE00093681C490B40816B0B439360436A9B06BE
:102CF00006D50268936818490B40C16B0B4393607B
:102D0000436A5B060BD50268536814490B40016C9B
:102D10000B43536080235B03026C9A420AD0436AE0
:102D20001B0606D5026853680D490B40816C0B43A6
:102D300053607047026853680A490B40416C0B436B
:102D40005360ECE7FFFFFDFFFFFFFEFFFFFFFBFF10
:102D5000FF7FFFFFFFEFFFFFFFDFFFFFFFFFEFFF43
:102D6000FFFFF7FFFFFF9FFFF0B5C64600B5050068
:102D70000C0017009846069E2B68DB6923401B1B3E
:102D80005A425341BB4251D1731CF5D0FEF77CF837
:102D90004346C01AB0422BD8002E29D02B681A689F
:102DA0005207E9D5DA691205E6D5802212011A62C6
:102DB000EFF31080012282F3108829680B681D4C04
:102DC00023400B6080F31088EFF3108082F31088AB
:102DD00029688B6893438B6080F310882023AB674E
:102DE000EB677F32AB5054330022EA5403201EE0DD
:102DF000EFF31080012282F3108829680B680D4CD4
:102E000023400B6080F31088EFF3108082F310886A
:102E100029688B6893438B6080F310882023AB670D
:102E2000EB6754330022EA54032000E0002004BC86
:102E30009046F0BD5FFEFFFF30B583B004008023F5
:102E40000022C250FEF720F8050023681B681B070C
:102E50000DD423681B685B0716D42023A367E367A0
:102E6000002323667422A354002003B030BD8021C8
:102E70000C4B00930300002289032000FFF774FF2E
:102E80000028E6D00320F0E78021064B00932B00BA
:102E90000022C9032000FFF767FF0028DDD00320D0
:102EA000E3E7C046FFFFFF0110B5041E2ED0836F7D
:102EB000002B21D02423A3672268136801218B43B0
:102EC00013602000FFF736FE012814D0636A002B40
:102ED00018D1226853680E490B40536022689368EA
:102EE00008218B4393602268136807390B431360F2
:102EF0002000FFF7A1FF10BD74330022C254FDF77C
:102F0000EDFED7E72000FFF7BFFEE2E70120F2E782
:102F1000FFF7FFFF0D4885460D480E490E4A002376
:102F200002E0D458C4500433C4188C42F9D30B4A7D
:102F30000B4C002301E013600432A242FBD3FDF7E7
:102F40005FFF00F011F8FDF72FFEFEE700100020F4
:102F5000000000200C000020183000080C000020A9
:102F6000E4010020FEE7000070B500260C4D0D4C7A
:102F7000641BA410A64209D1002600F021F80A4DD6
:102F80000A4C641BA410A64205D170BDB300EB58D7
:102F900098470136EEE7B300EB5898470136F2E761
:102FA00010300008103000081030000814300008FD
:102FB00003001218934200D1704719700133F9E7EA
:102FC000F8B5C046F8BC08BC9E467047F8B5C04688
:082FD000F8BC08BC9E467047E6
:102FD80000000000000000000102030406070809C1
:102FE80000000000010203040203040506070809A3
:102FF8000A0B0C0D0E0F101001020304050607083A
:08300800090A0B0C0D0E0F105C
:04301000E9000008CB
:04301400C1000008EF
:0C30180000127A0001000000040000001B
:0400000508002F15AB
:00000001FF
