:020000040800F2
:1000000000500020653800089D3700089F37000821
:1000100000000000000000000000000000000000E0
:10002000000000000000000000000000A1370008F0
:100030000000000000000000A3370008A5370008FA
:10004000B5380008B5380008B5380008B5380008DC
:10005000B5380008B5380008B5380008B5380008CC
:10006000B5380008B5380008B5380008B5380008BC
:10007000B5380008B5380008B5380008AD370008B5
:10008000B5380008B5380008B53800080000000091
:10009000B5380008B5380008B5380008B53800088C
:1000A000B5380008B5380008B5380008B53800087C
:1000B000BD370008B5380008B5380008B538000865
:1000C00010B5064C2378002B07D1054B002B02D02E
:1000D000044800E000BF0123237010BD740000201D
:1000E000000000002C410008044B10B5002B03D089
:1000F0000349044800E000BF10BDC04600000000F6
:10010000780000202C410008002243088B4274D361
:1001100003098B425FD3030A8B4244D3030B8B4208
:1001200028D3030C8B420DD3FF22090212BA030C11
:100130008B4202D31212090265D0030B8B4219D3F2
:1001400000E0090AC30B8B4201D3CB03C01A524112
:10015000830B8B4201D38B03C01A5241430B8B425A
:1001600001D34B03C01A5241030B8B4201D30B0343
:10017000C01A5241C30A8B4201D3CB02C01A52416A
:10018000830A8B4201D38B02C01A5241430A8B422D
:1001900001D34B02C01A5241030A8B4201D30B0216
:1001A000C01A5241CDD2C3098B4201D3CB01C01A30
:1001B000524183098B4201D38B01C01A524143093A
:1001C0008B4201D34B01C01A524103098B4201D328
:1001D0000B01C01A5241C3088B4201D3CB00C01A95
:1001E000524183088B4201D38B00C01A524143080D
:1001F0008B4201D34B00C01A5241411A00D2014632
:10020000524110467047FFE701B5002000F006F8A4
:1002100002BDC0460029F7D076E770477047C04658
:10022000002B11D1002A0FD1002900D1002802D0C3
:100230000021C943081C07B4024802A140180290DB
:1002400003BDC046D9FFFFFF03B4684601B502985D
:1002500000F024F8019B9E4602B00CBC7047C046DB
:1002600070B500220C4B04000D0000F02FFF002899
:1002700004D12000290000F08DFE70BD064B002245
:100280002000290000F03EFB00F084FE80231B06C6
:100290009C466044F1E7C0460000E041F0B54F469F
:1002A0004646D646C0B5040082B00D009146984639
:1002B0008B422FD82CD04146484600F02FFF290012
:1002C0000600200000F02AFF331A9C46203B9A4685
:1002D00000D576E04B46524693401F004B4662469F
:1002E00093401E00AF4228D825D05346A41BBD41E1
:1002F000002B00DA7BE0002200230092019301230F
:10030000524693400193012362469340009318E0C4
:100310008242D0D900220023009201930A9B002B35
:1003200001D01C605D600098019902B01CBC904631
:100330009946A246F0BDA342D7D9002200230092DD
:1003400001936346002BE9D0FB07984641467208AB
:100350000A437B0866460EE0AB4201D1A2420CD8AC
:10036000A41A9D41012024196D410021013E241849
:100370004D41002E06D0AB42EED9013E24196D410D
:10038000002EF8D100980199534600196941002BBD
:1003900023DB2B005246D3402A006446E2401C0077
:1003A00053461500002B2DDB26005746BE40330078
:1003B00026006746BE403200801A994100900191A4
:1003C000ACE7624620239B1A4A46DA406146130096
:1003D00042468A4017001F4380E7624620239B1A4B
:1003E0002A0066469A402300F3401343D4E762464E
:1003F000202300219B1A0022009101920122DA4061
:10040000019280E72023624626009B1ADE402F00DF
:10041000B0466646B74046463B003343C8E7C04651
:10042000F0B55746DE464E464546E0B583460600E3
:100430000F03480087B092461D003F0B400DCC0FC4
:10044000002800D16FE0DE4B984238D08023FF00B7
:100450001B041F43730F3B430193DA4B002799465C
:1004600000239B46F60081442B0369001B0B524678
:100470009846490DED0F002900D185E0D04B9942F7
:1004800000D173E04346DA0080231B041343524635
:10049000CC48520F84461343524600206144D20098
:1004A00089442100694000918C46012149448A46D3
:1004B0000F2F00D990E0C449BF00CF59BF465B461B
:1004C0003B43019300D06AE10223082700268146BE
:1004D0009B46C9E732005846019B614600910228BD
:1004E00000D175E0032800D1FEE1012800D02CE105
:1004F00000230027002600253F032A0D3F0BB348A9
:1005000012053A4302401B051343009A5B00D107D2
:100510005B080B433000190007B03CBC904699467D
:10052000A246AB46F0BD5B463B43019300D12FE1B1
:10053000002F00D1A5E1380000F0D2FD03000B3BF5
:100540001C2B00DD96E11D22D31A5A460100DA4029
:100550005E4608398F4013008E403B4301939C4B0D
:1005600000271B1A994600239B467DE741465346C8
:100570000B4393498C46E144002B00D01AE1022240
:100580000220174300228CE7134300D10DE14346BC
:10059000002B00D181E1404600F0A2FD02000B3AA1
:1005A0001C2A00DD72E10100434608398B40984661
:1005B0001D239A1A5346D3401A004346134352460A
:1005C0008A404946081A824989468144002068E7E2
:1005D0007B4B002700268EE7140C1204120C11002E
:1005E000370C3604350C794328008C462E006043C6
:1005F0006044834656432100300C80465846794378
:1006000040440291844506D98846802149028C469F
:10061000E044414602913604010C360C00048B463E
:1006200081191E0C1B041B0C0391190079438C4685
:10063000280075436544A8465843050C4544774354
:10064000A94203D9802149028C466744290C8C4673
:1006500039000004000C2D042D186144AB440591B1
:100660005946049101990F043F0C080C390051437D
:100670004243904602008C46090C8B4662437C4301
:1006800044445C44A04503D9802149028846424441
:10069000210C884661460904090C8C4639005943EF
:1006A000434370437E430F0CF6182404BE19644480
:1006B00042448C46B34203D980235B0298464044AF
:1006C000029B61469846049B370443449B46AB45D6
:1006D000AD416B420D0405992D0C8C467F19674482
:1006E000FD18A8465D462D19A542A44193466442D3
:1006F000A446C344DC448F42BF4198459B41934587
:100700009241A445A4415B427F421F43360C5242B2
:100710006442BF192243BF18624638184302D20D03
:10072000039913436A020A43501E82416146ED0D4C
:100730002A434E023243D90100D4B3E001265008C7
:1007400032400243DE0732435B08224C5444002C03
:1007500062DD510709D00F201040042805D0101D7C
:100760009042924152429B180200D90104D5802444
:100770001948E400034054441848844200DD27E748
:100780005E075B02D2081F0B630516435B0DB2E6E2
:10079000002399460133042700269B4664E6032381
:1007A000019781460C279B465EE6012201201743F4
:1007B000002276E6032303201F43434671E6C0462A
:1007C000FF07000001FCFFFFB0410008FFFF0F80A2
:1007D0000DFCFFFFFF030000FFFFFFFEFE07000010
:1007E0000023802700933F030026434B83E6019BB1
:1007F0003200A446584670E6AC466EE68027019962
:100800003F0339422DD03B422BD11F433F033F0BC7
:1008100000951600384B6EE601252D1B382D00DDA6
:1008200066E61F2D40DC35481C005044160082400F
:100830008440EE40501E824134431443EB40620733
:1008400009D00F222240042A05D02200141D944210
:10085000804140421B181A023ED501230027002682
:1008600049E68027019B3F031F433F033F0B009452
:10087000214B40E603005A46283B9A40002601924D
:100880006DE6584600F02CFC203057E60300524637
:10089000283B9A401300002293E6504600F020FCCB
:1008A00020307BE6CA4650E71F201E004042041B52
:1008B000E640202D03D0124C5444A3401A43501E4E
:1008C0008241324307260027164009D00F2000231B
:1008D000104014000428B9D122005E075B021F0BF0
:1008E000D2081643002306E680273F031F433F0339
:1008F0003F0B1600004BFEE5FF0700001E04000042
:100900003E040000F8B557464E464546DE460C000C
:100910000903E0B5490A460F5F0031431E03DB0FB0
:10092000760A9B46530F3343C84E6500C000E40F60
:10093000D2006D0DA24681467F0D9C469046B7427F
:1009400000D1B9E05B46012673409B46EE1BA345F0
:1009500000D183E0002E63DD002F00D0B1E06346BC
:10096000134300D123E1731E002B00D0BAE1861A95
:100970006346B04280410125C91A4042091A0B0260
:1009800000D447E149024B0A98464346002B00D168
:1009900089E1404600F0A4FB0300083B1F2B00DD6B
:1009A0007CE120223000D21A4146D040994002001A
:1009B0009E400A439D4200DD6AE15D1B6B1C1F2BBC
:1009C00000DD94E1202110003500C91A8E40DA4084
:1009D0008840DD40711E8E4111000722284300250A
:1009E00006433240002A09D00F233340042B05D0A0
:1009F000331DB342B641764289191E000B0200D462
:100A00003DE26A1C914B55056D0D9A4200D119E1EA
:100A10008F4AF6080A40570752023743120B9BE0F1
:100A2000002E00D0C5E06E1C7605760D012E00DC90
:100A300048E16746861ACB1BB042BF417F42B846A9
:100A40001F004346FF1A3B00B8461B0200D55FE17A
:100A500037439AD100220024002579E0002E00DCE3
:100A6000FAE0002F00D18DE0784B9D4267D08023C3
:100A700067461B041F43BC46382E00DC52E1634628
:100A800013435A1E93411E18864280414042091862
:100A90000B0200D4BEE06D4B01359D4200D1D2E087
:100AA0006B4A73080A4001210E401E435108D307C8
:100AB00007221E43324095E71E00164300D045E74B
:100AC00040E7624B9D423AD0802367461B041F4398
:100AD000BC46382E00DDEBE01F2E00DC3AE133008F
:100AE0006746203BDF403B00202E05D04027BF1B40
:100AF0006646BE40324390464646721E9641334398
:100B0000DAE0002B00D114E26346134300D168E120
:100B100080234E07C008C9081B030643194208D0AA
:100B20006046C008184204D163460100D2085E073F
:100B30001643F3009946C900720F444D11434B46CA
:100B4000DE08424B4F073743CA089D4200D16EE092
:100B500012036D05120B6D0D00211203130B0A0D0C
:100B600012051A433B4B2D0513402B435B00E40752
:100B70005B082343380019003CBC90469946A246C6
:100B8000AB46F8BD6346134311D0731E002B00D053
:100B900007E18618864280416144404209180125D8
:100BA0000B0237D502257BE73E00614691463500B2
:100BB000C5E75C46002D00D0E1E00B000343F3D015
:100BC000731C00D1ACE1214B9F4200D13AE1F343C9
:100BD000382B00DD6FE11F2B00DD8CE120250E009E
:100BE000ED1AAE40B0460600AA46DE404546354303
:100BF0002E005546D940A8406346451EA8415B1AC1
:100C00009C463043161AB242924163465242991AA8
:100C10003D00B4E607223240002A00D0E4E60B4B48
:100C2000F6084F073743CA089D4200D090E73B00C3
:100C3000134300D1A6E180231B031A431203120BB6
:100C4000024D89E715000022002785E7FF07000015
:100C5000FFFF7FFFFFFF0F80002E00D0C7E06B1C5F
:100C60005E05760D012E00DCF0E0C84DAB4200D1F0
:100C7000B9E085180A008542894162444942511809
:100C80000722CE076D082E43490832401D00A9E611
:100C9000BF49ED1A114007223240A3E6320028383E
:100CA0008240002686E6300000F01AFA203073E613
:100CB000634613435A1E9341C61AB04280414042D4
:100CC000091A5CE60E00674606431743002D5ED105
:100CD000002E00D0F3E0002F00D11EE15C466146FB
:100CE00091462CE7A94FBE427BD01E00F1E61000D2
:100CF0001F3DE840202B03D04021CB1A9A401643D9
:100D0000731E9E410722064332400021002583E7DF
:100D1000161A6346B2428041591A40420B1A98464D
:100D20005C4632E61F2E00DDABE02027BB1B9A4657
:100D300063465746BB40994613004F46F3401F4356
:100D40003B005746BA40571EBA4113436246F24031
:100D5000891898E62027BB1B9A4663465746BB4036
:100D6000994613004F46F3401F433B005746BA4095
:100D7000571EBA4113436246F240891A9CE7834BDF
:100D80009F425FD080252D047342294320E7002E27
:100D90000CD1002F00D1D0E05C46614691467B4DDE
:100DA000CDE67A4FBE421CD01E0065E6002F18D05B
:100DB000C0084E0706438020C9080003014208D03E
:100DC0006346DC08044204D12100DA46D2085E07FB
:100DD0001643F300994601245346C900720F11438C
:100DE0001C406A4DABE61D0000220027B4E6002D32
:100DF00059D10B00034300D1D6E6731C00D1B2E0F9
:100E0000624B9F421ED0F343382B6FDC1F2B00DD5B
:100E100097E020250E00ED1AAE40B0460600AA4627
:100E2000DE40454635432E005546A840D940451E74
:100E3000A8418C440643B6189642924151426144FF
:100E40003D0025E63D006146914678E60B000343F0
:100E5000002D00D055E6002BF5D06346134300D19A
:100E60006DE686188642804161444042091800229E
:100E70000B0200D4D0E6464B01351940B2E5B1462D
:100E80005DE633006746203BDF403B00202E05D067
:100E90004027BF1B6646BE40324390464646721E00
:100EA00096413343EFE5394B9F42CBD080252D044B
:100EB00073422943A8E70843411E8841A2E6002F58
:100EC00000D13CE66346861ACF1AB0429B415B4292
:100ED000FB1A98461B024ED5161A6346B24292413F
:100EE000591A5242891A5C4600227BE501430E00E2
:100EF000711E8E419FE71D000E00203DEE40B04662
:100F0000202B04D04025EB1A9940084381464846DF
:100F10004346411E8841184374E60022002417E628
:100F2000161A6346B2429241591A5242891A3D003A
:100F300025E561469146154D01E680220024120305
:100F400079E61D000E00203DEE40B046202B04D077
:100F50004025EB1A9940084381464E464346711E90
:100F60008E411E4367E7861896429B4161445B426F
:100F7000C9183D008CE547463743CED0072241468D
:100F8000324049E600273A00E6E5C046FF07000088
:100F9000FFFF7FFF30B5144D0A034B00120B5B0DB2
:100FA000C90F0024AB4211DD104CA34210DC802499
:100FB000640322430E4CE41A1F2C0CDD0D48C31AA7
:100FC000DA4013005C42002900D11C00200030BD33
:100FD000094BCC18FAE7094DE040AC4663449A400F
:100FE00013000343EEE7C046FE0300001D040000AB
:100FF0003304000013040000FFFFFF7FEDFBFFFF41
:1010000010B5041E25D000F06BF8144B1B1A5B05BD
:101010005B0D0A2812DD0B38844000222403240BC8
:101020000021100024030A0D240B120522430C4C4E
:101030001B05224013435B00590810BD020021002C
:10104000153291400A000B21081AC4402403240BD6
:10105000E6E7002300240022E2E7C0461E04000069
:10106000FFFF0F808446101C62468C46191C6346A5
:1010700000E0C0461FB500F0FDF8002801D40021B3
:10108000C8421FBD10B500F055F84042013010BDF8
:1010900010B500F0EFF8002801DB002010BD0120A2
:1010A00010BDC04610B500F0E5F8002801DD0020B5
:1010B00010BD012010BDC04610B500F077F8002823
:1010C00001DC002010BD012010BDC04610B500F0AD
:1010D0006DF8002801DA002010BD012010BDC046C7
:1010E0001C2101231B04984201D3000C10391B0A58
:1010F000984201D3000A08391B09984201D300091C
:10110000043902A2105C40187047C0460403020272
:1011100001010101000000000000000010B50029DD
:1011200003D1FFF7DDFF203002E0081CFFF7D8FFF6
:1011300010BDC046F0B54F464646D6468446C0B5BB
:101140008046194E18030F034D00000B5C008246C9
:101150003F0B6D0DC90F9146640DDB0F0120B542A9
:101160000AD0B44203D0A54201D157450CD01CBCD3
:1011700090469946A246F0BD66463E43F7D1AC4242
:10118000F5D154461443F2D10120C845EFD199421C
:1011900007D0002DEBD163461F433800471EB841EE
:1011A000E5E70020E3E7C046FF070000F0B54F4643
:1011B0004646D6464D00C0B50E03C90F8A462C4997
:1011C0001F035C008046360B6D0D91463F0B640D8E
:1011D000DB0F8D421ED08C4216D0002D1ED1304325
:1011E0008446002C01D13A4323D06246002A1AD00B
:1011F0009A4529D0514602200139084001381CBCCB
:1012000090469946A246F0BD39001143E5D0022030
:101210004042F4E73043FAD1AC420FD0002C0FD15A
:101220003A43E7D00CE00122013B93431800013020
:10123000E5E763460020002BE1D0DBE73A43E6D147
:101240009A45D7D1A542D5DCA54205DBBE42D1D80F
:1012500008D00020BE42D2D2504601230138984324
:101260000130CCE7C845C5D80020C845F4D3C6E74F
:10127000FF070000F0B54F464646D6464D00C0B5C4
:101280000E03C90F8A462E491F035C008046360BA9
:101290006D0D91463F0B640DDB0F8D4218D08C42D3
:1012A00011D0002D18D130438446002C1ED13A4372
:1012B0001CD163460020002B30D05146022001395A
:1012C000084001382AE039001143EAD0022025E025
:1012D0003043FBD1AC4226D0002C26D13A4324D156
:1012E0005146022001390840013817E06246002AC1
:1012F0000FD09A45E1D1A54205DBBE42DDD819D019
:101300000020BE420AD250460123013898430130E2
:1013100004E00122013B9343180001301CBC9046BD
:101320009946A246F0BD3A43D0D19A45C5D1A542CF
:10133000C3DCE0E7C845C0D80020C845E3D3EDE7EB
:10134000FF07000010B504000F4B1978FA20800049
:10135000FEF7DAFE01000D4B1868FEF7D5FE00F02F
:1013600089F800280DD1032C01D901200AE00130B1
:1013700000222100404200F043F8034B5C60002053
:1013800000E0012010BDC046000000200C0000203D
:1013900010B5084A136840210B4313600020FFF783
:1013A000D1FF041E02D00124200010BD02F04AF932
:1013B000FAE7C04600200240034A1168034B1B783D
:1013C0005B1813607047C046B0000020000000208A
:1013D000014B18687047C046B000002070B504008B
:1013E000FFF7F6FF0500631C02D0044B1B78E418DE
:1013F000FFF7EEFF401BA042FAD370BD00000020B3
:1014000070B5002811DB8408134DC034A400625964
:1014100003231840C000FC331E008640B2438901FC
:101420000B4083401343635170BDC0B20F22024092
:10143000083A920806329200084BD3185D680324DC
:101440002040C000FF2214008440A54389010A40C7
:1014500082402A435A60E7E700E100E000ED00E047
:101460001F2318401E3B8340014A13607047C0464B
:1014700000E100E001380A4B98420FD8094A506059
:101480000948036A1B021B0AC02109060B430362B9
:101490000023936007331360002070470120FCE7AE
:1014A000FFFFFF0010E000E000ED00E010B5252395
:1014B000C35C022B03D00423C363012010BD026868
:1014C00013680E218B43136001680A6801239A4355
:1014D0000A601C22416C0A40016C1C0094404C6064
:1014E0002522835423330022C254836B002B02D065
:1014F00098470020E2E70020E0E70000F0B5CE4684
:10150000474680B5002333E0052600E00026AE40C4
:1015100035003D430234A400574EA551574C256871
:10152000D4432E0026404F68FF0301D515432E00FB
:10153000524D2E606D682E0026404F68BF0301D5C6
:1015400015432E004D4D6E60AD682E0026404F684D
:10155000FF0201D515432E00484DAE60ED682C40CA
:101560004E68B60201D52A431400444AD4600133C0
:101570000A681400DC407AD001249C402240F6D056
:101580004D686E1E012E03D9112D01D0122D12D1DE
:1015900085685F000326BE40B5432E00CD68BD4080
:1015A000354385604568A5434C68260901243440CD
:1015B0009C402C434460C7685E000324B440E4436D
:1015C000A44627408D68B5403D43C5604C68022C59
:1015D00001D0122C10D1DC080834A400A1462758F1
:1015E00007251D40AD000F24AC40A7430C69AC405B
:1015F00025003D434C46255005686446254003249C
:101600004F683C40B4402C4304604C68E400AED5C5
:101610001B4D6C6B012634436C639C08A51CAD000C
:10162000154EAF5903261E40B5000F26AE40B743F6
:10163000A026F605B04200D168E7124EB0420ED0A7
:10164000114EB0420DD0114EB0420CD0104EB042EF
:101650000BD0104EB04200D156E7062657E70126C0
:1016600055E7022653E7032651E704264FE70CBC53
:1016700090469946F0BDC04600000140000401407C
:10168000001002400004005000080050000C005000
:1016900000100050001C0050002A01D181627047E8
:1016A0008161FCE710B5264BD9680C230B40082B51
:1016B00042D00C2B11D0042B09D0214B5A68520B6D
:1016C00007231340013380200002984010BD1C4BBB
:1016D0001B68DB0632D51B48F8E78A0C0F23134042
:1016E000194AD05C890D032211400131144BDB688B
:1016F000DB030DD4124B1B68DB0613D54201121A13
:1017000093019B1ADB001B181802FEF7FDFCDDE7B6
:101710004201121A93019B1ADB001B185802FEF7B4
:10172000F3FCD3E74201121A93019B1ADB001B184A
:101730009802FEF7E9FCC9E70448C7E70448C5E793
:101740000010024000093D008C41000800127A00A0
:101750000024F400F0B583B0041E00D19FE2C44B16
:10176000DA680C251540DA68802676021640036890
:10177000DB0736D5082D2CD00C2D28D063688022AD
:101780005202934255D0A022D202934258D0B84B75
:101790001A68B8490A401A601A68802149020A404A
:1017A0000192019A1A68B4490A401A606368002BD2
:1017B00052D0FFF70DFE0700AD4B1B689B0310D402
:1017C000FFF706FEC01B6428F6D9032068E2002E4E
:1017D000D4D0A74B1B689B0303D56368002B00D1B3
:1017E00060E223689B076CD5E3689A0605D5A0489C
:1017F000026820210A4302608B43042D3CD00C2D4B
:1018000038D0002B00D1AEE099490A680920824304
:1018100013430B60FFF7DCFD0600954B1B685B076D
:1018200000D597E0FFF7D4FD801B0228F5D90320EF
:1018300036E28F4A116880235B020B431360B5E7E1
:101840008B4B19688022D2020A431A6019688022E1
:1018500052020A431A60A9E7FFF7BAFD0700844B5A
:101860001B689B03BDD5FFF7B3FDC01B6428F6D9E9
:10187000032015E2002EC4D17D4A1268520702D51A
:10188000002B00D110E27A4E72687C490A4021692F
:1018900009020A437260326809218A4313433360A4
:1018A000FFF700FFF26812090F231340744AD35C5C
:1018B000D840744B18600020FFF744FD002800D08A
:1018C000EEE12368DB062CD5002D5FD1684B1B6849
:1018D0009B0503D5E369002B00D1E7E1644A536817
:1018E00069490B40616A0B43536053681B021B0A32
:1018F000216A09060B435360636A590B0131802347
:101900001B028B40D16809090F220A405C498A5C9E
:10191000D3405C4A13600020FFF714FD002800D07C
:10192000BEE123681B077DD56369002B67D0504A51
:10193000136D01210B431365FFF74AFD06004C4B65
:101940001B6D9B076ED4FFF743FD801B0228F6D961
:101950000320A5E146494B68484A13402269120218
:1019600013434B60ADE7424A136801218B43136078
:10197000FFF72EFD06003E4B1B685B07A1D5FFF766
:1019800027FD801B0228F6D9032089E1E369002B9B
:1019900022D0374A116880235B000B431360FFF7A6
:1019A00017FD0600324B1B689B0506D4FFF710FDA0
:1019B000801B0228F6D9032072E12D4A5368324970
:1019C0000B40616A0B43536053681B021B0A216A78
:1019D00009060B435360A4E7254A13682B490B40C3
:1019E0001360FFF7F5FC0600214B1B689B0598D59B
:1019F000FFF7EEFC801B0228F6D9032050E11C4AB9
:101A0000136D01218B431365FFF7E2FC0600184BB1
:101A10001B6D9B0706D5FFF7DBFC801B0228F6D960
:101A200003203DE123685B0700D48CE0104B9B6BE7
:101A3000DB001BD40E4A916B80235B050B43936341
:101A40000126134B1B68DB0526D5A36880225200B4
:101A5000934235D0002B4BD1054B1A6D0B490A40F0
:101A60001A651A6D0B490A401A652FE00026E8E74F
:101A700000100240FFFFFEFFFFFFFBFFFFE0FFFF44
:101A8000984100080C000020FF1FFFFFFFFEFFFF32
:101A900000700040FFFBFFFF884A116880235B0055
:101AA0000B431360FFF794FC0700844B1B68DB05B6
:101AB000CBD4FFF78DFCC01B6428F6D90320EFE0E0
:101AC0007F4A116D80235B000B431365A368002BD5
:101AD00028D0FFF77DFC0700794B1B6D9B0530D4A8
:101AE000FFF776FCC01B774B9842F5D90320D7E06F
:101AF000A022D200934209D0714B1A6D72490A405C
:101B00001A651A6D71490A401A65DFE76C4B196D49
:101B1000013AFF3A0A431A65196D802252000A43BE
:101B20001A65D3E7FFF754FC0700654B1B6D9B0557
:101B300007D5FFF74DFCC01B624B9842F5D9032037
:101B4000AEE0012E21D023689B063CD5A369002B73
:101B500021D05B4B99680120014399605A6B024385
:101B60005A635B4A116A80239B010B431362FFF7A0
:101B70002FFC0600524B9B689B0724D4FFF728FCE0
:101B8000801B0228F6D903208AE04D4A936B514905
:101B90000B409363D7E74A4A936801218B439360D4
:101BA0004B4A136A4C490B401362FFF711FC0600C5
:101BB000434B9B689B0706D5FFF70AFC801B022856
:101BC000F6D903206CE0A36A002B00D170E00C2D45
:101BD00049D0022B12D03A4A136840490B40136097
:101BE000FFF7F6FB0400364B1B689B0139D5FFF766
:101BF000EFFB001B0228F6D9032051E0304A13689E
:101C000036490B401360FFF7E3FB05002C4B1B68C4
:101C10009B0106D5FFF7DCFB401B0228F6D9032009
:101C20003EE02749CB682E4A1340E26A206B02430C
:101C3000606B02431343CB600A6880235B04134349
:101C40000B60FFF7C5FB04001D4B1B689B0106D40E
:101C5000FFF7BEFB001B0228F6D9032020E000207E
:101C60001EE000201CE0012B24D0154BDA688023F5
:101C70005B021340E16A8B4201D0012010E0F023A7
:101C80009B031340216B8B4201D0012008E0C0234D
:101C90001B041A40636B9A420ED0012000E0012021
:101CA00003B0F0BD0120FBE70120F9E70120F7E7D1
:101CB0000020F5E70120F3E70020F1E70070004085
:101CC0000010024088130000FFFEFFFFFFFBFFFF34
:101CD00000000140FFFFFFEFFFDFFFFFFFFFFFFE00
:101CE000FFFF02FF70B504000D00002800D1BAE02C
:101CF0005F4B1A68012313408B420BD25C490B687F
:101D0000012293432B430B600B681A40AA4201D077
:101D10000120A9E023689B0706D5564AD368F02125
:101D20008B43A1680B43D3602368DB0764D56368EA
:101D3000022B09D0032B29D0012B2DD04D4A12683C
:101D4000920506D401208FE04A4A1268920300D41B
:101D50008BE04849CA68032082431343CB60FFF7F6
:101D600037FB06006368022B1CD0032B28D0012B05
:101D700034D0404BDB680C221A423DD0FFF728FBE1
:101D8000801B3D4B9842F4D903206DE0394A12681C
:101D90009201DED4012067E0364A12685207D8D497
:101DA000012061E0334BDA680C231340082B23D069
:101DB000FFF70EFB801B304B9842F3D9032053E012
:101DC0002C4BDA680C2313400C2B15D0FFF700FBCB
:101DD000801B294B9842F3D9032045E0254BDA6854
:101DE0000C231340042B07D0FFF7F2FA801B224B81
:101DF0009842F3D9032037E01D4B1A6801231340A2
:101E0000AB420BD91A490B68012293432B430B6059
:101E10000B681A40AA4201D0012025E023685B0725
:101E200006D5144AD36815490B40E1680B43D360CB
:101E300023681B0707D50F49CB68114A1340226955
:101E4000D2001343CB60FFF72DFC0A4BDA6812096E
:101E50000F2313400B4AD35CD8400B4B1860002073
:101E6000FFF770FA00E0012070BD0120FCE7C046DA
:101E7000002002400010024088130000FFF8FFFF1E
:101E8000FFC7FFFF984100080C000020014B1868B5
:101E90007047C0460C00002010B5FFF7F7FF044B59
:101EA000DA68120A07231340024AD35CD84010BDF7
:101EB00000100240A841000810B5FFF7E7FF044BEF
:101EC000DA68D20A07231340024AD35CD84010BD17
:101ED00000100240A841000870B5040082231B01D5
:101EE00002681A425AD0754B9B6BDB0000D59DE00F
:101EF000724A916B80235B050B4393630125704B02
:101F00001B68DB0500D493E06C4B1A68C0239B036D
:101F10001A4061680B40934200D19EE0C0239B02AF
:101F20000A001A409A4200D19FE0644B1B6DC02208
:101F3000920213401FD01140994202D022689206AB
:101F400008D4C0229202A1680A409A4213D02368A2
:101F50001B0510D5594B186D5A4A02401E6D802141
:101F6000090331431965196D574E314019651A65DA
:101F7000C30500D580E06368C022920219001140B9
:101F8000914200D188E04D490B6DC02292026068F9
:101F9000024013430B65012D00D187E02368DB0766
:101FA00006D5464AD36C03218B43E1680B43D364C7
:101FB00023689B0706D5414AD36C0C218B432169CA
:101FC0000B43D36423685B0706D53C4AD36C3F4977
:101FD0000B4061690B43D36423681B0706D5374A5E
:101FE000D36C3B490B40A1690B43D3642368DB05E9
:101FF00006D5324AD36C33490B40E1690B43D364B5
:1020000023685B0606D52D4AD36C32490B40616AC2
:102010000B43D36423681B064ED5284AD36C2E4944
:102020000B40216A0B43D364002070BD002566E796
:10203000234A116880235B000B431360FFF7C8F944
:1020400006001F4B1B68DB0500D55DE7FFF7C0F9F5
:10205000801B6428F5D90320E7E7C0239B03A06811
:102060000340934200D059E75FE7144B1B689B0382
:1020700000D45AE70120D8E7FFF7AAF906000F4B72
:102080001B6D9B0500D576E7FFF7A2F9801B134B6C
:102090009842F4D90320C8E708490A68104802406A
:1020A000C0208003034013430B606CE70A008B6B76
:1020B0000C490B40936371E70020B6E70010024023
:1020C00000700040FFFFFCFFFFFFF7FFFFF3FFFF83
:1020D000FFCFFFFFFFFFFFFBFFFFF3FF88130000B1
:1020E000FFFFCFFFFFFFFFEF03688022D205904282
:1020F00008D0154A904205D0144A904202D0144AA2
:10210000904203D1702293434A6813438022D20540
:10211000904208D00C4A904205D00C4A904202D01E
:102120000B4A904203D10B4A1340CA6813438022E2
:1021300093430A69134303608B68C3620B6883622D
:10214000012343617047C04600040040000801407D
:1021500000140140FFFCFFFF30B5036A01229343E6
:102160000362036A446882697325AA430D682A439F
:102170000225AB438D682B43446082614A68426309
:10218000036230BD30B5036A102293430362036AD1
:1021900045688269084C14400A68120222432024D0
:1021A000A3431C008B681B012343456082614A687E
:1021B0008263036230BDC046FF8CFFFF30B5036A07
:1021C0000A4A13400362036A4568C2697324A24342
:1021D0000C682243064C1C408B681B02234345605D
:1021E000C2614A68C263036230BDC046FFFEFFFFA2
:1021F000FFFDFFFF30B5036A0A4A13400362036A1A
:102200004568C269084C14400A6812022243074C10
:102210001C408B681B0323434560C2614A6802640B
:10222000036230BDFFEFFFFFFF8CFFFFFFDFFFFF0B
:10223000F0B51700046A0125AC4304628469056A9D
:102240008026F605B0420BD00E4A904208D00E4AC6
:10225000904205D00D4A904202D00122224303E071
:102260000322944322003A43F024A2431C01FF239B
:1022700023401A430A24A5430C402C438261046284
:10228000F0BDC046000400400008014000140140B9
:1022900030B5036A046A0125AC4304628469EF35F2
:1022A000AC43120122430A24A34319438261016211
:1022B00030BD000070B5046A1025AC430462856926
:1022C000046A084E354012022A43074D2A401B0774
:1022D0001B0C1343A022944309010A40224383614B
:1022E000026270BDFFFCFFFFFF0FFFFF30B5036A06
:1022F0001024A34303628469036A054D2C40120332
:102300002243A024A343090119438261016230BD25
:10231000FF0FFFFF70B5046A0B4D2C400462C469C7
:10232000056A0326B4432243F024A2431C01FF2381
:1023300023401A43054B2B400902A02424012140CD
:102340001943C261016270BDFFFEFFFFFFF5FFFF91
:1023500070B5046A0B4D2C400462C569046A0A4ECC
:10236000354012022A43094D2A401B071B0C134318
:10237000074A22400903A024240221401143C361DB
:10238000016270BDFFEFFFFFFFFCFFFFFF0FFFFFCC
:10239000FF5FFFFF0B008168702291431943072301
:1023A000194381607047000030B58468034D2C40AC
:1023B0001B021A4311432143816030BDFF00FFFF20
:1023C00010B51F23194001248C40036AA343036204
:1023D000036A8A401A43026210BD70B5041E14D00D
:1023E0003923C35C002B0AD0392502236355211DF4
:1023F0002068FFF779FE01236355002070BD383354
:102400000022C25401F05EF9EEE70120F6E77047C2
:1024100070B5041E14D03923C35C002B0AD03925B3
:1024200002236355211D2068FFF75EFE01236355DB
:10243000002070BD38330022C254FFF7E8FFEEE7FA
:102440000120F6E710B5040001220068FFF7B8FF8D
:102450002268916807230B40062B03D013680121E3
:102460000B431360002010BD70B5041E14D0392337
:10247000C35C002B0AD0392502236355211D206837
:10248000FFF732FE01236355002070BD3833002270
:10249000C25401F0E5F8EEE70120F6E710B50400BC
:1024A000042921D009D9082924D00C290CD102688B
:1024B000D36810200343D36006E0002904D10268EA
:1024C000D36802200343D36001222068FFF778FF1E
:1024D0002268916807230B40062B03D01368012163
:1024E0000B431360002010BD0268D368042003432F
:1024F000D360E9E70268D36808200343D360E3E7C9
:1025000070B504000D003823C35C012B58D038236C
:102510000121C15401330131C154002A1CD0042AC5
:102520002BD0082A3BD0EB686A6829680068FFF75F
:102530000FFF2268D36923490B40D3612168CB691F
:10254000AA6812021343CB6139230122E254013BF2
:102550000022E254002070BDEB686A6829680068B8
:10256000FFF766FE226893690C218B439361226812
:102570009369A9680B439361E6E7EB686A68296889
:102580000068FFF797FE226893690E490B4093613C
:1025900021688B69AA68120213438B61D4E7EB6848
:1025A0006A6829680068FFF7B5FE2268D3690C21C4
:1025B0008B43D3612268D369A9680B43D361C3E716
:1025C0000220C8E7FFF3FFFF70B504000D003823B9
:1025D000C35C012B69D038230121C154013301317F
:1025E000C154042A37D019D9082A4AD00C2A2AD132
:1025F00029000068FFF7FEFD2268D16980231B01D6
:102600000B43D3612268D36929490B40D361216808
:10261000CB69EA6812021343CB6114E0002A12D19D
:1026200029000068FFF798FD2268936908210B4391
:1026300093612268936904398B439361226893699B
:10264000E9680B43936139230122E254013B0022E4
:10265000E254002070BD29000068FFF793FD226856
:10266000916980231B010B43936122689369104990
:102670000B40936121688B69EA68120213438B61F6
:10268000E1E729000068FFF799FD2268D369082176
:102690000B43D3612268D36904398B43D361226829
:1026A000D369E9680B43D361CDE70220D2E7C04686
:1026B000FFFBFFFF10B504003823C35C012B66D07D
:1026C00038230122C25401330132C2540268936894
:1026D0003048034093600B68402B4ED015D9602BD7
:1026E00041D021D9702B2BD080229201934232D13C
:1026F000CB684A6889682068FFF756FE22689168AF
:102700008023DB010B43936025E0102B07D004D915
:10271000202B04D0302B02D01DE0002B1BD1190040
:102720002068FFF737FE16E0502B14D1CA684968BD
:102730002068FFF7ADFD50212068FFF72BFE0AE06F
:10274000CB684A6889682068FFF72EFE2268936884
:1027500077210B43936039230122E254013B00228D
:10276000E254002010BDCA6849682068FFF7BEFD2A
:1027700060212068FFF70EFEEDE7CA68496820680F
:10278000FFF786FD40212068FFF704FEE3E7022003
:10279000E8E7C0468800FFFF04290CD006D90829C5
:1027A0000CD00C290DD10368186C03E0002908D166
:1027B0000368586B70470368986BFBE70368D86B36
:1027C000F8E70020F6E7704770477047704710B58C
:1027D000040003681A6992070FD5DA6892070CD5CE
:1027E000032252421A610123037603689B699B0707
:1027F00055D000F0F7FD0023237623681A695207AD
:1028000012D5DA6852070FD5052252421A61022307
:10281000237623689A69C0239B001A4245D0200082
:1028200000F0E0FD0023237623681A69120710D513
:10283000DA6812070DD5092252421A610423237661
:102840002368DB699B0737D0200000F0CBFD002315
:10285000237623681A69D20612D5DA68D2060FD514
:10286000112252421A61082323762368DA69C023B1
:102870009B001A4227D0200000F0B4FD00232376ED
:1028800023681A69D20702D5DA68D20722D42368EE
:102890001A69520602D5DA68520622D410BDFFF733
:1028A00093FF2000FFF791FFA5E72000FFF78CFFC3
:1028B0002000FFF78AFFB5E72000FFF785FF200023
:1028C000FFF783FFC3E72000FFF77EFF2000FFF73D
:1028D0007CFFD3E7022252421A612000FFF773FF08
:1028E000D5E7412252421A612000FFF76FFFD5E77A
:1028F000F0B53823C35C012B1BD0382601239C463E
:10290000835539270133C35502685468936870258D
:10291000AC430D682C438025AB431D004B682B4313
:102920005460026893606346C355002383550020BA
:10293000F0BD0220FCE73823C35C012B06D00368FE
:10294000196538230022C254002070470220FCE79A
:102950000268136806490B401360026893682331CC
:10296000FF318B4393602023836700230366704706
:10297000DFFEFFFF704710B50268136840218B43EC
:1029800013602023436700234366FFF7F3FF10BD66
:102990007047000070B504000168CB6908688D6855
:1029A0000F221A400AD19E0608D5860606D5236E48
:1029B000002B00D189E02000984786E0002A6BD0E8
:1029C00001222A4003D190267600304264D0DD07F0
:1029D00006D5C50504D501250D62E16F2943E167E0
:1029E000990708D5002A06D0216802250D62E16FFB
:1029F00002352943E167590708D5002A06D0216826
:102A000004250D62E16F023D2943E167190709D5ED
:102A1000810601D4002A05D0226808211162E26FE4
:102A20000A43E267E26F002A4FD09B0606D5830671
:102A300004D5236E002B01D020009847E26F236855
:102A40009B685B0601D4130720D52000FFF780FFA9
:102A500023689A68520615D59A6840218A439A607D
:102A6000E36E002B0AD01B4A9A63E06EFEF71EFD50
:102A700000282AD0E06E836B984726E02000FFF7FD
:102A800087FF22E02000FFF783FF1EE02000FFF712
:102A90007FFF0023E36718E0DA0201D56A0209D458
:102AA0001A060ED502060CD5636E002B0DD0200041
:102AB00098470AE080235B030B62200000F0E8FAED
:102AC00003E05B0601D5430600D470BD2000FFF78C
:102AD00052FFFAE7D92A000810B5806A00235A226B
:102AE0008352083A8352FFF753FF10BDD0B504005C
:102AF000016883680269134342691343C26913433F
:102B00000A68BA48024013430B6022685368B84908
:102B10000B40E1680B435360A1692268B54B9A42B0
:102B200001D0236A19439368B34803400B43936071
:102B30002368B24A93421CD0B14A93422DD0B14A85
:102B400093425FD0B04A93425ED0AA4A934239D0B2
:102B50001022A8498B425BD080231B02E169994275
:102B600000D190E0082A00D971E19200A74B9B5850
:102B70009F46A74AD16C03220A40012A09D0002AA5
:102B800005D0022A3AD0032A05D01022E1E701221B
:102B9000DFE70422DDE70822DBE79D4AD16C0C2247
:102BA0000A40042A0AD005D9082A29D00C2A07D1BC
:102BB0000822CEE7002A03D10022CAE70422C8E790
:102BC0001022C6E7924AD26CC02109010A40802136
:102BD000C9008A420ED009D9802109018A4215D044
:102BE000C02109018A4207D10822B2E7002A03D195
:102BF0000022AEE70422ACE71022AAE70222A8E7EF
:102C00000222A6E70022A4E70022A2E70222A0E710
:102C1000022A2DD007D9042A30D0082A00D019E181
:102C20008020000207E0002A00D013E1FFF734F90A
:102C3000002800D110E1626853009B18834200D93C
:102C40000CE11303834200D20AE1070E060250088A
:102C50000021801979410023FDF7E2FA6D4BC2187B
:102C60006D4B9A4200D9FDE02368D860002085E0D2
:102C7000674B1B68DB0604D46848DCE7FEF712FDEF
:102C8000D6E76748D7E7082A62D89200654B9B5879
:102C90009F46FFF701F9400063685B08C018616850
:102CA000FDF732FA03041B0C00205F491A00103AAA
:102CB0008A4200D9D8E00F22190091435B08083AF4
:102CC00013400B432268D36058E0FFF7F5F840004B
:102CD00063685B08C0186168FDF716FA03041B0CF3
:102CE0000020E2E74A4B1B68DB060BD563685808F7
:102CF0004E4B9C4660446168FDF706FA03041B0CCA
:102D00000020D2E763685808494B9C4660446168DC
:102D1000FDF7FAF903041B0C0020C6E7FEF7C2FC1E
:102D2000400063685B08C0186168FDF7EDF90304B3
:102D30001B0C0020B9E76368580880235B029C469F
:102D400060446168FDF7E0F903041B0C0020ACE768
:102D500001200023A9E7FFF79FF863685B08C0180C
:102D60006168FDF7D1F903041B0C00202E491A00FD
:102D7000103A8A4200D979E02268D36000232366A2
:102D80006366D0BDFFF798F863685B08C018616898
:102D9000FDF7BAF903041B0C0020E7E71C4B1B6886
:102DA000DB060BD5636858081D4B9C466044616880
:102DB000FDF7AAF903041B0C0020D7E76368580845
:102DC000164B9C4660446168FDF79EF903041B0C9A
:102DD0000020CBE7FEF766FC63685B08C0186168FB
:102DE000FDF792F903041B0C0020BFE7F369FFEF26
:102DF000FFCFFFFF00480040FFF4FFFF0038014015
:102E000000440040004C0040005000404441000895
:102E10000010024000FDFFFFFFFC0F000024F40043
:102E200000093D0068410008EFFF000000127A0031
:102E30000048E8016368580880231B029C466044F0
:102E40006168FDF761F903041B0C00208EE7012087
:102E500000238BE7012091E700208FE701208DE719
:102E600001208BE7012089E7012087E7012085E722
:102E7000436ADB0706D5026853682C490B40816A18
:102E80000B435360436A9B0706D502685368284981
:102E90000B40C16A0B435360436A5B0706D5026867
:102EA000536824490B40016B0B435360436A1B0773
:102EB00006D50268536820490B40416B0B435360B1
:102EC000436ADB0606D5026893681C490B40816B98
:102ED0000B439360436A9B0606D5026893681849C2
:102EE0000B40C16B0B439360436A5B060BD50268D2
:102EF000536814490B40016C0B43536080235B0300
:102F0000026C9A420AD0436A1B0606D502685368CF
:102F10000D490B40816C0B43536070470268536846
:102F20000A490B40416C0B435360ECE7FFFFFDFF88
:102F3000FFFFFEFFFFFFFBFFFF7FFFFFFFEFFFFF36
:102F4000FFDFFFFFFFFFEFFFFFFFF7FFFFFF9FFF29
:102F5000F0B5C64600B506000C0017009846069D61
:102F60003368DB6923401B1B5A425341BB421CD1CF
:102F70006B1CF5D0FEF72CFA4346C01AA84201D8C4
:102F8000002DEDD1326813680A490B401360326896
:102F90009368A331FF318B43936020237367B3673A
:102FA00050330022F254032000E0002004BC90467D
:102FB000F0BDC0465FFEFFFF30B583B004000023C4
:102FC000C367FEF705FA050023681B681B070CD4CE
:102FD00023681B685B0715D420236367A3675033FE
:102FE0000022E254002003B030BD80210C4B00933E
:102FF0000300002289032000FFF7AAFF0028E7D082
:103000000320F0E78021064B00932B000022C90328
:103010002000FFF79DFF0028DED00320E3E7C04635
:10302000FFFFFF0110B5041E2ED0436F002B21D0EF
:10303000242363672268136801218B4313602000F7
:10304000FFF754FD012814D0636A002B18D12268C1
:1030500053680E490B405360226893682A218B43C2
:1030600093602268136829390B4313602000FFF72F
:10307000A3FF10BD70330022C25400F059FBD7E704
:103080002000FFF7F5FEE2E70120F2E7FFB7FFFFC0
:103090007047000070B586B01422002101A800F02E
:1030A00035FC0E4BDA6A01242243DA62DB6A2340E4
:1030B0000093009B0A4EA025ED0500223100280058
:1030C000FEF7EAFA0196029400230393049301A900
:1030D0002800FEF713FA06B070BDC046001002408B
:1030E000301E000030B587B00822002104A800F08F
:1030F0000DFC10220021684600F008FC124C8023D1
:10310000DB052360102363600025A5600F4BE3609F
:10311000256165612000FFF7A7F90495059504A9CD
:103120002000FFF7E5FB009501230193029503952D
:10313000002269462000FFF7E3F904212000FFF791
:10314000FAFB07B030BDC046FC000020FFFF0000C6
:1031500010B50948094B0360E1235B02436000237B
:103160008360C36003610C2242618361C3610362B7
:103170004362FFF757FF10BD3801002000440040B4
:1031800030B58BB01022002106A800F0BFFB08224A
:10319000002104A800F0BAFB10220021684600F0CC
:1031A000B5FB1C4C1C4B2360132363600025A560FA
:1031B000FA239B00E360256165612000FFF70DF9AC
:1031C00080235B01069306A92000FFF773FA200015
:1031D000FFF71EF90495059504A92000FFF788FB69
:1031E000602300939533FF330193029503950022EA
:1031F00069462000FFF7E8F904212000FFF79BFB58
:10320000042269462000FFF7DFF9200000F06AFA87
:103210000BB030BDB400002000040040034B1A681E
:1032200000235362536A8342FCD37047FC000020A2
:1032300010B5A024E405012210212000FEF72CFA8D
:103240000A20FFF7EBFF002210212000FEF724FAEE
:10325000034B1A68D36802210B43D36010BDC046EC
:10326000FC00002070B515001C00CAB2A026F605AF
:1032700001003000FEF710FAE2B229003000FEF73C
:103280000BFA70BDF8B505000C0017001E00524B7C
:103290001B78092B25D9132B2DD91D2B46D9272B6C
:1032A0005FD9312B00D879E0A02000222021C00571
:1032B000FEF7F2F9494B1B680A9A5A630B9A9A6314
:1032C000802280200023920000214001FFF7CAFFE6
:1032D00080228020012312010121C000FFF7C2FFDC
:1032E00008E0A02001222021C005FEF7D5F93C4BC3
:1032F00001221A70F8BDA02000222021C005FEF78F
:10330000CBF9364B1B685D639C63802280200023D1
:10331000920000214001FFF7A5FF802280200123B9
:1033200012010121C000FFF79DFFE3E7A02000226A
:103330002021C005FEF7B0F9284B1B685F639E6330
:10334000802280200023920000214001FFF78AFFA5
:1033500080228020012312010121C000FFF782FF9B
:10336000C8E7A02000222021C005FEF795F91B4BDD
:103370001B68069A5A63079A9A638022802000236A
:10338000920000214001FFF76DFF80228020012381
:1033900012010121C000FFF765FFABE7A02000226A
:1033A0002021C005FEF778F90C4B1B68089A5A6378
:1033B000099A9A6380228020002392000021400114
:1033C000FFF750FF80228020012312010121C0005D
:1033D000FFF748FF8EE7C04690000020B4000020B1
:1033E0000800002030B587B00400037E012B01D017
:1033F00007B030BD344B5B78002B4AD0012BF7D19E
:103400000021FFF7C9F9304B986022680021516212
:103410005B6898424FD9C01A2B4BD8602A4DE86898
:10342000FDF7EEFD294A2A4BFCF7FAFF0022294B53
:10343000FCF7F6FFFCF714FF2870AF239621FA2261
:1034400092000592244A04924B3A0392234A029234
:103450004B3A0192224A00929B00224A890022485C
:10346000FFF710FF2A7800232049214800F056FA80
:1034700000236B702268136A1E490B401362236895
:103480001A6A1A621C4B1A68D36802218B43D360F4
:10349000AEE70021FFF780F90B4B586001225A700C
:1034A0002268136A13490B4013622268136A0221CF
:1034B0000B4313629CE79842B0D2C01A0F4B9C4654
:1034C0006044014BD860A9E7900000209CC420B064
:1034D0007268A13F0000E03FCF0300006B030000D3
:1034E00007030000A30200003F020000F0410008B3
:1034F000F0000020F5FF0000FC000020FFFF0000AE
:1035000070B51D4B1B78002B01D1C04670BD1B4B05
:103510001B68AF2292005A639A6380252D01802098
:1035200000232A000021C000FFF79CFE8024A40095
:10353000802676010123220001213000FFF792FE50
:10354000FA208000FDF74AFF00232200002130000E
:10355000FFF788FEC820FDF741FF01232A00012163
:103560002000FFF77FFEAF204000FDF737FF024B42
:1035700000221A70CAE7C04608000020B4000020EC
:1035800070B59EB03822002110A800F0BFF91422B7
:1035900000210BA800F0BAF92822002101A800F0B0
:1035A000B5F913490B68134A1A4080231B011343D2
:1035B0000B60022510950126139610231493002406
:1035C0001A9410A8FEF7C6F80F230B930C960D94CF
:1035D0000E94E023DB000F9300210BA8FEF782FB83
:1035E0000195059401A8FEF777FC1EB070BDC0469A
:1035F00000700040FFE7FFFF10B5FDF7C9FEFFF7C1
:10360000BFFFFFF747FDFFF76DFDFFF7A1FDFFF7D8
:10361000B7FD00210948FEF741FF094C00212000B9
:10362000FEF710FF04212000FEF70CFFFFF700FE5D
:103630001420FDF7D3FEFFF763FFF7E7FC0000203F
:10364000B4000020054B5A6B01210A435A63996B61
:10365000802252050A439A637047C0460010024018
:1036600010B586B004001422002101A800F04EF924
:1036700022688023DB059A4201D006B010BD104AB3
:10368000916B012319439163D16A1943D162D26AC4
:1036900013400093009B80231B020193022302939B
:1036A00003330593A02001A9C005FDF727FF0022E1
:1036B00000210F20FDF7A4FE0F20FDF7D1FEDCE76F
:1036C000001002400268054B9A4200D07047044A3D
:1036D000936B02210B439363F8E7C046000400405C
:1036E0000010024010B586B004001422002101A889
:1036F00000F00CF922680C4B9A4201D006B010BDC4
:103700000A4AD16A01231943D162D26A1340009355
:10371000009BC0230193BE3B02930593A02001A907
:10372000C005FDF7EBFEE9E7000400400010024091
:1037300010B586B004001422002101A800F0E6F8BC
:103740002268144B9A4201D006B010BD124B996BFF
:10375000802292020A439A63D96A01221143D962F4
:10376000DB6A1A400092009B0C2301930A3B0293F0
:103770000133049301330593A02001A9C005FDF78F
:10378000BDFE002200211C20FDF73AFE1C20FDF7A3
:1037900067FED9E700440040001002407047FEE792
:1037A0007047704710B5FDF707FE10BD10B5024811
:1037B000FFF70DF810BDC046FC00002010B5024810
:1037C000FFF7E8F810BDC0463801002010B503002F
:1037D0000B4A1268002A08D0094A1068C3186A46C2
:1037E000934206D8064A136010BD054A0549116088
:1037F000F2E700F061F80C23036001204042F3E798
:10380000A0000020C0010020104B19688022520047
:103810000A431A60DA680E490A40DA601A680D49EC
:103820000A401A609A6801218A439A601A680A4914
:103830000A401A60DA6809490A40DA6000221A610F
:10384000074B802212059A607047C0460010024064
:103850000C40FF88F6FFF6FEFFFFFBFFFFFF02FFB5
:1038600000ED00E00D488546002103E00C4B5B585D
:10387000435004310B480C4B42189A42F6D30B4A82
:1038800002E0002313600432094B9A42F9D3FFF798
:10389000BBFF00F017F8FFF7AFFEFEE70050002077
:1038A0004042000800000020740000207400002046
:1038B000BC010020FEE70000014B18687047C046BD
:1038C0001000002070B500260C4D0D4C641BA41098
:1038D000A64209D1002600F029FC0A4D0A4C641BBF
:1038E000A410A64205D170BDB300EB58984701362D
:1038F000EEE7B300EB5898470136F2E7384200088C
:1039000038420008384200083C4200080300121800
:10391000934200D1704719700133F9E70EB400B536
:103920000B499CB01DAB0290069007910491094889
:10393000094904CB0591006802A9019300F070F8D1
:103940000023029A13701CB008BC03B01847C0468D
:10395000FFFFFF7F100000200802FFFFF0B58E6818
:1039600085B007000C00039201939E423CD890233F
:103970008A89DB001A4234D00325096923685B1A5F
:103980000293636902985D43EB0F5D19019B6D1013
:1039900001331B18AB4200D91D00530532D5290055
:1039A000380000F023FB061E09D10C233B604023A6
:1039B0000120A28940421343A38105B0F0BD029AC1
:1039C000216900F0ACFAA389144A1A4080231343FA
:1039D000A381029B2661F61826606561019EED1A9F
:1039E000A560019B9E4200D9019E32000399206888
:1039F00000F09EFAA36800209B1BA36023689E1919
:103A00002660DAE72A00380000F04EFB061EE0D1FF
:103A10002169380000F0A0FAC7E7C0467FFBFFFF2E
:103A2000F0B5A1B003901D008B890F0016001B0696
:103A300011D50B69002B0ED1402100F0D7FA386068
:103A40003861002805D10C23039A0138136021B096
:103A5000F0BD40237B61002308AC636120336376B3
:103A60001033A376079535002B78002B01D0252B3A
:103A700046D1AB1B05930CD0320039000398FFF7F9
:103A80006DFF431C00D1AEE06269059B9446634420
:103A900063612B78002B00D1A5E001220023524264
:103AA000626004A9543252186E1C2360E360A36064
:103AB0001370A36531780522534800F025FA751C70
:103AC00000281FD12268D30604D5532304A95B180C
:103AD00020211970130704D5532304A95B182B2147
:103AE000197033782A2B16D0350000210A20E3689C
:103AF0002A786E1C303A092A4ED9002918D010E0D5
:103B00000135B1E7404B2268C01A012383401343BB
:103B100023602E00CEE7079B191D1B680791002B21
:103B200001DB0B9304E05B42E36002231343236059
:103B30002B782E2B0AD16B782A2B35D1079B023597
:103B40001A1D1B680792002B2BDB09932F4E297837
:103B50000322300000F0D8F9002806D04023801B53
:103B600083402268013513432360297806222848C0
:103B70006E1C217600F0C8F900283CD0254B002BA4
:103B800025D10722079B07339343083307936369C3
:103B9000049A9B18636166E7434301219B18350033
:103BA000A6E701235B42D0E700230A201A00013573
:103BB000636029786E1C3039092903D9002BC5D0E0
:103BC0000992C3E74243012352183500F1E707ABDE
:103BD00000933A00104B2100039800E000BF0490CE
:103BE000049B0133D3D1BB890D985B0600D42EE72B
:103BF000012040422BE707AB00933A00064B21001F
:103C0000039800F079F8EAE7FC4100080242000856
:103C100006420008000000005D390008F7B51500F5
:103C200001938A680B6900900C00934200DA13003C
:103C300022002B6043321278002A01D001332B601E
:103C400023689B0602D52B6802332B600627236866
:103C50001F4027D0230043331B785A1E934122680C
:103C6000920630D42200019943320098089EB04752
:103C7000431C25D0062320682A68E16803400025FC
:103C8000042B03D18D1AEB43DB171D40A368226977
:103C9000934201DD9B1AED180027BD4220D1002080
:103CA00010E00137E3682A689B1ABB42D2DD22008C
:103CB0000123193201990098089EB047431CF0D1A6
:103CC00001204042FEBD3020E11843310870210040
:103CD0005A1C45310978A218433202331170C1E7EA
:103CE000220001231A3201990098089EB047431C14
:103CF000E6D00137D1E70000F0B589B004920A00A0
:103D000043320593039002920A7E0C000E9B6E2AAA
:103D100000D186E01FD8632A33D008D8002A00D10A
:103D20008CE0582A4DD0250042352A7030E0642AB4
:103D300001D0692AF7D1196825680A1D280629D5F6
:103D400008681A60002803DA2D23029A4042137093
:103D50006B4E0A274FE0732A74D008D86F2A1FD001
:103D6000702AE0D1202209680A43226003E0752A04
:103D700016D0782AD7D12200782145321170614EB1
:103D800022E025001A684235111D196013682B7056
:103D9000012365E008681A606906D3D500B2D1E74F
:103DA00019682568081D186008682E0605D5544E48
:103DB00008276F2A1BD00A2719E06D06F7D580B2B5
:103DC000F5E745314E4E0A7018682268011D0068FB
:103DD0001960150621D5D30702D520231A43226086
:103DE0001027002803D1202322689A432260230051
:103DF000002243331A706368A360002B58DB04224F
:103E0000216891432160002854D1029D002B5AD093
:103E10002500337842352B7055E05506DBD580B24E
:103E2000D9E71A680D68101D4969186013682E06D5
:103E300001D5196002E06D06FBD519800023029DB3
:103E400023614FE01A68111D19601568002162682E
:103E5000280000F059F8002801D0401B606063681A
:103E600023610023029A13703CE023692A0004991D
:103E70000398059DA847431C3ED023689B0715D493
:103E8000079BE068984239DA180037E022000123E6
:103E9000193204990398059EB047431C2CD0013574
:103EA000E368079A9B1AAB42F0DCE9E70025F7E7E5
:103EB0000028ADD0029D3900FCF7ACF9735C013DE0
:103EC0002B700028F7D1082F09D12368DB0706D50E
:103ED00063682269934202DC3023013D2B70029B10
:103EE0005B1B2361059B07AA00932100049B039899
:103EF000FFF794FE431CB8D10120404209B0F0BD49
:103F00000D4200081E420008C9B28218904201D139
:103F10000020704703788B42FBD00130F6E7002386
:103F200010B59A4200D110BDCC5CC4540133F8E7FF
:103F300010B5884202D98B18984203D3002307E0BA
:103F40008B5C8354013AFBD210BDCC5CC45401336A
:103F50009A42FAD1F8E7000070B50500002910D0A8
:103F60000C1F2368002B00DAE418280000F0D4F8B6
:103F70001D4A1368002B05D163601460280000F00F
:103F8000CCF870BDA34209D9216860188342F3D1EF
:103F900018685B6841182160EEE713005A68002A30
:103FA00001D0A242F9D919685818A0420BD1206853
:103FB0000918581819608242E0D1106852684118F7
:103FC00019605A60DAE7A04202D90C232B60D5E7CA
:103FD00021686018824203D110685268411821603C
:103FE00062605C60CAE7C046A8000020032370B589
:103FF000CD1C9D43083506000C2D1ED20C25A94270
:104000001DD8300000F088F8254A146821000029E6
:1040100019D1244C2368002B03D1300000F06AF83A
:1040200020602900300000F065F8431C2BD10C23E0
:104030003000336000F071F803E0002DDFDA0C236C
:104040003360002070BD0B685B1B19D40B2B03D9A8
:104050000B60CC18256003E04B688C420DD11360D7
:10406000300000F05AF8200007220B30231D904347
:10407000C31AE7D05A42E250E4E763600C00EFE76E
:104080000C004968C3E70323C41C9C43A042E1D051
:10409000211A300000F02EF8431CDBD1C7E7C046E0
:1040A000A8000020AC000020F8B507000D001600A5
:1040B000002905D11100FFF799FF04002000F8BD89
:1040C000002A03D1FFF748FF3400F7E700F026F895
:1040D0002C00B042F2D231003800FFF787FF041EF7
:1040E000ECD029003200FFF71AFF29003800FFF753
:1040F00033FFE3E7002370B5064C0500080023609A
:10410000FFF764FB431C03D12368002B00D02B6016
:1041100070BDC046B8010020704770470B1F1B6878
:10412000181F002B01DA0B58C0187047F8B5C046AD
:10413000F8BC08BC9E467047F8B5C046F8BC08BC41
:044140009E467047E0
:10414400562D0008842D00089C2D00084E2E0008D2
:10415400D42D00084E2E00084E2E00084E2E0008C6
:10416400342E0008922C0008CA2C0008E42C000805
:10417400502D00081C2D0008502D0008502D00085B
:10418400502D0008362D0008030406080C101820D2
:1041940030000000000000000000000001020304E1
:1041A400060708090000000001020304D8050008FE
:1041B400DA040008DA040008F8070008D404000848
:1041C400D4040008E0070008F8070008D404000835
:1041D400E0070008D4040008F8070008EE07000808
:1041E400EE070008EE070008FC07000825752E25D9
:1041F4007520636D200D0A00232D302B2000686C80
:104204004C006566674546470030313233343536F5
:10421400373839414243444546003031323334352E
:0C4224003637383961626364656600005B
:084230006CC0FF7F01000000DB
:04423800E900000891
:04423C00C1000008B5
:104240000100000004000000010000000000200048
:10425000140000200000000000000000000000002A
:10426000000000000000000000000000000000004E
:10427000000000000000000000000000000000003E
:10428000000000000000000000000000000000002E
:10429000000000000000000000000000000000001E
:1042A000000000000000000000000000000000000E
:0442B000000000000A
:040000050800386552
:00000001FF
