:020000040800F2
:1000000000200020212D0008E5160008E716000852
:1000100000000000000000000000000000000000E0
:10002000000000000000000000000000E9160008C9
:100030000000000000000000EB160008ED160008AC
:10004000712D000800000000712D0008712D0008BE
:10005000712D0008712D0008712D0008712D000808
:1000600000000000712D0008712D0008712D00089E
:10007000712D0008712D0008712D0008000000008E
:10008000712D0008712D000800000000712D00087E
:10009000712D0008712D0008712D0008712D0008C8
:1000A000712D0008712D0008712D0008712D0008B8
:1000B000712D00080000000000000000000000009A
:1000C00010B5064C2378002B07D1054B002B02D02E
:1000D000044800E000BF0123237010BD7000002021
:1000E00000000000E8350008044B10B5002B03D0D9
:1000F0000349044800E000BF10BDC04600000000F6
:1001000074000020E8350008002243088B4274D3B5
:1001100003098B425FD3030A8B4244D3030B8B4208
:1001200028D3030C8B420DD3FF22090212BA030C11
:100130008B4202D31212090265D0030B8B4219D3F2
:1001400000E0090AC30B8B4201D3CB03C01A524112
:10015000830B8B4201D38B03C01A5241430B8B425A
:1001600001D34B03C01A5241030B8B4201D30B0343
:10017000C01A5241C30A8B4201D3CB02C01A52416A
:10018000830A8B4201D38B02C01A5241430A8B422D
:1001900001D34B02C01A5241030A8B4201D30B0216
:1001A000C01A5241CDD2C3098B4201D3CB01C01A30
:1001B000524183098B4201D38B01C01A524143093A
:1001C0008B4201D34B01C01A524103098B4201D328
:1001D0000B01C01A5241C3088B4201D3CB00C01A95
:1001E000524183088B4201D38B00C01A524143080D
:1001F0008B4201D34B00C01A5241411A00D2014632
:10020000524110467047FFE701B5002000F006F8A4
:1002100002BDC0460029F7D076E770477047C04658
:100220009E2110B5C905041C00F088FE002803D1EA
:10023000201C00F003FB10BD9E21201CC90500F00E
:1002400039F900F0FBFA80231B069C466044F2E774
:10025000F0B54E4657464546DE46E0B543025B0ADA
:10026000450083B00F1C99462D0EC60F002D57D0A8
:10027000FF2D24D08020DB00C004184300238146DA
:100280009A469B467F3D7C027A00FB0F640A120E61
:10029000984623D0FF2A4BD0E30080240020E404BA
:1002A0007F3A1C43AD186B1C474601935346774079
:1002B0003A000F2B48D87D499B00CB589F46002B16
:1002C00000D085E008339A46063B9B467C027A00C4
:1002D000FB0FFF25640A120E9846DBD1002C00D0DC
:1002E00090E0524601231A4392460120DBE74C4638
:1002F00058461700022824D0032800D1CFE000225E
:10030000002301284DD15802D205400AFF071043AF
:10031000384303B03CBC90469946A246AB46F0BD7C
:10032000002B5BD104239A46033B00259B46AAE79A
:10033000FF35002C60D1524602231A439246022018
:10034000B1E7FF220023DEE74B461B0C9C464B46E1
:100350002604360C180461463300220C6446000C57
:1003600043434E435043544380191A0C121896428B
:1003700003D9802149028C4664441B041B0C1004E1
:10038000C01883015E1EB341800E1843130C1B1965
:100390009B0103431C00230179D5012362081C4003
:1003A0001443019A7F32002A4DDD630704D00F23E6
:1003B0002340042B00D00434230103D53C4B019A85
:1003C0001C408032FE2ABCDCA3015B0AD2B29AE751
:1003D0000C239A46093BFF259B4654E7180000F082
:1003E000B7FD4A46431F76259A4000236D42914649
:1003F0002D1A9A469B4646E7524603231A439246D5
:10040000032050E7200000F0A3FD431F2D1A9C405D
:10041000763D002047E780230027DB03FF2272E7B9
:10042000424666E74C463200584662E780234A4619
:10043000DB031A4222D01C4220D123435B025B0A19
:100440004746FF225FE701239A1A1B2A21DC23007B
:100450000199D3409E318C401A0023005C1EA341B9
:1004600013435A0704D00F221A40042A00D0043341
:100470005A0111D49B015B0A002244E780234A46BB
:10048000DB0313435B025B0A3700FF223BE7019566
:1004900087E70022002336E70122002333E7802389
:1004A000DB0323435B025B0AFF222CE79C36000838
:1004B000FFFFFFF7F8B54746CE464400C20F80B5B0
:1004C00047024802400A8446664648007F0A240ED6
:1004D000F60025009046FB00000EC90FB146FF282C
:1004E00000D185E001267140261A914257D0002E96
:1004F00043DD002800D07FE04946002900D1AAE072
:10050000013E002E00D0F7E05B1A5A0100D48BE0C8
:100510009B019C09200000F01BFD053884408542AA
:1005200000DDD3E0451B230020200135EB40451BB7
:10053000AC40621E94412343072400251C40012245
:1005400041460A40002C04D00F211940042900D054
:100550000433590100D480E00135ECB2FF2D00D006
:10056000A3E0FF2400235B02E405580AD2072043DE
:1005700010430CBC90469946F8BD002E74D1601C07
:10058000C0B2012800DCA7E04A469C1A620100D5EF
:10059000B6E0002CBED1002200240023E3E7002EA9
:1005A00000DC85E0002846D0FF2C49D08022484658
:1005B000D2041043814601221B2E09DC20204C4628
:1005C000801B84404A462000F240441EA041024362
:1005D0009B185A0128D50135FF2D00D1A8E0012232
:1005E000072494491A405B080B4013431C40A6E7BC
:1005F000002E00D078E775E7FF2C54D080224946C2
:10060000D2041143894601221B2E09DC20214846D1
:10061000891B88404A460100F240481E81410A4336
:100620009B1A5A0100D573E7012241460A40590737
:1006300000D089E711E04846002858D1FF2C0CD1A2
:10064000DB08002B00D18CE78020C00303435B0252
:100650005B0AFF2487E7FF2C25D0DB08FF2DF0D0B5
:100660005B025B0AECB27EE7002C4DD0FF2818D06D
:100670008024E404724223431B2A00DDC4E01C00F2
:100680002025D440AA1A93405A1E934123434A4638
:100690000500D31A884638E7721CF8D0F243FF28C9
:1006A000EAD10A004B46FF25D7E79B015B0A5AE7D0
:1006B000002E41D1651CE9B2012945DDFF2D00D195
:1006C0004FE707244B445B081C4038E707225A4B8E
:1006D0002D1A2340144032E7002C1DD1002B7AD173
:1006E0004B46002B00D191E00A000025B5E7013E02
:1006F000002E19D14B446CE7FF2C84D1FF25ACE7C9
:100700004A468846D41A05E7002BC5D10A00FF28BF
:10071000C8D005004B46A0E7002B49D14B46002B23
:1007200077D00A00FF2598E7FF2C00D043E787E742
:100730000A00FF24002316E7002C15D1002B57D107
:10074000FF28E6D14B467BE7002C20D1002B57D069
:100750004946002953D04B445A0168D50724364AEC
:100760001C4001251340EAE6FF28EBD08022D2048A
:10077000764213431B2E53DC2025AD1B1A00AB40E1
:10078000F2405C1EA34113434B44050021E7002BBC
:10079000D8D04946002900D152E78021C9030F4231
:1007A00000D14DE76046084200D049E74B4647E795
:1007B0004846FF25002800D14FE78022D203174288
:1007C00004D06046104201D14B4688460122414682
:1007D000FF250A4041E7484600281FD01A1A500159
:1007E00020D54A460724D31A1C4088460025A6E691
:1007F000741CC9D0F643FF28BCD14B4620E799466C
:100800004B460025DB082BE7012340E700220023AD
:10081000A9E680230022DB03FF24A4E600251CE7D1
:100820000123B1E7002AF1D013000025FCE60025E2
:10083000FAE6C046FFFFFF7DFFFFFFFB41024200DB
:10084000C30F490A120E00207E2A0DD99D2A0CD80A
:10085000802000040143952A0ADC9620821AD140A8
:100860004842002B00D108007047034A9818FBE764
:10087000963A9140F4E7C046FFFFFF7FF0B5574638
:10088000DE464E464546E0B5834606000F03480067
:1008900087B092461D003F0B400DCC0F002800D1C1
:1008A0006FE0DE4B984238D08023FF001B041F43CB
:1008B000730F3B430193DA4B0027994600239B4675
:1008C000F60081442B0369001B0B52469846490DE4
:1008D000ED0F002900D185E0D04B994200D173E0A3
:1008E0004346DA0080231B0413435246CC48520F80
:1008F00084461343524600206144D20089442100BB
:10090000694000918C46012149448A460F2F00D945
:1009100090E0C449BF00CF59BF465B463B430193BB
:1009200000D06AE102230827002681469B46C9E7DA
:1009300032005846019B61460091022800D175E0C3
:10094000032800D1FEE1012800D02CE1002300277C
:10095000002600253F032A0D3F0BB34812053A43FA
:1009600002401B051343009A5B00D1075B080B4351
:100970003000190007B03CBC90469946A246AB46F1
:10098000F0BD5B463B43019300D12FE1002F00D126
:10099000A5E1380000F0DCFA03000B3B1C2B00DD66
:1009A00096E11D22D31A5A460100DA405E46083904
:1009B0008F4013008E403B4301939C4B00271B1A32
:1009C000994600239B467DE7414653460B43934996
:1009D0008C46E144002B00D01AE10222022017438A
:1009E00000228CE7134300D10DE14346002B00D1D8
:1009F00081E1404600F0ACFA02000B3A1C2A00DD0F
:100A000072E10100434608398B4098461D239A1A2B
:100A10005346D3401A004346134352468A40494640
:100A2000081A824989468144002068E77B4B0027E9
:100A300000268EE7140C1204120C1100370C360439
:100A4000350C794328008C462E0060436044834671
:100A500056432100300C8046584679434044029169
:100A6000844506D98846802149028C46E0444146A7
:100A700002913604010C360C00048B4681191E0CC1
:100A80001B041B0C0391190079438C462800754305
:100A90006544A8465843050C45447743A94203D909
:100AA000802149028C466744290C8C463900000499
:100AB000000C2D042D186144AB4405915946049156
:100AC00001990F043F0C080C3900514342439046F2
:100AD00002008C46090C8B4662437C4344445C44D0
:100AE000A04503D98021490288464244210C88460A
:100AF00061460904090C8C4639005943434370434D
:100B00007E430F0CF6182404BE19644442448C46FC
:100B1000B34203D980235B0298464044029B61465E
:100B20009846049B370443449B46AB45AD416B421A
:100B30000D0405992D0C8C467F196744FD18A846B5
:100B40005D462D19A542A44193466442A446C34480
:100B5000DC448F42BF4198459B4193459241A44557
:100B6000A4415B427F421F43360C52426442BF198C
:100B70002243BF18624638184302D20D039913432B
:100B80006A020A43501E82416146ED0D2A434E021D
:100B90003243D90100D4B3E0012650083240024369
:100BA000DE0732435B08224C5444002C62DD5107BF
:100BB00009D00F201040042805D0101D904292410A
:100BC00052429B180200D90104D580241948E40040
:100BD000034054441848844200DD27E75E075B0267
:100BE000D2081F0B630516435B0DB2E6002399463E
:100BF0000133042700269B4664E6032301978146C0
:100C00000C279B465EE6012201201743002276E670
:100C1000032303201F43434671E6C046FF0700003D
:100C200001FCFFFFDC360008FFFF0F800DFCFFFF1B
:100C3000FF030000FFFFFFFEFE07000000238027E8
:100C400000933F030026434B83E6019B3200A446FA
:100C5000584670E6AC466EE6802701993F0339425C
:100C60002DD03B422BD11F433F033F0B0095160075
:100C7000384B6EE601252D1B382D00DD66E61F2D55
:100C800040DC35481C005044160082408440EE4051
:100C9000501E824134431443EB40620709D00F22B7
:100CA0002240042A05D02200141D94428041404273
:100CB0001B181A023ED501230027002649E680278B
:100CC000019B3F031F433F033F0B0094214B40E632
:100CD00003005A46283B9A40002601926DE658468A
:100CE00000F036F9203057E603005246283B9A4080
:100CF0001300002293E6504600F02AF920307BE6EC
:100D0000CA4650E71F201E004042041BE640202D2B
:100D100003D0124C5444A3401A43501E8241324324
:100D200007260027164009D00F200023104014008A
:100D30000428B9D122005E075B021F0BD2081643BC
:100D4000002306E680273F031F433F033F0B1600A7
:100D5000004BFEE5FF0700001E0400003E040000FB
:100D600070B500282DD0C317C5185D40C40F2800EA
:100D700000F0EEF8154B1B1A5B055B0D0A2815DD1C
:100D80000B38854000222D032D0B002110002D0370
:100D90000A0D2D0B12052A430D4D1B052A40134346
:100DA0005B00E4075B082343190070BD02002900C3
:100DB000153291400A000B21081AC5402D032D0B56
:100DC000E3E70024002300250022DEE71E040000E4
:100DD000FFFF0F80F0B54C00640D0B03621C5B0A33
:100DE000460F5205C90F1E43C500520D012A29DDC9
:100DF000374BE718FE2F1CDC002F3BDD8001431E24
:100E000098410722F3006D0F03432B431A40002A39
:100E100004D00F221A40042A00D004338022D204C6
:100E20001A4024D00137FAB2FF2F02D09B01580A92
:100E300001E0FF2200204002D205400AC90710430A
:100E40000843F0BD3543002C04D1002D0AD1002207
:100E50000020F0E7002DECD08020C0033043FF22BB
:100E6000E9E7002400235B02580AE2B2E3E7DB086B
:100E70003C00F8E73B001733F3DB80231B043343CC
:100E80001E26F61B1F2E14DD02225242D71B1A000B
:100E9000FA401700202E04D00E4A94466444A34022
:100EA0001D432B005D1EAB4107223B431A40002728
:100EB000ADE7094A2800A218954093406C1EA54151
:100EC000F04007222B4303431A4000279FE7C04608
:100ED00080FCFFFFA2FCFFFF82FCFFFF8446081C92
:100EE0006146FFE71FB500F0C7F8002801D40021D4
:100EF000C8421FBD10B500F049F84042013010BD96
:100F000010B500F0B9F8002801DB002010BD012069
:100F100010BDC04610B500F0AFF8002801DD00207C
:100F200010BD012010BDC04610B500F057F80028D4
:100F300001DC002010BD012010BDC04610B500F03E
:100F40004DF8002801DA002010BD012010BDC04678
:100F50001C2101231B04984201D3000C10391B0AE9
:100F6000984201D3000A08391B09984201D30009AD
:100F7000043902A2105C40187047C0460403020204
:100F800001010101000000000000000070B54200F6
:100F90004E024C0045026D0A120EC30F760A240E53
:100FA000C90FFF2A0FD0FF2C11D00120A24200D080
:100FB00070BDB542FCD18B420DD0002AF8D128007B
:100FC000451EA841F4E70120002DF1D1EBE70120F7
:100FD000002EEDD1E9E70020EAE7C04670B54A00EF
:100FE0004E02450244006D0A240EC30F760A120E0B
:100FF000C90FFF2C15D0FF2A0ED0002C15D1002AC6
:1010000001D1002E1CD0002D14D08B4227D00220FD
:10101000013B1840013870BD002EEED00220404246
:10102000F9E7002DFAD1FF2A0ED0002A0ED1002EAA
:10103000EDD00BE001230139994308000130EAE7C4
:101040000020002DE7D0E2E7002EE7D18B42DED171
:10105000944205DD0221581E08400138DBE70024D8
:10106000A24204DCB542D2D80020B542D3D2581EE9
:10107000012398430130CEE730B5420044024D02CF
:10108000C30F4800640A120E6D0A000EC90FFF2A32
:1010900012D0FF280CD0002A12D1002819D1002D1F
:1010A00017D1002C2BD00220013B1840013826E03C
:1010B000002DF0D0022022E0002CFBD1FF281FD011
:1010C00000281FD1002D1DD10220013B18400138FE
:1010D00015E0002C0ED08B42E5D10022904204DCBA
:1010E000AC42E0D80020AC4209D2581E01239843FC
:1010F000013004E00123013999430800013030BD7B
:10110000002DD7D18B42CED18242E7DD0221581E7D
:1011100008400138F3E7C0460023C25C0133002ACF
:10112000FBD1581E7047000070B582B02C4A2D4B81
:101130001B78137084B201235B42009302332100B9
:10114000294800F0F5FD002832D101235B420093CD
:101150000333234A2100244800F0A0FE002839D19F
:101160001F4C2378DB006078400918431F4B188020
:10117000FFF7F6FD0022FF239B05FFF77FFBFFF73C
:1011800029FE1B49FFF764F81A4B1860FFF748F86F
:1011900005006421FFF73EF80E0064212800FEF7E9
:1011A000B3FF020033001449200001F01FFE04E0E9
:1011B0000B2212490A4801F007FE094C2000FFF7F4
:1011C000ABFF012382B25B4221000D4801F0C2FC5B
:1011D00002B070BD0B220B49014801F0F5FDECE7B0
:1011E000A00000208C000020E0000020CC000020A7
:1011F0000000C842AC000020343700081C3700084B
:10120000780100202837000870B582B02C4A2D4B99
:101210001B78137084B201235B42009302332100D8
:10122000294800F085FD002832D101235B4200935C
:101230000333234A2100244800F030FE002839D12E
:101240001F4C2378DB006078400918431F4B18803F
:10125000FFF786FD0022FF239B05FFF70FFBFFF73B
:10126000B9FD1B49FEF7F4FF1A4B1860FEF7D8FFD3
:1012700005006421FEF7CEFF0E0064212800FEF772
:1012800043FF020033001449200001F0AFFD04E0E9
:101290000B2212490A4801F097FD094C2000FFF784
:1012A0003BFF012382B25B4221000D4801F052FC5A
:1012B00002B070BD0B220B49014801F085FDECE73F
:1012C000B00000208C0000202C010020BC00002079
:1012D0000000C842D0000020483700081C37000832
:1012E000780100202837000810B59AB001A92D48D0
:1012F0000B00020013CA13C313CA13C31168196089
:101300009188998092799A7145220021232068441E
:1013100001F063FD244B1B78244A1370244A137098
:101320009020FFF701FF9E20FFF7FEFE9820FFF7B9
:10133000FBFE9220FFF7F8FE9620FFF7F5FE9C20BB
:10134000FFF7F2FE9A20FFF7EFFE9420FFF7ECFE86
:10135000184C6423642201A9200001F0FBFB9020BB
:10136000FFF752FF9E20FFF74FFF9820FFF74CFF3B
:101370009220FFF749FF9620FFF746FF9C20FFF7DA
:1013800043FF9A20FFF740FF9420FFF73DFF6423BF
:10139000642201A9200001F0DDFB074800F012FAE9
:1013A000BEE7C046003600088C000020A0000020E8
:1013B000B0000020780100208813000010B588B02C
:1013C0001422002103A801F008FD134B5969802065
:1013D0008002014359615A6902400192019A5A6997
:1013E0008021C9020A435A615B690B400293029B48
:1013F0009024E40500222021200000F007FB202398
:1014000003931F3B049300230593069303A9200035
:1014100000F038FA08B010BD0010024072B6FEE7C6
:1014200010B51248124B0360124B436000238360D7
:101430000122C260036143618361C361036200F002
:1014400011FC00280CD10021084800F0DDFD002827
:1014500008D10021054800F003FE002804D110BD8A
:10146000FFF7DCFFFFF7DAFFFFF7D8FFE00000200F
:10147000005400400E09002010B51248124B0360C2
:10148000124B4360002383600122C2600361436109
:101490008361C361036200F0E5FB00280CD10021E9
:1014A000084800F0B1FD002808D10021054800F0EF
:1014B000D7FD002804D110BDFFF7B0FFFFF7AEFF46
:1014C000FFF7ACFF2C010020005800400E0900205F
:1014D00010B50B480B4B0360E1235B024360002314
:1014E0008360C36003610C2242618361C361036254
:1014F000436201F0DFFB002800D110BDFFF78EFF33
:10150000780100200044004000B595B02C22002155
:1015100009A801F062FC1022002104A801F05DFC82
:1015200010220021684601F058FC02230893013B79
:101530000B930F330C9308A800F0BCFD002816D1C4
:10154000072304930023059306930793002104A81F
:1015500001F034F800280CD12023009300230393DA
:10156000684601F0D9F8002805D115B000BDFFF795
:1015700055FFFFF753FFFFF751FF10B500F000F9DB
:10158000FFF7C2FFFFF71AFFFFF74AFFFFF774FFED
:10159000FFF79EFFFFF7A8FEFEE7000082B00A4BB0
:1015A000996901221143996199690A400092009A50
:1015B000DA69802149050A43DA61DB690B4001934E
:1015C000019B02B07047C0460010024010B58AB0BF
:1015D00004001422002105A801F0FFFB2368254A1E
:1015E000934204D0244A934222D00AB010BD234C27
:1015F00062698021C9020A43626163690B400193F9
:10160000019BC0230593AE3B0693113B0793032236
:101610000892099305A91A4800F034F9E26980217B
:1016200089030A43E261E3690B400293029BDCE712
:10163000124C62698021C9020A43626163690B40EE
:101640000393039BC0231B01059312230693113BB5
:10165000079303220892099305A9094800F012F99B
:10166000E2698021C9030A43E261E3690B40049304
:10167000049BBAE7005400400058004000100240AC
:101680000004004810B588B004001422002103A80B
:1016900001F0A3FB2268114B9A4201D008B010BDA3
:1016A0000F4BD969802292021143D961D969114047
:1016B000019101995969114359615B691A4002927C
:1016C000029B0C2303930A3B0493013B0793902056
:1016D00003A9C00500F0D6F8E0E7C046004400408A
:1016E00000100240FEE7FEE77047704710B500F0BB
:1016F00057F810BD10B503000B4A1268002A08D035
:10170000094A1068C3186A46934206D8064A13600D
:1017100010BD054A05491160F2E701F02BFB0C23CF
:10172000036001204042F3E79000002008020020FF
:101730007047000010B504000F4B1978FA208000A4
:10174000FEF7E2FC01000D4B1868FEF7DDFC00F02F
:101750007DF800280DD1032C01D901200AE00130C9
:1017600000222100404200F03FF8034B5C60002063
:1017700000E0012010BDC046040000200000002051
:1017800010B5064A136810210B4313600020FFF7C1
:10179000D1FFFFF703FF002010BDC046002002402C
:1017A000034A1168034B1B785B1813607047C046EF
:1017B000FC01002004000020014B18687047C0465F
:1017C000FC01002070B50400FFF7F6FF0500631C64
:1017D00002D0044B1B78E418FFF7EEFF401BA04239
:1017E000FAD370BD0400002070B5002811DB830817
:1017F000144DC0339B005C5903221040C000FC32E2
:1018000016008640B44389010A40824022435A515F
:1018100070BDC0B20F230340083B9B0806339B00FA
:10182000094A944663445D6803242040C000FF22B7
:1018300014008440A5438901114081402943596027
:10184000E6E7C04600E100E000ED00E001380A4BA9
:1018500098420FD8094A50600948036A1B021B0AC4
:10186000C02109060B430362002393600733136012
:10187000002070470120FCE7FFFFFF0010E000E0C0
:1018800000ED00E0F0B583B0002357E085685F000D
:101890000326BE40B5432E00CD68BD40354385606C
:1018A0004568A5434C682609012434409C402C43DC
:1018B000446051E0DD080835AD002E5805341C4069
:1018C000A4000F27A740BE430F69A7403C00344344
:1018D0002C5055E0032600E00026AE4035003D4385
:1018E0000234A400434EA551434C2568D4432E0036
:1018F00026404F68FF0301D515432E003E4D2E6054
:101900006D682E0026404F68BF0301D515432E0099
:10191000394D6E60AD682E0026404F68FF0201D53C
:1019200015432E00344DAE60ED682C404E68B60273
:1019300001D52A431400304AD46001330A681400E8
:10194000DC4055D001249C402240F6D003254E684F
:101950003540013D012D99D903244D682C40032CBD
:1019600009D0C4685E000325B540AC4325008C68EF
:10197000B4402C43C46003244D682C40022C99D001
:1019800005685E0003242700B740BD434F683C4014
:10199000B4402C430460C024A4024D682542CCD03E
:1019A000164DAE6901242643AE61AD692C40019409
:1019B000019C9C08A51CAD000E4EAF5903251D408F
:1019C000AD000F26AE40B7439026F605B04283D057
:1019D0000B4EB04208D00B4EB04207D00A4EB04278
:1019E00000D177E7052678E7012676E7022674E737
:1019F00003B0F0BD000001400004014000100240AF
:101A00000004004800080048000C0048002A01D1EA
:101A1000816270478161FCE703689A69920701D58A
:101A200000229A6203689A69D20703D49A69012155
:101A30000A439A6170470000F0B5059C0568686824
:101A4000660D8027FF003740054E3E43B0438905B1
:101A5000890D120411430B43234303436B60F0BD14
:101A6000FF63FF0370B504000E00150003689A6958
:101A7000D2063BD55A68920104D459688022D2011B
:101A80000A435A6023689A69920615D4731CF9D0E8
:101A9000FFF792FE401BB04201D8002EF2D1636CDA
:101AA0002022134363644123E25400232232A354CF
:101AB000023AA354012018E01022DA61236820259D
:101AC000DD612000FFF7A8FF2268536808490B403A
:101AD0005360636C0422134363644123E554002381
:101AE0003E32A354023AA354012070BD0020FCE70B
:101AF00000E800FE70B504000D00160023689B6925
:101B00009B071CD4320029002000FFF7ABFF002800
:101B100017D16B1CF2D0FFF74FFE801BA84201D8F3
:101B2000002DEBD1636C2022134363644123E25404
:101B300000232232A354023AA354012000E00020E3
:101B400070BD0120FCE7F8B506000C0017001D0071
:101B500033689B6923401B1B5A425341BB4216D139
:101B60006B1CF5D0FFF728FE069BC01AA84201D8CF
:101B7000002DEDD1736C2022134373644123F25482
:101B800000232232B354023AB354012000E0002073
:101B9000F8BD70B505000C0016002B689B699B060C
:101BA0001AD4320021002800FFF75CFF002815D16D
:101BB000FFF702FE801BA04201D8002CEDD16B6C18
:101BC000202213436B644123EA5400232232AB5496
:101BD000023AAB54012070BD0020FCE70120FAE777
:101BE00070B504000D00160023689B695B0733D4B1
:101BF000320029002000FFF735FF00282ED123688E
:101C00009A69920611D4FFF7D7FD801BA84201D82C
:101C1000002DE9D1636C2022134363644123E25415
:101C2000013B0022E254012070BD9A69520702D59F
:101C3000228D002AF8D12022DA6121684B680848F9
:101C400003404B6000236364412162542232A35459
:101C5000023AA3540120E7E70020E5E70120E3E78B
:101C600000E800FE10B5041E59D04123C35C002BD0
:101C700043D041232422E2542268136801218B437C
:101C800013602268274B61680B40136122689368D8
:101C900025490B409360E368012B34D022688423EC
:101CA0001B02A1680B439360E368022B32D02268C9
:101CB00051681E4B0B4353602268D3681A490B408E
:101CC000D360236962691343A26912022168134336
:101CD000CB602268E369216A0B43136022681368B2
:101CE00001210B4313600023636441221F31A1547F
:101CF00023630132A354002010BD40330022C2549C
:101D0000FFF764FCB5E7226880231B02A1680B4340
:101D10009360C9E72368802212015A60C7E7012057
:101D2000EAE7C046FFFFFFF0FF7FFFFF00800002F1
:101D3000F0B585B00500039117001E004123C35C78
:101D4000202B00D099E02033C35C012B00D197E019
:101D500040230122C254FFF72FFD04008021009090
:101D60001923012209022800FFF7EDFE002800D008
:101D700088E041232122EA540133113AEA54002336
:101D80006B646F626E856B636B8D9BB2FF2B0BD99F
:101D9000FF232B857F3B3F4A00925B04FF22039980
:101DA0002800FFF749FE18E06A8D92B22A85802349
:101DB000D2B2384900919B0403992800FFF73CFEFA
:101DC0000BE06A8D92B22A858023D2B20021009165
:101DD0009B0403992800FFF72FFE6B8D9BB2002B0D
:101DE00034D022000A992800FFF784FE00284BD146
:101DF0002B686A6A12789A626B6A01336B626B8D28
:101E0000013B9BB26B852B8D013B9BB22B856A8D71
:101E100092B2002AE1D0002BDFD100940A9B00226D
:101E200080212800FFF78FFE00282FD16B8D9BB2F9
:101E3000FF2BC6D9FF232B857F3B002200925B043A
:101E4000FF3203992800FFF7F7FDC6E722000A9941
:101E50002800FFF79EFE00281AD12B682022DA61A5
:101E600029684B680C4C23404B604123EA54002303
:101E70002232AB54023AAB5400E0022005B0F0BD70
:101E80000220FBE70120F9E70120F7E70120F5E751
:101E90000120F3E70020008000E800FEF0B585B0E7
:101EA0000500039117001E004123C35C202B00D0C6
:101EB00099E02033C35C012B00D197E0402301223D
:101EC000C254FFF779FC04008021009019230122FD
:101ED00009022800FFF737FE002800D088E04123E0
:101EE0002222EA540133123AEA5400236B646F62EF
:101EF0006E856B636B8D9BB2FF2B0BD9FF232B85FC
:101F00007F3B3F4A00925B04FF2203992800FFF7C2
:101F100093FD18E06A8D92B22A858023D2B23849A7
:101F200000919B0403992800FFF786FD0BE06A8D62
:101F300092B22A858023D2B2002100919B0403999A
:101F40002800FFF779FD6B8D9BB2002B34D0220067
:101F50000A992800FFF744FE00284BD12B685B6AE2
:101F60006A6A13706B6A01336B622B8D013B9BB203
:101F70002B856A8D013A92B26A856A8D92B2002AE7
:101F8000E1D0002BDFD100940A9B002280212800A1
:101F9000FFF7D9FD00282FD16B8D9BB2FF2BC6D93F
:101FA000FF232B857F3B002200925B04FF320399C5
:101FB0002800FFF741FDC6E722000A992800FFF735
:101FC000E8FD00281AD12B682022DA6129684B68C5
:101FD0000C4C23404B604123EA5400232232AB5483
:101FE000023AAB5400E0022005B0F0BD0220FBE74E
:101FF0000120F9E70120F7E70120F5E70120F3E7E9
:102000000024008000E800FEF0B54123C35C202BD3
:1020100020D12033C35C012B1ED040240122025565
:10202000412524234355066833689343336006688B
:1020300033680A4F3B4033600668336819433160A8
:1020400001680B6813430B6020234355002303559D
:10205000002000E00220F0BD0220FCE7FFEFFFFFC0
:10206000F0B54123C35C202B1ED12033C35C012B70
:102070001CD04024012202554125242343550668E3
:1020800033689343336006683368094F3B40090265
:102090001943316001680B6813430B6020234355DB
:1020A00000230355002000E00220F0BD0220FCE7E1
:1020B000FFF0FFFF70B582B0041E00D132E203686A
:1020C000DB0726D5AE4B5A680C231340042B18D0DF
:1020D000AB4B5A680C231340082B0ED06368012BBE
:1020E0003CD0002B51D1A64B1A68A6490A401A6071
:1020F0001A68A5490A401A6036E0A14B5B68DB0309
:10210000ECD59F4B1B689B0303D56368002B00D164
:102110000BE223689B0773D5994B5B680C221A422C
:102120005DD0974B5A680C231340082B53D0E368BB
:10213000002B00D186E0924A136801210B43136003
:10214000FFF73AFB05008E4B1B689B0771D4FFF726
:1021500033FB401B0228F6D90320E4E1884A1168CA
:1021600080235B020B4313606368002B25D0FFF7CD
:1021700023FB0500824B1B689B03CAD4FFF71CFBA3
:10218000401B6428F6D90320CDE1052B09D07C4BF8
:102190001A687C490A401A601A687B490A401A602A
:1021A000E2E7774B19688022D2020A431A60196865
:1021B000802252020A431A60D6E7FFF7FDFA0500B3
:1021C0006F4B1B689B03A4D5FFF7F6FA401B6428EE
:1021D000F6D90320A7E16A4B5B68DB03A7D4684B01
:1021E0001B689B0704D5E368012B01D001209AE10D
:1021F00063490B68F82293432269D20013430B60B2
:1022000023681B0744D5E369002B2ED05C4A536A30
:1022100001210B435362FFF7CFFA0500584B5B6A6D
:102220009B0735D4FFF7C8FA401B0228F6D90320D4
:1022300079E153490B68F82293432269D200134392
:102240000B60DDE74E4A136801218B431360FFF7F3
:10225000B3FA05004A4B1B689B07D1D5FFF7ACFAD0
:10226000401B0228F6D903205DE1454A536A01214B
:102270008B435362FFF7A0FA0500414B5B6A9B0753
:1022800006D5FFF799FA401B0228F6D903204AE148
:1022900023685B0700D47FE0394BDB69DB001DD48A
:1022A000374AD169802040050143D161D369034099
:1022B0000193019B0125354B1B68DB0510D5A368F5
:1022C000012B21D0002B36D12D4B1A6A01218A43D4
:1022D0001A621A6A03318A431A621AE00025EAE791
:1022E0002A4A116880235B000B431360FFF764FAEE
:1022F0000600264B1B68DB05E1D4FFF75DFA801B67
:102300006428F6D903200EE11D4A136A01210B430C
:102310001362A368002B24D0FFF74EFA0600184B77
:102320001B6A9B0736D4FFF747FA801B184B98426D
:10233000F5D90320F7E0052B09D0114B1A6A0121CA
:102340008A431A621A6A03318A431A62E1E70C4B24
:102350001A6A04210A431A621A6A03390A431A6282
:10236000D7E7FFF729FA0600054B1B6A9B0711D533
:10237000FFF722FA801B064B9842F5D90320D2E0E2
:1023800000100240FFFFFEFFFFFFFBFF0070004058
:1023900088130000012D33D02368DB0610D5636954
:1023A000012B33D0053351D1644A536B04218B4345
:1023B0005363536BF4318B43A169C9000B435363DF
:1023C000236A002B00D1B2E05C4A51680C220A401B
:1023D000082A00D18AE0022B4FD0584A1368584986
:1023E0000B401360FFF7E8F90400544B1B689B0196
:1023F0007AD5FFF7E1F9001B0228F6D9032092E015
:102400004E4AD3694F490B40D361C5E74B4B5A6BDA
:1024100004210A435A635A6B03390A435A63FFF78C
:10242000CBF90500454B5B6B9B0706D4FFF7C4F95E
:10243000401B0228F6D9032075E040494B6BF82277
:102440009343A269D20013434B63B9E73B4B5A6BEA
:1024500004210A435A635A6B03398A435A63FFF7CC
:10246000ABF90500354B5B6B9B07A9D5FFF7A4F9CA
:10247000401B0228F6D9032055E0304A1368304942
:102480000B401360FFF798F905002C4B1B689B016C
:1024900006D5FFF791F9401B0228F6D9032042E048
:1024A000264BDA6A0F218A43E16A0A43DA625A68E4
:1024B00025490A40A16A606A01430A435A601968C3
:1024C000802252040A431A60FFF776F904001B4B7E
:1024D0001B689B0106D4FFF76FF9001B0228F6D991
:1024E000032020E000201EE000201CE0012B20D073
:1024F000124B5A68D96A80235B021340606A834298
:1025000001D001200FE00F230B40E16A8B4201D084
:10251000012008E0F0239B031A40A36A9A420AD0E4
:10252000012000E0012002B070BD0120FBE7002087
:10253000F9E70120F7E70020F5E7C0460010024068
:10254000FFFFFFFEFFFFFFEFFFFFC2FF30B589B0C7
:1025500004AA174B180032C832C2110002680A6080
:102560006A46103313CB13C21B681360114B5A68B1
:102570000C231340082B19D1910C0733194004A8E0
:10258000445C0C49C96A0B406946C95CD30308D452
:1025900063011B1B9801C01AC0000419200209B076
:1025A00030BD0548FDF7B0FD6043F8E70248F6E7A7
:1025B0007C3600080010024000127A0070B504005A
:1025C0000D00002800D181E0424B1A68012313401E
:1025D0008B420BD23F490B68012293432B430B6084
:1025E0000B681A40AA4201D0012070E023689A07C4
:1025F0000ED55B0705D5384A5168E023DB000B4355
:102600005360354A5368F0218B43A1680B435360F4
:102610002368DB072DD56368012B1ED0022B22D047
:102620002D4A1268920753D52B494A6803208243EA
:1026300013434B60FFF7C0F80600274B5B680C2282
:102640001A4063689B009A4213D0FFF7B5F8801BCD
:10265000224B9842F1D9032039E01F4A12689203B5
:10266000E2D4012033E01C4A12689201DCD401203C
:102670002DE0184B1A6801231340AB420BD91549C2
:102680000B68012293432B430B600B681A40AA424C
:1026900001D001201BE023685B0706D50E4A536872
:1026A0000F490B40E1680B435360FFF74FFF0A4BA4
:1026B0005A6812090F2313400A4AD35CD8400A4BC8
:1026C00018600020FFF736F8002000E0012070BD00
:1026D0000120FCE7002002400010024088130000A7
:1026E000FFF8FFFF6436000800000020014B186867
:1026F0007047C0460000002010B5FFF7F7FF044BFD
:102700005A68120A07231340024AD35CD84010BD0E
:10271000001002407436000870B582B004000368EF
:10272000DB0335D53C4BDB69DB0048D43A4AD16941
:10273000802040050143D161D36903400193019B8F
:102740000125364B1B68DB053BD5334B1B6AC0228A
:102750009200134013D061680A409A420FD02E4B6A
:10276000186A2F4A02401E6A8021490231431962C9
:10277000196A2C4E314019621A62C30735D4264AB1
:10278000136A27490B4061680B431362012D3BD04C
:102790002368DB0706D5204A136B03218B43A1680E
:1027A0000B43136323689B0633D51B4A136B10211D
:1027B0008B43E1680B431363002002B070BD00251A
:1027C000BFE7164A116880235B000B431360FEF7D6
:1027D000F3FF0600114B1B68DB05B6D4FEF7ECFFD8
:1027E000801B6428F6D90320E7E7FEF7E5FF060023
:1027F000094B1B6A9B07C2D4FEF7DEFF801B0A4B06
:102800009842F5D90320D8E7D36908490B40D36132
:10281000BEE70020D1E7C046001002400070004033
:10282000FFFCFFFFFFFFFEFF88130000FFFFFFEF2D
:1028300010B5040083680269134342691343C269F7
:10284000134301680A684F48024013430B60226833
:1028500053684D490B40E1680B435360226AA369FA
:102860001A4321688B684948034013438B602368EF
:10287000474A934214D0474A934225D010238022DE
:102880001202E169914223D0022B00D169E04ED9B6
:10289000042B68D0082B00D06EE0802000024CE0B2
:1028A0003D4B1A6B03231340012B09D0002B05D09D
:1028B000022B07D0032B09D01023E0E70023DEE72B
:1028C0000423DCE70823DAE70023D8E70223D6E76E
:1028D000022B2AD006D9042B24D0082B46D18020E5
:1028E000000205E0002B41D1FFF706FF00283FD092
:1028F000400063685B08C0186168FDF705FC83B29F
:102900000004000C01001039244A914232D80F22F1
:1029100093431A0040080723184010432368D860E7
:1029200000201AE0FFF712FEE0E71D48E0E7002B69
:1029300022D1FFF7E1FE002820D063685B08181859
:102940006168FDF7E1FB0004000C0200103A134B34
:102950009A4215D82368D860002000236366A366D6
:1029600010BD0F48E9E7FFF7F1FDE4E70120F4E7C8
:102970000020F2E70120F0E70120EEE70020ECE77D
:102980000120EAE7F369FFFFFFCFFFFFFFF4FFFF3E
:10299000003801400044004000100240EFFF0000FA
:1029A00000127A00436ADB0706D5026853682C4997
:1029B0000B40816A0B435360436A9B0706D502684C
:1029C000536828490B40C16A0B435360436A5B0755
:1029D00006D50268536824490B40016B0B435360D2
:1029E000436A1B0706D50268536820490B40416BB8
:1029F0000B435360436ADB0606D5026893681C49A3
:102A00000B40816B0B439360436A9B0606D50268BB
:102A1000936818490B40C16B0B439360436A5B0694
:102A20000BD50268536814490B40016C0B4353608B
:102A300080235B03026C9A420AD0436A1B0606D5C8
:102A4000026853680D490B40816C0B43536070471B
:102A5000026853680A490B40416C0B435360ECE732
:102A6000FFFFFDFFFFFFFEFFFFFFFBFFFF7FFFFFFD
:102A7000FFEFFFFFFFDFFFFFFFFFEFFFFFFFF7FFAE
:102A8000FFFF9FFFF0B5C64600B505000C0017001C
:102A90009846069E2B68DB6923401B1B5A42534114
:102AA000BB4251D1731CF5D0FEF786FE4346C01AD7
:102AB000B0422BD8002E29D02B681A685207E9D5CE
:102AC000DA691205E6D5802212011A62EFF310804E
:102AD000012282F3108829680B681D4C23400B608B
:102AE00080F31088EFF3108082F3108829688B68D8
:102AF00093438B6080F310882023AB67EB677F32B2
:102B0000AB5054330022EA5403201EE0EFF3108050
:102B1000012282F3108829680B680D4C23400B605A
:102B200080F31088EFF3108082F3108829688B6897
:102B300093438B6080F310882023AB67EB6754339B
:102B40000022EA54032000E0002004BC9046F0BDBF
:102B50005FFEFFFFF0B585B004000E0017001D00FA
:102B6000836F202B60D1002961D0002A61D080239F
:102B70005B0182689A421CD07423E35C012B5AD01B
:102B800074230122E2540C330022E2505F3BA3671E
:102B9000FEF712FE03905023E7520233E7528023E0
:102BA0005B01A2689A420BD0002774230022E254F2
:102BB00019E00369002BDFD1CB07DDD5012034E01C
:102BC0002369002B01D00027EFE737000026ECE750
:102BD0003B88DB05DB0D2268138502375222A35A9E
:102BE000013B9BB2A3525223E35A9BB2002B0FD05E
:102BF0000095039B002280212000FFF743FF00285F
:102C00001BD1002EE4D03378226813850136E5E726
:102C10000095039B002240212000FFF733FF00288E
:102C20000DD12023A36700E0022005B0F0BD0120F4
:102C3000FBE70120F9E70220F7E70320F5E703208F
:102C4000F3E7000030B583B0040080230022C250B7
:102C5000FEF7B2FD050023681B681B070DD423682F
:102C60001B685B0716D42023A367E3670023236652
:102C70007422A354002003B030BD80210C4B00937C
:102C80000300002289032000FFF7FCFE0028E6D0A5
:102C90000320F0E78021064B00932B000022C9039C
:102CA0002000FFF7EFFE0028DDD00320E3E7C04659
:102CB000FFFFFF0110B5041E2ED0836F002B21D023
:102CC0002423A3672268136801218B43136020002B
:102CD000FFF7AEFD012814D0636A002B18D12268DB
:102CE00053680E490B4053602268936808218B4358
:102CF00093602268136807390B4313602000FFF7C5
:102D0000A1FF10BD74330022C254FEF7BBFCD7E70D
:102D10002000FFF747FEE2E70120F2E7FFF7FFFFA1
:102D20000D4885460D480E490E4A002302E0D4584E
:102D3000C4500433C4188C42F9D30B4A0B4C002303
:102D400001E013600432A242FBD3FEF7F1FC00F075
:102D500017F8FEF712FCFEE700200020000000201C
:102D60007000002098370008700000200402002046
:102D7000FEE70000014B18687047C0460C000020B9
:102D800070B500260C4D0D4C641BA410A64209D151
:102D9000002600F029FC0A4D0A4C641BA410A64230
:102DA00005D170BDB300EB5898470136EEE7B3008C
:102DB000EB5898470136F2E7903700089037000843
:102DC0009037000894370008002310B59A4200D1CC
:102DD00010BDCC5CC4540133F8E7030012189342D1
:102DE00000D1704719700133F9E700000EB400B547
:102DF0000B499CB01DAB02900690079104910948C5
:102E0000094904CB0591006802A9019300F070F80C
:102E10000023029A13701CB008BC03B01847C046C8
:102E2000FFFFFF7F0C0000200802FFFFF0B58E6857
:102E300085B007000C00039201939E423CD890237A
:102E40008A89DB001A4234D00325096923685B1A9A
:102E50000293636902985D43EB0F5D19019B6D104E
:102E600001331B18AB4200D91D00530532D5290090
:102E7000380000F019FB061E09D10C233B604023EB
:102E80000120A28940421343A38105B0F0BD029AFC
:102E90002169FFF799FFA389144A1A40802313433D
:102EA000A381029B2661F61826606561019EED1ADA
:102EB000A560019B9E4200D9019E320003992068C3
:102EC00000F095FAA36800209B1BA36023689E195D
:102ED0002660DAE72A00380000F044FB061EE0D145
:102EE0002169380000F096FAC7E7C0467FFBFFFF74
:102EF000F0B5A1B003901D008B890F0016001B06D2
:102F000011D50B69002B0ED1402100F0CDFA3860AD
:102F10003861002805D10C23039A0138136021B0D1
:102F2000F0BD40237B61002308AC636120336376EE
:102F30001033A376079535002B78002B01D0252B75
:102F400046D1AB1B05930CD0320039000398FFF734
:102F50006DFF431C00D1AEE06269059B944663445B
:102F600063612B78002B00D1A5E00122002352429F
:102F7000626004A9543252186E1C2360E360A3609F
:102F80001370A36531780522534800F025FA751CAB
:102F900000281FD12268D30604D5532304A95B1847
:102FA00020211970130704D5532304A95B182B2182
:102FB000197033782A2B16D0350000210A20E368D7
:102FC0002A786E1C303A092A4ED9002918D010E010
:102FD0000135B1E7404B2268C01A012383401343F7
:102FE00023602E00CEE7079B191D1B680791002B5D
:102FF00001DB0B9304E05B42E36002231343236095
:103000002B782E2B0AD16B782A2B35D1079B0235D2
:103010001A1D1B680792002B2BDB09932F4E297872
:103020000322300000F0D8F9002806D04023801B8E
:1030300083402268013513432360297806222848FB
:103040006E1C217600F0C8F900283CD0254B002BDF
:1030500025D10722079B07339343083307936369FE
:10306000049A9B18636166E7434301219B1835006E
:10307000A6E701235B42D0E700230A201A000135AE
:10308000636029786E1C3039092903D9002BC5D01B
:103090000992C3E74243012352183500F1E707AB19
:1030A00000933A00104B2100039800E000BF049009
:1030B000049B0133D3D1BB890D985B0600D42EE766
:1030C000012040422BE707AB00933A00064B21005A
:1030D000039800F079F8EAE75C37000862370008E7
:1030E00066370008000000002D2E0008F7B5150017
:1030F00001938A680B6900900C00934200DA130078
:1031000022002B6043321278002A01D001332B6059
:1031100023689B0602D52B6802332B6006272368A1
:103120001F4027D0230043331B785A1E9341226847
:10313000920630D42200019943320098089EB0478D
:10314000431C25D0062320682A68E1680340002537
:10315000042B03D18D1AEB43DB171D40A3682269B2
:10316000934201DD9B1AED180027BD4220D10020BB
:1031700010E00137E3682A689B1ABB42D2DD2200C7
:103180000123193201990098089EB047431CF0D1E1
:1031900001204042FEBD3020E1184331087021007B
:1031A0005A1C45310978A218433202331170C1E725
:1031B000220001231A3201990098089EB047431C4F
:1031C000E6D00137D1E70000F0B589B004920A00DB
:1031D00043320593039002920A7E0C000E9B6E2AE6
:1031E00000D186E01FD8632A33D008D8002A00D146
:1031F0008CE0582A4DD0250042352A7030E0642AF0
:1032000001D0692AF7D1196825680A1D280629D531
:1032100008681A60002803DA2D23029A40421370CE
:103220006B4E0A274FE0732A74D008D86F2A1FD03C
:10323000702AE0D1202209680A43226003E0752A3F
:1032400016D0782AD7D12200782145321170614EEC
:1032500022E025001A684235111D196013682B7091
:10326000012365E008681A606906D3D500B2D1E78A
:1032700019682568081D186008682E0605D5544E83
:1032800008276F2A1BD00A2719E06D06F7D580B2F0
:10329000F5E745314E4E0A7018682268011D006836
:1032A0001960150621D5D30702D520231A432260C1
:1032B0001027002803D1202322689A43226023008C
:1032C000002243331A706368A360002B58DB04228A
:1032D000216891432160002854D1029D002B5AD0CF
:1032E0002500337842352B7055E05506DBD580B28A
:1032F000D9E71A680D68101D4969186013682E0611
:1033000001D5196002E06D06FBD519800023029DEE
:1033100023614FE01A68111D196015680021626869
:10332000280000F059F8002801D0401B6060636855
:1033300023610023029A13703CE023692A00049958
:103340000398059DA847431C3ED023689B0715D4CE
:10335000079BE068984239DA180037E02200012321
:10336000193204990398059EB047431C2CD00135AF
:10337000E368079A9B1AAB42F0DCE9E70025F7E720
:103380000028ADD0029D3900FCF744FF735C013D7D
:103390002B700028F7D1082F09D12368DB0706D549
:1033A00063682269934202DC3023013D2B70029B4B
:1033B0005B1B2361059B07AA00932100049B0398D4
:1033C000FFF794FE431CB8D10120404209B0F0BD84
:1033D0006D3700087E370008C9B28218904201D1CB
:1033E0000020704703788B42FBD00130F6E710B520
:1033F000884202D98B18984203D3002307E08B5CE4
:103400008354013AFBD210BDCC5CC45401339A42C0
:10341000FAD1F8E770B50500002910D00C1F236819
:10342000002B00DAE418280000F0D4F81D4A1368D5
:10343000002B05D163601460280000F0CCF870BD4B
:10344000A34209D9216860188342F3D118685B68E8
:1034500041182160EEE713005A68002A01D0A24209
:10346000F9D919685818A0420BD1206809185818C2
:1034700019608242E0D110685268411819605A60A0
:10348000DAE7A04202D90C232B60D5E72168601847
:10349000824203D1106852684118216062605C600A
:1034A000CAE7C04698000020032370B5CD1C9D4399
:1034B000083506000C2D1ED20C25A9421DD830005F
:1034C00000F088F8254A14682100002919D1244CFD
:1034D0002368002B03D1300000F06AF82060290037
:1034E000300000F065F8431C2BD10C233000336012
:1034F00000F071F803E0002DDFDA0C2333600020C8
:1035000070BD0B685B1B19D40B2B03D90B60CC1857
:10351000256003E04B688C420DD11360300000F051
:103520005AF8200007220B30231D9043C31AE7D01E
:103530005A42E250E4E763600C00EFE70C00496890
:10354000C3E70323C41C9C43A042E1D0211A3000EE
:1035500000F02EF8431CDBD1C7E7C04698000020DE
:103560009C000020F8B507000D001600002905D1C9
:103570001100FFF799FF04002000F8BD002A03D1D5
:10358000FFF748FF3400F7E700F026F82C00B042C0
:10359000F2D231003800FFF787FF041EECD029007B
:1035A0003200FFF711FC29003800FFF733FFE3E793
:1035B000002370B5064C050008002360FEF79AF85A
:1035C000431C03D12368002B00D02B6070BDC04684
:1035D00000020020704770470B1F1B68181F002B4C
:1035E00001DA0B58C0187047F8B5C046F8BC08BCE3
:1035F0009E467047F8B5C046F8BC08BC9E4670476A
:103600002D2D2D2D2D2D2D2D2D2D2D2D2D2D2D2DEA
:103610002D2D2D2D2D2D2D2D2D2D2D200D0A000084
:10362000000000000000000000000000000000009A
:10363000000000000000000000000000000000008A
:10364000000000000000000000000000000000007A
:10365000000000000000000000000000000000006A
:103660000000000000000000000000000102030450
:103670000607080900000000010203040203040514
:10368000060708090A0B0C0D0E0F101001020304A7
:1036900005060708090A0B0C0D0E0F104803000859
:1036A000F2020008F202000820040008EE020008FE
:1036B000EE0200081604000820040008EE020008CC
:1036C00016040008EE020008200400082404000884
:1036D00024040008240400082C040008340A00080C
:1036E0003609000836090008540C000830090008A3
:1036F000300900083C0C0008540C00083009000890
:103700003C0C000830090008540C00084A0C000862
:103710004A0C00084A0C0008580C00084572726FE9
:10372000722054780D0A00004572726F7220527830
:103730000D0A000049324331203D2025752E2532E7
:10374000752043200D0A000049324332203D2025D8
:10375000752E2532752043200D0A0000232D302BB5
:103760002000686C4C006566674546470030313282
:1037700033343536373839414243444546003031D9
:103780003233343536373839616263646566000038
:04379000E900000844
:04379400C100000868
:1037980000127A0001000000040000001000002060
:1037A8000000000000000000000000000000000011
:1037B8000000000000000000000000000000000001
:1037C80000000000000000000000000000000000F1
:1037D80000000000000000000000000000000000E1
:1037E80000000000000000000000000000000000D1
:1037F80000000000000000000000000000000000C1
:0400000508002D21A1
:00000001FF
