:020000040800F2
:1000000000000A209D1A0008E1040008E30400082B
:10001000E5040008E7040008E90400080000000007
:10002000000000000000000000000000EB040008D9
:10003000ED04000800000000EF040008F1040008CF
:10004000ED1A0008ED1A0008ED1A0008ED1A000874
:10005000ED1A0008ED1A0008ED1A0008ED1A000864
:10006000ED1A0008ED1A0008ED1A0008ED1A000854
:10007000ED1A0008ED1A0008ED1A0008ED1A000844
:10008000ED1A0008ED1A0008ED1A0008ED1A000834
:10009000ED1A0008F9040008ED1A0008ED1A00082E
:1000A000ED1A0008ED1A0008ED1A0008ED1A000814
:1000B000ED1A0008ED1A0008ED1A0008ED1A000804
:1000C000ED1A0008ED1A0008ED1A0008ED1A0008F4
:1000D000ED1A0008ED1A0008ED1A0008ED1A0008E4
:1000E000ED1A0008ED1A0008ED1A0008ED1A0008D4
:1000F000ED1A0008ED1A0008ED1A000800000000D3
:10010000ED1A0008ED1A0008ED1A0008ED1A0008B3
:10011000ED1A0008ED1A0008ED1A0008ED1A0008A3
:10012000ED1A0008ED1A0008ED1A0008ED1A000893
:10013000ED1A0008ED1A0008ED1A0008ED1A000883
:10014000ED1A0008ED1A0008ED1A0008ED1A000873
:10015000ED1A0008ED1A0008ED1A0008ED1A000863
:10016000ED1A0008ED1A0008ED1A0008ED1A000853
:10017000ED1A0008ED1A0008000000000000000061
:10018000ED1A0008ED1A0008ED1A0008ED1A000833
:10019000ED1A0008ED1A0008000000000000000041
:1001A0000000000000000000ED1A0008ED1A000831
:1001B000ED1A0008ED1A0008ED1A00080000000012
:1001C00010B5054C237833B9044B13B10448AFF391
:1001D00000800123237010BD1000002000000000EB
:1001E000481B000808B5034B1BB103490348AFF394
:1001F000008008BD0000000014000020481B00081B
:1002000010B5074C074B2246012100F04FFB236934
:10021000022B00D010BD044B01221A70FAE700BF78
:100220005C0000203C0000202C00002000B58BB0BA
:10023000012308930A220592049348F6C001009115
:1002400000220192029103920692079369460348A5
:1002500000F080FA0BB05DF804FB00BF78000020CE
:1002600010B5FFF7E3FF094C204600F0F1FA10212A
:10027000204600F0B5FB064B02221A6100229A606C
:10028000DA6040F203121A6010BD00BF780000204F
:100290004400002010B5FFF7E3FF13E04FF4804166
:1002A0000B4800F032FE0B4B187800F099F901343E
:1002B000084B5B78A342F1DC074B00221A706420E4
:1002C00000F08EF9044B1B78002BF8D00024EFE7E8
:1002D000000400483C0000202C00002030B589B00C
:1002E000002403940494059406940794184BDA6C44
:1002F00042F00402DA64DA6C02F004020192019A1C
:10030000DA6C42F00202DA64DB6C03F0020302935F
:10031000029B104D22464FF48141284600F0F0FD2B
:100320004FF4005303930C4B0493059403A90B481B
:1003300000F00AFD4FF481430393012304930594D5
:10034000069403A9284600F0FFFC09B030BD00BFA9
:10035000001002400004004800001110000800488E
:1003600072B6FEE708B50D480D4B03600A234360E3
:1003700000238360C3604FF4402202614FF4801277
:100380004261037643768376C3760377437700F042
:100390003BF900B908BDFFF7E3FF00BF780000207C
:1003A0000064004000B597B04422002105A801F088
:1003B000C3FB0023009301930293039304934FF430
:1003C000007000F0C3FD18BB1023059301220B92AF
:1003D00000230C9360230D9302230F93109211922C
:1003E0002822129213931493159305A800F016FF78
:1003F00080B90F23009303210191002302930393FB
:100400000493684601F058FA30B917B05DF804FB60
:10041000FFF7A6FFFFF7A4FFFFF7A2FF08B500F064
:10042000BDF8FFF7BFFFFFF759FFFFF79BFFFFF78F
:1004300031FFFEE782B00A4B1A6E42F001021A66E3
:100440001A6E02F001020092009A9A6D42F08052F8
:100450009A659B6D03F080530193019B02B0704736
:100460000010024000B589B0002303930493059364
:10047000069307930268184B9A4202D009B05DF8C0
:1004800004FB03F5D6339A6D42F000729A659A6DBB
:1004900002F000720192019ADA6C42F00202DA6410
:1004A000DB6C03F002030293029B4FF4407303934F
:1004B00002230493032306930923079303A9074800
:1004C00000F042FC00221146152000F0E5FB15204B
:1004D00000F016FCD2E700BF0064004000040048B2
:1004E000FEE7FEE7FEE7FEE7FEE77047704770476E
:1004F00008B500F063F808BD08B5024800F08EFAB0
:1005000008BD00BF780000200F49D1F8883043F4BF
:100510007003C1F888300D4B1A6842F001021A606E
:10052000002098601A6822F0A85222F410221A6063
:100530004FF48052DA601A6822F480221A609861BF
:100540004FF000638B60704700ED00E00010024048
:10055000104B1B780BB90120704710B504464FF4BF
:100560007A70B0FBF3F30C4A1068B0FBF3F000F0C4
:10057000D5FB68B90F2C01D901200AE000222146E1
:100580004FF0FF3000F088FB024B5C60002000E081
:10059000012010BD040000200000002010B5032041
:1005A00000F068FB0020FFF7D3FF10B101242046C4
:1005B00010BD0446FFF73EFFF9E70000034B1B7830
:1005C000034A11680B441360704700BF0400002009
:1005D000A0000020014B1868704700BFA000002059
:1005E00038B50446FFF7F6FF0546B4F1FF3F02D0E9
:1005F000044B1B781C44FFF7EDFF401BA042FAD3CD
:1006000038BD00BF04000020002800F0A18038B5EC
:10061000044690F82030D3B12268136823F0020317
:100620001360FFF7D7FF054623685A6812F0020FE0
:1006300010D0FFF7CFFF401B0A28F5D9636A43F4B7
:1006400000336362052384F82030012038BDFFF7B2
:1006500009FFE1E71A6842F001021A60FFF7BAFFEA
:10066000054623685A6812F0010F0DD1FFF7B2FF5B
:10067000401B0A28F5D9636A43F4003363620523FB
:1006800084F820300120E1E7227E012A3DD01A685B
:1006900022F080021A60637E012B3BD0226813682F
:1006A00023F040031360A37E012B39D02268136826
:1006B00023F020031360E37E012B37D022681368F8
:1006C00043F010031360237F012B35D02268136899
:1006D00023F008031360637F012B33D02268136873
:1006E00023F004031360A368E268134322691343F1
:1006F000626913436268013A21681343CB610020A9
:100700006062012384F82030A0E71A6842F080027A
:100710001A60C0E72268136843F040031360C2E721
:100720002268136843F020031360C4E7226813684B
:1007300023F010031360C6E72268136843F0080330
:100740001360C8E72268136843F004031360CAE724
:1007500001207047036890F82020013AD2B2012AA4
:1007600005D9436A43F4802343620120704770B483
:10077000D3F8002242F00102C3F800224A6902F0D5
:100780001F02012000FA02F2D3F81C42D0430440B9
:10079000C3F81C42CC69ACB9D3F80C420440C3F88E
:1007A0000C42CE688D884C6945EA0645483443F8CA
:1007B00034508E680D884C6945EA0645483403EB91
:1007C000C4046560CC69012C19D08C6974BBD3F862
:1007D00004420440C3F804420C696CBBD3F81442D1
:1007E0002040C3F81402096A01292BD0D3F8002253
:1007F00022F00102C3F80022002070BC7047D3F839
:100800000C421443C3F80C420E688D884C6945EACB
:100810000645483443F834508E688D894C6945EA62
:100820000645483403EBC4046560CEE7D3F80442C0
:100830001443C3F80442CFE7D3F814021043C3F8BB
:100840001402D0E7D3F81C120A43C3F81C22CDE7E8
:1008500038B590F82030DBB2012B05D0436A43F461
:1008600000234362012038BD0446022380F8203073
:100870000268136823F001031360FFF7ABFE05461F
:1008800023685B6813F0010F0DD0FFF7A3FE401B38
:100890000A28F5D9636A43F400336362052384F8B8
:1008A00020300120DFE700206062DCE730B490F800
:1008B0002040013CE4B2012C06D9436A43F4802372
:1008C0004362012030BC704700296FD10468E4689E
:1008D00014F0030F64D0056801F11B0424012C59A6
:1008E00004F004049460002C6BD1056801F11B0432
:1008F00024012C59640D1460056801F11B042401C6
:100900002D5905F00205D560056825446D6805F090
:100910000F051561056825446D68C5F307259561C8
:1009200005682C446468240C546104680A0114446A
:10093000D4F8B8411C7004681444D4F8B841C4F326
:1009400007245C7004681444D4F8B841C4F3074425
:100950009C7004681444D4F8B841240EDC70046818
:100960001444D4F8BC411C7104681444D4F8BC414C
:10097000C4F307245C7104681444D4F8BC41C4F384
:1009800007449C7104682244D2F8BC21120EDA712B
:10099000F9B90268D36843F02003D360002091E7DF
:1009A000436A43F40013436201208BE7046824691F
:1009B00014F0030F8FD1436A43F400134362012004
:1009C00080E7056801F11B0424012C59E4085460F8
:1009D00092E70268136943F020031361002071E776
:1009E00090F82030013BDBB2012B05D9436A43F478
:1009F00080234362012070470268536919435161A3
:100A000000207047704770477047704770477047C5
:100A10007047704770477047704770472DE9F84F2F
:100A2000054603685C695F689E68D3F80C90D3F84C
:100A30001080D3F818A014F0010F5AD016F0010F4F
:100A400017D001229A6016F0020F08D116F0040F99
:100A500030D116F0080F07D04FF4805B0BE0FFF7A2
:100A6000D1FF4FF0000B06E0FFF7CFFF4FF0000B78
:100A700001E04FF0000B16F4807F0BD02B684FF491
:100A800080729A6016F4007F17D116F4806F18D028
:100A90004BF4005B16F4803F2DD02B684FF480326E
:100AA0009A6016F4003F16D116F4802F17D04BF43D
:100AB000004B20E04FF4006BDDE72846FFF7A3FF73
:100AC000E8E716F4006F02D04BF4804BE2E72846CB
:100AD000FFF79CFFDEE72846FFF796FF0BE016F4D2
:100AE000002F02D04BF4803B05E02846FFF78FFF34
:100AF00001E04FF0000B14F0080F07D019F0100FB1
:100B000004D04BF4007B2B681022DA6014F0040F41
:100B100002D019F0080F60D114F0020F04D02B6836
:100B2000DB6813F0030F5FD114F0400F07D018F00B
:100B3000100F04D04BF4806B2B6810221A6114F054
:100B4000200F02D018F0080F52D114F0100F04D06B
:100B50002B681B6913F0030F51D114F4003F02D02E
:100B600017F0100F4FD114F4803F02D017F0080F88
:100B700050D114F4004F67D017F0040F61D014F473
:100B8000807F04D01AF0010F01D04BF0010B14F458
:100B9000007F04D01AF0020F01D04BF0020B14F4C6
:100BA000806F04D01AF0040F01D04BF0040B14F442
:100BB000006F46D01AF0700A43D0BAF1300F48D017
:100BC0002FD9BAF1500F47D0BAF1600F47D0BAF120
:100BD000400F31D14BF0400B2EE02B680822DA6039
:100BE0002846FFF716FF97E72846FFF711FF9BE718
:100BF0002B6808221A612846FFF70CFFA5E7284654
:100C0000FFF7FEFAA9E72B6810225A602846FFF783
:100C100002FFA8E72B6808225A602846FFF7FCFE6F
:100C2000A7E7BAF1100F05D0BAF1200F04D14BF0AD
:100C3000100B01E04BF0080B2A68936923F0700356
:100C400093612B6804225A60BBF1000F0AD1BDE802
:100C5000F88F4BF0200BEFE74BF0800BECE74BF4F9
:100C6000807BE9E76B6A43EA0B036B622846FFF778
:100C7000D4FEECE7074AD36823F4E0631B041B0CA3
:100C8000000200F4E060184340F0BF6040F4003020
:100C9000D060704700ED00E030B4174BDB68C3F361
:100CA0000223C3F10704042C28BF04241D1D062DB4
:100CB00018D9033B4FF0FF3505FA04F421EA04018B
:100CC000994005FA03F322EA0303194300280BDBDA
:100CD0000901C9B200F1604000F5614080F80013DD
:100CE00030BC70470023E5E700F00F000901C9B2EE
:100CF000024B1954F4E700BF00ED00E014ED00E0F2
:100D0000002807DB00F01F02400901239340024A3C
:100D100042F82030704700BF00E100E00138B0F138
:100D2000807F0AD2064B5860064AF02182F82310D1
:100D30000020986007221A6070470120704700BFAA
:100D400010E000E000ED00E0F0B583B0002336E0F5
:100D5000072400E00024B4403C430235644E46F8CA
:100D60002540644C2568D44304EA05064F6817F40F
:100D7000803F01D042EA05065E4D2E606D6804EAB0
:100D800005064F6817F4003F01D042EA0506594DA9
:100D90006E60AD6804EA05064F6817F4801F01D045
:100DA00042EA0506534DAE60ED682C404E6816F4DD
:100DB000001F01D042EA05044E4AD46001330A689C
:100DC00032FA03F400F0928001249C402240F5D0D6
:100DD0004D686E1E012E03D9112D01D0122D12D196
:100DE00086685F000325BD4026EA0506CD68BD4044
:100DF00035438560466826EA04064D68C5F300144D
:100E00009C4034434460C5685F000324BC40E44315
:100E100025408E68BE402E43C6604D68022D01D02D
:100E2000122D13D1DE08083650F826E003F007052E
:100E30004FEA850C0F2505FA0CF52EEA050E0D6913
:100E400005FA0CF545EA0E0540F8265005682C40D9
:100E50004D6805F00305BD402C4304604C6814F058
:100E6000805FABD0244C256E45F001052566246ECD
:100E700004F001040194019C9D08AE1C1C4C54F824
:100E8000267003F00304A6000F24B44027EA0407E9
:100E9000B0F1904F3FF45EAF184CA0421AD004F569
:100EA0008064A04218D004F58064A04216D004F5F6
:100EB0008064A04214D004F58064A04212D004F5EE
:100EC0008064A04210D004F58064A0423FF440AF9B
:100ED000082440E701243EE702243CE703243AE7E4
:100EE000042438E7052436E7062434E703B0F0BDD0
:100EF00000000140000401400010024000040048CE
:100F00000AB98162704781617047436901EA03024F
:100F100021EA030141EA0241816170470A4B1B68E3
:100F200003F4C063B3F5806F0AD0074BD3F8803069
:100F300013F4807F01D1002070474FF40070704798
:100F40004FF48060704700BF00700040002838D127
:100F50003E4B1B6803F4C063B3F5806F08D03B4A77
:100F6000D2F8803023F48073C2F8803000207047BC
:100F7000364AD2F8803023F48073C2F88030136888
:100F800023F4C06343F400731360314B1A683223B7
:100F900003FB02F32F4AA2FB03239B0C013300E067
:100FA000013B2A4A526912F4806F01D0002BF7D11D
:100FB000264B5B6913F4806F01D10020704703203A
:100FC0007047B0F5007F08D0204A136823F4C0634F
:100FD00043F480631360002070471C4B1B6803F4CC
:100FE000C063B3F5806F08D0184AD2F8803043F45C
:100FF0008073C2F8803000207047144AD2F88030E5
:1010000043F48073C2F88030136823F4C06343F460
:10101000007313600E4B1A68322303FB02F30D4A70
:10102000A2FB03239B0C013300E0013B074A5269FA
:1010300012F4806F01D0002BF7D1044B5B6913F4DD
:10104000806F01D10020704703207047007000407E
:101050000000002083DE1B431C4BDB6803F003030E
:10106000012B1CD00023194AD26802F00302022A85
:1010700028D0032A28D0154AD068C0F303100130C5
:10108000D168C1F3062103FB01F3B3FBF0F0D36891
:10109000C3F3416301335B00B0FBF3F070470B4BCC
:1010A0001B6813F0080F08D1084BD3F89430C3F332
:1010B0000323074A52F82330D5E7044B1B68C3F3D8
:1010C0000313F6E7034BD6E7034BD4E700100240C7
:1010D000601B00080024F40000127A0030B583B0D1
:1010E00005461F4B9B6D13F0805F0AD0FFF716FF7C
:1010F000B0F5007F16D07F2D1ED8702D2BD000218B
:101100001BE0174CA36D43F08053A365A36D03F060
:1011100080530193019BFFF701FFA36D23F08053E0
:10112000A365E5E7802D03D9A02D03D9022104E0B2
:10113000002102E0012100E002210A4A136823F0A5
:101140000F030B431360136803F00F038B4204D0AB
:10115000012003B030BD0121EFE70020F9E700BF17
:101160000010024000200240284A9368D26802F032
:10117000030213F00C030AD00C2B06D0042B1FD053
:10118000082B20D00020024610E0012AF6D11F4A89
:10119000126812F0080F0CD11C4AD2F89420C2F346
:1011A00003221B4951F8222043B100200C2B0DD003
:1011B0007047164A1268C2F30312F2E71046F5E7C9
:1011C00014480022F2E714480022EFE70F4BDB68D7
:1011D00003F00303022B15D0032B15D00B4BD8685B
:1011E000C0F303100130D968C1F3062102FB01F2FC
:1011F000B2FBF0F2D868C0F3416001304000B2FBAE
:10120000F0F0D5E7034AE9E7034AE7E700100240B8
:10121000601B00080024F40000127A00002800F08F
:101220002D83F0B583B00446AF4B9D6805F00C05E7
:10123000DE6806F00306036813F0100F5BD0E5B11B
:101240000C2D18D0A369002B00F0BC80A64A1368AF
:1012500043F001031360FFF7BDF90746A24B1B687B
:1012600013F0020F40F09B80FFF7B4F9C01B022877
:10127000F4D903230EE3012EE4D19B4B1B6813F03A
:10128000020F03D0A369002B00F0FB82206A964B6B
:101290001B6813F0080F5CD0934B1B6803F0F0033E
:1012A00098425DD8904B1A6842F008021A601A689A
:1012B00022F0F002216A0A431A605A6822F47F423F
:1012C000E16942EA01225A60002D61D0FFF74CFF2C
:1012D000854B9B68C3F30313844AD35C03F01F035D
:1012E000D840834B1860834B1868FFF731F90346E9
:1012F000002840F0CF82236813F0010F00F08180B6
:10130000082D75D00C2D71D06368B3F5803F00F0C7
:101310009780B3F5A02F00F09980734B1A6822F4E0
:1013200080321A601A6822F480221A606368002BE7
:1013300000F09980FFF74EF907466B4B1B6813F4DA
:10134000003F5ED1FFF746F9C01B6428F5D903239F
:10135000A0E2654BD3F894301B0903F0F0039FE73C
:10136000FFF7BCFE002840F08E825F4B1A6842F007
:1013700008021A601A6822F0F002216A0A431A6011
:101380005A6822F47F42E16942EA01225A609DE7ED
:10139000206AFFF7A3FE002898D001237AE2524B7F
:1013A0001A6842F008021A601A6822F0F002216AF4
:1013B0000A431A605A6822F47F42E16942EA012234
:1013C0005A6098E7484A136823F001031360FFF757
:1013D00001F90746444B1B6813F0020F8BD0FFF74F
:1013E000F9F8C01B0228F5D9032353E2032E8BD151
:1013F0003D4B1B6813F4003F03D06368002B00F0E3
:101400004482236813F0020F4FD0042D3CD00C2DE2
:1014100038D0E368002B78D0334A136843F48073E4
:101420001360FFF7D7F806462F4B1B6813F4806F45
:1014300062D1FFF7CFF8801B0228F5D9032329E2F8
:10144000294A136843F4803313606FE703F1804344
:10145000A3F53C331A6842F480221A601A6842F4F9
:1014600080321A6062E7FFF7B5F807461E4B1B682B
:1014700013F4003FC5D0FFF7ADF8C01B6428F5D9C1
:10148000032307E2022EC4D1174B1B6813F4806FAD
:1014900003D0E368002B00F0FA81134A536823F06D
:1014A000FE43216943EA01635360236813F0080F88
:1014B00056D06369002B3CD00B4AD2F8943043F0ED
:1014C0000103C2F89430FFF785F80646064BD3F8BF
:1014D000943013F0020F43D1FFF77CF8801B0228F1
:1014E000F4D90323D6E100BF00100240901B00088E
:1014F0000000002008000020B34A536823F0FE4398
:10150000216943EA01635360CFE7AF4A136823F4CC
:1015100080731360FFF75EF80646AB4B1B6813F44D
:10152000806FC2D0FFF756F8801B0228F5D903233D
:10153000B0E1A54AD2F8943023F00103C2F8943008
:10154000FFF748F80646A04BD3F8943013F0020F8B
:1015500006D0FFF73FF8801B0228F4D9032399E156
:10156000236813F0040F7AD0974B9B6D13F0805FC4
:101570000BD1954B9A6D42F080529A659B6D03F0AA
:1015800080530193019B012600E000268F4B1B68CE
:1015900013F4807F26D0A368012B37D0052B3DD0D4
:1015A000894BD3F8902022F00102C3F89020D3F8A1
:1015B000902022F00402C3F89020A368002B3BD0B7
:1015C000FFF708F80746804BD3F8903013F0020F6E
:1015D00044D1FEF7FFFFC01B41F288339842F2D995
:1015E000032357E1794A136843F480731360FEF7CD
:1015F000F1FF0746754B1B6813F4807FCBD1FEF7D4
:10160000E9FFC01B0228F5D9032343E16E4AD2F853
:10161000903043F00103C2F89030CEE76A4BD3F824
:10162000902042F00402C3F89020D3F8902042F0BA
:101630000102C3F89020C0E7FEF7CCFF0746624BDB
:10164000D3F8903013F0020F08D0FEF7C3FFC01B91
:1016500041F288339842F2D903231BE1E6B92368AB
:1016600013F0200F35D0636AE3B1574AD2F89830AF
:1016700043F00103C2F89830FEF7ACFF0646524B28
:10168000D3F8983013F0020F23D1FEF7A3FF801B8D
:101690000228F4D90323FDE04B4A936D23F08053D5
:1016A0009365DCE7484AD2F8983023F00103C2F88A
:1016B0009830FEF78FFF0646434BD3F8983013F06F
:1016C000020F06D0FEF786FF801B0228F4D9032301
:1016D000E0E0A36A002B00F0DC80022B27D00C2D69
:1016E00000F0E380384B1A6822F080721A601B68A1
:1016F00013F0205F04D1344AD36823F00303D3608E
:10170000314AD36823F0887323F48033D360FEF723
:1017100061FF04462C4B1B6813F0007F00F0AC8087
:10172000FEF758FF001B0228F4D90323B2E0264B32
:10173000DB6803F00301E26A91420FD00C2D00F048
:10174000AC80214B1B6813F0806F40F0A8801E4BCB
:101750001B6813F0805F3BD001239BE003F0F00295
:10176000216B0139B2EB011FE8D103F4FE42616B3A
:10177000B2EB012FE2D103F07842A16BB2EBC16F63
:10178000DCD103F4C001E26B5208013AB1EB425FD5
:10179000D4D103F0C063226C5208013AB3EB426F1C
:1017A000CCD1094B1B6813F0007F7AD1064B1A6825
:1017B00042F080721A60DA6842F08072DA60FEF7F6
:1017C00009FF044651E000BF0010024000700040D5
:1017D000374A136823F080731360FEF7FBFE05465B
:1017E000334B1B6813F0007F06D0FEF7F3FE401B5F
:1017F0000228F5D903234DE02D4AD3682D4919401D
:10180000E36A206B013843EA0013606B43EA00236C
:10181000E06B4008013843EA4053206C400801382F
:1018200043EA4063A06B43EAC0630B43D360136891
:1018300043F080731360D36843F08073D360FEF786
:10184000C9FE04461A4B1B6813F0007F06D1FEF751
:10185000C1FE001B0228F5D903231BE0002319E079
:10186000FEF7B8FE001B02281DD8114B1B6813F0B1
:10187000007FF5D000230DE000230BE00123184684
:101880007047012306E0012304E0012302E0012365
:1018900000E00023184603B0F0BD0123FAE701235E
:1018A000F8E70023F6E70323F4E70123F2E700BF9C
:1018B000001002400C809D01002800F0DE80F8B589
:1018C0000446704B1B6803F00F038B420CD26D4A29
:1018D000136823F00F030B431360136803F00F0327
:1018E0008B4201D00120F8BD0D46266816F0010696
:1018F00074D06368032B0DD0022B34D0002B46D15B
:1019000003F1804303F504331B6813F0020F30D159
:101910000120E8E75C4B1B6813F0007F01D1012038
:10192000E1E7FFF799FB594B984237D9564B9B6833
:1019300013F0F00F08D1544A936823F0F00343F0FA
:101940008003936080262EE0266816F002062AD0D7
:10195000A3682BBB4C4A936823F0F00343F0800349
:10196000936080261FE0484B1B6813F4003F00F093
:101970008680FFF7F9FB454B984213D9424A93689A
:1019800023F0F00343F08003936080260BE03E4B8E
:101990001B6813F4806FECD10120A4E7002602E05D
:1019A000002600E00026384A936823F003036168AC
:1019B0000B439360FEF70EFE0746334B9B6803F024
:1019C0000C036268B3EB820F08D0FEF703FEC01B66
:1019D00041F288339842F0D9032084E7236813F05A
:1019E000020F19D0284A936823F0F003A1680B4333
:1019F0009360244B1B6803F00F03AB4214D9214AB8
:101A0000136823F00F032B431360136803F00F03D5
:101A1000AB4209D0012066E7802EEAD11A4A9368CA
:101A200023F0F0039360E4E7236813F0040F06D07B
:101A3000154A936823F4E063E1680B4393602368DD
:101A400013F0080F07D0104A936823F460532169FC
:101A500043EAC1039360FFF787FB0B4B9B68C3F31B
:101A600003130B4AD35C03F01F03D840094B1860E3
:101A7000094B1868FEF76CFD35E70120704701201F
:101A800031E700BF002002400010024000B4C4044F
:101A9000901B00080000002008000020DFF834D070
:101AA000FEF732FD002103E00B4B5B58435004313D
:101AB0000A480B4B42189A42F6D30A4A02E0002326
:101AC00042F8043B084B9A42F9D300F011F8FEF7B4
:101AD000A5FCFEE700000A20B81B0008000000205B
:101AE0001000002010000020A4000020FEE70000ED
:101AF00070B50D4E0D4CA41BA4100025A54209D1B4
:101B00000B4E0C4C00F020F8A41BA4100025A5429D
:101B100005D170BD56F8253098470135EEE756F8E7
:101B2000253098470135F2E7A81B0008A81B0008DC
:101B3000A81B0008AC1B000802440346934200D1D6
:101B4000704703F8011BF9E7F8B500BFF8BC08BC03
:101B50009E467047F8B500BFF8BC08BC9E4670476B
:101B6000A0860100400D0300801A060000350C001D
:101B700040420F0080841E0000093D0000127A00E0
:101B80000024F40000366E010048E801006CDC021D
:101B9000000000000000000001020304060708091D
:081BA000000000000102030433
:081BA800E50100080000000047
:081BB000C10100080000000063
:101BB80000093D00010000001000000000000000C6
:0400000508001A9D38
:00000001FF
